{
  "contractName": "Factoring",
  "abi": [
    {
      "constant": true,
      "inputs": [
        {
          "name": "",
          "type": "uint8"
        }
      ],
      "name": "resourcePrices",
      "outputs": [
        {
          "name": "",
          "type": "uint256"
        }
      ],
      "payable": false,
      "stateMutability": "view",
      "type": "function"
    },
    {
      "inputs": [],
      "payable": false,
      "stateMutability": "nonpayable",
      "type": "constructor"
    },
    {
      "constant": true,
      "inputs": [
        {
          "name": "_type",
          "type": "uint8"
        }
      ],
      "name": "getResourcePrice",
      "outputs": [
        {
          "name": "",
          "type": "uint256"
        }
      ],
      "payable": false,
      "stateMutability": "view",
      "type": "function"
    }
  ],
  "bytecode": "0x608060405234801561001057600080fd5b5067016345785d8a000060008080600381111561002957fe5b60ff1660ff168152602001908152602001600020819055506702c68af0bb1400006000806001600381111561005a57fe5b60ff1660ff16815260200190815260200160002081905550670429d069189e00006000806002600381111561008b57fe5b60ff1660ff1681526020019081526020016000208190555067058d15e1762800006000806003808111156100bb57fe5b60ff1660ff1681526020019081526020016000208190555061013f806100e26000396000f30060806040526004361061004c576000357c0100000000000000000000000000000000000000000000000000000000900463ffffffff1680634bd5182214610051578063d9fe828614610095575b600080fd5b34801561005d57600080fd5b5061007f600480360381019080803560ff1690602001909291905050506100d9565b6040518082815260200191505060405180910390f35b3480156100a157600080fd5b506100c3600480360381019080803560ff1690602001909291905050506100fb565b6040518082815260200191505060405180910390f35b60008060008360ff1660ff168152602001908152602001600020549050919050565b600060205280600052604060002060009150905054815600a165627a7a72305820b4eb4a0cb261028fa82152452780b9d93c5f9800a77e249d0e92197639eae52b0029",
  "source": "pragma solidity ^0.4.24;\n\n/*\n*__/\\\\\\\\____________/\\\\\\\\________________/\\\\\\\\____________/\\\\\\\\________/\\\\\\\\\\\\_____/\\\\\\\\\\\\___________________________________________________\n* _\\/\\\\\\\\\\\\________/\\\\\\\\\\\\_______________\\/\\\\\\\\\\\\________/\\\\\\\\\\\\_______\\////\\\\\\____\\////\\\\\\___________________________________________________\n*  _\\/\\\\\\//\\\\\\____/\\\\\\//\\\\\\____/\\\\\\__/\\\\\\_\\/\\\\\\//\\\\\\____/\\\\\\//\\\\\\__/\\\\\\____\\/\\\\\\_______\\/\\\\\\_____/\\\\\\__________________________________________\n*   _\\/\\\\\\\\///\\\\\\/\\\\\\/_\\/\\\\\\___\\//\\\\\\/\\\\\\__\\/\\\\\\\\///\\\\\\/\\\\\\/_\\/\\\\\\_\\///_____\\/\\\\\\_______\\/\\\\\\____\\///______/\\\\\\\\\\_____/\\\\/\\\\\\\\\\\\____/\\\\\\\\\\\\\\\\\\\\_\n*    _\\/\\\\\\__\\///\\\\\\/___\\/\\\\\\____\\//\\\\\\\\\\___\\/\\\\\\__\\///\\\\\\/___\\/\\\\\\__/\\\\\\____\\/\\\\\\_______\\/\\\\\\_____/\\\\\\___/\\\\\\///\\\\\\__\\/\\\\\\////\\\\\\__\\/\\\\\\//////__\n*     _\\/\\\\\\____\\///_____\\/\\\\\\_____\\//\\\\\\____\\/\\\\\\____\\///_____\\/\\\\\\_\\/\\\\\\____\\/\\\\\\_______\\/\\\\\\____\\/\\\\\\__/\\\\\\__\\//\\\\\\_\\/\\\\\\__\\//\\\\\\_\\/\\\\\\\\\\\\\\\\\\\\_\n*      _\\/\\\\\\_____________\\/\\\\\\__/\\\\_/\\\\\\_____\\/\\\\\\_____________\\/\\\\\\_\\/\\\\\\____\\/\\\\\\_______\\/\\\\\\____\\/\\\\\\_\\//\\\\\\__/\\\\\\__\\/\\\\\\___\\/\\\\\\_\\////////\\\\\\_\n*       _\\/\\\\\\_____________\\/\\\\\\_\\//\\\\\\\\/______\\/\\\\\\_____________\\/\\\\\\_\\/\\\\\\__/\\\\\\\\\\\\\\\\\\__/\\\\\\\\\\\\\\\\\\_\\/\\\\\\__\\///\\\\\\\\\\/___\\/\\\\\\___\\/\\\\\\__/\\\\\\\\\\\\\\\\\\\\_\n*        _\\///______________\\///___\\////________\\///______________\\///__\\///__\\/////////__\\/////////__\\///_____\\/////_____\\///____\\///__\\//////////__\n*/\n\nimport \"./Math.sol\";\nimport \"./Ownable.sol\";\nimport \"./SafeMath.sol\";\n\ncontract Factoring {\n\n    enum FactoryType { Wood, Metal, Oil, PreciousMetal }\n\n    mapping (uint8 => uint256) public resourcePrices;\n\n    constructor() public {\n        resourcePrices[uint8(FactoryType.Wood)]         = 0.1 ether;\n        resourcePrices[uint8(FactoryType.Metal)]        = 0.2 ether;\n        resourcePrices[uint8(FactoryType.Oil)]          = 0.3 ether;\n        resourcePrices[uint8(FactoryType.PreciousMetal)]= 0.4 ether;\n    }\n\n    function getResourcePrice(uint8 _type) public view returns(uint256) {\n        return resourcePrices[_type];\n    }\n\n}\n\ncontract Improvements is Factoring {\n\n    mapping (uint8 => mapping (uint8 => Params)) public levelStack;\n    uint8 public constant levelsCount = 7;\n\n    struct Params {\n        uint256 price;      // improvements cost\n        uint256 ppm;        // products per minute\n        uint256 ppmBonus;   // bonus per minute\n    }\n\n    constructor() public {\n        // initial pricess\n        levelStack[uint8(FactoryType.Wood)][0]          = Params(0.01 ether, 10, 0);\n        levelStack[uint8(FactoryType.Metal)][0]         = Params(0.02 ether, 12, 0);\n        levelStack[uint8(FactoryType.Oil)][0]           = Params(0.03 ether, 14, 0);\n        levelStack[uint8(FactoryType.PreciousMetal)][0] = Params(0.04 ether, 16, 0);\n\n        // level 1\n        levelStack[uint8(FactoryType.Wood)][1]          = Params(0.05 ether, 20, 1);\n        levelStack[uint8(FactoryType.Metal)][1]         = Params(0.10 ether, 22, 2);\n        levelStack[uint8(FactoryType.Oil)][1]           = Params(0.15 ether, 24, 3);\n        levelStack[uint8(FactoryType.PreciousMetal)][1] = Params(0.20 ether, 26, 4);\n\n        // level 2\n        levelStack[uint8(FactoryType.Wood)][2]          = Params(0.10 ether, 30, 2);\n        levelStack[uint8(FactoryType.Metal)][2]         = Params(0.20 ether, 32, 3);\n        levelStack[uint8(FactoryType.Oil)][2]           = Params(0.30 ether, 34, 4);\n        levelStack[uint8(FactoryType.PreciousMetal)][2] = Params(0.40 ether, 36, 5);\n\n        // level 3\n        levelStack[uint8(FactoryType.Wood)][3]          = Params(0.2 ether, 40, 3);\n        levelStack[uint8(FactoryType.Metal)][3]         = Params(0.4 ether, 42, 4);\n        levelStack[uint8(FactoryType.Oil)][3]           = Params(0.6 ether, 44, 5);\n        levelStack[uint8(FactoryType.PreciousMetal)][3] = Params(0.8 ether, 46, 6);\n\n        // level 4\n        levelStack[uint8(FactoryType.Wood)][4]          = Params(0.4 ether, 50, 4);\n        levelStack[uint8(FactoryType.Metal)][4]         = Params(0.8 ether, 52, 5);\n        levelStack[uint8(FactoryType.Oil)][4]           = Params(1.2 ether, 54, 6);\n        levelStack[uint8(FactoryType.PreciousMetal)][4] = Params(1.6 ether, 56, 7);\n\n        // level 5\n        levelStack[uint8(FactoryType.Wood)][5]          = Params(0.8 ether, 60, 5);\n        levelStack[uint8(FactoryType.Metal)][5]         = Params(1.6 ether, 62, 6);\n        levelStack[uint8(FactoryType.Oil)][5]           = Params(2.4 ether, 64, 7);\n        levelStack[uint8(FactoryType.PreciousMetal)][5] = Params(3.2 ether, 66, 8);\n\n        // level 6\n        levelStack[uint8(FactoryType.Wood)][6]          = Params(1.6 ether, 70, 6);\n        levelStack[uint8(FactoryType.Metal)][6]         = Params(3.2 ether, 72, 7);\n        levelStack[uint8(FactoryType.Oil)][6]           = Params(4.8 ether, 74, 8);\n        levelStack[uint8(FactoryType.PreciousMetal)][6] = Params(6.4 ether, 76, 9);\n    }\n\n    function getPrice(FactoryType _type, uint8 _level) public view returns(uint256) {\n        return levelStack[uint8(_type)][_level].price;\n    }\n\n    function getProductsPerMinute(FactoryType _type, uint8 _level) public view returns(uint256) {\n        return levelStack[uint8(_type)][_level].ppm;\n    }\n\n    function getBonusPerMinute(FactoryType _type, uint8 _level) public view returns(uint256) {\n        return levelStack[uint8(_type)][_level].ppmBonus;\n    }\n}\n\ncontract ReferralsSystem {\n\n    struct ReferralGroup {\n        uint256 minSum;\n        uint256 maxSum;\n        uint16[] percents;\n    }\n\n    uint256 public constant minSumReferral = 0.01 ether;\n    uint256 public constant referralLevelsGroups = 3;\n    uint256 public constant referralLevelsCount = 5;\n    ReferralGroup[] public referralGroups;\n\n    constructor() public {\n        ReferralGroup memory refGroupFirsty = ReferralGroup(minSumReferral, 10 ether - 1 wei, new uint16[](referralLevelsCount));\n        refGroupFirsty.percents[0] = 300;   // 3%\n        refGroupFirsty.percents[1] = 75;    // 0.75%\n        refGroupFirsty.percents[2] = 60;    // 0.6%\n        refGroupFirsty.percents[3] = 40;    // 0.4%\n        refGroupFirsty.percents[4] = 25;    // 0.25%\n        referralGroups.push(refGroupFirsty);\n\n        ReferralGroup memory refGroupLoyalty = ReferralGroup(10 ether, 50 ether - 1 wei, new uint16[](referralLevelsCount));\n        refGroupLoyalty.percents[0] = 500;  // 5%\n        refGroupLoyalty.percents[1] = 200;  // 2%\n        refGroupLoyalty.percents[2] = 150;  // 1.5%\n        refGroupLoyalty.percents[3] = 100;  // 1%\n        refGroupLoyalty.percents[4] = 50;   // 0.5%\n        referralGroups.push(refGroupLoyalty);\n\n        ReferralGroup memory refGroupUltraPremium = ReferralGroup(50 ether, 2**256 - 1, new uint16[](referralLevelsCount));\n        refGroupUltraPremium.percents[0] = 700; // 7%\n        refGroupUltraPremium.percents[1] = 300; // 3%\n        refGroupUltraPremium.percents[2] = 250; // 2.5%\n        refGroupUltraPremium.percents[3] = 150; // 1.5%\n        refGroupUltraPremium.percents[4] = 100; // 1%\n        referralGroups.push(refGroupUltraPremium);\n    }\n\n    function getReferralPercents(uint256 _sum) public view returns(uint16[]) {\n        for (uint i = 0; i < referralLevelsGroups; i++) {\n            ReferralGroup memory group = referralGroups[i];\n            if (_sum >= group.minSum && _sum <= group.maxSum) return group.percents;\n        }\n    }\n\n    function getReferralPercentsByIndex(uint256 _index) public view returns(uint16[]) {\n        return referralGroups[_index].percents;\n    }\n\n}\n\ncontract LeaderSystem {\n    using SafeMath for uint256;\n\n    event NewLeader(uint256 _indexTable, address _addr, uint256 _index, uint256 _sum);\n    event LeadersClear(uint256 _indexTable);\n\n    uint8 public constant leadersCount = 7;\n    mapping (uint8 => uint256) public leaderBonuses;\n\n    struct LeadersTable {\n        uint256 timestampEnd;              // timestamp of closing table\n        uint256 duration;                   // duration compute\n        uint256 minSum;                     // min sum of leaders\n        address[] leaders;                  // leaders array\n        mapping (address => uint256) users; // sum all users\n    }\n\n    LeadersTable[] public leaders;\n\n    constructor() public {\n        leaderBonuses[0] = 10;  // 10%\n        leaderBonuses[1] = 7;   // 7%\n        leaderBonuses[2] = 5;   // 5%\n        leaderBonuses[3] = 3;   // 3%\n        leaderBonuses[4] = 1;   // 1%\n        leaderBonuses[5] = 0;   // 0%\n        leaderBonuses[6] = 0;   // 0%\n\n        leaders.push(LeadersTable(now + 86400, 86400, 0, new address[](leadersCount)));\n        leaders.push(LeadersTable(now + 604800, 604800, 0, new address[](leadersCount)));\n        leaders.push(LeadersTable(now + 77760000, 77760000, 0, new address[](leadersCount)));\n        leaders.push(LeadersTable(now + 31536000, 31536000, 0, new address[](leadersCount)));\n    }\n\n    function _clearLeadersTable(uint256 _indexTable) internal {\n        LeadersTable storage _leader = leaders[_indexTable];\n        leaders[_indexTable] = LeadersTable(_leader.timestampEnd + _leader.duration, _leader.duration, 0, new address[](leadersCount));\n\n        emit LeadersClear(_indexTable);\n    }\n\n    function _updateLeaders(address _addr, uint256 _value) internal returns(uint256) {\n        for (uint i = 0; i < leaders.length; i++) {\n            if (now > leaders[i].timestampEnd) _clearLeadersTable(i);\n\n            LeadersTable storage leader = leaders[i];\n            address[] storage leadersUser = leader.leaders;\n\n            uint256 newSum = leader.users[_addr].add(_value);\n            leader.users[_addr] = newSum;\n\n            if (newSum < leader.minSum) continue;\n\n            uint256 newLength = Math.min(leadersUser.length + 1, leadersCount);\n            address[] memory result = new address[](newLength);\n            bool replaced = false;\n\n            for (uint j = 0; j < newLength; j++) {\n                if (replaced == false) {\n                    if (newSum > leader.users[leadersUser[j]]) {\n                        result[j] = _addr;\n                        replaced = true;\n\n                        emit NewLeader(i, _addr, j, newSum);\n                    }\n                    else result[j] = leadersUser[j];\n                }\n                else result[j] = leadersUser[j - 1];\n            }\n\n            leader.leaders = result;\n        }\n    }\n\n    function getLeadersTableInfo(uint256 _indexTable) public view returns(uint256, uint256, uint256) {\n        return (leaders[_indexTable].timestampEnd, leaders[_indexTable].duration, leaders[_indexTable].minSum);\n    }\n\n    function getLeaders(uint256 _indexTable) public view returns(address[], uint256[]) {\n        LeadersTable storage leader = leaders[_indexTable];\n        uint256[] memory balances = new uint256[](leader.leaders.length);\n\n        for (uint i = 0; i < leader.leaders.length; i++) {\n            balances[i] = leader.users[leader.leaders[i]];\n        }\n\n        return (leader.leaders, balances);\n    }\n\n}\n\n/// @title Smart-contract of MyMillions ecosystem\n/// @author Shagaleev Alexey\ncontract MyMillions is Ownable, Improvements, ReferralsSystem, LeaderSystem {\n    using SafeMath for uint256;\n\n    event CreateUser(uint256 _index, address _address, uint256 _balance);\n    event ReferralRegister(uint256 _refferalId, uint256 _userId);\n    event ReferrerDistribute(uint256 _userId, uint256 _referrerId, uint256 _sum);\n    event Deposit(uint256 _userId, uint256 _value);\n    event PaymentProceed(uint256 _userId, uint256 _factoryId, FactoryType _factoryType, uint256 _price);\n    event CollectResources(FactoryType _type, uint256 _resources);\n    event LevelUp(uint256 _factoryId, uint8 _newLevel, uint256 _userId);\n    event Sell(uint256 _userId, uint8 _type, uint256 _sum);\n\n    struct User {\n        address addr;                                   // user address\n        uint256 balance;                                // balance of account\n        uint256 totalPay;                               // sum of all input pay\n        uint256[] resources;                            // collected resources\n        uint256[] referrersByLevel;                     // referrers user ids\n        mapping (uint8 => uint256[]) referralsByLevel;  // all referrals user ids\n    }\n\n    User[] public users;\n    mapping (address => uint256) public addressToUser;\n\n    struct Factory {\n        FactoryType ftype;  // factory type\n        uint8 level;        // factory level\n        uint256 collected_at; // timestamp updated\n    }\n\n    Factory[] public factories;\n    mapping (uint256 => uint256) public factoryToUser;\n    mapping (uint256 => uint256[]) public userToFactories;\n\n    modifier onlyExistingUser() {\n        require(addressToUser[msg.sender] != 0);\n        _;\n    }\n\n    constructor() public payable {\n        users.push(User(0x0, 0, 0, new uint256[](4), new uint256[](referralLevelsCount)));  // for find by addressToUser map\n    }\n\n    // @dev register for only new users with min pay\n    /// @return id of new user\n    function register() public payable returns(uint256) {\n        require(addressToUser[msg.sender] == 0);\n\n        uint256 index = users.push(User(msg.sender, msg.value, 0, new uint256[](4), new uint256[](referralLevelsCount))) - 1;\n        addressToUser[msg.sender] = index;\n\n        emit CreateUser(index, msg.sender, msg.value);\n        return index;\n    }\n\n\n    /// @notice just registry by referral link\n    /// @param _refId the ID of the user who gets the affiliate fee\n    /// @return id of new user\n    function registerWithRefID(uint256 _refId) public payable returns(uint256) {\n        require(_refId < users.length);\n\n        uint256 index = register();\n        _updateReferrals(index, _refId);\n\n        emit ReferralRegister(_refId, index);\n        return index;\n    }\n\n    /// @notice update referrersByLevel and referralsByLevel of new user\n    /// @param _newUserId the ID of the new user\n    /// @param _refUserId the ID of the user who gets the affiliate fee\n    function _updateReferrals(uint256 _newUserId, uint256 _refUserId) private {\n        if (_newUserId == _refUserId) return;\n        users[_newUserId].referrersByLevel[0] = _refUserId;\n\n        for (uint i = 1; i < referralLevelsCount; i++) {\n            uint256 _refId = users[_refUserId].referrersByLevel[i - 1];\n            users[_newUserId].referrersByLevel[i] = _refId;\n            users[_refId].referralsByLevel[uint8(i)].push(_newUserId);\n        }\n\n        users[_refUserId].referralsByLevel[0].push(_newUserId);\n    }\n\n    /// @notice distribute value of tx to referrers of user\n    /// @param _userId the ID of the user who gets the affiliate fee\n    /// @param _sum value of ethereum for distribute to referrers of user\n    function _distributeReferrers(uint256 _userId, uint256 _sum) private {\n        if (users[_userId].totalPay < minSumReferral) return;\n\n        uint256[] memory referrers = users[_userId].referrersByLevel;\n        uint16[] memory percents = getReferralPercents(users[_userId].totalPay);\n\n        for (uint i = 0; i < referralLevelsCount; i++) {\n            if (referrers[i] == 0) break;\n\n            uint256 value = _sum * percents[i] / 10000;\n            users[referrers[i]].balance = users[referrers[i]].balance.add(value);\n\n            emit ReferrerDistribute(_userId, referrers[i], value);\n        }\n    }\n\n    /// @notice deposit ethereum for user\n    /// @return balance value of user\n    function deposit() public payable returns(uint256) {\n        uint256 userId = addressToUser[msg.sender];\n        users[userId].balance = users[userId].balance.add(msg.value);\n\n        // distribute\n        _distributeInvestment(msg.value);\n        _updateLeaders(msg.sender, msg.value);\n\n        emit Deposit(userId, msg.value);\n        return users[userId].balance;\n    }\n\n    /// @notice getter for balance of user\n    /// @return balance value of user\n    function balanceOf() public view returns (uint256) {\n        return users[addressToUser[msg.sender]].balance;\n    }\n\n    /// @notice getter for resources of user\n    /// @return resources value of user\n    function resoucesOf() public view returns (uint256[]) {\n        return users[addressToUser[msg.sender]].resources;\n    }\n\n    /// @notice getter for referrers of user\n    /// @return array of referrers id\n    function referrersOf() public view returns (uint256[]) {\n        return users[addressToUser[msg.sender]].referrersByLevel;\n    }\n\n    /// @notice getter for referrals of user by level\n    /// @param _level level of referrals user needed\n    /// @return array of referrals id\n    function referralsOf(uint8 _level) public view returns (uint256[]) {\n        return users[addressToUser[msg.sender]].referralsByLevel[uint8(_level)];\n    }\n\n    /// @notice getter for extended information of user\n    /// @param _userId id of user needed\n    /// @return address of user\n    /// @return balance of user\n    /// @return totalPay of user\n    /// @return array of resources user\n    /// @return array of referrers id user\n    function userInfo(uint256 _userId) public view returns(address, uint256, uint256, uint256[], uint256[]) {\n        User memory user = users[_userId];\n        return (user.addr, user.balance, user.totalPay, user.resources, user.referrersByLevel);\n    }\n\n    /// @notice mechanics of buying any factory\n    /// @param _type type of factory needed\n    /// @return id of new factory\n    function buyFactory(FactoryType _type) public payable returns (uint256) {\n        uint256 userId = addressToUser[msg.sender];\n\n        // if user not registered\n        if (addressToUser[msg.sender] == 0)\n            userId = register();\n\n        return _paymentProceed(userId, Factory(_type, 0, now));\n    }\n\n    /// @notice buy wood factory\n    /// @dev wrapper over buyFactory for FactoryType.Wood\n    /// @return id of new factory\n    function buyWoodFactory() public payable returns (uint256) {\n        return buyFactory(FactoryType.Wood);\n    }\n\n    /// @notice buy wood factory\n    /// @dev wrapper over buyFactory for FactoryType.Metal\n    /// @return id of new factory\n    function buyMetalFactory() public payable returns (uint256) {\n        return buyFactory(FactoryType.Metal);\n    }\n\n    /// @notice buy wood factory\n    /// @dev wrapper over buyFactory for FactoryType.Oil\n    /// @return id of new factory\n    function buyOilFactory() public payable returns (uint256) {\n        return buyFactory(FactoryType.Oil);\n    }\n\n    /// @notice buy wood factory\n    /// @dev wrapper over buyFactory for FactoryType.PreciousMetal\n    /// @return id of new factory\n    function buyPreciousMetal() public payable returns (uint256) {\n        return buyFactory(FactoryType.PreciousMetal);\n    }\n\n    /// @notice distribute investment when user buy anything\n    /// @param _value value of investment\n    function _distributeInvestment(uint256 _value) private {\n        developers.transfer(msg.value * developersPercent / 100);\n    }\n\n    /// @notice function of proceed payment\n    /// @dev for only buy new factory\n    /// @return id of new factory\n    function _paymentProceed(uint256 _userId, Factory _factory) private returns(uint256) {\n        User storage user = users[_userId];\n\n        require(_checkPayment(user, _factory.ftype, _factory.level));\n\n        uint256 price = getPrice(FactoryType.Wood, 0);\n        user.balance = user.balance.add(msg.value);\n        user.balance = user.balance.sub(price);\n        user.totalPay = user.totalPay.add(price);\n\n        uint256 index = factories.push(_factory) - 1;\n        factoryToUser[index] = _userId;\n        userToFactories[_userId].push(index);\n\n        // distribute\n        _distributeInvestment(msg.value);\n        _distributeReferrers(_userId, price);\n        _updateLeaders(msg.sender, msg.value);\n\n        emit PaymentProceed(_userId, index, _factory.ftype, price);\n        return index;\n    }\n\n    /// @notice check available investment\n    /// @return true if user does enough balance for investment\n    function _checkPayment(User _user, FactoryType _type, uint8 _level) private view returns(bool) {\n        uint256 totalBalance = _user.balance.add(msg.value);\n\n        if (totalBalance < getPrice(_type, _level)) return false;\n\n        return true;\n    }\n\n    /// @notice level up for factory\n    /// @param _factoryId id of factory\n    function levelUp(uint256 _factoryId) public payable {\n        Factory storage factory = factories[_factoryId];\n        uint256 price = getPrice(factory.ftype, factory.level + 1);\n\n        uint256 userId = addressToUser[msg.sender];\n        User storage user = users[userId];\n\n        require(_checkPayment(user, factory.ftype, factory.level + 1));\n\n        // payment\n        user.balance = user.balance.add(msg.value);\n        user.balance = user.balance.sub(price);\n        user.totalPay = user.totalPay.add(price);\n\n        // collect\n        _collectResource(factory, user);\n        factory.level++;\n\n        emit LevelUp(_factoryId, factory.level, userId);\n    }\n\n    /// @notice sell resources of user with type\n    /// @param _type type of resources\n    /// @return sum of sell\n    function sellResources(uint8 _type) public returns (uint256) {\n        uint256 userId = addressToUser[msg.sender];\n        uint256 sum = Math.min(users[userId].resources[_type] * getResourcePrice(_type), address(this).balance);\n        users[userId].resources[_type] = 0;\n\n        msg.sender.transfer(sum);\n\n        emit Sell(userId, _type, sum);\n        return sum;\n    }\n\n    /// @notice function for compute worktime factory\n    /// @param _collected_at timestamp of start\n    /// @return duration minutes\n    function worktimeAtDate(uint256 _collected_at) public view returns(uint256) {\n        return (now - _collected_at) / 60;\n    }\n\n    /// @notice function for compute duration work factory\n    /// @param _factoryId id of factory\n    /// @return timestamp of duration\n    function worktime(uint256 _factoryId) public view returns(uint256) {\n        return worktimeAtDate(factories[_factoryId].collected_at);\n    }\n\n    /// @notice function for compute resource factory at time\n    /// @param _type type of factory\n    /// @param _level level of factory\n    /// @param _collected_at timestamp for collect\n    /// @return count of resources\n    function _resourcesAtTime(FactoryType _type, uint8 _level, uint256 _collected_at) public view returns(uint256) {\n        return worktimeAtDate(_collected_at) * (getProductsPerMinute(_type, _level) + getBonusPerMinute(_type, _level));\n    }\n\n    /// @notice function for compute resource factory at time\n    /// @dev wrapper over _resourcesAtTime\n    /// @param _factoryId id of factory\n    /// @return count of resources\n    function resourcesAtTime(uint256 _factoryId) public view returns(uint256) {\n        Factory storage factory = factories[_factoryId];\n        return _resourcesAtTime(factory.ftype, factory.level, factory.collected_at);\n    }\n\n    /// @notice function for collect resource\n    /// @param _factory factory object\n    /// @param _user user object\n    /// @return count of resources\n    function _collectResource(Factory storage _factory, User storage _user) internal returns(uint256) {\n        uint256 resources = _resourcesAtTime(_factory.ftype, _factory.level, _factory.collected_at);\n        _user.resources[uint8(_factory.ftype)] = _user.resources[uint8(_factory.ftype)].add(resources);\n        _factory.collected_at = now;\n\n        emit CollectResources(_factory.ftype, resources);\n        return resources;\n    }\n\n    /// @notice function for collect all resources from all factories\n    /// @dev wrapper over _collectResource\n    function collectResources() public onlyExistingUser {\n        uint256 index = addressToUser[msg.sender];\n        User storage user = users[index];\n        uint256[] storage factoriesIds = userToFactories[addressToUser[msg.sender]];\n\n        for (uint256 i = 0; i < factoriesIds.length; i++) {\n            _collectResource(factories[factoriesIds[i]], user);\n        }\n    }\n\n}\n",
  "sourcePath": "/Users/alexey/Projects/DApps/MyMillions/contracts/MyMillions.sol",
  "compiler": {
    "name": "solc",
    "version": "0.4.24+commit.e67f0147.Emscripten.clang"
  },
  "schemaVersion": "2.0.1",
  "updatedAt": "2018-11-19T17:39:26.273Z"
}