{
  "contractName": "LeaderSystem",
  "abi": [
    {
      "constant": true,
      "inputs": [
        {
          "name": "",
          "type": "uint8"
        }
      ],
      "name": "leaderBonuses",
      "outputs": [
        {
          "name": "",
          "type": "uint256"
        }
      ],
      "payable": false,
      "stateMutability": "view",
      "type": "function"
    },
    {
      "constant": true,
      "inputs": [],
      "name": "leadersCount",
      "outputs": [
        {
          "name": "",
          "type": "uint8"
        }
      ],
      "payable": false,
      "stateMutability": "view",
      "type": "function"
    },
    {
      "constant": true,
      "inputs": [
        {
          "name": "",
          "type": "uint256"
        }
      ],
      "name": "leaders",
      "outputs": [
        {
          "name": "timestampEnd",
          "type": "uint256"
        },
        {
          "name": "duration",
          "type": "uint256"
        },
        {
          "name": "minSum",
          "type": "uint256"
        }
      ],
      "payable": false,
      "stateMutability": "view",
      "type": "function"
    },
    {
      "anonymous": false,
      "inputs": [
        {
          "indexed": false,
          "name": "_indexTable",
          "type": "uint256"
        },
        {
          "indexed": false,
          "name": "_addr",
          "type": "address"
        },
        {
          "indexed": false,
          "name": "_index",
          "type": "uint256"
        },
        {
          "indexed": false,
          "name": "_sum",
          "type": "uint256"
        }
      ],
      "name": "NewLeader",
      "type": "event"
    },
    {
      "anonymous": false,
      "inputs": [
        {
          "indexed": false,
          "name": "_indexTable",
          "type": "uint256"
        }
      ],
      "name": "LeadersClear",
      "type": "event"
    },
    {
      "anonymous": false,
      "inputs": [
        {
          "indexed": false,
          "name": "_test",
          "type": "uint256"
        }
      ],
      "name": "Test",
      "type": "event"
    },
    {
      "constant": false,
      "inputs": [
        {
          "name": "_addr",
          "type": "address"
        },
        {
          "name": "isExist",
          "type": "bool"
        },
        {
          "name": "_indexTable",
          "type": "uint256"
        },
        {
          "name": "oldLength",
          "type": "uint256"
        },
        {
          "name": "newLength",
          "type": "uint256"
        },
        {
          "name": "newSum",
          "type": "uint256"
        },
        {
          "name": "leadersUser",
          "type": "address[]"
        }
      ],
      "name": "_insertLeader",
      "outputs": [
        {
          "name": "",
          "type": "address[]"
        }
      ],
      "payable": false,
      "stateMutability": "nonpayable",
      "type": "function"
    },
    {
      "constant": false,
      "inputs": [
        {
          "name": "_addr",
          "type": "address"
        },
        {
          "name": "isExist",
          "type": "bool"
        },
        {
          "name": "_indexTable",
          "type": "uint256"
        },
        {
          "name": "oldLength",
          "type": "uint256"
        },
        {
          "name": "newLength",
          "type": "uint256"
        },
        {
          "name": "newSum",
          "type": "uint256"
        },
        {
          "name": "leadersUser",
          "type": "address[]"
        }
      ],
      "name": "_insertLeader2",
      "outputs": [
        {
          "name": "",
          "type": "address[]"
        }
      ],
      "payable": false,
      "stateMutability": "nonpayable",
      "type": "function"
    },
    {
      "constant": true,
      "inputs": [
        {
          "name": "_indexTable",
          "type": "uint256"
        }
      ],
      "name": "getLeadersTableInfo",
      "outputs": [
        {
          "name": "",
          "type": "uint256"
        },
        {
          "name": "",
          "type": "uint256"
        },
        {
          "name": "",
          "type": "uint256"
        }
      ],
      "payable": false,
      "stateMutability": "view",
      "type": "function"
    },
    {
      "constant": true,
      "inputs": [
        {
          "name": "_indexTable",
          "type": "uint256"
        }
      ],
      "name": "getLeaders",
      "outputs": [
        {
          "name": "",
          "type": "address[]"
        },
        {
          "name": "",
          "type": "uint256[]"
        }
      ],
      "payable": false,
      "stateMutability": "view",
      "type": "function"
    },
    {
      "constant": true,
      "inputs": [
        {
          "name": "_indexTable",
          "type": "uint256"
        },
        {
          "name": "_address",
          "type": "address"
        }
      ],
      "name": "checkLeader",
      "outputs": [
        {
          "name": "",
          "type": "bool"
        }
      ],
      "payable": false,
      "stateMutability": "view",
      "type": "function"
    }
  ],
  "bytecode": "0x608060405234801561001057600080fd5b50610c73806100206000396000f30060806040526004361061008d5763ffffffff7c010000000000000000000000000000000000000000000000000000000060003504166302ceb8b381146100925780633eb1137e146100bf5780634db2a711146100f55780638fe173fd146101a6578063930efb711461026e578063a36e657714610299578063b36acfc5146102b1578063fb455c1414610329575b600080fd5b34801561009e57600080fd5b506100ad60ff60043516610361565b60408051918252519081900360200190f35b3480156100cb57600080fd5b506100d7600435610373565b60408051938452602084019290925282820152519081900360600190f35b34801561010157600080fd5b5061010d6004356103e8565b604051808060200180602001838103835285818151815260200191508051906020019060200280838360005b83811015610151578181015183820152602001610139565b50505050905001838103825284818151815260200191508051906020019060200280838360005b83811015610190578181015183820152602001610178565b5050505090500194505050505060405180910390f35b3480156101b257600080fd5b506040805160c4356004818101356020818102858101820190965281855261021e95600160a060020a03843516956024803515159660443596606435966084359660a435963696939560e4950192918291908501908490808284375094975061051e9650505050505050565b60408051602080825283518183015283519192839290830191858101910280838360005b8381101561025a578181015183820152602001610242565b505050509050019250505060405180910390f35b34801561027a57600080fd5b50610283610645565b6040805160ff9092168252519081900360200190f35b3480156102a557600080fd5b506100d760043561064a565b3480156102bd57600080fd5b506040805160c4356004818101356020818102858101820190965281855261021e95600160a060020a03843516956024803515159660443596606435966084359660a435963696939560e4950192918291908501908490808284375094975061067b9650505050505050565b34801561033557600080fd5b5061034d600435600160a060020a0360243516610904565b604080519115158252519081900360200190f35b60006020819052908152604090205481565b600080600060018481548110151561038757fe5b9060005260206000209060050201600001546001858154811015156103a857fe5b9060005260206000209060050201600101546001868154811015156103c957fe5b9060005260206000209060050201600201549250925092509193909250565b60608060006060600060018681548110151561040057fe5b906000526020600020906005020192508260030180549050604051908082528060200260200182016040528015610441578160200160208202803883390190505b509150600090505b60038301548110156104b157826004016000846003018381548110151561046c57fe5b6000918252602080832090910154600160a060020a03168352820192909252604001902054825183908390811061049f57fe5b60209081029091010152600101610449565b82600301828180548060200260200160405190810160405280929190818152602001828054801561050b57602002820191906000526020600020905b8154600160a060020a031681526001909101906020018083116104ed575b5050505050915094509450505050915091565b6060600060018781548110151561053157fe5b906000526020600020906005020190508715156105ba5760038101805460018101825560009182526020808320909101805473ffffffffffffffffffffffffffffffffffffffff1916600160a060020a038d1617905560408051928352517f63a242a632efe33c0e210e04e4173612a17efa4f16aa4890bc7e46caece80de09281900390910190a15b604080516001815290517f63a242a632efe33c0e210e04e4173612a17efa4f16aa4890bc7e46caece80de09181900360200190a16001851461060557610605816000600188036109a1565b604080516002815290517f63a242a632efe33c0e210e04e4173612a17efa4f16aa4890bc7e46caece80de09181900360200190a150979650505050505050565b600781565b600180548290811061065857fe5b600091825260209091206005909102018054600182015460029092015490925083565b60606000606060008060008060018c81548110151561069657fe5b90600052602060002090600502019550896040519080825280602002602001820160405280156106d0578160200160208202803883390190505b5094506000935060009250600091505b898210156108d6578a821015806107345750856004016000898481518110151561070657fe5b90602001906020020151600160a060020a0316600160a060020a031681526020019081526020016000205489115b156108cb575060005b8181101561078a57878181518110151561075357fe5b90602001906020020151858281518110151561076b57fe5b600160a060020a0390921660209283029091019091015260010161073d565b8d858381518110151561079957fe5b600160a060020a039092166020928302909101909101526000198a018210156108c25750600181015b8a81116108c2578a811480156107de57508c806107de5750898b145b156107e8576108c2565b83156108305787818151811015156107fc57fe5b90602001906020020151858281518110151561081457fe5b600160a060020a03909216602092830290910190910152610871565b876001820381518110151561084157fe5b90602001906020020151858281518110151561085957fe5b600160a060020a039092166020928302909101909101525b8315801561087c57508c5b80156108b057508d600160a060020a0316888281518110151561089b57fe5b90602001906020020151600160a060020a0316145b156108ba57600193505b6001016107c2565b600192506108d6565b6001909101906106e0565b82156108f35784516108f19060038801906020880190610ba1565b505b505050505050979650505050505050565b6000805b600180548590811061091657fe5b9060005260206000209060050201600301805490508110156109955782600160a060020a031660018581548110151561094b57fe5b90600052602060002090600502016003018281548110151561096957fe5b600091825260209091200154600160a060020a0316141561098d576001915061099a565b600101610908565b600091505b5092915050565b8181600060048601816003880160028686030488018154811015156109c257fe5b6000918252602080832090910154600160a060020a0316835282019290925260400190205490505b818311610b73575b808660040160008860030186815481101515610a0a57fe5b6000918252602080832090910154600160a060020a031683528201929092526040019020541015610a40576001909201916109f2565b8560040160008760030184815481101515610a5757fe5b6000918252602080832090910154600160a060020a03168352820192909252604001902054811015610a8f5760001990910190610a40565b818311610b6e5760038601805483908110610aa657fe5b600091825260209091200154600387018054600160a060020a039092169185908110610ace57fe5b600091825260209091200154600388018054600160a060020a039092169186908110610af657fe5b9060005260206000200160008960030186815481101515610b1357fe5b60009182526020909120018054600160a060020a0394851673ffffffffffffffffffffffffffffffffffffffff1990911617905581549383166101009190910a90810292021990921617905560019290920191600019909101905b6109ea565b81851015610b8657610b868686846109a1565b83831015610b9957610b998684866109a1565b505050505050565b828054828255906000526020600020908101928215610c03579160200282015b82811115610c03578251825473ffffffffffffffffffffffffffffffffffffffff1916600160a060020a03909116178255602090920191600190910190610bc1565b50610c0f929150610c13565b5090565b610c4491905b80821115610c0f57805473ffffffffffffffffffffffffffffffffffffffff19168155600101610c19565b905600a165627a7a723058208452e74751d1ff16beb97d9edf1f2b3ad0705fc38ebe8bf8a3c88d75ad4c233f0029",
  "source": "pragma solidity ^0.4.24;\n\nimport \"./Math.sol\";\nimport \"./SafeMath.sol\";\n\ncontract LeaderSystem {\n    using SafeMath for uint256;\n\n    event NewLeader(uint256 _indexTable, address _addr, uint256 _index, uint256 _sum);\n    event LeadersClear(uint256 _indexTable);\n    event Test(uint256 _test);\n\n    uint8 public constant leadersCount = 7;\n    mapping (uint8 => uint256) public leaderBonuses;\n\n    struct LeadersTable {\n        uint256 timestampEnd;              // timestamp of closing table\n        uint256 duration;                   // duration compute\n        uint256 minSum;                     // min sum of leaders\n        address[] leaders;                  // leaders array\n        mapping (address => uint256) users; // sum all users\n    }\n\n    LeadersTable[] public leaders;\n\n    function setupLeaderSystemModule() internal {\n        leaderBonuses[0] = 10;  // 10%\n        leaderBonuses[1] = 7;   // 7%\n        leaderBonuses[2] = 5;   // 5%\n        leaderBonuses[3] = 3;   // 3%\n        leaderBonuses[4] = 1;   // 1%\n        leaderBonuses[5] = 0;   // 0%\n        leaderBonuses[6] = 0;   // 0%\n\n        leaders.push(LeadersTable(now + 86400, 86400, 0, new address[](0)));\n        leaders.push(LeadersTable(now + 604800, 604800, 0, new address[](0)));\n        leaders.push(LeadersTable(now + 77760000, 77760000, 0, new address[](0)));\n        leaders.push(LeadersTable(now + 31536000, 31536000, 0, new address[](0)));\n    }\n\n    function _clearLeadersTable(uint256 _indexTable) internal {\n        LeadersTable storage _leader = leaders[_indexTable];\n        leaders[_indexTable] = LeadersTable(_leader.timestampEnd + _leader.duration, _leader.duration, 0, new address[](leadersCount));\n\n        emit LeadersClear(_indexTable);\n    }\n\n    function _insertLeader(address _addr, bool isExist, uint256 _indexTable, uint256 oldLength, uint256 newLength, uint256 newSum, address[] leadersUser) returns(address[]) {\n        LeadersTable storage leader = leaders[_indexTable];\n        address[] memory result = new address[](newLength);\n        bool isFinded = false;\n        bool isEdited = false;\n\n        for (uint256 j = 0; j < newLength; j++) {\n            if (j >= oldLength || newSum > leader.users[leadersUser[j]]) {\n                for (uint256 k = 0; k < j; k++)\n                    result[k] = leadersUser[k];\n\n                result[j] = _addr;\n\n                if (j < newLength - 1)\n                    for (k = j + 1; k <= oldLength; k++) {\n                        if (k == oldLength && (isExist || oldLength == newLength)) break;\n\n                        if (isFinded) {\n                            result[k] = leadersUser[k];\n                        }\n                        else {\n                            result[k] = leadersUser[k - 1];\n                        }\n\n                        if (!isFinded && isExist && leadersUser[k] == _addr)\n                            isFinded = true;\n                    }\n\n                isEdited = true;\n                break;\n            }\n        }\n\n        if (isEdited) leader.leaders = result;\n    }\n\n    function quickSort(LeadersTable storage leader, uint left, uint right) internal {\n        uint i = left;\n        uint j = right;\n        uint pivot = leader.users[leader.leaders[left + (right - left) / 2]];\n        while (i <= j) {\n            while (leader.users[leader.leaders[i]] < pivot) i++;\n            while (pivot < leader.users[leader.leaders[j]]) j--;\n            if (i <= j) {\n                (leader.leaders[i], leader.leaders[j]) = (leader.leaders[j], leader.leaders[i]);\n                i++;\n                j--;\n            }\n        }\n        if (left < j)\n            quickSort(leader, left, j);\n        if (i < right)\n            quickSort(leader, i, right);\n    }\n\n    function _insertLeader2(address _addr, bool isExist, uint256 _indexTable, uint256 oldLength, uint256 newLength, uint256 newSum, address[] leadersUser) returns(address[]) {\n        LeadersTable storage leader = leaders[_indexTable];\n        if (!isExist) {\n            leader.leaders.push(_addr);\n            emit Test(0);\n        }\n        emit Test(1);\n        if (newLength != 1) quickSort(leader, 0, newLength - 1);\n        emit Test(2);\n    }\n\n    function _updateLeadersTable(uint256 i, address _addr, uint256 _value) internal {\n        if (now > leaders[i].timestampEnd) _clearLeadersTable(i);\n\n        LeadersTable storage leader = leaders[i];\n        bool isExist = leader.users[_addr] >= leader.minSum;\n\n        uint256 oldSum = leader.users[_addr];\n        uint256 newSum = oldSum.add(_value);\n        leader.users[_addr] = newSum;\n\n        if (!isExist || leader.leaders.length == 0)\n        leader.leaders.push(_addr);\n\n        quickSort(leader, 0, leader.leaders.length - 1);\n        leader.minSum = leader.users[leader.leaders[0]];\n    }\n\n    function _updateLeaders(address _addr, uint256 _value) internal {\n//        for (uint i = 0; i < leaders.length; i++) {\n            _updateLeadersTable(0, _addr, _value);\n//        }\n    }\n\n    function getLeadersTableInfo(uint256 _indexTable) public view returns(uint256, uint256, uint256) {\n        return (leaders[_indexTable].timestampEnd, leaders[_indexTable].duration, leaders[_indexTable].minSum);\n    }\n\n    function getLeaders(uint256 _indexTable) public view returns(address[], uint256[]) {\n        LeadersTable storage leader = leaders[_indexTable];\n        uint256[] memory balances = new uint256[](leader.leaders.length);\n\n        for (uint i = 0; i < leader.leaders.length; i++) {\n            balances[i] = leader.users[leader.leaders[i]];\n        }\n\n        return (leader.leaders, balances);\n    }\n\n    function checkLeader(uint256 _indexTable, address _address) public view returns(bool) {\n        for (uint256 i = 0; i < leaders[_indexTable].leaders.length; i++)\n            if (leaders[_indexTable].leaders[i] == _address) return true;\n\n        return false;\n    }\n\n}",
  "sourcePath": "/Users/alexey/Projects/DApps/MyMillions/contracts/LeaderSystem.sol",
  "compiler": {
    "name": "solc",
    "version": "0.4.24+commit.e67f0147.Emscripten.clang"
  },
  "schemaVersion": "2.0.1",
  "updatedAt": "2018-12-07T22:16:07.508Z"
}