{
  "contractName": "LeaderSystem",
  "abi": [
    {
      "constant": true,
      "inputs": [
        {
          "name": "",
          "type": "uint8"
        }
      ],
      "name": "leaderBonuses",
      "outputs": [
        {
          "name": "",
          "type": "uint256"
        }
      ],
      "payable": false,
      "stateMutability": "view",
      "type": "function"
    },
    {
      "constant": true,
      "inputs": [],
      "name": "leadersCount",
      "outputs": [
        {
          "name": "",
          "type": "uint8"
        }
      ],
      "payable": false,
      "stateMutability": "view",
      "type": "function"
    },
    {
      "constant": true,
      "inputs": [
        {
          "name": "",
          "type": "uint256"
        }
      ],
      "name": "leaders",
      "outputs": [
        {
          "name": "timestampEnd",
          "type": "uint256"
        },
        {
          "name": "duration",
          "type": "uint256"
        },
        {
          "name": "minSum",
          "type": "uint256"
        }
      ],
      "payable": false,
      "stateMutability": "view",
      "type": "function"
    },
    {
      "anonymous": false,
      "inputs": [
        {
          "indexed": false,
          "name": "_indexTable",
          "type": "uint256"
        },
        {
          "indexed": false,
          "name": "_addr",
          "type": "address"
        },
        {
          "indexed": false,
          "name": "_index",
          "type": "uint256"
        },
        {
          "indexed": false,
          "name": "_sum",
          "type": "uint256"
        }
      ],
      "name": "NewLeader",
      "type": "event"
    },
    {
      "anonymous": false,
      "inputs": [
        {
          "indexed": false,
          "name": "_indexTable",
          "type": "uint256"
        }
      ],
      "name": "LeadersClear",
      "type": "event"
    },
    {
      "constant": false,
      "inputs": [
        {
          "name": "_addr",
          "type": "address"
        },
        {
          "name": "isExist",
          "type": "bool"
        },
        {
          "name": "_indexTable",
          "type": "uint256"
        },
        {
          "name": "oldLength",
          "type": "uint256"
        },
        {
          "name": "newLength",
          "type": "uint256"
        },
        {
          "name": "newSum",
          "type": "uint256"
        },
        {
          "name": "leadersUser",
          "type": "address[]"
        }
      ],
      "name": "_insertLeader",
      "outputs": [
        {
          "name": "",
          "type": "address[]"
        }
      ],
      "payable": false,
      "stateMutability": "nonpayable",
      "type": "function"
    },
    {
      "constant": true,
      "inputs": [
        {
          "name": "_indexTable",
          "type": "uint256"
        }
      ],
      "name": "getLeadersTableInfo",
      "outputs": [
        {
          "name": "",
          "type": "uint256"
        },
        {
          "name": "",
          "type": "uint256"
        },
        {
          "name": "",
          "type": "uint256"
        }
      ],
      "payable": false,
      "stateMutability": "view",
      "type": "function"
    },
    {
      "constant": true,
      "inputs": [
        {
          "name": "_indexTable",
          "type": "uint256"
        }
      ],
      "name": "getLeaders",
      "outputs": [
        {
          "name": "",
          "type": "address[]"
        },
        {
          "name": "",
          "type": "uint256[]"
        }
      ],
      "payable": false,
      "stateMutability": "view",
      "type": "function"
    }
  ],
  "bytecode": "0x608060405234801561001057600080fd5b506107e9806100206000396000f3006080604052600436106100775763ffffffff7c010000000000000000000000000000000000000000000000000000000060003504166302ceb8b3811461007c5780633eb1137e146100a95780634db2a711146100df578063930efb7114610190578063a36e6577146101bb578063b36acfc5146101d3575b600080fd5b34801561008857600080fd5b5061009760ff6004351661029b565b60408051918252519081900360200190f35b3480156100b557600080fd5b506100c16004356102ad565b60408051938452602084019290925282820152519081900360600190f35b3480156100eb57600080fd5b506100f7600435610322565b604051808060200180602001838103835285818151815260200191508051906020019060200280838360005b8381101561013b578181015183820152602001610123565b50505050905001838103825284818151815260200191508051906020019060200280838360005b8381101561017a578181015183820152602001610162565b5050505090500194505050505060405180910390f35b34801561019c57600080fd5b506101a5610458565b6040805160ff9092168252519081900360200190f35b3480156101c757600080fd5b506100c160043561045d565b3480156101df57600080fd5b506040805160c4356004818101356020818102858101820190965281855261024b95600160a060020a03843516956024803515159660443596606435966084359660a435963696939560e4950192918291908501908490808284375094975061048e9650505050505050565b60408051602080825283518183015283519192839290830191858101910280838360005b8381101561028757818101518382015260200161026f565b505050509050019250505060405180910390f35b60006020819052908152604090205481565b60008060006001848154811015156102c157fe5b9060005260206000209060050201600001546001858154811015156102e257fe5b90600052602060002090600502016001015460018681548110151561030357fe5b9060005260206000209060050201600201549250925092509193909250565b60608060006060600060018681548110151561033a57fe5b90600052602060002090600502019250826003018054905060405190808252806020026020018201604052801561037b578160200160208202803883390190505b509150600090505b60038301548110156103eb5782600401600084600301838154811015156103a657fe5b6000918252602080832090910154600160a060020a0316835282019290925260400190205482518390839081106103d957fe5b60209081029091010152600101610383565b82600301828180548060200260200160405190810160405280929190818152602001828054801561044557602002820191906000526020600020905b8154600160a060020a03168152600190910190602001808311610427575b5050505050915094509450505050915091565b600781565b600180548290811061046b57fe5b600091825260209091206005909102018054600182015460029092015490925083565b60606000606060008060008060018c8154811015156104a957fe5b90600052602060002090600502019550896040519080825280602002602001820160405280156104e3578160200160208202803883390190505b5094506000935060009250600091505b898210156106e9578a821015806105475750856004016000898481518110151561051957fe5b90602001906020020151600160a060020a0316600160a060020a031681526020019081526020016000205489115b156106de575060005b8181101561059d57878181518110151561056657fe5b90602001906020020151858281518110151561057e57fe5b600160a060020a03909216602092830290910190910152600101610550565b8d85838151811015156105ac57fe5b600160a060020a039092166020928302909101909101526000198a018210156106d55750600181015b8a81116106d5578a811480156105f157508c806105f15750898b145b156105fb576106d5565b831561064357878181518110151561060f57fe5b90602001906020020151858281518110151561062757fe5b600160a060020a03909216602092830290910190910152610684565b876001820381518110151561065457fe5b90602001906020020151858281518110151561066c57fe5b600160a060020a039092166020928302909101909101525b8315801561068f57508c5b80156106c357508d600160a060020a031688828151811015156106ae57fe5b90602001906020020151600160a060020a0316145b156106cd57600193505b6001016105d5565b600192506106e9565b6001909101906104f3565b82156107065784516107049060038801906020880190610717565b505b505050505050979650505050505050565b828054828255906000526020600020908101928215610779579160200282015b82811115610779578251825473ffffffffffffffffffffffffffffffffffffffff1916600160a060020a03909116178255602090920191600190910190610737565b50610785929150610789565b5090565b6107ba91905b8082111561078557805473ffffffffffffffffffffffffffffffffffffffff1916815560010161078f565b905600a165627a7a72305820f7dfa55f73ee043b3c9c19270f4300c1aec99fa294a01b9a3dd361d4094ea7a10029",
  "source": "pragma solidity ^0.4.24;\n\nimport \"./Math.sol\";\nimport \"./SafeMath.sol\";\n\ncontract LeaderSystem {\n    using SafeMath for uint256;\n\n    event NewLeader(uint256 _indexTable, address _addr, uint256 _index, uint256 _sum);\n    event LeadersClear(uint256 _indexTable);\n\n    uint8 public constant leadersCount = 7;\n    mapping (uint8 => uint256) public leaderBonuses;\n\n    struct LeadersTable {\n        uint256 timestampEnd;              // timestamp of closing table\n        uint256 duration;                   // duration compute\n        uint256 minSum;                     // min sum of leaders\n        address[] leaders;                  // leaders array\n        mapping (address => uint256) users; // sum all users\n    }\n\n    LeadersTable[] public leaders;\n\n    function setupLeaderSystemModule() internal {\n        leaderBonuses[0] = 10;  // 10%\n        leaderBonuses[1] = 7;   // 7%\n        leaderBonuses[2] = 5;   // 5%\n        leaderBonuses[3] = 3;   // 3%\n        leaderBonuses[4] = 1;   // 1%\n        leaderBonuses[5] = 0;   // 0%\n        leaderBonuses[6] = 0;   // 0%\n\n        leaders.push(LeadersTable(now + 86400, 86400, 0, new address[](0)));\n        leaders.push(LeadersTable(now + 604800, 604800, 0, new address[](0)));\n        leaders.push(LeadersTable(now + 77760000, 77760000, 0, new address[](0)));\n        leaders.push(LeadersTable(now + 31536000, 31536000, 0, new address[](0)));\n    }\n\n    function _clearLeadersTable(uint256 _indexTable) internal {\n        LeadersTable storage _leader = leaders[_indexTable];\n        leaders[_indexTable] = LeadersTable(_leader.timestampEnd + _leader.duration, _leader.duration, 0, new address[](0));\n\n        emit LeadersClear(_indexTable);\n    }\n\n    function _insertLeader(address _addr, bool isExist, uint256 _indexTable, uint256 oldLength, uint256 newLength, uint256 newSum, address[] leadersUser) returns(address[]) {\n        LeadersTable storage leader = leaders[_indexTable];\n        address[] memory result = new address[](newLength);\n        bool isFinded = false;\n        bool isEdited = false;\n\n        for (uint256 j = 0; j < newLength; j++) {\n            if (j >= oldLength || newSum > leader.users[leadersUser[j]]) {\n                for (uint256 k = 0; k < j; k++)\n                    result[k] = leadersUser[k];\n\n                result[j] = _addr;\n\n                if (j < newLength - 1)\n                    for (k = j + 1; k <= oldLength; k++) {\n                        if (k == oldLength && (isExist || oldLength == newLength)) break;\n\n                        if (isFinded) {\n                            result[k] = leadersUser[k];\n                        }\n                        else {\n                            result[k] = leadersUser[k - 1];\n                        }\n\n                        if (!isFinded && isExist && leadersUser[k] == _addr)\n                            isFinded = true;\n                    }\n\n                isEdited = true;\n                break;\n            }\n        }\n\n        if (isEdited) leader.leaders = result;\n    }\n\n    function quickSort(LeadersTable storage leader, int left, int right) internal {\n        int i = left;\n        int j = right;\n        if (i == j) return;\n        uint pivot = leader.users[leader.leaders[uint(left + (right - left) / 2)]];\n        while (i <= j) {\n            while (leader.users[leader.leaders[uint(i)]] > pivot) i++;\n            while (pivot > leader.users[leader.leaders[uint(j)]]) j--;\n            if (i <= j) {\n                (leader.leaders[uint(i)], leader.leaders[uint(j)]) = (leader.leaders[uint(j)], leader.leaders[uint(i)]);\n                i++;\n                j--;\n            }\n        }\n        if (left < j)\n            quickSort(leader, left, j);\n        if (i < right)\n            quickSort(leader, i, right);\n    }\n\n    function _updateLeadersTable(uint256 i, address _addr, uint256 _value) internal {\n        if (now > leaders[i].timestampEnd) _clearLeadersTable(i);\n\n        LeadersTable storage leader = leaders[i];\n        bool isExist = leader.users[_addr] >= leader.minSum;\n\n        uint256 oldSum = leader.users[_addr];\n        uint256 newSum = oldSum.add(_value);\n        leader.users[_addr] = newSum;\n\n        if (newSum < leader.minSum && leader.leaders.length == leadersCount) return;\n\n        if (!isExist || leader.leaders.length == 0) leader.leaders.push(_addr);\n\n        if (leader.leaders.length > 1) quickSort(leader, 0, int256(leader.leaders.length - 1));\n        if (leader.leaders.length > leadersCount) {\n            delete leader.leaders[leadersCount - 1];\n        }\n\n        leader.minSum = leader.users[leader.leaders[leader.leaders.length - 1]];\n    }\n\n    function _updateLeaders(address _addr, uint256 _value) internal {\n        for (uint i = 0; i < leaders.length; i++) {\n            _updateLeadersTable(i, _addr, _value);\n        }\n    }\n\n    function getLeadersTableInfo(uint256 _indexTable) public view returns(uint256, uint256, uint256) {\n        return (leaders[_indexTable].timestampEnd, leaders[_indexTable].duration, leaders[_indexTable].minSum);\n    }\n\n    function getLeaders(uint256 _indexTable) public view returns(address[], uint256[]) {\n        LeadersTable storage leader = leaders[_indexTable];\n        uint256[] memory balances = new uint256[](leader.leaders.length);\n\n        for (uint i = 0; i < leader.leaders.length; i++) {\n            balances[i] = leader.users[leader.leaders[i]];\n        }\n\n        return (leader.leaders, balances);\n    }\n\n}",
  "sourcePath": "/Users/alexey/Projects/DApps/MyMillions/contracts/LeaderSystem.sol",
  "compiler": {
    "name": "solc",
    "version": "0.4.24+commit.e67f0147.Emscripten.clang"
  },
  "schemaVersion": "2.0.1",
  "updatedAt": "2018-12-08T09:19:59.411Z"
}