{
  "contractName": "LeaderSystem",
  "abi": [
    {
      "constant": true,
      "inputs": [
        {
          "name": "",
          "type": "uint8"
        }
      ],
      "name": "leaderBonuses",
      "outputs": [
        {
          "name": "",
          "type": "uint256"
        }
      ],
      "payable": false,
      "stateMutability": "view",
      "type": "function"
    },
    {
      "constant": true,
      "inputs": [],
      "name": "leadersCount",
      "outputs": [
        {
          "name": "",
          "type": "uint8"
        }
      ],
      "payable": false,
      "stateMutability": "view",
      "type": "function"
    },
    {
      "constant": true,
      "inputs": [
        {
          "name": "",
          "type": "uint256"
        }
      ],
      "name": "leaders",
      "outputs": [
        {
          "name": "timestampEnd",
          "type": "uint256"
        },
        {
          "name": "duration",
          "type": "uint256"
        },
        {
          "name": "minSum",
          "type": "uint256"
        }
      ],
      "payable": false,
      "stateMutability": "view",
      "type": "function"
    },
    {
      "inputs": [],
      "payable": false,
      "stateMutability": "nonpayable",
      "type": "constructor"
    },
    {
      "anonymous": false,
      "inputs": [
        {
          "indexed": false,
          "name": "_indexTable",
          "type": "uint256"
        },
        {
          "indexed": false,
          "name": "_addr",
          "type": "address"
        },
        {
          "indexed": false,
          "name": "_index",
          "type": "uint256"
        },
        {
          "indexed": false,
          "name": "_sum",
          "type": "uint256"
        }
      ],
      "name": "NewLeader",
      "type": "event"
    },
    {
      "anonymous": false,
      "inputs": [
        {
          "indexed": false,
          "name": "_indexTable",
          "type": "uint256"
        }
      ],
      "name": "LeadersClear",
      "type": "event"
    },
    {
      "constant": true,
      "inputs": [
        {
          "name": "_indexTable",
          "type": "uint256"
        }
      ],
      "name": "getLeadersTableInfo",
      "outputs": [
        {
          "name": "",
          "type": "uint256"
        },
        {
          "name": "",
          "type": "uint256"
        },
        {
          "name": "",
          "type": "uint256"
        }
      ],
      "payable": false,
      "stateMutability": "view",
      "type": "function"
    },
    {
      "constant": true,
      "inputs": [
        {
          "name": "_indexTable",
          "type": "uint256"
        }
      ],
      "name": "getLeaders",
      "outputs": [
        {
          "name": "",
          "type": "address[]"
        },
        {
          "name": "",
          "type": "uint256[]"
        }
      ],
      "payable": false,
      "stateMutability": "view",
      "type": "function"
    }
  ],
  "bytecode": "0x608060405234801561001057600080fd5b50600a6000808060ff168152602001908152602001600020819055506007600080600160ff168152602001908152602001600020819055506005600080600260ff168152602001908152602001600020819055506003600080600360ff168152602001908152602001600020819055506001600080600460ff168152602001908152602001600020819055506000806000600560ff168152602001908152602001600020819055506000806000600660ff168152602001908152602001600020819055506001608060405190810160405280620151804201815260200162015180815260200160008152602001600760ff166040519080825280602002602001820160405280156101305781602001602082028038833980820191505090505b50815250908060018154018082558091505090600182039060005260206000209060050201600090919290919091506000820151816000015560208201518160010155604082015181600201556060820151816003019080519060200190610199929190610401565b50505050600160806040519081016040528062093a804201815260200162093a80815260200160008152602001600760ff166040519080825280602002602001820160405280156101f95781602001602082028038833980820191505090505b50815250908060018154018082558091505090600182039060005260206000209060050201600090919290919091506000820151816000015560208201518160010155604082015181600201556060820151816003019080519060200190610262929190610401565b5050505060016080604051908101604052806304a28600420181526020016304a28600815260200160008152602001600760ff166040519080825280602002602001820160405280156102c45781602001602082028038833980820191505090505b5081525090806001815401808255809150509060018203906000526020600020906005020160009091929091909150600082015181600001556020820151816001015560408201518160020155606082015181600301908051906020019061032d929190610401565b5050505060016080604051908101604052806301e13380420181526020016301e13380815260200160008152602001600760ff1660405190808252806020026020018201604052801561038f5781602001602082028038833980820191505090505b508152509080600181540180825580915050906001820390600052602060002090600502016000909192909190915060008201518160000155602082015181600101556040820151816002015560608201518160030190805190602001906103f8929190610401565b505050506104ce565b82805482825590600052602060002090810192821561047a579160200282015b828111156104795782518260006101000a81548173ffffffffffffffffffffffffffffffffffffffff021916908373ffffffffffffffffffffffffffffffffffffffff16021790555091602001919060010190610421565b5b509050610487919061048b565b5090565b6104cb91905b808211156104c757600081816101000a81549073ffffffffffffffffffffffffffffffffffffffff021916905550600101610491565b5090565b90565b6104fa806104dd6000396000f30060806040526004361061006d576000357c0100000000000000000000000000000000000000000000000000000000900463ffffffff16806302ceb8b3146100725780633eb1137e146100b65780634db2a71114610105578063930efb71146101cf578063a36e657714610200575b600080fd5b34801561007e57600080fd5b506100a0600480360381019080803560ff16906020019092919050505061024f565b6040518082815260200191505060405180910390f35b3480156100c257600080fd5b506100e160048036038101908080359060200190929190505050610267565b60405180848152602001838152602001828152602001935050505060405180910390f35b34801561011157600080fd5b50610130600480360381019080803590602001909291905050506102dc565b604051808060200180602001838103835285818151815260200191508051906020019060200280838360005b8381101561017757808201518184015260208101905061015c565b50505050905001838103825284818151815260200191508051906020019060200280838360005b838110156101b957808201518184015260208101905061019e565b5050505090500194505050505060405180910390f35b3480156101db57600080fd5b506101e4610490565b604051808260ff1660ff16815260200191505060405180910390f35b34801561020c57600080fd5b5061022b60048036038101908080359060200190929190505050610495565b60405180848152602001838152602001828152602001935050505060405180910390f35b60006020528060005260406000206000915090505481565b600080600060018481548110151561027b57fe5b90600052602060002090600502016000015460018581548110151561029c57fe5b9060005260206000209060050201600101546001868154811015156102bd57fe5b9060005260206000209060050201600201549250925092509193909250565b6060806000606060006001868154811015156102f457fe5b90600052602060002090600502019250826003018054905060405190808252806020026020018201604052801561033a5781602001602082028038833980820191505090505b509150600090505b82600301805490508110156103f757826004016000846003018381548110151561036857fe5b9060005260206000200160009054906101000a900473ffffffffffffffffffffffffffffffffffffffff1673ffffffffffffffffffffffffffffffffffffffff1673ffffffffffffffffffffffffffffffffffffffff1681526020019081526020016000205482828151811015156103dc57fe5b90602001906020020181815250508080600101915050610342565b82600301828180548060200260200160405190810160405280929190818152602001828054801561047d57602002820191906000526020600020905b8160009054906101000a900473ffffffffffffffffffffffffffffffffffffffff1673ffffffffffffffffffffffffffffffffffffffff1681526020019060010190808311610433575b5050505050915094509450505050915091565b600781565b6001818154811015156104a457fe5b906000526020600020906005020160009150905080600001549080600101549080600201549050835600a165627a7a72305820f6c61d77806be87ad99111b6acbab2e669f3be6eebeb7a3d04acb59eea9df0680029",
  "source": "pragma solidity ^0.4.24;\n\nimport \"./Math.sol\";\nimport \"./SafeMath.sol\";\n\ncontract LeaderSystem {\n    using SafeMath for uint256;\n\n    event NewLeader(uint256 _indexTable, address _addr, uint256 _index, uint256 _sum);\n    event LeadersClear(uint256 _indexTable);\n\n    uint8 public constant leadersCount = 7;\n    mapping (uint8 => uint256) public leaderBonuses;\n\n    struct LeadersTable {\n        uint256 timestampEnd;              // timestamp of closing table\n        uint256 duration;                   // duration compute\n        uint256 minSum;                     // min sum of leaders\n        address[] leaders;                  // leaders array\n        mapping (address => uint256) users; // sum all users\n    }\n\n    LeadersTable[] public leaders;\n\n    constructor() public {\n        leaderBonuses[0] = 10;  // 10%\n        leaderBonuses[1] = 7;   // 7%\n        leaderBonuses[2] = 5;   // 5%\n        leaderBonuses[3] = 3;   // 3%\n        leaderBonuses[4] = 1;   // 1%\n        leaderBonuses[5] = 0;   // 0%\n        leaderBonuses[6] = 0;   // 0%\n\n        leaders.push(LeadersTable(now + 86400, 86400, 0, new address[](leadersCount)));\n        leaders.push(LeadersTable(now + 604800, 604800, 0, new address[](leadersCount)));\n        leaders.push(LeadersTable(now + 77760000, 77760000, 0, new address[](leadersCount)));\n        leaders.push(LeadersTable(now + 31536000, 31536000, 0, new address[](leadersCount)));\n    }\n\n    function _clearLeadersTable(uint256 _indexTable) internal {\n        LeadersTable storage _leader = leaders[_indexTable];\n        leaders[_indexTable] = LeadersTable(_leader.timestampEnd + _leader.duration, _leader.duration, 0, new address[](leadersCount));\n\n        emit LeadersClear(_indexTable);\n    }\n\n    function _updateLeadersTable(uint256 i, address _addr, uint256 _value) internal {\n        if (now > leaders[i].timestampEnd) _clearLeadersTable(i);\n\n        LeadersTable storage leader = leaders[i];\n        address[] storage leadersUser = leader.leaders;\n\n        uint256 newSum = leader.users[_addr].add(_value);\n        leader.users[_addr] = newSum;\n\n        if (newSum < leader.minSum) return;\n\n        uint256 newLength = Math.min(leadersUser.length + 1, leadersCount);\n        uint256 newCount = 0;\n        address[] memory result = new address[](newLength);\n        bool isAdded = false;\n        bool isExist = false;\n\n        for (uint j = 0; j < newLength; j++) {\n            uint ja = j;\n            if (isAdded) {\n                ja--;\n                if (isExist) ja++;\n            }\n\n            if (leadersUser[j] == 0x0) {\n                if (!isAdded) {\n                    isAdded = true;\n                    result[newCount] = _addr;\n\n                    emit NewLeader(i, _addr, newCount, newSum);\n                }\n                else result[newCount] = leadersUser[ja];\n\n                newCount++;\n                break;\n            }\n\n            if (_addr == leadersUser[j]) {\n                if (isAdded) {\n                    isExist = true;\n                    result[newCount] = leadersUser[j - 1];\n                    newCount++;\n                }\n                else {\n                    isAdded = true;\n                    result[newCount] = _addr;\n                }\n\n                continue;\n            }\n\n            if (newSum > leader.users[leadersUser[j]] && !isAdded) {\n                isAdded = true;\n                result[newCount] = _addr;\n\n                emit NewLeader(i, _addr, newCount, newSum);\n            }\n            else {\n                result[newCount] = leadersUser[ja];\n            }\n\n            newCount++;\n        }\n\n        if (j >= newLength && isAdded) {\n            result[newLength - 1] = leadersUser[newLength - 1];\n        }\n\n        leader.leaders = result;\n    }\n\n    function _updateLeaders(address _addr, uint256 _value) internal {\n        for (uint i = 0; i < leaders.length; i++) {\n            _updateLeadersTable(i, _addr, _value);\n        }\n    }\n\n    function getLeadersTableInfo(uint256 _indexTable) public view returns(uint256, uint256, uint256) {\n        return (leaders[_indexTable].timestampEnd, leaders[_indexTable].duration, leaders[_indexTable].minSum);\n    }\n\n    function getLeaders(uint256 _indexTable) public view returns(address[], uint256[]) {\n        LeadersTable storage leader = leaders[_indexTable];\n        uint256[] memory balances = new uint256[](leader.leaders.length);\n\n        for (uint i = 0; i < leader.leaders.length; i++) {\n            balances[i] = leader.users[leader.leaders[i]];\n        }\n\n        return (leader.leaders, balances);\n    }\n\n}",
  "sourcePath": "/Users/alexey/Projects/DApps/MyMillions/contracts/LeaderSystem.sol",
  "compiler": {
    "name": "solc",
    "version": "0.4.24+commit.e67f0147.Emscripten.clang"
  },
  "schemaVersion": "2.0.1",
  "updatedAt": "2018-12-02T19:10:56.002Z"
}