{
  "contractName": "MyMillions",
  "abi": [
    {
      "constant": true,
      "inputs": [
        {
          "name": "",
          "type": "uint256"
        }
      ],
      "name": "users",
      "outputs": [
        {
          "name": "addr",
          "type": "address"
        },
        {
          "name": "balance",
          "type": "uint256"
        },
        {
          "name": "totalPay",
          "type": "uint256"
        }
      ],
      "payable": false,
      "stateMutability": "view",
      "type": "function"
    },
    {
      "constant": true,
      "inputs": [],
      "name": "owner",
      "outputs": [
        {
          "name": "",
          "type": "address"
        }
      ],
      "payable": false,
      "stateMutability": "view",
      "type": "function"
    },
    {
      "constant": true,
      "inputs": [
        {
          "name": "",
          "type": "address"
        }
      ],
      "name": "addressToUser",
      "outputs": [
        {
          "name": "",
          "type": "uint256"
        }
      ],
      "payable": false,
      "stateMutability": "view",
      "type": "function"
    },
    {
      "constant": false,
      "inputs": [
        {
          "name": "newOwner",
          "type": "address"
        }
      ],
      "name": "transferOwnership",
      "outputs": [],
      "payable": false,
      "stateMutability": "nonpayable",
      "type": "function"
    },
    {
      "inputs": [],
      "payable": false,
      "stateMutability": "nonpayable",
      "type": "constructor"
    },
    {
      "anonymous": false,
      "inputs": [
        {
          "indexed": false,
          "name": "_index",
          "type": "uint256"
        },
        {
          "indexed": false,
          "name": "_address",
          "type": "address"
        },
        {
          "indexed": false,
          "name": "_balance",
          "type": "uint256"
        }
      ],
      "name": "CreateUser",
      "type": "event"
    },
    {
      "anonymous": false,
      "inputs": [
        {
          "indexed": false,
          "name": "_refferalId",
          "type": "uint256"
        },
        {
          "indexed": false,
          "name": "_userId",
          "type": "uint256"
        }
      ],
      "name": "ReferralRegister",
      "type": "event"
    },
    {
      "anonymous": false,
      "inputs": [
        {
          "indexed": true,
          "name": "previousOwner",
          "type": "address"
        },
        {
          "indexed": true,
          "name": "newOwner",
          "type": "address"
        }
      ],
      "name": "OwnershipTransferred",
      "type": "event"
    },
    {
      "constant": false,
      "inputs": [],
      "name": "register",
      "outputs": [
        {
          "name": "",
          "type": "uint256"
        }
      ],
      "payable": true,
      "stateMutability": "payable",
      "type": "function"
    },
    {
      "constant": false,
      "inputs": [
        {
          "name": "_refId",
          "type": "uint256"
        }
      ],
      "name": "register",
      "outputs": [
        {
          "name": "",
          "type": "uint256"
        }
      ],
      "payable": true,
      "stateMutability": "payable",
      "type": "function"
    },
    {
      "constant": true,
      "inputs": [
        {
          "name": "_refId",
          "type": "uint256"
        }
      ],
      "name": "referrals",
      "outputs": [
        {
          "name": "",
          "type": "uint256[]"
        }
      ],
      "payable": false,
      "stateMutability": "view",
      "type": "function"
    },
    {
      "constant": false,
      "inputs": [],
      "name": "buyWoodFactory",
      "outputs": [],
      "payable": true,
      "stateMutability": "payable",
      "type": "function"
    }
  ],
  "bytecode": "0x608060405234801561001057600080fd5b50336000806101000a81548173ffffffffffffffffffffffffffffffffffffffff021916908373ffffffffffffffffffffffffffffffffffffffff1602179055506001608060405190810160405280600073ffffffffffffffffffffffffffffffffffffffff168152602001600081526020016000815260200160006040519080825280602002602001820160405280156100ba5781602001602082028038833980820191505090505b508152509080600181540180825580915050906001820390600052602060002090600402016000909192909190915060008201518160000160006101000a81548173ffffffffffffffffffffffffffffffffffffffff021916908373ffffffffffffffffffffffffffffffffffffffff16021790555060208201518160010155604082015181600201556060820151816003019080519060200190610160929190610169565b505050506101db565b8280548282559060005260206000209081019282156101a5579160200282015b828111156101a4578251825591602001919060010190610189565b5b5090506101b291906101b6565b5090565b6101d891905b808211156101d45760008160009055506001016101bc565b5090565b90565b610901806101ea6000396000f30060806040526004361061008e576000357c0100000000000000000000000000000000000000000000000000000000900463ffffffff1680631aa3a00814610093578063365b98b2146100b15780635ee6e3a21461012c57806380b7c92b146101365780638da5cb5b146101b8578063edf538861461020f578063f207564e14610266578063f2fde38b1461029a575b600080fd5b61009b6102dd565b6040518082815260200191505060405180910390f35b3480156100bd57600080fd5b506100dc6004803603810190808035906020019092919050505061050d565b604051808473ffffffffffffffffffffffffffffffffffffffff1673ffffffffffffffffffffffffffffffffffffffff168152602001838152602001828152602001935050505060405180910390f35b610134610566565b005b34801561014257600080fd5b5061016160048036038101908080359060200190929190505050610568565b6040518080602001828103825283818151815260200191508051906020019060200280838360005b838110156101a4578082015181840152602081019050610189565b505050509050019250505060405180910390f35b3480156101c457600080fd5b506101cd6105e0565b604051808273ffffffffffffffffffffffffffffffffffffffff1673ffffffffffffffffffffffffffffffffffffffff16815260200191505060405180910390f35b34801561021b57600080fd5b50610250600480360381019080803573ffffffffffffffffffffffffffffffffffffffff169060200190929190505050610605565b6040518082815260200191505060405180910390f35b6102846004803603810190808035906020019092919050505061061d565b6040518082815260200191505060405180910390f35b3480156102a657600080fd5b506102db600480360381019080803573ffffffffffffffffffffffffffffffffffffffff1690602001909291905050506106cf565b005b60006102e7610824565b600080600260003373ffffffffffffffffffffffffffffffffffffffff1673ffffffffffffffffffffffffffffffffffffffff1681526020019081526020016000205414151561033657600080fd5b6080604051908101604052803373ffffffffffffffffffffffffffffffffffffffff1681526020016000815260200160008152602001600060405190808252806020026020018201604052801561039c5781602001602082028038833980820191505090505b508152509150600180839080600181540180825580915050906001820390600052602060002090600402016000909192909190915060008201518160000160006101000a81548173ffffffffffffffffffffffffffffffffffffffff021916908373ffffffffffffffffffffffffffffffffffffffff16021790555060208201518160010155604082015181600201556060820151816003019080519060200190610448929190610863565b50505003905080600260003373ffffffffffffffffffffffffffffffffffffffff1673ffffffffffffffffffffffffffffffffffffffff168152602001908152602001600020819055507f4f936a96f51e2c2ffe18b6b6f1e4387c6bf1cddeb935d58cab653eb22ead430a813334604051808481526020018373ffffffffffffffffffffffffffffffffffffffff1673ffffffffffffffffffffffffffffffffffffffff168152602001828152602001935050505060405180910390a1809250505090565b60018181548110151561051c57fe5b90600052602060002090600402016000915090508060000160009054906101000a900473ffffffffffffffffffffffffffffffffffffffff16908060010154908060020154905083565b565b606060018281548110151561057957fe5b90600052602060002090600402016003018054806020026020016040519081016040528092919081815260200182805480156105d457602002820191906000526020600020905b8154815260200190600101908083116105c0575b50505050509050919050565b6000809054906101000a900473ffffffffffffffffffffffffffffffffffffffff1681565b60026020528060005260406000206000915090505481565b6000806001805490508310151561063357600080fd5b61063b6102dd565b905060018381548110151561064c57fe5b90600052602060002090600402016003018190806001815401808255809150509060018203906000526020600020016000909192909190915055507fb900dc1fba63117f0809180dec6da68c5bc269d0d8338586b2d57235a0671c138382604051808381526020018281526020019250505060405180910390a180915050919050565b6000809054906101000a900473ffffffffffffffffffffffffffffffffffffffff1673ffffffffffffffffffffffffffffffffffffffff163373ffffffffffffffffffffffffffffffffffffffff1614151561072a57600080fd5b600073ffffffffffffffffffffffffffffffffffffffff168173ffffffffffffffffffffffffffffffffffffffff161415151561076657600080fd5b8073ffffffffffffffffffffffffffffffffffffffff166000809054906101000a900473ffffffffffffffffffffffffffffffffffffffff1673ffffffffffffffffffffffffffffffffffffffff167f8be0079c531659141344cd1fd0a4f28419497f9722a3daafe3b4186f6b6457e060405160405180910390a3806000806101000a81548173ffffffffffffffffffffffffffffffffffffffff021916908373ffffffffffffffffffffffffffffffffffffffff16021790555050565b608060405190810160405280600073ffffffffffffffffffffffffffffffffffffffff1681526020016000815260200160008152602001606081525090565b82805482825590600052602060002090810192821561089f579160200282015b8281111561089e578251825591602001919060010190610883565b5b5090506108ac91906108b0565b5090565b6108d291905b808211156108ce5760008160009055506001016108b6565b5090565b905600a165627a7a723058202a341b12c6471770ec9ac13aa261f91930adfa43b95304e43019bc11df5c07ac0029",
  "source": "pragma solidity ^0.4.24;\n\nimport \"./Ownable.sol\";\nimport \"./SafeMath.sol\";\n\ncontract MyMillions is Ownable {\n    using SafeMath for uint256;\n\n    event CreateUser(uint256 _index, address _address, uint256 _balance);\n    event ReferralRegister(uint256 _refferalId, uint256 _userId);\n    \n    struct User {\n        address addr;           // user address\n        uint256 balance;        // balance of account\n        uint256 totalPay;       // sum of all input pay\n        uint256[] referrals;    // first layer referrals ids\n    }\n    \n    User[] public users;\n    mapping (address => uint256) public addressToUser;\n    \n    struct Factory {\n        \n    }\n    \n    Factory[] woodFactories;\n    Factory[] metallFactories;\n    Factory[] oilFactories;\n    Factory[] preciousMetallFactories;\n    \n    constructor() public {\n        users.push(User(0x0, 0, 0, new uint256[](0)));  // for find by addressToUser map\n    }\n    \n    /**\n     * @dev register for only new users with min pay\n     */\n    function register() public payable returns(uint256) {\n        require(addressToUser[msg.sender] == 0);\n        \n        User memory user = User(msg.sender, 0, 0, new uint256[](0));\n        uint256 index = users.push(user) - 1;\n        addressToUser[msg.sender] = index;\n\n        emit CreateUser(index, msg.sender, msg.value);\n        return index;\n    }\n\n    /**\n     * @dev just registry by referral link\n     * @param _refId the ID of the user who gets the affiliate fee\n     */\n    function register(uint256 _refId) public payable returns(uint256) {\n        require(_refId < users.length);\n        \n        uint256 index = register();\n        users[_refId].referrals.push(index);\n\n        emit ReferralRegister(_refId, index);\n        return index;\n    }\n\n    function referrals(uint256 _refId) public view returns (uint256[]) {\n        return users[_refId].referrals;\n    }\n    \n    function buyWoodFactory() public payable {\n        \n    }\n    \n}\n",
  "sourcePath": "/Users/alexey/Projects/DApps/MyMillions/contracts/MyMillions.sol",
  "compiler": {
    "name": "solc",
    "version": "0.4.24+commit.e67f0147.Emscripten.clang"
  },
  "schemaVersion": "2.0.1",
  "updatedAt": "2018-10-02T19:53:10.283Z"
}