{
  "contractName": "MyMillions",
  "abi": [
    {
      "constant": true,
      "inputs": [
        {
          "name": "",
          "type": "uint8"
        }
      ],
      "name": "leaderBonuses",
      "outputs": [
        {
          "name": "",
          "type": "uint256"
        }
      ],
      "payable": false,
      "stateMutability": "view",
      "type": "function"
    },
    {
      "constant": true,
      "inputs": [],
      "name": "marketersPercent",
      "outputs": [
        {
          "name": "",
          "type": "uint256"
        }
      ],
      "payable": false,
      "stateMutability": "view",
      "type": "function"
    },
    {
      "constant": true,
      "inputs": [],
      "name": "developers",
      "outputs": [
        {
          "name": "",
          "type": "address"
        }
      ],
      "payable": false,
      "stateMutability": "view",
      "type": "function"
    },
    {
      "constant": true,
      "inputs": [
        {
          "name": "",
          "type": "uint256"
        }
      ],
      "name": "users",
      "outputs": [
        {
          "name": "addr",
          "type": "address"
        },
        {
          "name": "balance",
          "type": "uint256"
        },
        {
          "name": "totalPay",
          "type": "uint256"
        },
        {
          "name": "referrersReceived",
          "type": "uint256"
        }
      ],
      "payable": false,
      "stateMutability": "view",
      "type": "function"
    },
    {
      "constant": false,
      "inputs": [
        {
          "name": "newMarketers",
          "type": "address"
        }
      ],
      "name": "setMarketers",
      "outputs": [],
      "payable": false,
      "stateMutability": "nonpayable",
      "type": "function"
    },
    {
      "constant": true,
      "inputs": [],
      "name": "developersPercent",
      "outputs": [
        {
          "name": "",
          "type": "uint256"
        }
      ],
      "payable": false,
      "stateMutability": "view",
      "type": "function"
    },
    {
      "constant": true,
      "inputs": [
        {
          "name": "_indexTable",
          "type": "uint256"
        }
      ],
      "name": "getLeadersTableInfo",
      "outputs": [
        {
          "name": "",
          "type": "uint256"
        },
        {
          "name": "",
          "type": "uint256"
        },
        {
          "name": "",
          "type": "uint256"
        }
      ],
      "payable": false,
      "stateMutability": "view",
      "type": "function"
    },
    {
      "constant": true,
      "inputs": [
        {
          "name": "",
          "type": "uint256"
        }
      ],
      "name": "factoryToUser",
      "outputs": [
        {
          "name": "",
          "type": "uint256"
        }
      ],
      "payable": false,
      "stateMutability": "view",
      "type": "function"
    },
    {
      "constant": true,
      "inputs": [],
      "name": "marketers",
      "outputs": [
        {
          "name": "",
          "type": "address"
        }
      ],
      "payable": false,
      "stateMutability": "view",
      "type": "function"
    },
    {
      "constant": true,
      "inputs": [
        {
          "name": "_type",
          "type": "uint8"
        }
      ],
      "name": "getResourcePrice",
      "outputs": [
        {
          "name": "",
          "type": "uint256"
        }
      ],
      "payable": false,
      "stateMutability": "view",
      "type": "function"
    },
    {
      "constant": true,
      "inputs": [
        {
          "name": "_indexTable",
          "type": "uint256"
        }
      ],
      "name": "getLeaders",
      "outputs": [
        {
          "name": "",
          "type": "address[]"
        },
        {
          "name": "",
          "type": "uint256[]"
        }
      ],
      "payable": false,
      "stateMutability": "view",
      "type": "function"
    },
    {
      "constant": true,
      "inputs": [
        {
          "name": "_index",
          "type": "uint256"
        }
      ],
      "name": "getReferralPercentsByIndex",
      "outputs": [
        {
          "name": "",
          "type": "uint16[]"
        }
      ],
      "payable": false,
      "stateMutability": "view",
      "type": "function"
    },
    {
      "constant": true,
      "inputs": [],
      "name": "minSumReferral",
      "outputs": [
        {
          "name": "",
          "type": "uint256"
        }
      ],
      "payable": false,
      "stateMutability": "view",
      "type": "function"
    },
    {
      "constant": true,
      "inputs": [
        {
          "name": "_type",
          "type": "uint8"
        },
        {
          "name": "_level",
          "type": "uint8"
        }
      ],
      "name": "getPrice",
      "outputs": [
        {
          "name": "",
          "type": "uint256"
        }
      ],
      "payable": false,
      "stateMutability": "view",
      "type": "function"
    },
    {
      "constant": true,
      "inputs": [
        {
          "name": "",
          "type": "uint256"
        }
      ],
      "name": "factories",
      "outputs": [
        {
          "name": "ftype",
          "type": "uint8"
        },
        {
          "name": "level",
          "type": "uint8"
        },
        {
          "name": "collected_at",
          "type": "uint256"
        }
      ],
      "payable": false,
      "stateMutability": "view",
      "type": "function"
    },
    {
      "constant": true,
      "inputs": [
        {
          "name": "_type",
          "type": "uint8"
        },
        {
          "name": "_level",
          "type": "uint8"
        }
      ],
      "name": "getBonusPerMinute",
      "outputs": [
        {
          "name": "",
          "type": "uint256"
        }
      ],
      "payable": false,
      "stateMutability": "view",
      "type": "function"
    },
    {
      "constant": true,
      "inputs": [],
      "name": "levelsCount",
      "outputs": [
        {
          "name": "",
          "type": "uint8"
        }
      ],
      "payable": false,
      "stateMutability": "view",
      "type": "function"
    },
    {
      "constant": false,
      "inputs": [
        {
          "name": "newDevelopers",
          "type": "address"
        }
      ],
      "name": "setDevelopers",
      "outputs": [],
      "payable": false,
      "stateMutability": "nonpayable",
      "type": "function"
    },
    {
      "constant": true,
      "inputs": [],
      "name": "owner",
      "outputs": [
        {
          "name": "",
          "type": "address"
        }
      ],
      "payable": false,
      "stateMutability": "view",
      "type": "function"
    },
    {
      "constant": true,
      "inputs": [
        {
          "name": "_sum",
          "type": "uint256"
        }
      ],
      "name": "getReferralPercents",
      "outputs": [
        {
          "name": "",
          "type": "uint16[]"
        }
      ],
      "payable": false,
      "stateMutability": "view",
      "type": "function"
    },
    {
      "constant": true,
      "inputs": [],
      "name": "leadersCount",
      "outputs": [
        {
          "name": "",
          "type": "uint8"
        }
      ],
      "payable": false,
      "stateMutability": "view",
      "type": "function"
    },
    {
      "constant": true,
      "inputs": [
        {
          "name": "",
          "type": "uint256"
        }
      ],
      "name": "referralGroups",
      "outputs": [
        {
          "name": "minSum",
          "type": "uint256"
        },
        {
          "name": "maxSum",
          "type": "uint256"
        }
      ],
      "payable": false,
      "stateMutability": "view",
      "type": "function"
    },
    {
      "constant": true,
      "inputs": [
        {
          "name": "_type",
          "type": "uint8"
        },
        {
          "name": "_level",
          "type": "uint8"
        }
      ],
      "name": "getProductsPerMinute",
      "outputs": [
        {
          "name": "",
          "type": "uint256"
        }
      ],
      "payable": false,
      "stateMutability": "view",
      "type": "function"
    },
    {
      "constant": true,
      "inputs": [
        {
          "name": "",
          "type": "uint256"
        }
      ],
      "name": "leaders",
      "outputs": [
        {
          "name": "timestampEnd",
          "type": "uint256"
        },
        {
          "name": "duration",
          "type": "uint256"
        },
        {
          "name": "minSum",
          "type": "uint256"
        }
      ],
      "payable": false,
      "stateMutability": "view",
      "type": "function"
    },
    {
      "constant": false,
      "inputs": [
        {
          "name": "_addr",
          "type": "address"
        },
        {
          "name": "isExist",
          "type": "bool"
        },
        {
          "name": "_indexTable",
          "type": "uint256"
        },
        {
          "name": "oldLength",
          "type": "uint256"
        },
        {
          "name": "newLength",
          "type": "uint256"
        },
        {
          "name": "newSum",
          "type": "uint256"
        },
        {
          "name": "leadersUser",
          "type": "address[]"
        }
      ],
      "name": "_insertLeader",
      "outputs": [
        {
          "name": "",
          "type": "address[]"
        }
      ],
      "payable": false,
      "stateMutability": "nonpayable",
      "type": "function"
    },
    {
      "constant": true,
      "inputs": [],
      "name": "totalUsers",
      "outputs": [
        {
          "name": "",
          "type": "uint256"
        }
      ],
      "payable": false,
      "stateMutability": "view",
      "type": "function"
    },
    {
      "constant": true,
      "inputs": [
        {
          "name": "",
          "type": "uint8"
        }
      ],
      "name": "resourcePrices",
      "outputs": [
        {
          "name": "",
          "type": "uint256"
        }
      ],
      "payable": false,
      "stateMutability": "view",
      "type": "function"
    },
    {
      "constant": true,
      "inputs": [],
      "name": "referralLevelsGroups",
      "outputs": [
        {
          "name": "",
          "type": "uint256"
        }
      ],
      "payable": false,
      "stateMutability": "view",
      "type": "function"
    },
    {
      "constant": true,
      "inputs": [
        {
          "name": "",
          "type": "uint8"
        },
        {
          "name": "",
          "type": "uint8"
        }
      ],
      "name": "levelStack",
      "outputs": [
        {
          "name": "price",
          "type": "uint256"
        },
        {
          "name": "ppm",
          "type": "uint256"
        },
        {
          "name": "ppmBonus",
          "type": "uint256"
        }
      ],
      "payable": false,
      "stateMutability": "view",
      "type": "function"
    },
    {
      "constant": true,
      "inputs": [
        {
          "name": "",
          "type": "address"
        }
      ],
      "name": "addressToUser",
      "outputs": [
        {
          "name": "",
          "type": "uint256"
        }
      ],
      "payable": false,
      "stateMutability": "view",
      "type": "function"
    },
    {
      "constant": false,
      "inputs": [
        {
          "name": "newOwner",
          "type": "address"
        }
      ],
      "name": "transferOwnership",
      "outputs": [],
      "payable": false,
      "stateMutability": "nonpayable",
      "type": "function"
    },
    {
      "constant": true,
      "inputs": [],
      "name": "totalDeposit",
      "outputs": [
        {
          "name": "",
          "type": "uint256"
        }
      ],
      "payable": false,
      "stateMutability": "view",
      "type": "function"
    },
    {
      "constant": true,
      "inputs": [],
      "name": "minSumDeposit",
      "outputs": [
        {
          "name": "",
          "type": "uint256"
        }
      ],
      "payable": false,
      "stateMutability": "view",
      "type": "function"
    },
    {
      "constant": true,
      "inputs": [],
      "name": "referralLevelsCount",
      "outputs": [
        {
          "name": "",
          "type": "uint256"
        }
      ],
      "payable": false,
      "stateMutability": "view",
      "type": "function"
    },
    {
      "constant": true,
      "inputs": [
        {
          "name": "",
          "type": "uint256"
        },
        {
          "name": "",
          "type": "uint256"
        }
      ],
      "name": "userToFactories",
      "outputs": [
        {
          "name": "",
          "type": "uint256"
        }
      ],
      "payable": false,
      "stateMutability": "view",
      "type": "function"
    },
    {
      "inputs": [],
      "payable": true,
      "stateMutability": "payable",
      "type": "constructor"
    },
    {
      "anonymous": false,
      "inputs": [
        {
          "indexed": false,
          "name": "_index",
          "type": "uint256"
        },
        {
          "indexed": false,
          "name": "_address",
          "type": "address"
        },
        {
          "indexed": false,
          "name": "_balance",
          "type": "uint256"
        }
      ],
      "name": "CreateUser",
      "type": "event"
    },
    {
      "anonymous": false,
      "inputs": [
        {
          "indexed": false,
          "name": "_refferalId",
          "type": "uint256"
        },
        {
          "indexed": false,
          "name": "_userId",
          "type": "uint256"
        }
      ],
      "name": "ReferralRegister",
      "type": "event"
    },
    {
      "anonymous": false,
      "inputs": [
        {
          "indexed": false,
          "name": "_userId",
          "type": "uint256"
        },
        {
          "indexed": false,
          "name": "_referrerId",
          "type": "uint256"
        },
        {
          "indexed": false,
          "name": "_sum",
          "type": "uint256"
        }
      ],
      "name": "ReferrerDistribute",
      "type": "event"
    },
    {
      "anonymous": false,
      "inputs": [
        {
          "indexed": false,
          "name": "_userId",
          "type": "uint256"
        },
        {
          "indexed": false,
          "name": "_value",
          "type": "uint256"
        }
      ],
      "name": "Deposit",
      "type": "event"
    },
    {
      "anonymous": false,
      "inputs": [
        {
          "indexed": false,
          "name": "_userId",
          "type": "uint256"
        },
        {
          "indexed": false,
          "name": "_factoryId",
          "type": "uint256"
        },
        {
          "indexed": false,
          "name": "_factoryType",
          "type": "uint8"
        },
        {
          "indexed": false,
          "name": "_price",
          "type": "uint256"
        }
      ],
      "name": "PaymentProceed",
      "type": "event"
    },
    {
      "anonymous": false,
      "inputs": [
        {
          "indexed": false,
          "name": "_type",
          "type": "uint8"
        },
        {
          "indexed": false,
          "name": "_resources",
          "type": "uint256"
        }
      ],
      "name": "CollectResources",
      "type": "event"
    },
    {
      "anonymous": false,
      "inputs": [
        {
          "indexed": false,
          "name": "_factoryId",
          "type": "uint256"
        },
        {
          "indexed": false,
          "name": "_newLevel",
          "type": "uint8"
        },
        {
          "indexed": false,
          "name": "_userId",
          "type": "uint256"
        },
        {
          "indexed": false,
          "name": "_price",
          "type": "uint256"
        }
      ],
      "name": "LevelUp",
      "type": "event"
    },
    {
      "anonymous": false,
      "inputs": [
        {
          "indexed": false,
          "name": "_userId",
          "type": "uint256"
        },
        {
          "indexed": false,
          "name": "_type",
          "type": "uint8"
        },
        {
          "indexed": false,
          "name": "_sum",
          "type": "uint256"
        }
      ],
      "name": "Sell",
      "type": "event"
    },
    {
      "anonymous": false,
      "inputs": [
        {
          "indexed": false,
          "name": "_indexTable",
          "type": "uint256"
        },
        {
          "indexed": false,
          "name": "_addr",
          "type": "address"
        },
        {
          "indexed": false,
          "name": "_index",
          "type": "uint256"
        },
        {
          "indexed": false,
          "name": "_sum",
          "type": "uint256"
        }
      ],
      "name": "NewLeader",
      "type": "event"
    },
    {
      "anonymous": false,
      "inputs": [
        {
          "indexed": false,
          "name": "_indexTable",
          "type": "uint256"
        }
      ],
      "name": "LeadersClear",
      "type": "event"
    },
    {
      "anonymous": false,
      "inputs": [
        {
          "indexed": true,
          "name": "previousOwner",
          "type": "address"
        },
        {
          "indexed": true,
          "name": "newOwner",
          "type": "address"
        }
      ],
      "name": "OwnershipTransferred",
      "type": "event"
    },
    {
      "anonymous": false,
      "inputs": [
        {
          "indexed": true,
          "name": "previousDevelopers",
          "type": "address"
        },
        {
          "indexed": true,
          "name": "newDevelopers",
          "type": "address"
        }
      ],
      "name": "DevelopersChanged",
      "type": "event"
    },
    {
      "anonymous": false,
      "inputs": [
        {
          "indexed": true,
          "name": "previousMarketers",
          "type": "address"
        },
        {
          "indexed": true,
          "name": "newMarketers",
          "type": "address"
        }
      ],
      "name": "MarketersChanged",
      "type": "event"
    },
    {
      "constant": false,
      "inputs": [],
      "name": "setup",
      "outputs": [],
      "payable": false,
      "stateMutability": "nonpayable",
      "type": "function"
    },
    {
      "constant": false,
      "inputs": [],
      "name": "register",
      "outputs": [
        {
          "name": "",
          "type": "uint256"
        }
      ],
      "payable": true,
      "stateMutability": "payable",
      "type": "function"
    },
    {
      "constant": false,
      "inputs": [
        {
          "name": "_refId",
          "type": "uint256"
        }
      ],
      "name": "registerWithRefID",
      "outputs": [
        {
          "name": "",
          "type": "uint256"
        }
      ],
      "payable": true,
      "stateMutability": "payable",
      "type": "function"
    },
    {
      "constant": false,
      "inputs": [],
      "name": "deposit",
      "outputs": [
        {
          "name": "",
          "type": "uint256"
        }
      ],
      "payable": true,
      "stateMutability": "payable",
      "type": "function"
    },
    {
      "constant": true,
      "inputs": [],
      "name": "balanceOf",
      "outputs": [
        {
          "name": "",
          "type": "uint256"
        }
      ],
      "payable": false,
      "stateMutability": "view",
      "type": "function"
    },
    {
      "constant": true,
      "inputs": [],
      "name": "resoucesOf",
      "outputs": [
        {
          "name": "",
          "type": "uint256[]"
        }
      ],
      "payable": false,
      "stateMutability": "view",
      "type": "function"
    },
    {
      "constant": true,
      "inputs": [],
      "name": "referrersOf",
      "outputs": [
        {
          "name": "",
          "type": "uint256[]"
        }
      ],
      "payable": false,
      "stateMutability": "view",
      "type": "function"
    },
    {
      "constant": true,
      "inputs": [
        {
          "name": "_level",
          "type": "uint8"
        }
      ],
      "name": "referralsOf",
      "outputs": [
        {
          "name": "",
          "type": "uint256[]"
        }
      ],
      "payable": false,
      "stateMutability": "view",
      "type": "function"
    },
    {
      "constant": true,
      "inputs": [
        {
          "name": "_userId",
          "type": "uint256"
        }
      ],
      "name": "userInfo",
      "outputs": [
        {
          "name": "",
          "type": "address"
        },
        {
          "name": "",
          "type": "uint256"
        },
        {
          "name": "",
          "type": "uint256"
        },
        {
          "name": "",
          "type": "uint256"
        },
        {
          "name": "",
          "type": "uint256[]"
        },
        {
          "name": "",
          "type": "uint256[]"
        }
      ],
      "payable": false,
      "stateMutability": "view",
      "type": "function"
    },
    {
      "constant": false,
      "inputs": [
        {
          "name": "_type",
          "type": "uint8"
        }
      ],
      "name": "buyFactory",
      "outputs": [
        {
          "name": "",
          "type": "uint256"
        }
      ],
      "payable": true,
      "stateMutability": "payable",
      "type": "function"
    },
    {
      "constant": true,
      "inputs": [
        {
          "name": "_user_id",
          "type": "uint256"
        }
      ],
      "name": "getFactories",
      "outputs": [
        {
          "name": "",
          "type": "uint256[]"
        }
      ],
      "payable": false,
      "stateMutability": "view",
      "type": "function"
    },
    {
      "constant": false,
      "inputs": [],
      "name": "buyWoodFactory",
      "outputs": [
        {
          "name": "",
          "type": "uint256"
        }
      ],
      "payable": true,
      "stateMutability": "payable",
      "type": "function"
    },
    {
      "constant": false,
      "inputs": [],
      "name": "buyMetalFactory",
      "outputs": [
        {
          "name": "",
          "type": "uint256"
        }
      ],
      "payable": true,
      "stateMutability": "payable",
      "type": "function"
    },
    {
      "constant": false,
      "inputs": [],
      "name": "buyOilFactory",
      "outputs": [
        {
          "name": "",
          "type": "uint256"
        }
      ],
      "payable": true,
      "stateMutability": "payable",
      "type": "function"
    },
    {
      "constant": false,
      "inputs": [],
      "name": "buyPreciousMetal",
      "outputs": [
        {
          "name": "",
          "type": "uint256"
        }
      ],
      "payable": true,
      "stateMutability": "payable",
      "type": "function"
    },
    {
      "constant": false,
      "inputs": [
        {
          "name": "_factoryId",
          "type": "uint256"
        }
      ],
      "name": "levelUp",
      "outputs": [],
      "payable": true,
      "stateMutability": "payable",
      "type": "function"
    },
    {
      "constant": false,
      "inputs": [
        {
          "name": "_type",
          "type": "uint8"
        }
      ],
      "name": "sellResources",
      "outputs": [
        {
          "name": "",
          "type": "uint256"
        }
      ],
      "payable": false,
      "stateMutability": "nonpayable",
      "type": "function"
    },
    {
      "constant": true,
      "inputs": [
        {
          "name": "_collected_at",
          "type": "uint256"
        }
      ],
      "name": "worktimeAtDate",
      "outputs": [
        {
          "name": "",
          "type": "uint256"
        }
      ],
      "payable": false,
      "stateMutability": "view",
      "type": "function"
    },
    {
      "constant": true,
      "inputs": [
        {
          "name": "_factoryId",
          "type": "uint256"
        }
      ],
      "name": "worktime",
      "outputs": [
        {
          "name": "",
          "type": "uint256"
        }
      ],
      "payable": false,
      "stateMutability": "view",
      "type": "function"
    },
    {
      "constant": true,
      "inputs": [
        {
          "name": "_type",
          "type": "uint8"
        },
        {
          "name": "_level",
          "type": "uint8"
        },
        {
          "name": "_collected_at",
          "type": "uint256"
        }
      ],
      "name": "_resourcesAtTime",
      "outputs": [
        {
          "name": "",
          "type": "uint256"
        }
      ],
      "payable": false,
      "stateMutability": "view",
      "type": "function"
    },
    {
      "constant": true,
      "inputs": [
        {
          "name": "_factoryId",
          "type": "uint256"
        }
      ],
      "name": "resourcesAtTime",
      "outputs": [
        {
          "name": "",
          "type": "uint256"
        }
      ],
      "payable": false,
      "stateMutability": "view",
      "type": "function"
    },
    {
      "constant": false,
      "inputs": [],
      "name": "collectResources",
      "outputs": [],
      "payable": false,
      "stateMutability": "nonpayable",
      "type": "function"
    }
  ],
  "bytecode": "0x60018054600160a060020a0319908116730c05ae835f26a8d4a89ae80c7a0e5495e5361ca11790915560028054821673e222dd2dd012fcac0256b1f3830cc033418b68891790556008805460ff19169055662386f26fc100006009556000600c819055600d819055805490911633178155608081815260a082905260c082905260e09190915260046101408181526101e0604052600a929161010091906101608480388339505050815260408051600580825260c08201909252602092830192909190820160a080388339505050905281546001808201808555600094855260209485902084516007909402018054600160a060020a031916600160a060020a039094169390931783558385015191830191909155604083015160028301556060830151600383015560808301518051919462000145926004850192909101906200016d565b5060a08201518051620001639160058401916020909101906200016d565b50505050620001dd565b828054828255906000526020600020908101928215620001ab579160200282015b82811115620001ab5782518255916020019190600101906200018e565b50620001b9929150620001bd565b5090565b620001da91905b80821115620001b95760008155600101620001c4565b90565b614c9f80620001ed6000396000f3006080604052600436106102a85763ffffffff7c010000000000000000000000000000000000000000000000000000000060003504166302ceb8b381146102ad5780630ce90ec2146102da5780630f3fc087146102e75780631aa3a008146102fc5780631cdb86a314610304578063208d5e9f1461031c5780632bc31ca414610324578063365b98b2146103555780633887dae91461039d57806339347d52146104025780633a033915146104235780633bbfe141146104385780633eb1137e1461044d5780633fc282ef1461048357806342583c021461049b5780634bd51822146104b05780634db2a711146104cb57806351d70bc41461057c5780635875455e1461065b5780635a2587f4146106735780635b9280f61461068b5780635ee6e3a2146106a057806360e5ef3a146106a8578063672383c4146106c957806368ec451214610719578063715b3ec91461073a578063722713f71461075e57806383c6a62b146107735780638ab476bf1461079e5780638da5cb5b146107bf57806391ddb16d146107d4578063930efb711461077357806393d1c8ad146107ec57806397ff49e7146107f7578063994678ea146108285780639a08b3381461083d578063a16e8b201461085e578063a36e657714610866578063af6a1a9a1461087e578063b36acfc514610899578063ba0bba4014610911578063bff1f9e114610926578063c4e266561461093b578063d0e30db014610953578063d9fe82861461095b578063da0aedb114610976578063e1fc887e1461098b578063e5d7bd4f146109ac578063e8364cde146109c7578063eae84a30146109d5578063edf53886146109dd578063f2fde38b146109fe578063f6153ccd14610a1f578063f6d9097414610a34578063f7ad68ed14610a49578063f93745f014610a61578063fc41298714610a76575b600080fd5b3480156102b957600080fd5b506102c860ff60043516610a91565b60408051918252519081900360200190f35b6102e5600435610aa3565b005b3480156102f357600080fd5b506102c8610d35565b6102c8610d3a565b34801561031057600080fd5b506102c8600435610ee1565b6102c8610eec565b34801561033057600080fd5b50610339610efe565b60408051600160a060020a039092168252519081900360200190f35b34801561036157600080fd5b5061036d600435610f0d565b60408051600160a060020a0390951685526020850193909352838301919091526060830152519081900360800190f35b3480156103a957600080fd5b506103b2610f4f565b60408051602080825283518183015283519192839290830191858101910280838360005b838110156103ee5781810151838201526020016103d6565b505050509050019250505060405180910390f35b34801561040e57600080fd5b506102e5600160a060020a0360043516610fd4565b34801561042f57600080fd5b506102c861105c565b34801561044457600080fd5b506102e5611061565b34801561045957600080fd5b50610465600435611128565b60408051938452602084019290925282820152519081900360600190f35b34801561048f57600080fd5b506102c860043561119d565b3480156104a757600080fd5b506103396111af565b3480156104bc57600080fd5b506102c860ff600435166111be565b3480156104d757600080fd5b506104e36004356111d3565b604051808060200180602001838103835285818151815260200191508051906020019060200280838360005b8381101561052757818101518382015260200161050f565b50505050905001838103825284818151815260200191508051906020019060200280838360005b8381101561056657818101518382015260200161054e565b5050505090500194505050505060405180910390f35b34801561058857600080fd5b50610594600435611309565b6040518087600160a060020a0316600160a060020a031681526020018681526020018581526020018481526020018060200180602001838103835285818151815260200191508051906020019060200280838360005b838110156106025781810151838201526020016105ea565b50505050905001838103825284818151815260200191508051906020019060200280838360005b83811015610641578181015183820152602001610629565b505050509050019850505050505050505060405180910390f35b34801561066757600080fd5b506103b2600435611450565b34801561067f57600080fd5b506103b26004356114f0565b34801561069757600080fd5b506102c8611551565b6102c861155c565b3480156106b457600080fd5b506102c860ff60043581169060243516611568565b3480156106d557600080fd5b506106e16004356115a6565b604051808460038111156106f157fe5b60ff1681526020018360ff1660ff168152602001828152602001935050505060405180910390f35b34801561072557600080fd5b506102c860ff600435811690602435166115e0565b34801561074657600080fd5b506102c860ff60043581169060243516604435611621565b34801561076a57600080fd5b506102c8611656565b34801561077f57600080fd5b5061078861168c565b6040805160ff9092168252519081900360200190f35b3480156107aa57600080fd5b506102e5600160a060020a0360043516611691565b3480156107cb57600080fd5b50610339611719565b3480156107e057600080fd5b506103b2600435611728565b6102c860043561183b565b34801561080357600080fd5b5061080f6004356118ba565b6040805192835260208301919091528051918290030190f35b34801561083457600080fd5b506103b26118e6565b34801561084957600080fd5b506102c860ff60043581169060243516611969565b6102c86119aa565b34801561087257600080fd5b506104656004356119b6565b34801561088a57600080fd5b506102c860ff600435166119e7565b3480156108a557600080fd5b506040805160c435600481810135602081810285810182019096528185526103b295600160a060020a03843516956024803515159660443596606435966084359660a435963696939560e49501929182919085019084908082843750949750611bbc9650505050505050565b34801561091d57600080fd5b506102e5611e45565b34801561093257600080fd5b506102c8611e9b565b34801561094757600080fd5b506102c8600435611ea1565b6102c8611ed2565b34801561096757600080fd5b506102c860ff60043516612044565b34801561098257600080fd5b506102c8612056565b34801561099757600080fd5b5061046560ff6004358116906024351661205b565b3480156109b857600080fd5b506103b260ff60043516612087565b6102c860ff60043516612117565b6102c861218f565b3480156109e957600080fd5b506102c8600160a060020a036004351661219b565b348015610a0a57600080fd5b506102e5600160a060020a03600435166121ad565b348015610a2b57600080fd5b506102c8612234565b348015610a4057600080fd5b506102c861223a565b348015610a5557600080fd5b506102c8600435612240565b348015610a6d57600080fd5b506102c8612282565b348015610a8257600080fd5b506102c8600435602435612287565b60066020526000908152604090205481565b336000908152600b60205260408120548190819081901515610ac457600080fd5b600e805486908110610ad257fe5b600091825260209091206002909102018054909450610aff9060ff80821691610100900416600101611568565b336000908152600b6020526040902054600a80549295509093509083908110610b2457fe5b60009182526020918290206040805160c08101825260079093029091018054600160a060020a0316835260018101548385015260028101548383015260038101546060840152600481018054835181870281018701909452808452919550610c389486936080860193909291830182828015610bbf57602002820191906000526020600020905b815481526020019060010190808311610bab575b5050505050815260200160058201805480602002602001604051908101604052809291908181526020018280548015610c1757602002820191906000526020600020905b815481526020019060010190808311610c03575b505050919092525050865460ff8082169250610100909104166001016122b7565b1515610c4357600080fd5b6001810154610c58903463ffffffff6122fa16565b60018201819055610c6f908463ffffffff61230c16565b60018201556002810154610c89908463ffffffff6122fa16565b6002820155600d805434908101909155610ca290612323565b610cac82846123a3565b610cb684826125d8565b50835460ff61010080830482166001019091160261ff0019909116178455610cde33346126d2565b83546040805187815261010090920460ff16602083015281810184905260608201859052517fc2947d4d847973e25404afd7931f9ffeb6d01890ee4578d3c65041c4276bb667916080908290030190a15050505050565b600e81565b336000908152600b6020526040812054819015610d5657600080fd5b336000908152600b602052604090205415610d7057600080fd5b6040805160c081018252338152346020820152600081830181905260608201528151600480825260a08201909352600192600a92916080830191816020016020820280388339505050815260408051600580825260c08201909252602092830192909190820160a080388339505050905281546001808201808555600094855260209485902084516007909402018054600160a060020a031916600160a060020a0390941693909317835583850151918301919091556040830151600283015560608301516003830155608083015180519194610e5592600485019290910190614a67565b5060a08201518051610e71916005840191602090910190614a67565b5050336000818152600b60209081526040918290209590940394859055600c805460010190558051858152938401919091523483820152519293507f4f936a96f51e2c2ffe18b6b6f1e4387c6bf1cddeb935d58cab653eb22ead430a9291829003606001919050a18091505b5090565b603c42919091030490565b6000610ef86002612117565b90505b90565b600154600160a060020a031681565b600a805482908110610f1b57fe5b60009182526020909120600790910201805460018201546002830154600390930154600160a060020a039092169350919084565b336000908152600b6020526040902054600a8054606092908110610f6f57fe5b9060005260206000209060070201600401805480602002602001604051908101604052809291908181526020018280548015610fca57602002820191906000526020600020905b815481526020019060010190808311610fb6575b5050505050905090565b600054600160a060020a03163314610feb57600080fd5b600160a060020a038116151561100057600080fd5b600254604051600160a060020a038084169216907f5650bc3484c51d95070941164495fa61356f571133f65393510e90fa461118fc90600090a360028054600160a060020a031916600160a060020a0392909216919091179055565b600181565b336000908152600b6020526040812054819081908190151561108257600080fd5b336000908152600b6020526040902054600a805491955090859081106110a457fe5b60009182526020808320338452600b8252604080852054855260109092529083206007909202019450925090505b815481101561112257611119600e83838154811015156110ee57fe5b906000526020600020015481548110151561110557fe5b9060005260206000209060020201846125d8565b506001016110d2565b50505050565b600080600060078481548110151561113c57fe5b90600052602060002090600502016000015460078581548110151561115d57fe5b90600052602060002090600502016001015460078681548110151561117e57fe5b9060005260206000209060050201600201549250925092509193909250565b600f6020526000908152604090205481565b600254600160a060020a031681565b60ff1660009081526003602052604090205490565b6060806000606060006007868154811015156111eb57fe5b90600052602060002090600502019250826003018054905060405190808252806020026020018201604052801561122c578160200160208202803883390190505b509150600090505b600383015481101561129c57826004016000846003018381548110151561125757fe5b6000918252602080832090910154600160a060020a03168352820192909252604001902054825183908390811061128a57fe5b60209081029091010152600101611234565b8260030182818054806020026020016040519081016040528092919081815260200182805480156112f657602002820191906000526020600020905b8154600160a060020a031681526001909101906020018083116112d8575b5050505050915094509450505050915091565b60008060008060608061131a614aae565b600a80548990811061132857fe5b60009182526020918290206040805160c08101825260079093029091018054600160a060020a0316835260018101548385015260028101548383015260038101546060840152600481018054835181870281018701909452808452939491936080860193928301828280156113bc57602002820191906000526020600020905b8154815260200190600101908083116113a8575b505050505081526020016005820180548060200260200160405190810160405280929190818152602001828054801561141457602002820191906000526020600020905b815481526020019060010190808311611400575b5050509190925250508151602083015160408401516060850151608086015160a090960151939e929d50909b5099509297509550909350505050565b606060058281548110151561146157fe5b90600052602060002090600302016002018054806020026020016040519081016040528092919081815260200182805480156114e457602002820191906000526020600020906000905b82829054906101000a900461ffff1661ffff16815260200190600201906020826001010492830192600103820291508084116114ab5790505b50505050509050919050565b6000818152601060209081526040918290208054835181840281018401909452808452606093928301828280156114e457602002820191906000526020600020905b8154815260200190600101908083116115325750505050509050919050565b662386f26fc1000081565b6000610ef86000612117565b60006004600084600381111561157a57fe5b60ff90811682526020808301939093526040918201600090812091861681529252902054905092915050565b600e8054829081106115b457fe5b60009182526020909120600290910201805460019091015460ff80831693506101009092049091169083565b6000600460008460038111156115f257fe5b60ff90811682526020808301939093526040918201600090812091861681529252902060020154905092915050565b6000606461162f85856115e0565b6116398686611969565b0161164384610ee1565b0281151561164d57fe5b04949350505050565b336000908152600b6020526040812054600a8054909190811061167557fe5b906000526020600020906007020160010154905090565b600781565b600054600160a060020a031633146116a857600080fd5b600160a060020a03811615156116bd57600080fd5b600154604051600160a060020a038084169216907f7d28dbfe9b3b0a2416f60ca7bc6f6cd19d476b00cec731d9c37ac02a09613d7390600090a360018054600160a060020a031916600160a060020a0392909216919091179055565b600054600160a060020a031681565b60606000611734614aee565b600091505b600382101561183457600580548390811061175057fe5b9060005260206000209060030201606060405190810160405290816000820154815260200160018201548152602001600282018054806020026020016040519081016040528092919081815260200182805480156117f557602002820191906000526020600020906000905b82829054906101000a900461ffff1661ffff16815260200190600201906020826001010492830192600103820291508084116117bc5790505b505050505081525050905080600001518410158015611818575080602001518411155b156118295780604001519250611834565b600190910190611739565b5050919050565b336000908152600b602052604081205481901561185757600080fd5b600a54831061186557600080fd5b61186d610d3a565b905061187981846126f7565b604080518481526020810183905281517fb900dc1fba63117f0809180dec6da68c5bc269d0d8338586b2d57235a0671c13929181900390910190a192915050565b60058054829081106118c857fe5b60009182526020909120600390910201805460019091015490915082565b336000908152600b6020526040902054600a805460609290811061190657fe5b9060005260206000209060070201600501805480602002602001604051908101604052809291908181526020018280548015610fca5760200282019190600052602060002090815481526020019060010190808311610fb6575050505050905090565b60006004600084600381111561197b57fe5b60ff90811682526020808301939093526040918201600090812091861681529252902060010154905092915050565b6000610ef86001612117565b60078054829081106119c457fe5b600091825260209091206005909102018054600182015460029092015490925083565b336000908152600b6020526040812054819081901515611a0657600080fd5b336000908152600b6020526040902054915073__Math__________________________________637ae2b5c7611a3b866111be565b600a805486908110611a4957fe5b90600052602060002090600702016004018760ff16815481101515611a6a57fe5b90600052602060002001540230600160a060020a0316316040518363ffffffff167c0100000000000000000000000000000000000000000000000000000000028152600401808381526020018281526020019250505060206040518083038186803b158015611ad857600080fd5b505af4158015611aec573d6000803e3d6000fd5b505050506040513d6020811015611b0257600080fd5b5051600a805491925060009184908110611b1857fe5b90600052602060002090600702016004018560ff16815481101515611b3957fe5b6000918252602082200191909155604051339183156108fc02918491818181858888f19350505050158015611b72573d6000803e3d6000fd5b506040805183815260ff8616602082015280820183905290517fdef385fd9bc4ede5eab81b236ae5ae807f524e23733877f374ab4c709179a2d99181900360600190a19392505050565b60606000606060008060008060078c815481101515611bd757fe5b9060005260206000209060050201955089604051908082528060200260200182016040528015611c11578160200160208202803883390190505b5094506000935060009250600091505b89821015611e17578a82101580611c7557508560040160008984815181101515611c4757fe5b90602001906020020151600160a060020a0316600160a060020a031681526020019081526020016000205489115b15611e0c575060005b81811015611ccb578781815181101515611c9457fe5b906020019060200201518582815181101515611cac57fe5b600160a060020a03909216602092830290910190910152600101611c7e565b8d8583815181101515611cda57fe5b600160a060020a039092166020928302909101909101526000198a01821015611e035750600181015b8a8111611e03578a81148015611d1f57508c80611d1f5750898b145b15611d2957611e03565b8315611d71578781815181101515611d3d57fe5b906020019060200201518582815181101515611d5557fe5b600160a060020a03909216602092830290910190910152611db2565b8760018203815181101515611d8257fe5b906020019060200201518582815181101515611d9a57fe5b600160a060020a039092166020928302909101909101525b83158015611dbd57508c5b8015611df157508d600160a060020a03168882815181101515611ddc57fe5b90602001906020020151600160a060020a0316145b15611dfb57600193505b600101611d03565b60019250611e17565b600190910190611c21565b8215611e34578451611e329060038801906020880190614b10565b505b505050505050979650505050505050565b600054600160a060020a03163314611e5c57600080fd5b60085460ff1615611e6c57600080fd5b6008805460ff19166001179055611e81612857565b611e89612903565b611e916139c8565b611e99613ef9565b565b600c5481565b6000611ecc600e83815481101515611eb557fe5b906000526020600020906002020160010154610ee1565b92915050565b336000908152600b602052604081205481901515611eef57600080fd5b6009543411611f5f57604080517f08c379a000000000000000000000000000000000000000000000000000000000815260206004820152601760248201527f4465706f73697420646f6573206e6f7420656e6f756768000000000000000000604482015290519081900360640190fd5b50336000908152600b6020526040902054600a8054611fa491349184908110611f8457fe5b9060005260206000209060070201600101546122fa90919063ffffffff16565b600a805483908110611fb257fe5b6000918252602090912060016007909202010155600d805434908101909155611fda90612323565b611fe433346126d2565b6040805182815234602082015281517fa3af609bf46297028ce551832669030f9effef2b02606d02cbbcc40fe6b47c55929181900390910190a1600a80548290811061202c57fe5b90600052602060002090600702016001015491505090565b60036020526000908152604090205481565b600381565b600460209081526000928352604080842090915290825290208054600182015460029092015490919083565b336000908152600b6020526040902054600a80546060929081106120a757fe5b6000918252602080832060ff861684526006600790930201919091018152604091829020805483518184028101840190945280845290918301828280156114e457602002820191906000526020600020908154815260200190600101908083116115325750505050509050919050565b336000908152600b60205260408120548190151561213457600080fd5b50336000908152600b602052604090205480151561215757612154610d3a565b90505b6121888160606040519081016040528086600381111561217357fe5b815260006020820152426040909101526142f6565b9392505050565b6000610ef86003612117565b600b6020526000908152604090205481565b600054600160a060020a031633146121c457600080fd5b600160a060020a03811615156121d957600080fd5b60008054604051600160a060020a03808516939216917f8be0079c531659141344cd1fd0a4f28419497f9722a3daafe3b4186f6b6457e091a360008054600160a060020a031916600160a060020a0392909216919091179055565b600d5481565b60095481565b600080600e8381548110151561225257fe5b60009182526020909120600290910201805460018201549192506121889160ff8083169261010090041690611621565b600581565b6010602052816000526040600020818154811015156122a257fe5b90600052602060002001600091509150505481565b6000806122d13486602001516122fa90919063ffffffff16565b90506122dd8484611568565b8110156122ed57600091506122f2565b600191505b509392505050565b60008282018381101561218857600080fd5b6000808383111561231c57600080fd5b5050900390565b600154604051600160a060020a03909116906064340480156108fc02916000818181858888f1935050505015801561235f573d6000803e3d6000fd5b50600254604051600160a060020a03909116906064600e34020480156108fc02916000818181858888f1935050505015801561239f573d6000803e3d6000fd5b5050565b606060008060606000600a878154811015156123bb57fe5b906000526020600020906007020160050180548060200260200160405190810160405280929190818152602001828054801561241657602002820191906000526020600020905b815481526020019060010190808311612402575b50505050509450600093505b60058410156125cf57848481518110151561243957fe5b906020019060200201519250848481518110151561245357fe5b906020019060200201516000141561246a576125cf565b662386f26fc10000600a8481548110151561248157fe5b906000526020600020906007020160020154101561249e576125c4565b6124c7600a848154811015156124b057fe5b906000526020600020906007020160020154611728565b915061271082858151811015156124da57fe5b9060200190602002015161ffff1687028115156124f357fe5b04905061250981600a85815481101515611f8457fe5b600a80548590811061251757fe5b90600052602060002090600702016001018190555061255f81600a8581548110151561253f57fe5b9060005260206000209060070201600301546122fa90919063ffffffff16565b600a80548590811061256d57fe5b60009182526020918290206003600790920201019190915560408051898152918201859052818101839052517f211f658fbe3faa22f0ca8b56ad45888186f5bd0737b447cea43e6a0894b330109181900360600190a15b600190930192612422565b50505050505050565b8154600183015460009182916125fb9160ff808216926101009092041690611621565b8454909150612641908290600486019060ff16600381111561261957fe5b60ff1681548110151561262857fe5b90600052602060002001546122fa90919063ffffffff16565b8454600485019060ff16600381111561265657fe5b60ff1681548110151561266557fe5b60009182526020909120015542600185015583546040517f5dc5b82e66c5dcc43c01835de9ee74f6380209b673fbdd18668826fc898c66b19160ff16908390808360038111156126b157fe5b60ff1681526020018281526020019250505060405180910390a19392505050565b60005b6007548110156126f2576126ea8184846145bc565b6001016126d5565b505050565b6000808284141561270757611122565b82600a8581548110151561271757fe5b9060005260206000209060070201600501600081548110151561273657fe5b600091825260209091200155600191505b600582101561281357600a80548490811061275e57fe5b90600052602060002090600702016005016001830381548110151561277f57fe5b9060005260206000200154905080600a8581548110151561279c57fe5b9060005260206000209060070201600501838154811015156127ba57fe5b600091825260209091200155600a8054829081106127d457fe5b6000918252602080832060ff86168452600660079093020191909101815260408220805460018181018355918452919092200185905590910190612747565b600a80548490811061282157fe5b60009182526020808320838052600660079093020191909101815260408220805460018101825590835291200184905550505050565b60036020819052640563d8f7807f3617319a054d772f909f7c479a2cebe5066e836a939412e32403c99029b92eff5564087d2f73007fa15bc60c955c405d20d9149c709e2460f1c2d9a497496a7f46004d1772c3054c556409e19f02007fc3a24b0501bd2c13a7e57f2db4369ec4c223447539fc0724a9d55ac4a06ebd4d55600052640f7eb069807fcbc4e5fb02c3d1de23a9f1e014b4d2ee5aeaea9505df5e855c9210bf472495af55565b6040805160608082018352662386f26fc10000825260c8602080840191825260008486018181528180527f17ef568e3e12ab5b9c7254a8d58478811de00f9e6eb34345acd53bf8fd09d3ec80845295517f396a5abb6bca56e91bb5dd6bbc43dc9c37f3b8d5af727f8b42952b318eb483f75592517f396a5abb6bca56e91bb5dd6bbc43dc9c37f3b8d5af727f8b42952b318eb483f85591517f396a5abb6bca56e91bb5dd6bbc43dc9c37f3b8d5af727f8b42952b318eb483f95584518084018652666a94d74f43000081526101908183019081528187018481528480527fabd6e7cb50984ff9c2f3e18a2660c3353dadf4e3291deeb275dae2cd1e44fe0580855292517fa854ba23287a95c22b66b66e4f07bb2441b3fd4ecec9d0720a55aaffc00a6db45590517fa854ba23287a95c22b66b66e4f07bb2441b3fd4ecec9d0720a55aaffc00a6db555517fa854ba23287a95c22b66b66e4f07bb2441b3fd4ecec9d0720a55aaffc00a6db6558551808501875266b1a2bc2ec500008082526102588285019081528289018681528680527f91da3fd0782e51c6b3986e9e672fd566868e71f3dbc2d6c2cd6fbb3e361af2a780875293517f23a8b3930d40243c6050962392c5f42a8d68219c31a95256ad251969f8898d7d5590517f23a8b3930d40243c6050962392c5f42a8d68219c31a95256ad251969f8898d7e55517f23a8b3930d40243c6050962392c5f42a8d68219c31a95256ad251969f8898d7f558751808701895267016345785d8a00008152610320818601908152818a018781528780527f2e174c10e159ea99b867ce3205125c24a42d128804e4070ed6fcc8cc98166aa080885292517f28b425f61cad6d11aeb5a0203d47cee5c848ac803463a42255b3f6bb79a2e3a25590517f28b425f61cad6d11aeb5a0203d47cee5c848ac803463a42255b3f6bb79a2e3a355517f28b425f61cad6d11aeb5a0203d47cee5c848ac803463a42255b3f6bb79a2e3a45588518088018a529182526104b08286019081526078838b0190815260018089528a885293517f560c5c35d362ebe12852e61b5bb1957021175ee6b552ac19e7c3fb4e272bed3f5590517f560c5c35d362ebe12852e61b5bb1957021175ee6b552ac19e7c3fb4e272bed4055517f560c5c35d362ebe12852e61b5bb1957021175ee6b552ac19e7c3fb4e272bed415588518088018a5267013fbe85edc900008152610640818701908152608a828c0190815284895286885291517f91a929c9ec5705e488608361b51aeeb184fe55eb85793f3a420f51243ca22a3755517f91a929c9ec5705e488608361b51aeeb184fe55eb85793f3a420f51243ca22a3855517f91a929c9ec5705e488608361b51aeeb184fe55eb85793f3a420f51243ca22a395588518088018a52670214e8348c4f0000815261096081870181815260a4838d01908152858a5286895292517f6763387ad2d066a53cf4a1abdf70cd5bddab334e579a9ba59bf3a7a53cda81ca55517f6763387ad2d066a53cf4a1abdf70cd5bddab334e579a9ba59bf3a7a53cda81cb5590517f6763387ad2d066a53cf4a1abdf70cd5bddab334e579a9ba59bf3a7a53cda81cc5589518089018b526706f05b59d3b2000081526112c08188019081526101a2828d0190815294895283885290517ee28636aab960e5ab7bae6afd10a8cb24d3e08dacfd8c3a510db09eb714d13655517ee28636aab960e5ab7bae6afd10a8cb24d3e08dacfd8c3a510db09eb714d1375591517ee28636aab960e5ab7bae6afd10a8cb24d3e08dacfd8c3a510db09eb714d1385588518088018a526701aa535d3d0c00008152610e1081870190815261021c828c019081526002808a528b895292517ff2dfd1aed85f0715c432d0e56b8d7d53fa1dec4c25ed607e31f579ced79688cc5590517ff2dfd1aed85f0715c432d0e56b8d7d53fa1dec4c25ed607e31f579ced79688cd55517ff2dfd1aed85f0715c432d0e56b8d7d53fa1dec4c25ed607e31f579ced79688ce5589518089018b526703bf3b91c95b00008152611450818801908152610362828d01908152838a5287895291517f3ee599b7498e5f58c0cf496e6a67fe2810c85ff58f1b3809c5e04df57a6aac5d55517f3ee599b7498e5f58c0cf496e6a67fe2810c85ff58f1b3809c5e04df57a6aac5e55517f3ee599b7498e5f58c0cf496e6a67fe2810c85ff58f1b3809c5e04df57a6aac5f5589518089018b526704db73254763000081526119c881880190815261041a828d01908152838a5286895291517f88fd72165bcd3228b2975728293d34e1dc5b10f8d02106c2da453d97ba88259e55517f88fd72165bcd3228b2975728293d34e1dc5b10f8d02106c2da453d97ba88259f55517f88fd72165bcd3228b2975728293d34e1dc5b10f8d02106c2da453d97ba8825a05589518089018b52670de0b6b3a76400008152613200818801908152610686828d0190815292895283885290517f4e35876bfafde0e405c900e55a6f475631cef9a6ee8a84dcc5b7c2d3f34cc97a55517f4e35876bfafde0e405c900e55a6f475631cef9a6ee8a84dcc5b7c2d3f34cc97b55517f4e35876bfafde0e405c900e55a6f475631cef9a6ee8a84dcc5b7c2d3f34cc97c5588518088018a52670429d069189e00008152612580818701908152818b0193845260038089528a885291517fee69c65cdda9eb329ced9262963bb8486a7a0b875d65ea6fea5d6082f29d26d855517fee69c65cdda9eb329ced9262963bb8486a7a0b875d65ea6fea5d6082f29d26d95591517fee69c65cdda9eb329ced9262963bb8486a7a0b875d65ea6fea5d6082f29d26da5588518088018a52670a688906bd8b00008152613b60818701908152610f8c828c0190815284895286885291517f3b6e0960102b35c1db694ba6b177dcaa59c66c9ba0851b01eccff0beab17143255517f3b6e0960102b35c1db694ba6b177dcaa59c66c9ba0851b01eccff0beab17143355517f3b6e0960102b35c1db694ba6b177dcaa59c66c9ba0851b01eccff0beab1714345588518088018a52670ff59ee833b300008152614fb08187019081526113eb828c0190815284895285885291517f4d16478f263168393d7809adc880ac5e7305b6a7c70b135338e83054c1d8c63755517f4d16478f263168393d7809adc880ac5e7305b6a7c70b135338e83054c1d8c63855517f4d16478f263168393d7809adc880ac5e7305b6a7c70b135338e83054c1d8c6395588518088018a526730927f74c9de00008152619f60818701908152612d0b828c0190815293885282875290517fe27dfb2d9260308d6dd9fcd4a2ce73f304364e51dea6458da55186c791359aa255517fe27dfb2d9260308d6dd9fcd4a2ce73f304364e51dea6458da55186c791359aa35590517fe27dfb2d9260308d6dd9fcd4a2ce73f304364e51dea6458da55186c791359aa45587518087018952670c7d713b49da00008152616bd08186019081526125bc828b0190815260048089528a885292517fea5996a30a7b5148ea8ae9f9e6414dcb8e95eb69c5913e5c0893149dc7d6a4905590517fea5996a30a7b5148ea8ae9f9e6414dcb8e95eb69c5913e5c0893149dc7d6a49155517fea5996a30a7b5148ea8ae9f9e6414dcb8e95eb69c5913e5c0893149dc7d6a4925588518088018a52671d8f47b6fb950000815261aa50818701908152613cd0828c0190815283895286885291517f27f67f2fb764f60cab74e53493d0a4d2d76b9f5a8551fc5dbd83c8063cc2760455517f27f67f2fb764f60cab74e53493d0a4d2d76b9f5a8551fc5dbd83c8063cc2760555517f27f67f2fb764f60cab74e53493d0a4d2d76b9f5a8551fc5dbd83c8063cc276065588518088018a526729a2241af62c0000815261dc50818701908152614617828c0190815283895285885291517f2a5eb5e5cd4ef8c3653d1b20d8459ccc86f59b3b41d82ddfe5d439a689ff42e555517f2a5eb5e5cd4ef8c3653d1b20d8459ccc86f59b3b41d82ddfe5d439a689ff42e655517f2a5eb5e5cd4ef8c3653d1b20d8459ccc86f59b3b41d82ddfe5d439a689ff42e75588518088018a52676124fee993bc0000815262017a20818701908152617b4f828c0190815292885283875290517f0154c2e4713e919f56e9a62c2d9f91cf6332973d766728b279d479f2fa836f9955517f0154c2e4713e919f56e9a62c2d9f91cf6332973d766728b279d479f2fa836f9a55517f0154c2e4713e919f56e9a62c2d9f91cf6332973d766728b279d479f2fa836f9b55875180870189526718fae27693b40000815261f870818601908152616360828b0190815260058089528a885292517ffa0d179563c9e5c14edf3a8a9102984589c0ea3b3d3d699748ce2e8c4c0ab70f5590517ffa0d179563c9e5c14edf3a8a9102984589c0ea3b3d3d699748ce2e8c4c0ab71055517ffa0d179563c9e5c14edf3a8a9102984589c0ea3b3d3d699748ce2e8c4c0ab7115588518088018a526749b0e8ddcd53000081526201bee081870190815261bf7e828c0190815283895286885291517f9417635565144f98cdc337db16e3960dc472d5f2cec7490e80b187b96956e23955517f9417635565144f98cdc337db16e3960dc472d5f2cec7490e80b187b96956e23a55517f9417635565144f98cdc337db16e3960dc472d5f2cec7490e80b187b96956e23b5588518088018a5267654ecf52ac5a000081526202328081870190815261d94d828c0190815283895285885291517f822090a11f07b1fa8f4320e2328b04cac3376f13313b9fb19d7716aa7bfddae855517f822090a11f07b1fa8f4320e2328b04cac3376f13313b9fb19d7716aa7bfddae955517f822090a11f07b1fa8f4320e2328b04cac3376f13313b9fb19d7716aa7bfddaea5588518088018a5267ed4f67667b2e0000815262039080818701908152620178ec828c0190815292885283875290517fec281f185d823a12129c16fc96d4e0a64e04204d9f68fa9ab19c2164a51ab2f955517fec281f185d823a12129c16fc96d4e0a64e04204d9f68fa9ab19c2164a51ab2fa55517fec281f185d823a12129c16fc96d4e0a64e04204d9f68fa9ab19c2164a51ab2fb5587518087018952674af0a763bb1c0000815262029e5081860190815262014f28828b01908152600680895299875291517f69c676e78995e2cf5a57e312863efb1383e3f192643840df5fe092d155b1f58855517f69c676e78995e2cf5a57e312863efb1383e3f192643840df5fe092d155b1f58955517f69c676e78995e2cf5a57e312863efb1383e3f192643840df5fe092d155b1f58a558751808701895267c0c331685a2d0000815262048da0818601908152620269a8828b0190815289885294865290517f26468128a980f5566a780c2d32523aa1b434f4b4a83c4fc96fb3566c9511fa3855517f26468128a980f5566a780c2d32523aa1b434f4b4a83c4fc96fb3566c9511fa395591517f26468128a980f5566a780c2d32523aa1b434f4b4a83c4fc96fb3566c9511fa3a55865180860188526801534fd975564d000081526206ac9881850190815262035632828a0190815288875292855290517fdbc5932080e89e7fd4fa1f3bd1a06885b4fc4cf0601680e710c65b4987eb6be955517fdbc5932080e89e7fd4fa1f3bd1a06885b4fc4cf0601680e710c65b4987eb6bea55517fdbc5932080e89e7fd4fa1f3bd1a06885b4fc4cf0601680e710c65b4987eb6beb5585519384018652680302379bf2ca2e00008452620a56e0848301908152620565099685019687529490925252517f8be65cea2bf2db3461a657d06735eb4fe94f065782dde430adec36d1993ad2e955517f8be65cea2bf2db3461a657d06735eb4fe94f065782dde430adec36d1993ad2ea55517f8be65cea2bf2db3461a657d06735eb4fe94f065782dde430adec36d1993ad2eb55565b6139d0614aee565b6139d8614aee565b6139e0614aee565b60408051606081018252662386f26fc100008152678ac7230489e7ffff60208201528151600580825260c082018452919283019181602001602082028038833950505090526040810151805191945061012c916000908110613a3e57fe5b61ffff90921660209283029091019091015260408301518051604b91906001908110613a6657fe5b61ffff90921660209283029091019091015260408301518051603c91906002908110613a8e57fe5b61ffff90921660209283029091019091015260408301518051602891906003908110613ab657fe5b61ffff90921660209283029091019091015260408301518051601991906004908110613ade57fe5b61ffff90921660209283029091018201526005805460018101808355600092909252855160039091027f036b6384b5eca791c62761152d0c79bb0604c104a5fb6f4eb0703f3154bb3db08101918255868401517f036b6384b5eca791c62761152d0c79bb0604c104a5fb6f4eb0703f3154bb3db18201556040870151805193948894613b90937f036b6384b5eca791c62761152d0c79bb0604c104a5fb6f4eb0703f3154bb3db2019290910190614b71565b505060408051606081018252678ac7230489e8000081526802b5e3af16b187ffff60208201528151600580825260c08201845291945091840192508160200160208202803883395050509052604081015180519193506101f4916000908110613bf557fe5b61ffff9092166020928302909101909101526040820151805160c891906001908110613c1d57fe5b61ffff90921660209283029091019091015260408201518051609691906002908110613c4557fe5b61ffff90921660209283029091019091015260408201518051606491906003908110613c6d57fe5b61ffff90921660209283029091019091015260408201518051603291906004908110613c9557fe5b61ffff90921660209283029091018201526005805460018101808355600092909252845160039091027f036b6384b5eca791c62761152d0c79bb0604c104a5fb6f4eb0703f3154bb3db08101918255858401517f036b6384b5eca791c62761152d0c79bb0604c104a5fb6f4eb0703f3154bb3db18201556040860151805193948794613d47937f036b6384b5eca791c62761152d0c79bb0604c104a5fb6f4eb0703f3154bb3db2019290910190614b71565b5050604080516060810182526802b5e3af16b1880000815260001960208201528151600580825260c08201845291945091840192508160200160208202803883395050509052604081015180519192506102bc916000908110613da657fe5b61ffff9092166020928302909101909101526040810151805161012c91906001908110613dcf57fe5b61ffff9092166020928302909101909101526040810151805160fa91906002908110613df757fe5b61ffff90921660209283029091019091015260408101518051609691906003908110613e1f57fe5b61ffff90921660209283029091019091015260408101518051606491906004908110613e4757fe5b61ffff90921660209283029091018201526005805460018101808355600092909252835160039091027f036b6384b5eca791c62761152d0c79bb0604c104a5fb6f4eb0703f3154bb3db08101918255848401517f036b6384b5eca791c62761152d0c79bb0604c104a5fb6f4eb0703f3154bb3db182015560408501518051939486946125cf937f036b6384b5eca791c62761152d0c79bb0604c104a5fb6f4eb0703f3154bb3db2019290910190614b71565b60066020908152600a7f54cdd369e4e8a8515e52ca72ec816c2101831ad1f18bf44102ed171459c9b4f85560077f3e5fec24aa4dc4e5aee2e025e51e1392c72a2500577559fae9665c6d52bd6a3181905560057f8819ef417987f8ae7a81f42cdfb18815282fe989326fbff903d13cf0e03ace2981905560037f75f96ab15d697e93042dc45b5c896c4b27e89bb6eaf39475c5c371cb2513f7d25560017fc5069e24aaadb2addc3e52e868fcf3f4f8acf5a87e24300992fd4540c2a87eed81905560007fbfd358e93f18da3ed276c3afdbdba00b8f0b6008a03476a6a86bd6320ee6938b8190557f697b2bd7bb2984c4e0dc14c79c987d37818484a62958b9c45a0e8b962f20650f819055604080516080810182526201518042810182528188019081528183018481528351858152808a019094526060830193845287549586018089559790945281517fa66cc928b5edb82af9bd49922954155ab7b0942694bea4ce44661d9a8736c68895909602948501958655517fa66cc928b5edb82af9bd49922954155ab7b0942694bea4ce44661d9a8736c68985015591517fa66cc928b5edb82af9bd49922954155ab7b0942694bea4ce44661d9a8736c68a840155518051949591946140f1937fa66cc928b5edb82af9bd49922954155ab7b0942694bea4ce44661d9a8736c68b01929190910190614b10565b5050505060076080604051908101604052804262093a8001815260200162093a808152602001600081526020016000604051908082528060200260200182016040528015614149578160200160208202803883390190505b509052815460018181018085556000948552602094859020845160059094020192835584840151918301919091556040830151600283015560608301518051919461419c92600385019290910190614b10565b505050506007608060405190810160405280426304a286000181526020016304a2860081526020016000815260200160006040519080825280602002602001820160405280156141f6578160200160208202803883390190505b509052815460018181018085556000948552602094859020845160059094020192835584840151918301919091556040830151600283015560608301518051919461424992600385019290910190614b10565b505050506007608060405190810160405280426301e133800181526020016301e1338081526020016000815260200160006040519080825280602002602001820160405280156142a3578160200160208202803883390190505b509052815460018181018085556000948552602094859020845160059094020192835584840151918301919091556040830151600283015560608301518051919461112292600385019290910190614b10565b600080600080600a8681548110151561430b57fe5b60009182526020918290206040805160c08101825260079093029091018054600160a060020a031683526001810154838501526002810154838301526003810154606084015260048101805483518187028101870190945280845291975061441694889360808601939092918301828280156143a657602002820191906000526020600020905b815481526020019060010190808311614392575b50505050508152602001600582018054806020026020016040519081016040528092919081815260200182805480156143fe57602002820191906000526020600020905b8154815260200190600101908083116143ea575b505050505081525050866000015187602001516122b7565b151561442157600080fd5b845161442e906000611568565b6001840154909250614446903463ffffffff6122fa16565b6001840181905561445d908363ffffffff61230c16565b60018401556002830154614477908363ffffffff6122fa16565b600280850191909155600d805434019055600e805460018181018084556000939093528851919093027fbb7b4a454dc3493923482f07822329ed19e8244eff582cc204f8554c3620c3fd018054899290829060ff1916868360038111156144da57fe5b0217905550602082810151825460ff9091166101000261ff0019909116178255604092830151600192830155939092036000818152600f85528281208b90558a81526010855291822080549384018155825292902001819055905061453e34612323565b61454886836123a3565b61455233346126d2565b7f8f59dce00c1ab7202394532f1ca472fd1968974b94e346f4bb01270676cbe89686828760000151856040518085815260200184815260200183600381111561459757fe5b60ff16815260200182815260200194505050505060405180910390a195945050505050565b6000806000806007878154811015156145d157fe5b9060005260206000209060050201600001544211156145f3576145f38761477b565b600780548890811061460157fe5b60009182526020808320600260059093020191820154600160a060020a038a16845260048301909152604090922054909550908110159350915061464b828663ffffffff6122fa16565b600160a060020a03871660009081526004860160205260409020819055600285015490915081108015614682575060038401546007145b1561468c576125cf565b82158061469b57506003840154155b156146d15760038401805460018101825560009182526020909120018054600160a060020a031916600160a060020a0388161790555b6003840154600110156146f4576146f48460006001876003018054905003614866565b60038401546007101561472c57600384018054600690811061471257fe5b60009182526020909120018054600160a060020a03191690555b6003840180546004860191600091600019810190811061474857fe5b6000918252602080832090910154600160a060020a03168352820192909252604001902054600285015550505050505050565b600060078281548110151561478c57fe5b6000918252602080832060408051608081018252600594909402909101600181015481548101855284840152838201859052815194855291840190526060820192909252600780549293509091849081106147e357fe5b9060005260206000209060050201600082015181600001556020820151816001015560408201518160020155606082015181600301908051906020019061482b929190614b10565b50506040805184815290517f7cce3b409f5d6aca017a29bcb7332d4626c08cc76a25438953274f45723716c692509081900360200190a15050565b818160008183141561487757614a5f565b60048601600060038801600288880305880181548110151561489557fe5b6000918252602080832090910154600160a060020a0316835282019290925260400190205490505b818313614a39575b8086600401600088600301868154811015156148dd57fe5b6000918252602080832090910154600160a060020a031683528201929092526040019020541115614913576001909201916148c5565b856004016000876003018481548110151561492a57fe5b6000918252602080832090910154600160a060020a031683528201929092526040019020548111156149625760001990910190614913565b818313614a34576003860180548390811061497957fe5b600091825260209091200154600387018054600160a060020a0390921691859081106149a157fe5b600091825260209091200154600388018054600160a060020a0390921691869081106149c957fe5b90600052602060002001600089600301868154811015156149e657fe5b60009182526020909120018054600160a060020a03948516600160a060020a031990911617905581549383166101009190910a90810292021990921617905560019290920191600019909101905b6148bd565b81851215614a4c57614a4c868684614866565b83831215614a5f57614a5f868486614866565b505050505050565b828054828255906000526020600020908101928215614aa2579160200282015b82811115614aa2578251825591602001919060010190614a87565b50610edd929150614c16565b60c0604051908101604052806000600160a060020a0316815260200160008152602001600081526020016000815260200160608152602001606081525090565b6060604051908101604052806000815260200160008152602001606081525090565b828054828255906000526020600020908101928215614b65579160200282015b82811115614b655782518254600160a060020a031916600160a060020a03909116178255602090920191600190910190614b30565b50610edd929150614c30565b82805482825590600052602060002090600f01601090048101928215614c0a5791602002820160005b83821115614bda57835183826101000a81548161ffff021916908361ffff1602179055509260200192600201602081600101049283019260010302614b9a565b8015614c085782816101000a81549061ffff0219169055600201602081600101049283019260010302614bda565b505b50610edd929150614c54565b610efb91905b80821115610edd5760008155600101614c1c565b610efb91905b80821115610edd578054600160a060020a0319168155600101614c36565b610efb91905b80821115610edd57805461ffff19168155600101614c5a5600a165627a7a723058201b3329710b8137e79015ecab76fdb47480aa8fa8077522de0af537b380030d440029",
  "source": "pragma solidity ^0.4.24;\n\n/*\n*__/\\\\\\\\____________/\\\\\\\\________________/\\\\\\\\____________/\\\\\\\\________/\\\\\\\\\\\\_____/\\\\\\\\\\\\___________________________________________________\n* _\\/\\\\\\\\\\\\________/\\\\\\\\\\\\_______________\\/\\\\\\\\\\\\________/\\\\\\\\\\\\_______\\////\\\\\\____\\////\\\\\\___________________________________________________\n*  _\\/\\\\\\//\\\\\\____/\\\\\\//\\\\\\____/\\\\\\__/\\\\\\_\\/\\\\\\//\\\\\\____/\\\\\\//\\\\\\__/\\\\\\____\\/\\\\\\_______\\/\\\\\\_____/\\\\\\__________________________________________\n*   _\\/\\\\\\\\///\\\\\\/\\\\\\/_\\/\\\\\\___\\//\\\\\\/\\\\\\__\\/\\\\\\\\///\\\\\\/\\\\\\/_\\/\\\\\\_\\///_____\\/\\\\\\_______\\/\\\\\\____\\///______/\\\\\\\\\\_____/\\\\/\\\\\\\\\\\\____/\\\\\\\\\\\\\\\\\\\\_\n*    _\\/\\\\\\__\\///\\\\\\/___\\/\\\\\\____\\//\\\\\\\\\\___\\/\\\\\\__\\///\\\\\\/___\\/\\\\\\__/\\\\\\____\\/\\\\\\_______\\/\\\\\\_____/\\\\\\___/\\\\\\///\\\\\\__\\/\\\\\\////\\\\\\__\\/\\\\\\//////__\n*     _\\/\\\\\\____\\///_____\\/\\\\\\_____\\//\\\\\\____\\/\\\\\\____\\///_____\\/\\\\\\_\\/\\\\\\____\\/\\\\\\_______\\/\\\\\\____\\/\\\\\\__/\\\\\\__\\//\\\\\\_\\/\\\\\\__\\//\\\\\\_\\/\\\\\\\\\\\\\\\\\\\\_\n*      _\\/\\\\\\_____________\\/\\\\\\__/\\\\_/\\\\\\_____\\/\\\\\\_____________\\/\\\\\\_\\/\\\\\\____\\/\\\\\\_______\\/\\\\\\____\\/\\\\\\_\\//\\\\\\__/\\\\\\__\\/\\\\\\___\\/\\\\\\_\\////////\\\\\\_\n*       _\\/\\\\\\_____________\\/\\\\\\_\\//\\\\\\\\/______\\/\\\\\\_____________\\/\\\\\\_\\/\\\\\\__/\\\\\\\\\\\\\\\\\\__/\\\\\\\\\\\\\\\\\\_\\/\\\\\\__\\///\\\\\\\\\\/___\\/\\\\\\___\\/\\\\\\__/\\\\\\\\\\\\\\\\\\\\_\n*        _\\///______________\\///___\\////________\\///______________\\///__\\///__\\/////////__\\/////////__\\///_____\\/////_____\\///____\\///__\\//////////__\n*/\n\nimport \"./Math.sol\";\nimport \"./Ownable.sol\";\nimport \"./LeaderSystem.sol\";\nimport \"./SafeMath.sol\";\n\ncontract Factoring {\n\n    enum FactoryType { Wood, Metal, Oil, PreciousMetal }\n\n    mapping (uint8 => uint256) public resourcePrices;\n\n    function setupFactoringModule() internal {\n        resourcePrices[uint8(FactoryType.Wood)]         = 0.02315 szabo;\n        resourcePrices[uint8(FactoryType.Metal)]        = 0.03646 szabo;\n        resourcePrices[uint8(FactoryType.Oil)]          = 0.04244 szabo;\n        resourcePrices[uint8(FactoryType.PreciousMetal)]= 0.06655 szabo;\n    }\n\n    function getResourcePrice(uint8 _type) public view returns(uint256) {\n        return resourcePrices[_type];\n    }\n\n}\n\ncontract Improvements is Factoring {\n\n    mapping (uint8 => mapping (uint8 => Params)) public levelStack;\n    uint8 public constant levelsCount = 7;\n\n    struct Params {\n        uint256 price;      // improvements cost\n        uint256 ppm;        // products per minute\n        uint256 ppmBonus;   // bonus per minute\n    }\n\n    function setupImprovementsModule() internal {\n        // initial pricess\n        levelStack[uint8(FactoryType.Wood)][0]          = Params(0.01 ether, 200, 0);\n        levelStack[uint8(FactoryType.Metal)][0]         = Params(0.03 ether, 400, 0);\n        levelStack[uint8(FactoryType.Oil)][0]           = Params(0.05 ether, 600, 0);\n        levelStack[uint8(FactoryType.PreciousMetal)][0] = Params(0.10 ether, 800, 0);\n\n        // level 1\n        levelStack[uint8(FactoryType.Wood)][1]          = Params(0.05 ether, 1200, 120);\n        levelStack[uint8(FactoryType.Metal)][1]         = Params(0.09 ether, 1600, 138);\n        levelStack[uint8(FactoryType.Oil)][1]           = Params(0.15 ether, 2400, 164);\n        levelStack[uint8(FactoryType.PreciousMetal)][1] = Params(0.50 ether, 4800, 418);\n\n        // level 2\n        levelStack[uint8(FactoryType.Wood)][2]          = Params(0.12 ether, 3600, 540);\n        levelStack[uint8(FactoryType.Metal)][2]         = Params(0.27 ether, 5200, 866);\n        levelStack[uint8(FactoryType.Oil)][2]           = Params(0.35 ether, 6600, 1050);\n        levelStack[uint8(FactoryType.PreciousMetal)][2] = Params(1.00 ether, 12800, 1670);\n\n        // level 3\n        levelStack[uint8(FactoryType.Wood)][3]          = Params(0.30 ether, 9600, 2400);\n        levelStack[uint8(FactoryType.Metal)][3]         = Params(0.75 ether, 15200, 3980);\n        levelStack[uint8(FactoryType.Oil)][3]           = Params(1.15 ether, 20400, 5099);\n        levelStack[uint8(FactoryType.PreciousMetal)][3] = Params(3.50 ether, 40800, 11531);\n\n        // level 4\n        levelStack[uint8(FactoryType.Wood)][4]          = Params(0.90 ether, 27600, 9660);\n        levelStack[uint8(FactoryType.Metal)][4]         = Params(2.13 ether, 43600, 15568);\n        levelStack[uint8(FactoryType.Oil)][4]           = Params(3.00 ether, 56400, 17943);\n        levelStack[uint8(FactoryType.PreciousMetal)][4] = Params(7.00 ether, 96800, 31567);\n\n        // level 5\n        levelStack[uint8(FactoryType.Wood)][5]          = Params(1.80 ether, 63600, 25440);\n        levelStack[uint8(FactoryType.Metal)][5]         = Params(5.31 ether, 114400, 49022);\n        levelStack[uint8(FactoryType.Oil)][5]           = Params(7.30 ether, 144000, 55629);\n        levelStack[uint8(FactoryType.PreciousMetal)][5] = Params(17.10 ether, 233600, 96492);\n\n        // level 6\n        levelStack[uint8(FactoryType.Wood)][6]          = Params(5.40 ether, 171600, 85800);\n        levelStack[uint8(FactoryType.Metal)][6]         = Params(13.89 ether, 298400, 158120);\n        levelStack[uint8(FactoryType.Oil)][6]           = Params(24.45 ether, 437400, 218674);\n        levelStack[uint8(FactoryType.PreciousMetal)][6] = Params(55.50 ether, 677600, 353545);\n    }\n\n    function getPrice(FactoryType _type, uint8 _level) public view returns(uint256) {\n        return levelStack[uint8(_type)][_level].price;\n    }\n\n    function getProductsPerMinute(FactoryType _type, uint8 _level) public view returns(uint256) {\n        return levelStack[uint8(_type)][_level].ppm;\n    }\n\n    function getBonusPerMinute(FactoryType _type, uint8 _level) public view returns(uint256) {\n        return levelStack[uint8(_type)][_level].ppmBonus;\n    }\n}\n\ncontract ReferralsSystem {\n\n    struct ReferralGroup {\n        uint256 minSum;\n        uint256 maxSum;\n        uint16[] percents;\n    }\n\n    uint256 public constant minSumReferral = 0.01 ether;\n    uint256 public constant referralLevelsGroups = 3;\n    uint256 public constant referralLevelsCount = 5;\n    ReferralGroup[] public referralGroups;\n\n    function setupReferralsSystemModule() internal {\n        ReferralGroup memory refGroupFirsty = ReferralGroup(minSumReferral, 10 ether - 1 wei, new uint16[](referralLevelsCount));\n        refGroupFirsty.percents[0] = 300;   // 3%\n        refGroupFirsty.percents[1] = 75;    // 0.75%\n        refGroupFirsty.percents[2] = 60;    // 0.6%\n        refGroupFirsty.percents[3] = 40;    // 0.4%\n        refGroupFirsty.percents[4] = 25;    // 0.25%\n        referralGroups.push(refGroupFirsty);\n\n        ReferralGroup memory refGroupLoyalty = ReferralGroup(10 ether, 50 ether - 1 wei, new uint16[](referralLevelsCount));\n        refGroupLoyalty.percents[0] = 500;  // 5%\n        refGroupLoyalty.percents[1] = 200;  // 2%\n        refGroupLoyalty.percents[2] = 150;  // 1.5%\n        refGroupLoyalty.percents[3] = 100;  // 1%\n        refGroupLoyalty.percents[4] = 50;   // 0.5%\n        referralGroups.push(refGroupLoyalty);\n\n        ReferralGroup memory refGroupUltraPremium = ReferralGroup(50 ether, 2**256 - 1, new uint16[](referralLevelsCount));\n        refGroupUltraPremium.percents[0] = 700; // 7%\n        refGroupUltraPremium.percents[1] = 300; // 3%\n        refGroupUltraPremium.percents[2] = 250; // 2.5%\n        refGroupUltraPremium.percents[3] = 150; // 1.5%\n        refGroupUltraPremium.percents[4] = 100; // 1%\n        referralGroups.push(refGroupUltraPremium);\n    }\n\n    function getReferralPercents(uint256 _sum) public view returns(uint16[]) {\n        for (uint i = 0; i < referralLevelsGroups; i++) {\n            ReferralGroup memory group = referralGroups[i];\n            if (_sum >= group.minSum && _sum <= group.maxSum) return group.percents;\n        }\n    }\n\n    function getReferralPercentsByIndex(uint256 _index) public view returns(uint16[]) {\n        return referralGroups[_index].percents;\n    }\n\n}\n\n/// @title Smart-contract of MyMillions ecosystem\n/// @author Shagaleev Alexey\ncontract MyMillions is Ownable, Improvements, ReferralsSystem, LeaderSystem {\n    using SafeMath for uint256;\n\n    event CreateUser(uint256 _index, address _address, uint256 _balance);\n    event ReferralRegister(uint256 _refferalId, uint256 _userId);\n    event ReferrerDistribute(uint256 _userId, uint256 _referrerId, uint256 _sum);\n    event Deposit(uint256 _userId, uint256 _value);\n    event PaymentProceed(uint256 _userId, uint256 _factoryId, FactoryType _factoryType, uint256 _price);\n    event CollectResources(FactoryType _type, uint256 _resources);\n    event LevelUp(uint256 _factoryId, uint8 _newLevel, uint256 _userId, uint256 _price);\n    event Sell(uint256 _userId, uint8 _type, uint256 _sum);\n\n    bool isSetted = false;\n    uint256 public minSumDeposit = 0.01 ether;\n\n    struct User {\n        address addr;                                   // user address\n        uint256 balance;                                // balance of account\n        uint256 totalPay;                               // sum of all input pay\n        uint256 referrersReceived;                      // total deposit from referrals\n        uint256[] resources;                            // collected resources\n        uint256[] referrersByLevel;                     // referrers user ids\n        mapping (uint8 => uint256[]) referralsByLevel;  // all referrals user ids\n    }\n\n    User[] public users;\n    mapping (address => uint256) public addressToUser;\n    uint256 public totalUsers = 0;\n    uint256 public totalDeposit = 0;\n\n    struct Factory {\n        FactoryType ftype;      // factory type\n        uint8 level;            // factory level\n        uint256 collected_at;   // timestamp updated\n    }\n\n    Factory[] public factories;\n    mapping (uint256 => uint256) public factoryToUser;\n    mapping (uint256 => uint256[]) public userToFactories;\n\n    modifier onlyExistingUser() {\n        require(addressToUser[msg.sender] != 0);\n        _;\n    }\n    modifier onlyNotExistingUser() {\n        require(addressToUser[msg.sender] == 0);\n        _;\n    }\n\n    constructor() public payable {\n        users.push(User(0x0, 0, 0, 0, new uint256[](4), new uint256[](referralLevelsCount)));  // for find by addressToUser map\n    }\n\n    function setup() public onlyOwner {\n        require(isSetted == false);\n        isSetted = true;\n\n        setupFactoringModule();\n        setupImprovementsModule();\n        setupReferralsSystemModule();\n        setupLeaderSystemModule();\n    }\n\n    // @dev register for only new users with min pay\n    /// @return id of new user\n    function register() public payable onlyNotExistingUser returns(uint256) {\n        require(addressToUser[msg.sender] == 0);\n\n        uint256 index = users.push(User(msg.sender, msg.value, 0, 0, new uint256[](4), new uint256[](referralLevelsCount))) - 1;\n        addressToUser[msg.sender] = index;\n        totalUsers++;\n\n        emit CreateUser(index, msg.sender, msg.value);\n        return index;\n    }\n\n\n    /// @notice just registry by referral link\n    /// @param _refId the ID of the user who gets the affiliate fee\n    /// @return id of new user\n    function registerWithRefID(uint256 _refId) public payable onlyNotExistingUser returns(uint256) {\n        require(_refId < users.length);\n\n        uint256 index = register();\n        _updateReferrals(index, _refId);\n\n        emit ReferralRegister(_refId, index);\n        return index;\n    }\n\n    /// @notice update referrersByLevel and referralsByLevel of new user\n    /// @param _newUserId the ID of the new user\n    /// @param _refUserId the ID of the user who gets the affiliate fee\n    function _updateReferrals(uint256 _newUserId, uint256 _refUserId) private {\n        if (_newUserId == _refUserId) return;\n        users[_newUserId].referrersByLevel[0] = _refUserId;\n\n        for (uint i = 1; i < referralLevelsCount; i++) {\n            uint256 _refId = users[_refUserId].referrersByLevel[i - 1];\n            users[_newUserId].referrersByLevel[i] = _refId;\n            users[_refId].referralsByLevel[uint8(i)].push(_newUserId);\n        }\n\n        users[_refUserId].referralsByLevel[0].push(_newUserId);\n    }\n\n    /// @notice distribute value of tx to referrers of user\n    /// @param _userId the ID of the user who gets the affiliate fee\n    /// @param _sum value of ethereum for distribute to referrers of user\n    function _distributeReferrers(uint256 _userId, uint256 _sum) private {\n        uint256[] memory referrers = users[_userId].referrersByLevel;\n\n        for (uint i = 0; i < referralLevelsCount; i++) {\n            uint256 referrerId = referrers[i];\n\n            if (referrers[i] == 0) break;\n            if (users[referrerId].totalPay < minSumReferral) continue;\n\n            uint16[] memory percents = getReferralPercents(users[referrerId].totalPay);\n            uint256 value = _sum * percents[i] / 10000;\n            users[referrerId].balance = users[referrerId].balance.add(value);\n            users[referrerId].referrersReceived = users[referrerId].referrersReceived.add(value);\n\n            emit ReferrerDistribute(_userId, referrerId, value);\n        }\n    }\n\n    /// @notice deposit ethereum for user\n    /// @return balance value of user\n    function deposit() public payable onlyExistingUser returns(uint256) {\n        require(msg.value > minSumDeposit, \"Deposit does not enough\");\n        uint256 userId = addressToUser[msg.sender];\n        users[userId].balance = users[userId].balance.add(msg.value);\n        totalDeposit += msg.value;\n\n        // distribute\n        _distributeInvestment(msg.value);\n        _updateLeaders(msg.sender, msg.value);\n\n        emit Deposit(userId, msg.value);\n        return users[userId].balance;\n    }\n\n    /// @notice getter for balance of user\n    /// @return balance value of user\n    function balanceOf() public view returns (uint256) {\n        return users[addressToUser[msg.sender]].balance;\n    }\n\n    /// @notice getter for resources of user\n    /// @return resources value of user\n    function resoucesOf() public view returns (uint256[]) {\n        return users[addressToUser[msg.sender]].resources;\n    }\n\n    /// @notice getter for referrers of user\n    /// @return array of referrers id\n    function referrersOf() public view returns (uint256[]) {\n        return users[addressToUser[msg.sender]].referrersByLevel;\n    }\n\n    /// @notice getter for referrals of user by level\n    /// @param _level level of referrals user needed\n    /// @return array of referrals id\n    function referralsOf(uint8 _level) public view returns (uint256[]) {\n        return users[addressToUser[msg.sender]].referralsByLevel[uint8(_level)];\n    }\n\n    /// @notice getter for extended information of user\n    /// @param _userId id of user needed\n    /// @return address of user\n    /// @return balance of user\n    /// @return totalPay of user\n    /// @return array of resources user\n    /// @return array of referrers id user\n    function userInfo(uint256 _userId) public view returns(address, uint256, uint256, uint256, uint256[], uint256[]) {\n        User memory user = users[_userId];\n        return (user.addr, user.balance, user.totalPay, user.referrersReceived, user.resources, user.referrersByLevel);\n    }\n\n    /// @notice mechanics of buying any factory\n    /// @param _type type of factory needed\n    /// @return id of new factory\n    function buyFactory(FactoryType _type) public payable onlyExistingUser returns (uint256) {\n        uint256 userId = addressToUser[msg.sender];\n\n        // if user not registered\n        if (addressToUser[msg.sender] == 0)\n            userId = register();\n\n        return _paymentProceed(userId, Factory(_type, 0, now));\n    }\n\n    /// @notice get factories of user\n    /// @param _user_id id of user\n    /// @return array of id factory\n    function getFactories(uint256 _user_id) public view returns (uint256[]) {\n        return userToFactories[_user_id];\n    }\n\n    /// @notice buy wood factory\n    /// @dev wrapper over buyFactory for FactoryType.Wood\n    /// @return id of new factory\n    function buyWoodFactory() public payable returns (uint256) {\n        return buyFactory(FactoryType.Wood);\n    }\n\n    /// @notice buy wood factory\n    /// @dev wrapper over buyFactory for FactoryType.Metal\n    /// @return id of new factory\n    function buyMetalFactory() public payable returns (uint256) {\n        return buyFactory(FactoryType.Metal);\n    }\n\n    /// @notice buy wood factory\n    /// @dev wrapper over buyFactory for FactoryType.Oil\n    /// @return id of new factory\n    function buyOilFactory() public payable returns (uint256) {\n        return buyFactory(FactoryType.Oil);\n    }\n\n    /// @notice buy wood factory\n    /// @dev wrapper over buyFactory for FactoryType.PreciousMetal\n    /// @return id of new factory\n    function buyPreciousMetal() public payable returns (uint256) {\n        return buyFactory(FactoryType.PreciousMetal);\n    }\n\n    /// @notice distribute investment when user buy anything\n    /// @param _value value of investment\n    function _distributeInvestment(uint256 _value) private {\n        developers.transfer(msg.value * developersPercent / 100);\n        marketers.transfer(msg.value * marketersPercent / 100);\n    }\n\n    /// @notice function of proceed payment\n    /// @dev for only buy new factory\n    /// @return id of new factory\n    function _paymentProceed(uint256 _userId, Factory _factory) private returns(uint256) {\n        User storage user = users[_userId];\n\n        require(_checkPayment(user, _factory.ftype, _factory.level));\n\n        uint256 price = getPrice(_factory.ftype, 0);\n        user.balance = user.balance.add(msg.value);\n        user.balance = user.balance.sub(price);\n        user.totalPay = user.totalPay.add(price);\n        totalDeposit += msg.value;\n\n        uint256 index = factories.push(_factory) - 1;\n        factoryToUser[index] = _userId;\n        userToFactories[_userId].push(index);\n\n        // distribute\n        _distributeInvestment(msg.value);\n        _distributeReferrers(_userId, price);\n        _updateLeaders(msg.sender, msg.value);\n\n        emit PaymentProceed(_userId, index, _factory.ftype, price);\n        return index;\n    }\n\n    /// @notice check available investment\n    /// @return true if user does enough balance for investment\n    function _checkPayment(User _user, FactoryType _type, uint8 _level) private view returns(bool) {\n        uint256 totalBalance = _user.balance.add(msg.value);\n\n        if (totalBalance < getPrice(_type, _level)) return false;\n\n        return true;\n    }\n\n    /// @notice level up for factory\n    /// @param _factoryId id of factory\n    function levelUp(uint256 _factoryId) public payable onlyExistingUser {\n        Factory storage factory = factories[_factoryId];\n        uint256 price = getPrice(factory.ftype, factory.level + 1);\n\n        uint256 userId = addressToUser[msg.sender];\n        User storage user = users[userId];\n\n        require(_checkPayment(user, factory.ftype, factory.level + 1));\n\n        // payment\n        user.balance = user.balance.add(msg.value);\n        user.balance = user.balance.sub(price);\n        user.totalPay = user.totalPay.add(price);\n        totalDeposit += msg.value;\n\n        _distributeInvestment(msg.value);\n        _distributeReferrers(userId, price);\n\n        // collect\n        _collectResource(factory, user);\n        factory.level++;\n\n        _updateLeaders(msg.sender, msg.value);\n\n        emit LevelUp(_factoryId, factory.level, userId, price);\n    }\n\n    /// @notice sell resources of user with type\n    /// @param _type type of resources\n    /// @return sum of sell\n    function sellResources(uint8 _type) public onlyExistingUser returns(uint256) {\n        uint256 userId = addressToUser[msg.sender];\n        uint256 sum = Math.min(users[userId].resources[_type] * getResourcePrice(_type), address(this).balance);\n        users[userId].resources[_type] = 0;\n\n        msg.sender.transfer(sum);\n\n        emit Sell(userId, _type, sum);\n        return sum;\n    }\n\n    /// @notice function for compute worktime factory\n    /// @param _collected_at timestamp of start\n    /// @return duration minutes\n    function worktimeAtDate(uint256 _collected_at) public view returns(uint256) {\n        return (now - _collected_at) / 60;\n    }\n\n    /// @notice function for compute duration work factory\n    /// @param _factoryId id of factory\n    /// @return timestamp of duration\n    function worktime(uint256 _factoryId) public view returns(uint256) {\n        return worktimeAtDate(factories[_factoryId].collected_at);\n    }\n\n    /// @notice function for compute resource factory at time\n    /// @param _type type of factory\n    /// @param _level level of factory\n    /// @param _collected_at timestamp for collect\n    /// @return count of resources\n    function _resourcesAtTime(FactoryType _type, uint8 _level, uint256 _collected_at) public view returns(uint256) {\n        return worktimeAtDate(_collected_at) * (getProductsPerMinute(_type, _level) + getBonusPerMinute(_type, _level)) / 100;\n    }\n\n    /// @notice function for compute resource factory at time\n    /// @dev wrapper over _resourcesAtTime\n    /// @param _factoryId id of factory\n    /// @return count of resources\n    function resourcesAtTime(uint256 _factoryId) public view returns(uint256) {\n        Factory storage factory = factories[_factoryId];\n        return _resourcesAtTime(factory.ftype, factory.level, factory.collected_at);\n    }\n\n    /// @notice function for collect resource\n    /// @param _factory factory object\n    /// @param _user user object\n    /// @return count of resources\n    function _collectResource(Factory storage _factory, User storage _user) internal returns(uint256) {\n        uint256 resources = _resourcesAtTime(_factory.ftype, _factory.level, _factory.collected_at);\n        _user.resources[uint8(_factory.ftype)] = _user.resources[uint8(_factory.ftype)].add(resources);\n        _factory.collected_at = now;\n\n        emit CollectResources(_factory.ftype, resources);\n        return resources;\n    }\n\n    /// @notice function for collect all resources from all factories\n    /// @dev wrapper over _collectResource\n    function collectResources() public onlyExistingUser {\n        uint256 index = addressToUser[msg.sender];\n        User storage user = users[index];\n        uint256[] storage factoriesIds = userToFactories[addressToUser[msg.sender]];\n\n        for (uint256 i = 0; i < factoriesIds.length; i++) {\n            _collectResource(factories[factoriesIds[i]], user);\n        }\n    }\n\n}",
  "sourcePath": "/Users/alexey/Projects/DApps/MyMillions/contracts/MyMillions.sol",
  "compiler": {
    "name": "solc",
    "version": "0.4.24+commit.e67f0147.Emscripten.clang"
  },
  "schemaVersion": "2.0.1",
  "updatedAt": "2018-12-08T09:19:59.432Z"
}