{
  "contractName": "MyMillions",
  "abi": [
    {
      "constant": true,
      "inputs": [
        {
          "name": "",
          "type": "uint8"
        }
      ],
      "name": "leaderBonuses",
      "outputs": [
        {
          "name": "",
          "type": "uint256"
        }
      ],
      "payable": false,
      "stateMutability": "view",
      "type": "function"
    },
    {
      "constant": true,
      "inputs": [],
      "name": "developers",
      "outputs": [
        {
          "name": "",
          "type": "address"
        }
      ],
      "payable": false,
      "stateMutability": "view",
      "type": "function"
    },
    {
      "constant": true,
      "inputs": [
        {
          "name": "",
          "type": "uint256"
        }
      ],
      "name": "users",
      "outputs": [
        {
          "name": "addr",
          "type": "address"
        },
        {
          "name": "balance",
          "type": "uint256"
        },
        {
          "name": "totalPay",
          "type": "uint256"
        },
        {
          "name": "referrersReceived",
          "type": "uint256"
        }
      ],
      "payable": false,
      "stateMutability": "view",
      "type": "function"
    },
    {
      "constant": true,
      "inputs": [],
      "name": "developersPercent",
      "outputs": [
        {
          "name": "",
          "type": "uint256"
        }
      ],
      "payable": false,
      "stateMutability": "view",
      "type": "function"
    },
    {
      "constant": true,
      "inputs": [
        {
          "name": "_indexTable",
          "type": "uint256"
        }
      ],
      "name": "getLeadersTableInfo",
      "outputs": [
        {
          "name": "",
          "type": "uint256"
        },
        {
          "name": "",
          "type": "uint256"
        },
        {
          "name": "",
          "type": "uint256"
        }
      ],
      "payable": false,
      "stateMutability": "view",
      "type": "function"
    },
    {
      "constant": true,
      "inputs": [
        {
          "name": "",
          "type": "uint256"
        }
      ],
      "name": "factoryToUser",
      "outputs": [
        {
          "name": "",
          "type": "uint256"
        }
      ],
      "payable": false,
      "stateMutability": "view",
      "type": "function"
    },
    {
      "constant": true,
      "inputs": [
        {
          "name": "_type",
          "type": "uint8"
        }
      ],
      "name": "getResourcePrice",
      "outputs": [
        {
          "name": "",
          "type": "uint256"
        }
      ],
      "payable": false,
      "stateMutability": "view",
      "type": "function"
    },
    {
      "constant": true,
      "inputs": [
        {
          "name": "_indexTable",
          "type": "uint256"
        }
      ],
      "name": "getLeaders",
      "outputs": [
        {
          "name": "",
          "type": "address[]"
        },
        {
          "name": "",
          "type": "uint256[]"
        }
      ],
      "payable": false,
      "stateMutability": "view",
      "type": "function"
    },
    {
      "constant": true,
      "inputs": [
        {
          "name": "_index",
          "type": "uint256"
        }
      ],
      "name": "getReferralPercentsByIndex",
      "outputs": [
        {
          "name": "",
          "type": "uint16[]"
        }
      ],
      "payable": false,
      "stateMutability": "view",
      "type": "function"
    },
    {
      "constant": true,
      "inputs": [],
      "name": "minSumReferral",
      "outputs": [
        {
          "name": "",
          "type": "uint256"
        }
      ],
      "payable": false,
      "stateMutability": "view",
      "type": "function"
    },
    {
      "constant": true,
      "inputs": [
        {
          "name": "_type",
          "type": "uint8"
        },
        {
          "name": "_level",
          "type": "uint8"
        }
      ],
      "name": "getPrice",
      "outputs": [
        {
          "name": "",
          "type": "uint256"
        }
      ],
      "payable": false,
      "stateMutability": "view",
      "type": "function"
    },
    {
      "constant": true,
      "inputs": [
        {
          "name": "",
          "type": "uint256"
        }
      ],
      "name": "factories",
      "outputs": [
        {
          "name": "ftype",
          "type": "uint8"
        },
        {
          "name": "level",
          "type": "uint8"
        },
        {
          "name": "collected_at",
          "type": "uint256"
        }
      ],
      "payable": false,
      "stateMutability": "view",
      "type": "function"
    },
    {
      "constant": true,
      "inputs": [
        {
          "name": "_type",
          "type": "uint8"
        },
        {
          "name": "_level",
          "type": "uint8"
        }
      ],
      "name": "getBonusPerMinute",
      "outputs": [
        {
          "name": "",
          "type": "uint256"
        }
      ],
      "payable": false,
      "stateMutability": "view",
      "type": "function"
    },
    {
      "constant": true,
      "inputs": [],
      "name": "levelsCount",
      "outputs": [
        {
          "name": "",
          "type": "uint8"
        }
      ],
      "payable": false,
      "stateMutability": "view",
      "type": "function"
    },
    {
      "constant": false,
      "inputs": [
        {
          "name": "newDevelopers",
          "type": "address"
        }
      ],
      "name": "setDevelopers",
      "outputs": [],
      "payable": false,
      "stateMutability": "nonpayable",
      "type": "function"
    },
    {
      "constant": true,
      "inputs": [],
      "name": "owner",
      "outputs": [
        {
          "name": "",
          "type": "address"
        }
      ],
      "payable": false,
      "stateMutability": "view",
      "type": "function"
    },
    {
      "constant": true,
      "inputs": [
        {
          "name": "_sum",
          "type": "uint256"
        }
      ],
      "name": "getReferralPercents",
      "outputs": [
        {
          "name": "",
          "type": "uint16[]"
        }
      ],
      "payable": false,
      "stateMutability": "view",
      "type": "function"
    },
    {
      "constant": true,
      "inputs": [],
      "name": "leadersCount",
      "outputs": [
        {
          "name": "",
          "type": "uint8"
        }
      ],
      "payable": false,
      "stateMutability": "view",
      "type": "function"
    },
    {
      "constant": true,
      "inputs": [
        {
          "name": "",
          "type": "uint256"
        }
      ],
      "name": "referralGroups",
      "outputs": [
        {
          "name": "minSum",
          "type": "uint256"
        },
        {
          "name": "maxSum",
          "type": "uint256"
        }
      ],
      "payable": false,
      "stateMutability": "view",
      "type": "function"
    },
    {
      "constant": true,
      "inputs": [
        {
          "name": "_type",
          "type": "uint8"
        },
        {
          "name": "_level",
          "type": "uint8"
        }
      ],
      "name": "getProductsPerMinute",
      "outputs": [
        {
          "name": "",
          "type": "uint256"
        }
      ],
      "payable": false,
      "stateMutability": "view",
      "type": "function"
    },
    {
      "constant": true,
      "inputs": [
        {
          "name": "",
          "type": "uint256"
        }
      ],
      "name": "leaders",
      "outputs": [
        {
          "name": "timestampEnd",
          "type": "uint256"
        },
        {
          "name": "duration",
          "type": "uint256"
        },
        {
          "name": "minSum",
          "type": "uint256"
        }
      ],
      "payable": false,
      "stateMutability": "view",
      "type": "function"
    },
    {
      "constant": true,
      "inputs": [
        {
          "name": "",
          "type": "uint8"
        }
      ],
      "name": "resourcePrices",
      "outputs": [
        {
          "name": "",
          "type": "uint256"
        }
      ],
      "payable": false,
      "stateMutability": "view",
      "type": "function"
    },
    {
      "constant": true,
      "inputs": [],
      "name": "referralLevelsGroups",
      "outputs": [
        {
          "name": "",
          "type": "uint256"
        }
      ],
      "payable": false,
      "stateMutability": "view",
      "type": "function"
    },
    {
      "constant": true,
      "inputs": [
        {
          "name": "",
          "type": "uint8"
        },
        {
          "name": "",
          "type": "uint8"
        }
      ],
      "name": "levelStack",
      "outputs": [
        {
          "name": "price",
          "type": "uint256"
        },
        {
          "name": "ppm",
          "type": "uint256"
        },
        {
          "name": "ppmBonus",
          "type": "uint256"
        }
      ],
      "payable": false,
      "stateMutability": "view",
      "type": "function"
    },
    {
      "constant": true,
      "inputs": [
        {
          "name": "",
          "type": "address"
        }
      ],
      "name": "addressToUser",
      "outputs": [
        {
          "name": "",
          "type": "uint256"
        }
      ],
      "payable": false,
      "stateMutability": "view",
      "type": "function"
    },
    {
      "constant": false,
      "inputs": [
        {
          "name": "newOwner",
          "type": "address"
        }
      ],
      "name": "transferOwnership",
      "outputs": [],
      "payable": false,
      "stateMutability": "nonpayable",
      "type": "function"
    },
    {
      "constant": true,
      "inputs": [],
      "name": "minSumDeposit",
      "outputs": [
        {
          "name": "",
          "type": "uint256"
        }
      ],
      "payable": false,
      "stateMutability": "view",
      "type": "function"
    },
    {
      "constant": true,
      "inputs": [],
      "name": "referralLevelsCount",
      "outputs": [
        {
          "name": "",
          "type": "uint256"
        }
      ],
      "payable": false,
      "stateMutability": "view",
      "type": "function"
    },
    {
      "constant": true,
      "inputs": [
        {
          "name": "",
          "type": "uint256"
        },
        {
          "name": "",
          "type": "uint256"
        }
      ],
      "name": "userToFactories",
      "outputs": [
        {
          "name": "",
          "type": "uint256"
        }
      ],
      "payable": false,
      "stateMutability": "view",
      "type": "function"
    },
    {
      "inputs": [],
      "payable": true,
      "stateMutability": "payable",
      "type": "constructor"
    },
    {
      "anonymous": false,
      "inputs": [
        {
          "indexed": false,
          "name": "_index",
          "type": "uint256"
        },
        {
          "indexed": false,
          "name": "_address",
          "type": "address"
        },
        {
          "indexed": false,
          "name": "_balance",
          "type": "uint256"
        }
      ],
      "name": "CreateUser",
      "type": "event"
    },
    {
      "anonymous": false,
      "inputs": [
        {
          "indexed": false,
          "name": "_refferalId",
          "type": "uint256"
        },
        {
          "indexed": false,
          "name": "_userId",
          "type": "uint256"
        }
      ],
      "name": "ReferralRegister",
      "type": "event"
    },
    {
      "anonymous": false,
      "inputs": [
        {
          "indexed": false,
          "name": "_userId",
          "type": "uint256"
        },
        {
          "indexed": false,
          "name": "_referrerId",
          "type": "uint256"
        },
        {
          "indexed": false,
          "name": "_sum",
          "type": "uint256"
        }
      ],
      "name": "ReferrerDistribute",
      "type": "event"
    },
    {
      "anonymous": false,
      "inputs": [
        {
          "indexed": false,
          "name": "_userId",
          "type": "uint256"
        },
        {
          "indexed": false,
          "name": "_value",
          "type": "uint256"
        }
      ],
      "name": "Deposit",
      "type": "event"
    },
    {
      "anonymous": false,
      "inputs": [
        {
          "indexed": false,
          "name": "_userId",
          "type": "uint256"
        },
        {
          "indexed": false,
          "name": "_factoryId",
          "type": "uint256"
        },
        {
          "indexed": false,
          "name": "_factoryType",
          "type": "uint8"
        },
        {
          "indexed": false,
          "name": "_price",
          "type": "uint256"
        }
      ],
      "name": "PaymentProceed",
      "type": "event"
    },
    {
      "anonymous": false,
      "inputs": [
        {
          "indexed": false,
          "name": "_type",
          "type": "uint8"
        },
        {
          "indexed": false,
          "name": "_resources",
          "type": "uint256"
        }
      ],
      "name": "CollectResources",
      "type": "event"
    },
    {
      "anonymous": false,
      "inputs": [
        {
          "indexed": false,
          "name": "_factoryId",
          "type": "uint256"
        },
        {
          "indexed": false,
          "name": "_newLevel",
          "type": "uint8"
        },
        {
          "indexed": false,
          "name": "_userId",
          "type": "uint256"
        }
      ],
      "name": "LevelUp",
      "type": "event"
    },
    {
      "anonymous": false,
      "inputs": [
        {
          "indexed": false,
          "name": "_userId",
          "type": "uint256"
        },
        {
          "indexed": false,
          "name": "_type",
          "type": "uint8"
        },
        {
          "indexed": false,
          "name": "_sum",
          "type": "uint256"
        }
      ],
      "name": "Sell",
      "type": "event"
    },
    {
      "anonymous": false,
      "inputs": [
        {
          "indexed": false,
          "name": "_indexTable",
          "type": "uint256"
        },
        {
          "indexed": false,
          "name": "_addr",
          "type": "address"
        },
        {
          "indexed": false,
          "name": "_index",
          "type": "uint256"
        },
        {
          "indexed": false,
          "name": "_sum",
          "type": "uint256"
        }
      ],
      "name": "NewLeader",
      "type": "event"
    },
    {
      "anonymous": false,
      "inputs": [
        {
          "indexed": false,
          "name": "_indexTable",
          "type": "uint256"
        }
      ],
      "name": "LeadersClear",
      "type": "event"
    },
    {
      "anonymous": false,
      "inputs": [
        {
          "indexed": true,
          "name": "previousOwner",
          "type": "address"
        },
        {
          "indexed": true,
          "name": "newOwner",
          "type": "address"
        }
      ],
      "name": "OwnershipTransferred",
      "type": "event"
    },
    {
      "anonymous": false,
      "inputs": [
        {
          "indexed": true,
          "name": "previousDevelopers",
          "type": "address"
        },
        {
          "indexed": true,
          "name": "newDevelopers",
          "type": "address"
        }
      ],
      "name": "DevelopersChanged",
      "type": "event"
    },
    {
      "constant": false,
      "inputs": [],
      "name": "setup",
      "outputs": [],
      "payable": false,
      "stateMutability": "nonpayable",
      "type": "function"
    },
    {
      "constant": false,
      "inputs": [],
      "name": "register",
      "outputs": [
        {
          "name": "",
          "type": "uint256"
        }
      ],
      "payable": true,
      "stateMutability": "payable",
      "type": "function"
    },
    {
      "constant": false,
      "inputs": [
        {
          "name": "_refId",
          "type": "uint256"
        }
      ],
      "name": "registerWithRefID",
      "outputs": [
        {
          "name": "",
          "type": "uint256"
        }
      ],
      "payable": true,
      "stateMutability": "payable",
      "type": "function"
    },
    {
      "constant": false,
      "inputs": [],
      "name": "deposit",
      "outputs": [
        {
          "name": "",
          "type": "uint256"
        }
      ],
      "payable": true,
      "stateMutability": "payable",
      "type": "function"
    },
    {
      "constant": true,
      "inputs": [],
      "name": "balanceOf",
      "outputs": [
        {
          "name": "",
          "type": "uint256"
        }
      ],
      "payable": false,
      "stateMutability": "view",
      "type": "function"
    },
    {
      "constant": true,
      "inputs": [],
      "name": "resoucesOf",
      "outputs": [
        {
          "name": "",
          "type": "uint256[]"
        }
      ],
      "payable": false,
      "stateMutability": "view",
      "type": "function"
    },
    {
      "constant": true,
      "inputs": [],
      "name": "referrersOf",
      "outputs": [
        {
          "name": "",
          "type": "uint256[]"
        }
      ],
      "payable": false,
      "stateMutability": "view",
      "type": "function"
    },
    {
      "constant": true,
      "inputs": [
        {
          "name": "_level",
          "type": "uint8"
        }
      ],
      "name": "referralsOf",
      "outputs": [
        {
          "name": "",
          "type": "uint256[]"
        }
      ],
      "payable": false,
      "stateMutability": "view",
      "type": "function"
    },
    {
      "constant": true,
      "inputs": [
        {
          "name": "_userId",
          "type": "uint256"
        }
      ],
      "name": "userInfo",
      "outputs": [
        {
          "name": "",
          "type": "address"
        },
        {
          "name": "",
          "type": "uint256"
        },
        {
          "name": "",
          "type": "uint256"
        },
        {
          "name": "",
          "type": "uint256"
        },
        {
          "name": "",
          "type": "uint256[]"
        },
        {
          "name": "",
          "type": "uint256[]"
        }
      ],
      "payable": false,
      "stateMutability": "view",
      "type": "function"
    },
    {
      "constant": false,
      "inputs": [
        {
          "name": "_type",
          "type": "uint8"
        }
      ],
      "name": "buyFactory",
      "outputs": [
        {
          "name": "",
          "type": "uint256"
        }
      ],
      "payable": true,
      "stateMutability": "payable",
      "type": "function"
    },
    {
      "constant": true,
      "inputs": [
        {
          "name": "_user_id",
          "type": "uint256"
        }
      ],
      "name": "getFactories",
      "outputs": [
        {
          "name": "",
          "type": "uint256[]"
        }
      ],
      "payable": false,
      "stateMutability": "view",
      "type": "function"
    },
    {
      "constant": false,
      "inputs": [],
      "name": "buyWoodFactory",
      "outputs": [
        {
          "name": "",
          "type": "uint256"
        }
      ],
      "payable": true,
      "stateMutability": "payable",
      "type": "function"
    },
    {
      "constant": false,
      "inputs": [],
      "name": "buyMetalFactory",
      "outputs": [
        {
          "name": "",
          "type": "uint256"
        }
      ],
      "payable": true,
      "stateMutability": "payable",
      "type": "function"
    },
    {
      "constant": false,
      "inputs": [],
      "name": "buyOilFactory",
      "outputs": [
        {
          "name": "",
          "type": "uint256"
        }
      ],
      "payable": true,
      "stateMutability": "payable",
      "type": "function"
    },
    {
      "constant": false,
      "inputs": [],
      "name": "buyPreciousMetal",
      "outputs": [
        {
          "name": "",
          "type": "uint256"
        }
      ],
      "payable": true,
      "stateMutability": "payable",
      "type": "function"
    },
    {
      "constant": false,
      "inputs": [
        {
          "name": "_factoryId",
          "type": "uint256"
        }
      ],
      "name": "levelUp",
      "outputs": [],
      "payable": true,
      "stateMutability": "payable",
      "type": "function"
    },
    {
      "constant": false,
      "inputs": [
        {
          "name": "_type",
          "type": "uint8"
        }
      ],
      "name": "sellResources",
      "outputs": [
        {
          "name": "",
          "type": "uint256"
        }
      ],
      "payable": false,
      "stateMutability": "nonpayable",
      "type": "function"
    },
    {
      "constant": true,
      "inputs": [
        {
          "name": "_collected_at",
          "type": "uint256"
        }
      ],
      "name": "worktimeAtDate",
      "outputs": [
        {
          "name": "",
          "type": "uint256"
        }
      ],
      "payable": false,
      "stateMutability": "view",
      "type": "function"
    },
    {
      "constant": true,
      "inputs": [
        {
          "name": "_factoryId",
          "type": "uint256"
        }
      ],
      "name": "worktime",
      "outputs": [
        {
          "name": "",
          "type": "uint256"
        }
      ],
      "payable": false,
      "stateMutability": "view",
      "type": "function"
    },
    {
      "constant": true,
      "inputs": [
        {
          "name": "_type",
          "type": "uint8"
        },
        {
          "name": "_level",
          "type": "uint8"
        },
        {
          "name": "_collected_at",
          "type": "uint256"
        }
      ],
      "name": "_resourcesAtTime",
      "outputs": [
        {
          "name": "",
          "type": "uint256"
        }
      ],
      "payable": false,
      "stateMutability": "view",
      "type": "function"
    },
    {
      "constant": true,
      "inputs": [
        {
          "name": "_factoryId",
          "type": "uint256"
        }
      ],
      "name": "resourcesAtTime",
      "outputs": [
        {
          "name": "",
          "type": "uint256"
        }
      ],
      "payable": false,
      "stateMutability": "view",
      "type": "function"
    },
    {
      "constant": false,
      "inputs": [],
      "name": "collectResources",
      "outputs": [],
      "payable": false,
      "stateMutability": "nonpayable",
      "type": "function"
    }
  ],
  "bytecode": "0x608060405273b68e8c1eac20e6b3c92fbb9a601f9fa1e0475d59600160006101000a81548173ffffffffffffffffffffffffffffffffffffffff021916908373ffffffffffffffffffffffffffffffffffffffff1602179055506000600760006101000a81548160ff021916908315150217905550662386f26fc10000600855336000806101000a81548173ffffffffffffffffffffffffffffffffffffffff021916908373ffffffffffffffffffffffffffffffffffffffff160217905550600960c060405190810160405280600073ffffffffffffffffffffffffffffffffffffffff1681526020016000815260200160008152602001600081526020016004604051908082528060200260200182016040528015620001305781602001602082028038833980820191505090505b5081526020016005604051908082528060200260200182016040528015620001675781602001602082028038833980820191505090505b508152509080600181540180825580915050906001820390600052602060002090600702016000909192909190915060008201518160000160006101000a81548173ffffffffffffffffffffffffffffffffffffffff021916908373ffffffffffffffffffffffffffffffffffffffff16021790555060208201518160010155604082015181600201556060820151816003015560808201518160040190805190602001906200021992919062000242565b5060a08201518160050190805190602001906200023892919062000242565b50505050620002bc565b82805482825590600052602060002090810192821562000281579160200282015b828111156200028057825182559160200191906001019062000263565b5b50905062000290919062000294565b5090565b620002b991905b80821115620002b55760008160009055506001016200029b565b5090565b90565b615c6580620002cc6000396000f300608060405260043610610267576000357c0100000000000000000000000000000000000000000000000000000000900463ffffffff16806302ceb8b31461026c5780630ce90ec2146102b05780631aa3a008146102d05780631cdb86a3146102ee578063208d5e9f1461032f5780632bc31ca41461034d578063365b98b2146103a45780633887dae9146104265780633a033915146104925780633bbfe141146104bd5780633eb1137e146104d45780633fc282ef146105235780634bd51822146105645780634db2a711146105a857806351d70bc4146106725780635875455e146107845780635a2587f4146108065780635b9280f6146108885780635ee6e3a2146108b357806360e5ef3a146108d1578063672383c41461092257806368ec451214610985578063715b3ec9146109d6578063722713f714610a3157806383c6a62b14610a5c5780638ab476bf14610a8d5780638da5cb5b14610ad057806391ddb16d14610b27578063930efb7114610ba957806393d1c8ad14610bda57806397ff49e714610c0e578063994678ea14610c565780639a08b33814610cc2578063a16e8b2014610d13578063a36e657714610d31578063af6a1a9a14610d80578063ba0bba4014610dc4578063c4e2665614610ddb578063d0e30db014610e1c578063d9fe828614610e3a578063da0aedb114610e7e578063e1fc887e14610ea9578063e5d7bd4f14610f08578063e8364cde14610f8d578063eae84a3014610fc4578063edf5388614610fe2578063f2fde38b14611039578063f6d909741461107c578063f7ad68ed146110a7578063f93745f0146110e8578063fc41298714611113575b600080fd5b34801561027857600080fd5b5061029a600480360381019080803560ff16906020019092919050505061115e565b6040518082815260200191505060405180910390f35b6102ce60048036038101908080359060200190929190505050611176565b005b6102d86114a3565b6040518082815260200191505060405180910390f35b3480156102fa57600080fd5b506103196004803603810190808035906020019092919050505061172b565b6040518082815260200191505060405180910390f35b610337611743565b6040518082815260200191505060405180910390f35b34801561035957600080fd5b50610362611754565b604051808273ffffffffffffffffffffffffffffffffffffffff1673ffffffffffffffffffffffffffffffffffffffff16815260200191505060405180910390f35b3480156103b057600080fd5b506103cf6004803603810190808035906020019092919050505061177a565b604051808573ffffffffffffffffffffffffffffffffffffffff1673ffffffffffffffffffffffffffffffffffffffff16815260200184815260200183815260200182815260200194505050505060405180910390f35b34801561043257600080fd5b5061043b6117d9565b6040518080602001828103825283818151815260200191508051906020019060200280838360005b8381101561047e578082015181840152602081019050610463565b505050509050019250505060405180910390f35b34801561049e57600080fd5b506104a761188e565b6040518082815260200191505060405180910390f35b3480156104c957600080fd5b506104d2611893565b005b3480156104e057600080fd5b506104ff60048036038101908080359060200190929190505050611a00565b60405180848152602001838152602001828152602001935050505060405180910390f35b34801561052f57600080fd5b5061054e60048036038101908080359060200190929190505050611a75565b6040518082815260200191505060405180910390f35b34801561057057600080fd5b50610592600480360381019080803560ff169060200190929190505050611a8d565b6040518082815260200191505060405180910390f35b3480156105b457600080fd5b506105d360048036038101908080359060200190929190505050611ab0565b604051808060200180602001838103835285818151815260200191508051906020019060200280838360005b8381101561061a5780820151818401526020810190506105ff565b50505050905001838103825284818151815260200191508051906020019060200280838360005b8381101561065c578082015181840152602081019050610641565b5050505090500194505050505060405180910390f35b34801561067e57600080fd5b5061069d60048036038101908080359060200190929190505050611c64565b604051808773ffffffffffffffffffffffffffffffffffffffff1673ffffffffffffffffffffffffffffffffffffffff1681526020018681526020018581526020018481526020018060200180602001838103835285818151815260200191508051906020019060200280838360005b8381101561072857808201518184015260208101905061070d565b50505050905001838103825284818151815260200191508051906020019060200280838360005b8381101561076a57808201518184015260208101905061074f565b505050509050019850505050505050505060405180910390f35b34801561079057600080fd5b506107af60048036038101908080359060200190929190505050611dfe565b6040518080602001828103825283818151815260200191508051906020019060200280838360005b838110156107f25780820151818401526020810190506107d7565b505050509050019250505060405180910390f35b34801561081257600080fd5b5061083160048036038101908080359060200190929190505050611e9e565b6040518080602001828103825283818151815260200191508051906020019060200280838360005b83811015610874578082015181840152602081019050610859565b505050509050019250505060405180910390f35b34801561089457600080fd5b5061089d611f09565b6040518082815260200191505060405180910390f35b6108bb611f14565b6040518082815260200191505060405180910390f35b3480156108dd57600080fd5b5061090c600480360381019080803560ff169060200190929190803560ff169060200190929190505050611f25565b6040518082815260200191505060405180910390f35b34801561092e57600080fd5b5061094d60048036038101908080359060200190929190505050611f6e565b6040518084600381111561095d57fe5b60ff1681526020018360ff1660ff168152602001828152602001935050505060405180910390f35b34801561099157600080fd5b506109c0600480360381019080803560ff169060200190929190803560ff169060200190929190505050611fc1565b6040518082815260200191505060405180910390f35b3480156109e257600080fd5b50610a1b600480360381019080803560ff169060200190929190803560ff1690602001909291908035906020019092919050505061200a565b6040518082815260200191505060405180910390f35b348015610a3d57600080fd5b50610a46612040565b6040518082815260200191505060405180910390f35b348015610a6857600080fd5b50610a716120a7565b604051808260ff1660ff16815260200191505060405180910390f35b348015610a9957600080fd5b50610ace600480360381019080803573ffffffffffffffffffffffffffffffffffffffff1690602001909291905050506120ac565b005b348015610adc57600080fd5b50610ae5612203565b604051808273ffffffffffffffffffffffffffffffffffffffff1673ffffffffffffffffffffffffffffffffffffffff16815260200191505060405180910390f35b348015610b3357600080fd5b50610b5260048036038101908080359060200190929190505050612228565b6040518080602001828103825283818151815260200191508051906020019060200280838360005b83811015610b95578082015181840152602081019050610b7a565b505050509050019250505060405180910390f35b348015610bb557600080fd5b50610bbe61233f565b604051808260ff1660ff16815260200191505060405180910390f35b610bf860048036038101908080359060200190929190505050612344565b6040518082815260200191505060405180910390f35b348015610c1a57600080fd5b50610c39600480360381019080803590602001909291905050506123b6565b604051808381526020018281526020019250505060405180910390f35b348015610c6257600080fd5b50610c6b6123e9565b6040518080602001828103825283818151815260200191508051906020019060200280838360005b83811015610cae578082015181840152602081019050610c93565b505050509050019250505060405180910390f35b348015610cce57600080fd5b50610cfd600480360381019080803560ff169060200190929190803560ff16906020019092919050505061249e565b6040518082815260200191505060405180910390f35b610d1b6124e7565b6040518082815260200191505060405180910390f35b348015610d3d57600080fd5b50610d5c600480360381019080803590602001909291905050506124f8565b60405180848152602001838152602001828152602001935050505060405180910390f35b348015610d8c57600080fd5b50610dae600480360381019080803560ff169060200190929190505050612531565b6040518082815260200191505060405180910390f35b348015610dd057600080fd5b50610dd9612761565b005b348015610de757600080fd5b50610e066004803603810190808035906020019092919050505061281b565b6040518082815260200191505060405180910390f35b610e2461284d565b6040518082815260200191505060405180910390f35b348015610e4657600080fd5b50610e68600480360381019080803560ff1690602001909291905050506129db565b6040518082815260200191505060405180910390f35b348015610e8a57600080fd5b50610e936129f3565b6040518082815260200191505060405180910390f35b348015610eb557600080fd5b50610ee4600480360381019080803560ff169060200190929190803560ff1690602001909291905050506129f8565b60405180848152602001838152602001828152602001935050505060405180910390f35b348015610f1457600080fd5b50610f36600480360381019080803560ff169060200190929190505050612a2f565b6040518080602001828103825283818151815260200191508051906020019060200280838360005b83811015610f79578082015181840152602081019050610f5e565b505050509050019250505060405180910390f35b610fae600480360381019080803560ff169060200190929190505050612afd565b6040518082815260200191505060405180910390f35b610fcc612bd1565b6040518082815260200191505060405180910390f35b348015610fee57600080fd5b50611023600480360381019080803573ffffffffffffffffffffffffffffffffffffffff169060200190929190505050612be2565b6040518082815260200191505060405180910390f35b34801561104557600080fd5b5061107a600480360381019080803573ffffffffffffffffffffffffffffffffffffffff169060200190929190505050612bfa565b005b34801561108857600080fd5b50611091612d4f565b6040518082815260200191505060405180910390f35b3480156110b357600080fd5b506110d260048036038101908080359060200190929190505050612d55565b6040518082815260200191505060405180910390f35b3480156110f457600080fd5b506110fd612db0565b6040518082815260200191505060405180910390f35b34801561111f57600080fd5b506111486004803603810190808035906020019092919080359060200190929190505050612db5565b6040518082815260200191505060405180910390f35b60056020528060005260406000206000915090505481565b600080600080600b8581548110151561118b57fe5b906000526020600020906002020193506111ca8460000160009054906101000a900460ff1660018660000160019054906101000a900460ff1601611f25565b9250600a60003373ffffffffffffffffffffffffffffffffffffffff1673ffffffffffffffffffffffffffffffffffffffff16815260200190815260200160002054915060098281548110151561121d57fe5b9060005260206000209060070201905061138d8160c060405190810160405290816000820160009054906101000a900473ffffffffffffffffffffffffffffffffffffffff1673ffffffffffffffffffffffffffffffffffffffff1673ffffffffffffffffffffffffffffffffffffffff1681526020016001820154815260200160028201548152602001600382015481526020016004820180548060200260200160405190810160405280929190818152602001828054801561130057602002820191906000526020600020905b8154815260200190600101908083116112ec575b505050505081526020016005820180548060200260200160405190810160405280929190818152602001828054801561135857602002820191906000526020600020905b815481526020019060010190808311611344575b5050505050815250508560000160009054906101000a900460ff1660018760000160019054906101000a900460ff1601612de5565b151561139857600080fd5b6113af348260010154612e2890919063ffffffff16565b81600101819055506113ce838260010154612e4990919063ffffffff16565b81600101819055506113ed838260020154612e2890919063ffffffff16565b81600201819055506113ff8482612e6a565b5083600001600181819054906101000a900460ff168092919060010191906101000a81548160ff021916908360ff1602179055505061143e3334612f9c565b7f0a184989a362d23d7f52ce403c138273381c6bd74bb6b10dcce9fa70fd47e722858560000160019054906101000a900460ff1684604051808481526020018360ff1660ff168152602001828152602001935050505060405180910390a15050505050565b6000806000600a60003373ffffffffffffffffffffffffffffffffffffffff1673ffffffffffffffffffffffffffffffffffffffff168152602001908152602001600020541415156114f457600080fd5b6001600960c0604051908101604052803373ffffffffffffffffffffffffffffffffffffffff168152602001348152602001600081526020016000815260200160046040519080825280602002602001820160405280156115645781602001602082028038833980820191505090505b508152602001600560405190808252806020026020018201604052801561159a5781602001602082028038833980820191505090505b508152509080600181540180825580915050906001820390600052602060002090600702016000909192909190915060008201518160000160006101000a81548173ffffffffffffffffffffffffffffffffffffffff021916908373ffffffffffffffffffffffffffffffffffffffff160217905550602082015181600101556040820151816002015560608201518160030155608082015181600401908051906020019061164a929190615926565b5060a0820151816005019080519060200190611667929190615926565b50505003905080600a60003373ffffffffffffffffffffffffffffffffffffffff1673ffffffffffffffffffffffffffffffffffffffff168152602001908152602001600020819055507f4f936a96f51e2c2ffe18b6b6f1e4387c6bf1cddeb935d58cab653eb22ead430a813334604051808481526020018373ffffffffffffffffffffffffffffffffffffffff1673ffffffffffffffffffffffffffffffffffffffff168152602001828152602001935050505060405180910390a18091505090565b6000603c82420381151561173b57fe5b049050919050565b600061174f6002612afd565b905090565b600160009054906101000a900473ffffffffffffffffffffffffffffffffffffffff1681565b60098181548110151561178957fe5b90600052602060002090600702016000915090508060000160009054906101000a900473ffffffffffffffffffffffffffffffffffffffff16908060010154908060020154908060030154905084565b60606009600a60003373ffffffffffffffffffffffffffffffffffffffff1673ffffffffffffffffffffffffffffffffffffffff1681526020019081526020016000205481548110151561182957fe5b906000526020600020906007020160040180548060200260200160405190810160405280929190818152602001828054801561188457602002820191906000526020600020905b815481526020019060010190808311611870575b5050505050905090565b600f81565b6000806000806000600a60003373ffffffffffffffffffffffffffffffffffffffff1673ffffffffffffffffffffffffffffffffffffffff16815260200190815260200160002054141515156118e857600080fd5b600a60003373ffffffffffffffffffffffffffffffffffffffff1673ffffffffffffffffffffffffffffffffffffffff16815260200190815260200160002054935060098481548110151561193957fe5b90600052602060002090600702019250600d6000600a60003373ffffffffffffffffffffffffffffffffffffffff1673ffffffffffffffffffffffffffffffffffffffff1681526020019081526020016000205481526020019081526020016000209150600090505b81805490508110156119fa576119ec600b83838154811015156119c157fe5b90600052602060002001548154811015156119d857fe5b906000526020600020906002020184612e6a565b5080806001019150506119a2565b50505050565b6000806000600684815481101515611a1457fe5b906000526020600020906005020160000154600685815481101515611a3557fe5b906000526020600020906005020160010154600686815481101515611a5657fe5b9060005260206000209060050201600201549250925092509193909250565b600c6020528060005260406000206000915090505481565b6000600260008360ff1660ff168152602001908152602001600020549050919050565b606080600060606000600686815481101515611ac857fe5b906000526020600020906005020192508260030180549050604051908082528060200260200182016040528015611b0e5781602001602082028038833980820191505090505b509150600090505b8260030180549050811015611bcb578260040160008460030183815481101515611b3c57fe5b9060005260206000200160009054906101000a900473ffffffffffffffffffffffffffffffffffffffff1673ffffffffffffffffffffffffffffffffffffffff1673ffffffffffffffffffffffffffffffffffffffff168152602001908152602001600020548282815181101515611bb057fe5b90602001906020020181815250508080600101915050611b16565b826003018281805480602002602001604051908101604052809291908181526020018280548015611c5157602002820191906000526020600020905b8160009054906101000a900473ffffffffffffffffffffffffffffffffffffffff1673ffffffffffffffffffffffffffffffffffffffff1681526020019060010190808311611c07575b5050505050915094509450505050915091565b600080600080606080611c75615973565b600988815481101515611c8457fe5b906000526020600020906007020160c060405190810160405290816000820160009054906101000a900473ffffffffffffffffffffffffffffffffffffffff1673ffffffffffffffffffffffffffffffffffffffff1673ffffffffffffffffffffffffffffffffffffffff16815260200160018201548152602001600282015481526020016003820154815260200160048201805480602002602001604051908101604052809291908181526020018280548015611d6157602002820191906000526020600020905b815481526020019060010190808311611d4d575b5050505050815260200160058201805480602002602001604051908101604052809291908181526020018280548015611db957602002820191906000526020600020905b815481526020019060010190808311611da5575b5050505050815250509050806000015181602001518260400151836060015184608001518560a001518191508090509650965096509650965096505091939550919395565b6060600482815481101515611e0f57fe5b9060005260206000209060030201600201805480602002602001604051908101604052809291908181526020018280548015611e9257602002820191906000526020600020906000905b82829054906101000a900461ffff1661ffff1681526020019060020190602082600101049283019260010382029150808411611e595790505b50505050509050919050565b6060600d6000838152602001908152602001600020805480602002602001604051908101604052809291908181526020018280548015611efd57602002820191906000526020600020905b815481526020019060010190808311611ee9575b50505050509050919050565b662386f26fc1000081565b6000611f206000612afd565b905090565b600060036000846003811115611f3757fe5b60ff1660ff16815260200190815260200160002060008360ff1660ff16815260200190815260200160002060000154905092915050565b600b81815481101515611f7d57fe5b90600052602060002090600202016000915090508060000160009054906101000a900460ff16908060000160019054906101000a900460ff16908060010154905083565b600060036000846003811115611fd357fe5b60ff1660ff16815260200190815260200160002060008360ff1660ff16815260200190815260200160002060020154905092915050565b600060646120188585611fc1565b612022868661249e565b0161202c8461172b565b0281151561203657fe5b0490509392505050565b60006009600a60003373ffffffffffffffffffffffffffffffffffffffff1673ffffffffffffffffffffffffffffffffffffffff1681526020019081526020016000205481548110151561209057fe5b906000526020600020906007020160010154905090565b600781565b6000809054906101000a900473ffffffffffffffffffffffffffffffffffffffff1673ffffffffffffffffffffffffffffffffffffffff163373ffffffffffffffffffffffffffffffffffffffff1614151561210757600080fd5b600073ffffffffffffffffffffffffffffffffffffffff168173ffffffffffffffffffffffffffffffffffffffff161415151561214357600080fd5b8073ffffffffffffffffffffffffffffffffffffffff16600160009054906101000a900473ffffffffffffffffffffffffffffffffffffffff1673ffffffffffffffffffffffffffffffffffffffff167f7d28dbfe9b3b0a2416f60ca7bc6f6cd19d476b00cec731d9c37ac02a09613d7360405160405180910390a380600160006101000a81548173ffffffffffffffffffffffffffffffffffffffff021916908373ffffffffffffffffffffffffffffffffffffffff16021790555050565b6000809054906101000a900473ffffffffffffffffffffffffffffffffffffffff1681565b606060006122346159c0565b600091505b60038210156123375760048281548110151561225157fe5b9060005260206000209060030201606060405190810160405290816000820154815260200160018201548152602001600282018054806020026020016040519081016040528092919081815260200182805480156122f657602002820191906000526020600020906000905b82829054906101000a900461ffff1661ffff16815260200190600201906020826001010492830192600103820291508084116122bd5790505b505050505081525050905080600001518410158015612319575080602001518411155b1561232a5780604001519250612338565b8180600101925050612239565b5b5050919050565b600781565b6000806009805490508310151561235a57600080fd5b6123626114a3565b905061236e8184612fcc565b7fb900dc1fba63117f0809180dec6da68c5bc269d0d8338586b2d57235a0671c138382604051808381526020018281526020019250505060405180910390a180915050919050565b6004818154811015156123c557fe5b90600052602060002090600302016000915090508060000154908060010154905082565b60606009600a60003373ffffffffffffffffffffffffffffffffffffffff1673ffffffffffffffffffffffffffffffffffffffff1681526020019081526020016000205481548110151561243957fe5b906000526020600020906007020160050180548060200260200160405190810160405280929190818152602001828054801561249457602002820191906000526020600020905b815481526020019060010190808311612480575b5050505050905090565b6000600360008460038111156124b057fe5b60ff1660ff16815260200190815260200160002060008360ff1660ff16815260200190815260200160002060010154905092915050565b60006124f36001612afd565b905090565b60068181548110151561250757fe5b90600052602060002090600502016000915090508060000154908060010154908060020154905083565b6000806000600a60003373ffffffffffffffffffffffffffffffffffffffff1673ffffffffffffffffffffffffffffffffffffffff16815260200190815260200160002054915073__Math__________________________________637ae2b5c761259b86611a8d565b6009858154811015156125aa57fe5b90600052602060002090600702016004018760ff168154811015156125cb57fe5b9060005260206000200154023073ffffffffffffffffffffffffffffffffffffffff16316040518363ffffffff167c0100000000000000000000000000000000000000000000000000000000028152600401808381526020018281526020019250505060206040518083038186803b15801561264657600080fd5b505af415801561265a573d6000803e3d6000fd5b505050506040513d602081101561267057600080fd5b81019080805190602001909291905050509050600060098381548110151561269457fe5b90600052602060002090600702016004018560ff168154811015156126b557fe5b90600052602060002001819055503373ffffffffffffffffffffffffffffffffffffffff166108fc829081150290604051600060405180830381858888f19350505050158015612709573d6000803e3d6000fd5b507fdef385fd9bc4ede5eab81b236ae5ae807f524e23733877f374ab4c709179a2d9828583604051808481526020018360ff1660ff168152602001828152602001935050505060405180910390a18092505050919050565b6000809054906101000a900473ffffffffffffffffffffffffffffffffffffffff1673ffffffffffffffffffffffffffffffffffffffff163373ffffffffffffffffffffffffffffffffffffffff161415156127bc57600080fd5b60001515600760009054906101000a900460ff1615151415156127de57600080fd5b6001600760006101000a81548160ff021916908315150217905550612801613173565b61280961322f565b612811614076565b612819614593565b565b6000612846600b8381548110151561282f57fe5b90600052602060002090600202016001015461172b565b9050919050565b600080600854341115156128c9576040517f08c379a00000000000000000000000000000000000000000000000000000000081526004018080602001828103825260178152602001807f4465706f73697420646f6573206e6f7420656e6f75676800000000000000000081525060200191505060405180910390fd5b600a60003373ffffffffffffffffffffffffffffffffffffffff1673ffffffffffffffffffffffffffffffffffffffff16815260200190815260200160002054905061293e3460098381548110151561291e57fe5b906000526020600020906007020160010154612e2890919063ffffffff16565b60098281548110151561294d57fe5b90600052602060002090600702016001018190555061296b34614986565b6129753334612f9c565b7fa3af609bf46297028ce551832669030f9effef2b02606d02cbbcc40fe6b47c558134604051808381526020018281526020019250505060405180910390a16009818154811015156129c357fe5b90600052602060002090600702016001015491505090565b60026020528060005260406000206000915090505481565b600381565b6003602052816000526040600020602052806000526040600020600091509150508060000154908060010154908060020154905083565b60606009600a60003373ffffffffffffffffffffffffffffffffffffffff1673ffffffffffffffffffffffffffffffffffffffff16815260200190815260200160002054815481101515612a7f57fe5b906000526020600020906007020160060160008360ff1660ff168152602001908152602001600020805480602002602001604051908101604052809291908181526020018280548015612af157602002820191906000526020600020905b815481526020019060010190808311612add575b50505050509050919050565b600080600a60003373ffffffffffffffffffffffffffffffffffffffff1673ffffffffffffffffffffffffffffffffffffffff1681526020019081526020016000205490506000600a60003373ffffffffffffffffffffffffffffffffffffffff1673ffffffffffffffffffffffffffffffffffffffff168152602001908152602001600020541415612b9557612b926114a3565b90505b612bc981606060405190810160405280866003811115612bb157fe5b8152602001600060ff16815260200142815250614a01565b915050919050565b6000612bdd6003612afd565b905090565b600a6020528060005260406000206000915090505481565b6000809054906101000a900473ffffffffffffffffffffffffffffffffffffffff1673ffffffffffffffffffffffffffffffffffffffff163373ffffffffffffffffffffffffffffffffffffffff16141515612c5557600080fd5b600073ffffffffffffffffffffffffffffffffffffffff168173ffffffffffffffffffffffffffffffffffffffff1614151515612c9157600080fd5b8073ffffffffffffffffffffffffffffffffffffffff166000809054906101000a900473ffffffffffffffffffffffffffffffffffffffff1673ffffffffffffffffffffffffffffffffffffffff167f8be0079c531659141344cd1fd0a4f28419497f9722a3daafe3b4186f6b6457e060405160405180910390a3806000806101000a81548173ffffffffffffffffffffffffffffffffffffffff021916908373ffffffffffffffffffffffffffffffffffffffff16021790555050565b60085481565b600080600b83815481101515612d6757fe5b90600052602060002090600202019050612da88160000160009054906101000a900460ff168260000160019054906101000a900460ff16836001015461200a565b915050919050565b600581565b600d60205281600052604060002081815481101515612dd057fe5b90600052602060002001600091509150505481565b600080612dff348660200151612e2890919063ffffffff16565b9050612e0b8484611f25565b811015612e1b5760009150612e20565b600191505b509392505050565b6000808284019050838110151515612e3f57600080fd5b8091505092915050565b600080838311151515612e5b57600080fd5b82840390508091505092915050565b600080612e9e8460000160009054906101000a900460ff168560000160019054906101000a900460ff16866001015461200a565b9050612eed81846004018660000160009054906101000a900460ff166003811115612ec557fe5b60ff16815481101515612ed457fe5b9060005260206000200154612e2890919063ffffffff16565b836004018560000160009054906101000a900460ff166003811115612f0e57fe5b60ff16815481101515612f1d57fe5b90600052602060002001819055504284600101819055507f5dc5b82e66c5dcc43c01835de9ee74f6380209b673fbdd18668826fc898c66b18460000160009054906101000a900460ff168260405180836003811115612f7857fe5b60ff1681526020018281526020019250505060405180910390a18091505092915050565b60008090505b600680549050811015612fc757612fba818484614d46565b8080600101915050612fa2565b505050565b60008082841415612fdc5761316d565b82600985815481101515612fec57fe5b9060005260206000209060070201600501600081548110151561300b57fe5b9060005260206000200181905550600191505b600582101561310e5760098381548110151561303657fe5b90600052602060002090600702016005016001830381548110151561305757fe5b906000526020600020015490508060098581548110151561307457fe5b90600052602060002090600702016005018381548110151561309257fe5b90600052602060002001819055506009818154811015156130af57fe5b906000526020600020906007020160060160008360ff1660ff168152602001908152602001600020849080600181540180825580915050906001820390600052602060002001600090919290919091505550818060010192505061301e565b60098381548110151561311d57fe5b906000526020600020906007020160060160008060ff1681526020019081526020016000208490806001815401808255809150509060018203906000526020600020016000909192909190915055505b50505050565b640563d8f7806002600080600381111561318957fe5b60ff1660ff1681526020019081526020016000208190555064087d2f730060026000600160038111156131b857fe5b60ff1660ff168152602001908152602001600020819055506409e19f020060026000600260038111156131e757fe5b60ff1660ff16815260200190815260200160002081905550640f7eb069806002600060038081111561321557fe5b60ff1660ff16815260200190815260200160002081905550565b606060405190810160405280662386f26fc10000815260200160c8815260200160008152506003600080600381111561326457fe5b60ff1660ff16815260200190815260200160002060008060ff168152602001908152602001600020600082015181600001556020820151816001015560408201518160020155905050606060405190810160405280666a94d74f43000081526020016101908152602001600081525060036000600160038111156132e457fe5b60ff1660ff16815260200190815260200160002060008060ff16815260200190815260200160002060008201518160000155602082015181600101556040820151816002015590505060606040519081016040528066b1a2bc2ec50000815260200161025881526020016000815250600360006002600381111561336457fe5b60ff1660ff16815260200190815260200160002060008060ff16815260200190815260200160002060008201518160000155602082015181600101556040820151816002015590505060606040519081016040528067016345785d8a0000815260200161032081526020016000815250600360006003808111156133e457fe5b60ff1660ff16815260200190815260200160002060008060ff16815260200190815260200160002060008201518160000155602082015181600101556040820151816002015590505060606040519081016040528066b1a2bc2ec5000081526020016104b0815260200160788152506003600080600381111561346357fe5b60ff1660ff1681526020019081526020016000206000600160ff16815260200190815260200160002060008201518160000155602082015181600101556040820151816002015590505060606040519081016040528067013fbe85edc9000081526020016106408152602001608a81525060036000600160038111156134e557fe5b60ff1660ff1681526020019081526020016000206000600160ff168152602001908152602001600020600082015181600001556020820151816001015560408201518160020155905050606060405190810160405280670214e8348c4f00008152602001610960815260200160a4815250600360006002600381111561356757fe5b60ff1660ff1681526020019081526020016000206000600160ff1681526020019081526020016000206000820151816000015560208201518160010155604082015181600201559050506060604051908101604052806706f05b59d3b2000081526020016112c081526020016101a2815250600360006003808111156135e957fe5b60ff1660ff1681526020019081526020016000206000600160ff1681526020019081526020016000206000820151816000015560208201518160010155604082015181600201559050506060604051908101604052806701aa535d3d0c00008152602001610e10815260200161021c8152506003600080600381111561366b57fe5b60ff1660ff1681526020019081526020016000206000600260ff1681526020019081526020016000206000820151816000015560208201518160010155604082015181600201559050506060604051908101604052806703bf3b91c95b00008152602001611450815260200161036281525060036000600160038111156136ee57fe5b60ff1660ff1681526020019081526020016000206000600260ff1681526020019081526020016000206000820151816000015560208201518160010155604082015181600201559050506060604051908101604052806704db73254763000081526020016119c8815260200161041a815250600360006002600381111561377157fe5b60ff1660ff1681526020019081526020016000206000600260ff168152602001908152602001600020600082015181600001556020820151816001015560408201518160020155905050606060405190810160405280670de0b6b3a764000081526020016132008152602001610686815250600360006003808111156137f357fe5b60ff1660ff1681526020019081526020016000206000600260ff168152602001908152602001600020600082015181600001556020820151816001015560408201518160020155905050606060405190810160405280670429d069189e0000815260200161258081526020016109608152506003600080600381111561387557fe5b60ff1660ff1681526020019081526020016000206000600360ff168152602001908152602001600020600082015181600001556020820151816001015560408201518160020155905050606060405190810160405280670a688906bd8b00008152602001613b608152602001610f8c81525060036000600160038111156138f857fe5b60ff1660ff1681526020019081526020016000206000600360ff168152602001908152602001600020600082015181600001556020820151816001015560408201518160020155905050606060405190810160405280670ff59ee833b300008152602001614fb081526020016113eb815250600360006002600381111561397b57fe5b60ff1660ff1681526020019081526020016000206000600360ff1681526020019081526020016000206000820151816000015560208201518160010155604082015181600201559050506060604051908101604052806730927f74c9de00008152602001619f608152602001612d0b815250600360006003808111156139fd57fe5b60ff1660ff1681526020019081526020016000206000600360ff168152602001908152602001600020600082015181600001556020820151816001015560408201518160020155905050606060405190810160405280670c7d713b49da00008152602001616bd081526020016125bc81525060036000806003811115613a7f57fe5b60ff1660ff1681526020019081526020016000206000600460ff168152602001908152602001600020600082015181600001556020820151816001015560408201518160020155905050606060405190810160405280671d8f47b6fb950000815260200161aa508152602001613cd08152506003600060016003811115613b0257fe5b60ff1660ff1681526020019081526020016000206000600460ff1681526020019081526020016000206000820151816000015560208201518160010155604082015181600201559050506060604051908101604052806729a2241af62c0000815260200161dc5081526020016146178152506003600060026003811115613b8557fe5b60ff1660ff1681526020019081526020016000206000600460ff168152602001908152602001600020600082015181600001556020820151816001015560408201518160020155905050606060405190810160405280676124fee993bc0000815260200162017a208152602001617b4f81525060036000600380811115613c0857fe5b60ff1660ff1681526020019081526020016000206000600460ff1681526020019081526020016000206000820151816000015560208201518160010155604082015181600201559050506060604051908101604052806718fae27693b40000815260200161f870815260200161636081525060036000806003811115613c8a57fe5b60ff1660ff1681526020019081526020016000206000600560ff1681526020019081526020016000206000820151816000015560208201518160010155604082015181600201559050506060604051908101604052806749b0e8ddcd53000081526020016201bee0815260200161bf7e8152506003600060016003811115613d0e57fe5b60ff1660ff1681526020019081526020016000206000600560ff16815260200190815260200160002060008201518160000155602082015181600101556040820151816002015590505060606040519081016040528067654ecf52ac5a0000815260200162023280815260200161d94d8152506003600060026003811115613d9257fe5b60ff1660ff1681526020019081526020016000206000600560ff16815260200190815260200160002060008201518160000155602082015181600101556040820151816002015590505060606040519081016040528067ed4f67667b2e00008152602001620390808152602001620178ec81525060036000600380811115613e1657fe5b60ff1660ff1681526020019081526020016000206000600560ff168152602001908152602001600020600082015181600001556020820151816001015560408201518160020155905050606060405190810160405280674af0a763bb1c0000815260200162029e50815260200162014f2881525060036000806003811115613e9a57fe5b60ff1660ff1681526020019081526020016000206000600660ff16815260200190815260200160002060008201518160000155602082015181600101556040820151816002015590505060606040519081016040528067c0c331685a2d0000815260200162048da08152602001620269a88152506003600060016003811115613f1f57fe5b60ff1660ff1681526020019081526020016000206000600660ff1681526020019081526020016000206000820151816000015560208201518160010155604082015181600201559050506060604051908101604052806801534fd975564d000081526020016206ac988152602001620356328152506003600060026003811115613fa557fe5b60ff1660ff1681526020019081526020016000206000600660ff168152602001908152602001600020600082015181600001556020820151816001015560408201518160020155905050606060405190810160405280680302379bf2ca2e00008152602001620a56e08152602001620565098152506003600060038081111561402a57fe5b60ff1660ff1681526020019081526020016000206000600660ff168152602001908152602001600020600082015181600001556020820151816001015560408201518160020155905050565b61407e6159c0565b6140866159c0565b61408e6159c0565b606060405190810160405280662386f26fc100008152602001678ac7230489e7ffff815260200160056040519080825280602002602001820160405280156140e55781602001602082028038833980820191505090505b50815250925061012c8360400151600081518110151561410157fe5b9060200190602002019061ffff16908161ffff1681525050604b8360400151600181518110151561412e57fe5b9060200190602002019061ffff16908161ffff1681525050603c8360400151600281518110151561415b57fe5b9060200190602002019061ffff16908161ffff168152505060288360400151600381518110151561418857fe5b9060200190602002019061ffff16908161ffff16815250506019836040015160048151811015156141b557fe5b9060200190602002019061ffff16908161ffff1681525050600483908060018154018082558091505090600182039060005260206000209060030201600090919290919091506000820151816000015560208201518160010155604082015181600201908051906020019061422b9291906159e2565b50505050606060405190810160405280678ac7230489e8000081526020016802b5e3af16b187ffff815260200160056040519080825280602002602001820160405280156142885781602001602082028038833980820191505090505b5081525091506101f4826040015160008151811015156142a457fe5b9060200190602002019061ffff16908161ffff168152505060c8826040015160018151811015156142d157fe5b9060200190602002019061ffff16908161ffff16815250506096826040015160028151811015156142fe57fe5b9060200190602002019061ffff16908161ffff168152505060648260400151600381518110151561432b57fe5b9060200190602002019061ffff16908161ffff168152505060328260400151600481518110151561435857fe5b9060200190602002019061ffff16908161ffff168152505060048290806001815401808255809150509060018203906000526020600020906003020160009091929091909150600082015181600001556020820151816001015560408201518160020190805190602001906143ce9291906159e2565b505050506060604051908101604052806802b5e3af16b188000081526020017fffffffffffffffffffffffffffffffffffffffffffffffffffffffffffffffff815260200160056040519080825280602002602001820160405280156144435781602001602082028038833980820191505090505b5081525090506102bc8160400151600081518110151561445f57fe5b9060200190602002019061ffff16908161ffff168152505061012c8160400151600181518110151561448d57fe5b9060200190602002019061ffff16908161ffff168152505060fa816040015160028151811015156144ba57fe5b9060200190602002019061ffff16908161ffff16815250506096816040015160038151811015156144e757fe5b9060200190602002019061ffff16908161ffff168152505060648160400151600481518110151561451457fe5b9060200190602002019061ffff16908161ffff1681525050600481908060018154018082558091505090600182039060005260206000209060030201600090919290919091506000820151816000015560208201518160010155604082015181600201908051906020019061458a9291906159e2565b50505050505050565b600a600560008060ff16815260200190815260200160002081905550600760056000600160ff168152602001908152602001600020819055506005806000600260ff16815260200190815260200160002081905550600360056000600360ff16815260200190815260200160002081905550600160056000600460ff16815260200190815260200160002081905550600060056000600560ff16815260200190815260200160002081905550600060056000600660ff168152602001908152602001600020819055506006608060405190810160405280620151804201815260200162015180815260200160008152602001600760ff166040519080825280602002602001820160405280156146b85781602001602082028038833980820191505090505b50815250908060018154018082558091505090600182039060005260206000209060050201600090919290919091506000820151816000015560208201518160010155604082015181600201556060820151816003019080519060200190614721929190615a8c565b50505050600660806040519081016040528062093a804201815260200162093a80815260200160008152602001600760ff166040519080825280602002602001820160405280156147815781602001602082028038833980820191505090505b508152509080600181540180825580915050906001820390600052602060002090600502016000909192909190915060008201518160000155602082015181600101556040820151816002015560608201518160030190805190602001906147ea929190615a8c565b5050505060066080604051908101604052806304a28600420181526020016304a28600815260200160008152602001600760ff1660405190808252806020026020018201604052801561484c5781602001602082028038833980820191505090505b508152509080600181540180825580915050906001820390600052602060002090600502016000909192909190915060008201518160000155602082015181600101556040820151816002015560608201518160030190805190602001906148b5929190615a8c565b5050505060066080604051908101604052806301e13380420181526020016301e13380815260200160008152602001600760ff166040519080825280602002602001820160405280156149175781602001602082028038833980820191505090505b50815250908060018154018082558091505090600182039060005260206000209060050201600090919290919091506000820151816000015560208201518160010155604082015181600201556060820151816003019080519060200190614980929190615a8c565b50505050565b600160009054906101000a900473ffffffffffffffffffffffffffffffffffffffff1673ffffffffffffffffffffffffffffffffffffffff166108fc6064600f34028115156149d157fe5b049081150290604051600060405180830381858888f193505050501580156149fd573d6000803e3d6000fd5b5050565b600080600080600986815481101515614a1657fe5b90600052602060002090600702019250614b698360c060405190810160405290816000820160009054906101000a900473ffffffffffffffffffffffffffffffffffffffff1673ffffffffffffffffffffffffffffffffffffffff1673ffffffffffffffffffffffffffffffffffffffff16815260200160018201548152602001600282015481526020016003820154815260200160048201805480602002602001604051908101604052809291908181526020018280548015614af957602002820191906000526020600020905b815481526020019060010190808311614ae5575b5050505050815260200160058201805480602002602001604051908101604052809291908181526020018280548015614b5157602002820191906000526020600020905b815481526020019060010190808311614b3d575b50505050508152505086600001518760200151612de5565b1515614b7457600080fd5b614b7f600080611f25565b9150614b98348460010154612e2890919063ffffffff16565b8360010181905550614bb7828460010154612e4990919063ffffffff16565b8360010181905550614bd6828460020154612e2890919063ffffffff16565b83600201819055506001600b869080600181540180825580915050906001820390600052602060002090600202016000909192909190915060008201518160000160006101000a81548160ff02191690836003811115614c3257fe5b021790555060208201518160000160016101000a81548160ff021916908360ff16021790555060408201518160010155505003905085600c600083815260200190815260200160002081905550600d6000878152602001908152602001600020819080600181540180825580915050906001820390600052602060002001600090919290919091505550614cc534614986565b614ccf8683615557565b614cd93334612f9c565b7f8f59dce00c1ab7202394532f1ca472fd1968974b94e346f4bb01270676cbe896868287600001518560405180858152602001848152602001836003811115614d1e57fe5b60ff16815260200182815260200194505050505060405180910390a180935050505092915050565b6000806000806000606060008060008060068d815481101515614d6557fe5b906000526020600020906005020160000154421115614d8857614d878d61580b565b5b60068d815481101515614d9757fe5b90600052602060002090600502019950896003019850614e018b8b60040160008f73ffffffffffffffffffffffffffffffffffffffff1673ffffffffffffffffffffffffffffffffffffffff16815260200190815260200160002054612e2890919063ffffffff16565b9750878a60040160008e73ffffffffffffffffffffffffffffffffffffffff1673ffffffffffffffffffffffffffffffffffffffff168152602001908152602001600020819055508960020154881015614e5a57615548565b73__Math__________________________________637ae2b5c760018b805490500160076040518363ffffffff167c0100000000000000000000000000000000000000000000000000000000028152600401808381526020018260ff1681526020019250505060206040518083038186803b158015614ed857600080fd5b505af4158015614eec573d6000803e3d6000fd5b505050506040513d6020811015614f0257600080fd5b810190808051906020019092919050505096506000955086604051908082528060200260200182016040528015614f485781602001602082028038833980820191505090505b5094506000935060009250600091505b86821015615492578190508315614f82578080600190039150508215614f815780806001019150505b5b60008983815481101515614f9257fe5b9060005260206000200160009054906101000a900473ffffffffffffffffffffffffffffffffffffffff1673ffffffffffffffffffffffffffffffffffffffff161415615140578315156150af57600193508b8587815181101515614ff357fe5b9060200190602002019073ffffffffffffffffffffffffffffffffffffffff16908173ffffffffffffffffffffffffffffffffffffffff16815250507fbd3bef4119f7e7b91bc2fa8eed6d40200c45e56c56baf269caf281361e7c47608d8d888b604051808581526020018473ffffffffffffffffffffffffffffffffffffffff1673ffffffffffffffffffffffffffffffffffffffff16815260200183815260200182815260200194505050505060405180910390a1615133565b88818154811015156150bd57fe5b9060005260206000200160009054906101000a900473ffffffffffffffffffffffffffffffffffffffff1685878151811015156150f657fe5b9060200190602002019073ffffffffffffffffffffffffffffffffffffffff16908173ffffffffffffffffffffffffffffffffffffffff16815250505b8580600101965050615492565b888281548110151561514e57fe5b9060005260206000200160009054906101000a900473ffffffffffffffffffffffffffffffffffffffff1673ffffffffffffffffffffffffffffffffffffffff168c73ffffffffffffffffffffffffffffffffffffffff16141561529e578315615249576001925088600183038154811015156151c757fe5b9060005260206000200160009054906101000a900473ffffffffffffffffffffffffffffffffffffffff16858781518110151561520057fe5b9060200190602002019073ffffffffffffffffffffffffffffffffffffffff16908173ffffffffffffffffffffffffffffffffffffffff16815250508580600101965050615299565b600193508b858781518110151561525c57fe5b9060200190602002019073ffffffffffffffffffffffffffffffffffffffff16908173ffffffffffffffffffffffffffffffffffffffff16815250505b615485565b8960040160008a848154811015156152b257fe5b9060005260206000200160009054906101000a900473ffffffffffffffffffffffffffffffffffffffff1673ffffffffffffffffffffffffffffffffffffffff1673ffffffffffffffffffffffffffffffffffffffff1681526020019081526020016000205488118015615324575083155b156153f857600193508b858781518110151561533c57fe5b9060200190602002019073ffffffffffffffffffffffffffffffffffffffff16908173ffffffffffffffffffffffffffffffffffffffff16815250507fbd3bef4119f7e7b91bc2fa8eed6d40200c45e56c56baf269caf281361e7c47608d8d888b604051808581526020018473ffffffffffffffffffffffffffffffffffffffff1673ffffffffffffffffffffffffffffffffffffffff16815260200183815260200182815260200194505050505060405180910390a161547c565b888181548110151561540657fe5b9060005260206000200160009054906101000a900473ffffffffffffffffffffffffffffffffffffffff16858781518110151561543f57fe5b9060200190602002019073ffffffffffffffffffffffffffffffffffffffff16908173ffffffffffffffffffffffffffffffffffffffff16815250505b85806001019650505b8180600101925050614f58565b86821015801561549f5750835b1561552e5788600188038154811015156154b557fe5b9060005260206000200160009054906101000a900473ffffffffffffffffffffffffffffffffffffffff1685600189038151811015156154f157fe5b9060200190602002019073ffffffffffffffffffffffffffffffffffffffff16908173ffffffffffffffffffffffffffffffffffffffff16815250505b848a6003019080519060200190615546929190615b16565b505b50505050505050505050505050565b606080600080662386f26fc1000060098781548110151561557457fe5b906000526020600020906007020160020154101561559157615803565b6009868154811015156155a057fe5b90600052602060002090600702016005018054806020026020016040519081016040528092919081815260200182805480156155fb57602002820191906000526020600020905b8154815260200190600101908083116155e7575b5050505050935061562b60098781548110151561561457fe5b906000526020600020906007020160020154612228565b9250600091505b6005821015615802576000848381518110151561564b57fe5b90602001906020020151141561566057615802565b612710838381518110151561567157fe5b9060200190602002015161ffff16860281151561568a57fe5b0490506156d781600986858151811015156156a157fe5b906020019060200201518154811015156156b757fe5b906000526020600020906007020160010154612e2890919063ffffffff16565b600985848151811015156156e757fe5b906020019060200201518154811015156156fd57fe5b90600052602060002090600702016001018190555061575c816009868581518110151561572657fe5b9060200190602002015181548110151561573c57fe5b906000526020600020906007020160030154612e2890919063ffffffff16565b6009858481518110151561576c57fe5b9060200190602002015181548110151561578257fe5b9060005260206000209060070201600301819055507f211f658fbe3faa22f0ca8b56ad45888186f5bd0737b447cea43e6a0894b330108685848151811015156157c757fe5b906020019060200201518360405180848152602001838152602001828152602001935050505060405180910390a18180600101925050615632565b5b505050505050565b600060068281548110151561581c57fe5b90600052602060002090600502019050608060405190810160405280826001015483600001540181526020018260010154815260200160008152602001600760ff1660405190808252806020026020018201604052801561588c5781602001602082028038833980820191505090505b5081525060068381548110151561589f57fe5b906000526020600020906005020160008201518160000155602082015181600101556040820151816002015560608201518160030190805190602001906158e7929190615a8c565b509050507f7cce3b409f5d6aca017a29bcb7332d4626c08cc76a25438953274f45723716c6826040518082815260200191505060405180910390a15050565b828054828255906000526020600020908101928215615962579160200282015b82811115615961578251825591602001919060010190615946565b5b50905061596f9190615ba0565b5090565b60c060405190810160405280600073ffffffffffffffffffffffffffffffffffffffff16815260200160008152602001600081526020016000815260200160608152602001606081525090565b6060604051908101604052806000815260200160008152602001606081525090565b82805482825590600052602060002090600f01601090048101928215615a7b5791602002820160005b83821115615a4b57835183826101000a81548161ffff021916908361ffff1602179055509260200192600201602081600101049283019260010302615a0b565b8015615a795782816101000a81549061ffff0219169055600201602081600101049283019260010302615a4b565b505b509050615a889190615bc5565b5090565b828054828255906000526020600020908101928215615b05579160200282015b82811115615b045782518260006101000a81548173ffffffffffffffffffffffffffffffffffffffff021916908373ffffffffffffffffffffffffffffffffffffffff16021790555091602001919060010190615aac565b5b509050615b129190615bf6565b5090565b828054828255906000526020600020908101928215615b8f579160200282015b82811115615b8e5782518260006101000a81548173ffffffffffffffffffffffffffffffffffffffff021916908373ffffffffffffffffffffffffffffffffffffffff16021790555091602001919060010190615b36565b5b509050615b9c9190615bf6565b5090565b615bc291905b80821115615bbe576000816000905550600101615ba6565b5090565b90565b615bf391905b80821115615bef57600081816101000a81549061ffff021916905550600101615bcb565b5090565b90565b615c3691905b80821115615c3257600081816101000a81549073ffffffffffffffffffffffffffffffffffffffff021916905550600101615bfc565b5090565b905600a165627a7a723058204bba25bd7f879ca1f7f087f470ed79a908eae561c5405631d2ea3bfc66c257310029",
  "source": "pragma solidity ^0.4.24;\n\n/*\n*__/\\\\\\\\____________/\\\\\\\\________________/\\\\\\\\____________/\\\\\\\\________/\\\\\\\\\\\\_____/\\\\\\\\\\\\___________________________________________________\n* _\\/\\\\\\\\\\\\________/\\\\\\\\\\\\_______________\\/\\\\\\\\\\\\________/\\\\\\\\\\\\_______\\////\\\\\\____\\////\\\\\\___________________________________________________\n*  _\\/\\\\\\//\\\\\\____/\\\\\\//\\\\\\____/\\\\\\__/\\\\\\_\\/\\\\\\//\\\\\\____/\\\\\\//\\\\\\__/\\\\\\____\\/\\\\\\_______\\/\\\\\\_____/\\\\\\__________________________________________\n*   _\\/\\\\\\\\///\\\\\\/\\\\\\/_\\/\\\\\\___\\//\\\\\\/\\\\\\__\\/\\\\\\\\///\\\\\\/\\\\\\/_\\/\\\\\\_\\///_____\\/\\\\\\_______\\/\\\\\\____\\///______/\\\\\\\\\\_____/\\\\/\\\\\\\\\\\\____/\\\\\\\\\\\\\\\\\\\\_\n*    _\\/\\\\\\__\\///\\\\\\/___\\/\\\\\\____\\//\\\\\\\\\\___\\/\\\\\\__\\///\\\\\\/___\\/\\\\\\__/\\\\\\____\\/\\\\\\_______\\/\\\\\\_____/\\\\\\___/\\\\\\///\\\\\\__\\/\\\\\\////\\\\\\__\\/\\\\\\//////__\n*     _\\/\\\\\\____\\///_____\\/\\\\\\_____\\//\\\\\\____\\/\\\\\\____\\///_____\\/\\\\\\_\\/\\\\\\____\\/\\\\\\_______\\/\\\\\\____\\/\\\\\\__/\\\\\\__\\//\\\\\\_\\/\\\\\\__\\//\\\\\\_\\/\\\\\\\\\\\\\\\\\\\\_\n*      _\\/\\\\\\_____________\\/\\\\\\__/\\\\_/\\\\\\_____\\/\\\\\\_____________\\/\\\\\\_\\/\\\\\\____\\/\\\\\\_______\\/\\\\\\____\\/\\\\\\_\\//\\\\\\__/\\\\\\__\\/\\\\\\___\\/\\\\\\_\\////////\\\\\\_\n*       _\\/\\\\\\_____________\\/\\\\\\_\\//\\\\\\\\/______\\/\\\\\\_____________\\/\\\\\\_\\/\\\\\\__/\\\\\\\\\\\\\\\\\\__/\\\\\\\\\\\\\\\\\\_\\/\\\\\\__\\///\\\\\\\\\\/___\\/\\\\\\___\\/\\\\\\__/\\\\\\\\\\\\\\\\\\\\_\n*        _\\///______________\\///___\\////________\\///______________\\///__\\///__\\/////////__\\/////////__\\///_____\\/////_____\\///____\\///__\\//////////__\n*/\n\nimport \"./Math.sol\";\nimport \"./Ownable.sol\";\nimport \"./LeaderSystem.sol\";\nimport \"./SafeMath.sol\";\n\ncontract Factoring {\n\n    enum FactoryType { Wood, Metal, Oil, PreciousMetal }\n\n    mapping (uint8 => uint256) public resourcePrices;\n\n    function setupFactoringModule() internal {\n        resourcePrices[uint8(FactoryType.Wood)]         = 0.02315 szabo;\n        resourcePrices[uint8(FactoryType.Metal)]        = 0.03646 szabo;\n        resourcePrices[uint8(FactoryType.Oil)]          = 0.04244 szabo;\n        resourcePrices[uint8(FactoryType.PreciousMetal)]= 0.06655 szabo;\n    }\n\n    function getResourcePrice(uint8 _type) public view returns(uint256) {\n        return resourcePrices[_type];\n    }\n\n}\n\ncontract Improvements is Factoring {\n\n    mapping (uint8 => mapping (uint8 => Params)) public levelStack;\n    uint8 public constant levelsCount = 7;\n\n    struct Params {\n        uint256 price;      // improvements cost\n        uint256 ppm;        // products per minute\n        uint256 ppmBonus;   // bonus per minute\n    }\n\n    function setupImprovementsModule() internal {\n        // initial pricess\n        levelStack[uint8(FactoryType.Wood)][0]          = Params(0.01 ether, 200, 0);\n        levelStack[uint8(FactoryType.Metal)][0]         = Params(0.03 ether, 400, 0);\n        levelStack[uint8(FactoryType.Oil)][0]           = Params(0.05 ether, 600, 0);\n        levelStack[uint8(FactoryType.PreciousMetal)][0] = Params(0.10 ether, 800, 0);\n\n        // level 1\n        levelStack[uint8(FactoryType.Wood)][1]          = Params(0.05 ether, 1200, 120);\n        levelStack[uint8(FactoryType.Metal)][1]         = Params(0.09 ether, 1600, 138);\n        levelStack[uint8(FactoryType.Oil)][1]           = Params(0.15 ether, 2400, 164);\n        levelStack[uint8(FactoryType.PreciousMetal)][1] = Params(0.50 ether, 4800, 418);\n\n        // level 2\n        levelStack[uint8(FactoryType.Wood)][2]          = Params(0.12 ether, 3600, 540);\n        levelStack[uint8(FactoryType.Metal)][2]         = Params(0.27 ether, 5200, 866);\n        levelStack[uint8(FactoryType.Oil)][2]           = Params(0.35 ether, 6600, 1050);\n        levelStack[uint8(FactoryType.PreciousMetal)][2] = Params(1.00 ether, 12800, 1670);\n\n        // level 3\n        levelStack[uint8(FactoryType.Wood)][3]          = Params(0.30 ether, 9600, 2400);\n        levelStack[uint8(FactoryType.Metal)][3]         = Params(0.75 ether, 15200, 3980);\n        levelStack[uint8(FactoryType.Oil)][3]           = Params(1.15 ether, 20400, 5099);\n        levelStack[uint8(FactoryType.PreciousMetal)][3] = Params(3.50 ether, 40800, 11531);\n\n        // level 4\n        levelStack[uint8(FactoryType.Wood)][4]          = Params(0.90 ether, 27600, 9660);\n        levelStack[uint8(FactoryType.Metal)][4]         = Params(2.13 ether, 43600, 15568);\n        levelStack[uint8(FactoryType.Oil)][4]           = Params(3.00 ether, 56400, 17943);\n        levelStack[uint8(FactoryType.PreciousMetal)][4] = Params(7.00 ether, 96800, 31567);\n\n        // level 5\n        levelStack[uint8(FactoryType.Wood)][5]          = Params(1.80 ether, 63600, 25440);\n        levelStack[uint8(FactoryType.Metal)][5]         = Params(5.31 ether, 114400, 49022);\n        levelStack[uint8(FactoryType.Oil)][5]           = Params(7.30 ether, 144000, 55629);\n        levelStack[uint8(FactoryType.PreciousMetal)][5] = Params(17.10 ether, 233600, 96492);\n\n        // level 6\n        levelStack[uint8(FactoryType.Wood)][6]          = Params(5.40 ether, 171600, 85800);\n        levelStack[uint8(FactoryType.Metal)][6]         = Params(13.89 ether, 298400, 158120);\n        levelStack[uint8(FactoryType.Oil)][6]           = Params(24.45 ether, 437400, 218674);\n        levelStack[uint8(FactoryType.PreciousMetal)][6] = Params(55.50 ether, 677600, 353545);\n    }\n\n    function getPrice(FactoryType _type, uint8 _level) public view returns(uint256) {\n        return levelStack[uint8(_type)][_level].price;\n    }\n\n    function getProductsPerMinute(FactoryType _type, uint8 _level) public view returns(uint256) {\n        return levelStack[uint8(_type)][_level].ppm;\n    }\n\n    function getBonusPerMinute(FactoryType _type, uint8 _level) public view returns(uint256) {\n        return levelStack[uint8(_type)][_level].ppmBonus;\n    }\n}\n\ncontract ReferralsSystem {\n\n    struct ReferralGroup {\n        uint256 minSum;\n        uint256 maxSum;\n        uint16[] percents;\n    }\n\n    uint256 public constant minSumReferral = 0.01 ether;\n    uint256 public constant referralLevelsGroups = 3;\n    uint256 public constant referralLevelsCount = 5;\n    ReferralGroup[] public referralGroups;\n\n    function setupReferralsSystemModule() internal {\n        ReferralGroup memory refGroupFirsty = ReferralGroup(minSumReferral, 10 ether - 1 wei, new uint16[](referralLevelsCount));\n        refGroupFirsty.percents[0] = 300;   // 3%\n        refGroupFirsty.percents[1] = 75;    // 0.75%\n        refGroupFirsty.percents[2] = 60;    // 0.6%\n        refGroupFirsty.percents[3] = 40;    // 0.4%\n        refGroupFirsty.percents[4] = 25;    // 0.25%\n        referralGroups.push(refGroupFirsty);\n\n        ReferralGroup memory refGroupLoyalty = ReferralGroup(10 ether, 50 ether - 1 wei, new uint16[](referralLevelsCount));\n        refGroupLoyalty.percents[0] = 500;  // 5%\n        refGroupLoyalty.percents[1] = 200;  // 2%\n        refGroupLoyalty.percents[2] = 150;  // 1.5%\n        refGroupLoyalty.percents[3] = 100;  // 1%\n        refGroupLoyalty.percents[4] = 50;   // 0.5%\n        referralGroups.push(refGroupLoyalty);\n\n        ReferralGroup memory refGroupUltraPremium = ReferralGroup(50 ether, 2**256 - 1, new uint16[](referralLevelsCount));\n        refGroupUltraPremium.percents[0] = 700; // 7%\n        refGroupUltraPremium.percents[1] = 300; // 3%\n        refGroupUltraPremium.percents[2] = 250; // 2.5%\n        refGroupUltraPremium.percents[3] = 150; // 1.5%\n        refGroupUltraPremium.percents[4] = 100; // 1%\n        referralGroups.push(refGroupUltraPremium);\n    }\n\n    function getReferralPercents(uint256 _sum) public view returns(uint16[]) {\n        for (uint i = 0; i < referralLevelsGroups; i++) {\n            ReferralGroup memory group = referralGroups[i];\n            if (_sum >= group.minSum && _sum <= group.maxSum) return group.percents;\n        }\n    }\n\n    function getReferralPercentsByIndex(uint256 _index) public view returns(uint16[]) {\n        return referralGroups[_index].percents;\n    }\n\n}\n\n/// @title Smart-contract of MyMillions ecosystem\n/// @author Shagaleev Alexey\ncontract MyMillions is Ownable, Improvements, ReferralsSystem, LeaderSystem {\n    using SafeMath for uint256;\n\n    event CreateUser(uint256 _index, address _address, uint256 _balance);\n    event ReferralRegister(uint256 _refferalId, uint256 _userId);\n    event ReferrerDistribute(uint256 _userId, uint256 _referrerId, uint256 _sum);\n    event Deposit(uint256 _userId, uint256 _value);\n    event PaymentProceed(uint256 _userId, uint256 _factoryId, FactoryType _factoryType, uint256 _price);\n    event CollectResources(FactoryType _type, uint256 _resources);\n    event LevelUp(uint256 _factoryId, uint8 _newLevel, uint256 _userId);\n    event Sell(uint256 _userId, uint8 _type, uint256 _sum);\n\n    bool isSetted = false;\n    uint256 public minSumDeposit = 0.01 ether;\n\n    struct User {\n        address addr;                                   // user address\n        uint256 balance;                                // balance of account\n        uint256 totalPay;                               // sum of all input pay\n        uint256 referrersReceived;                      // total deposit from referrals\n        uint256[] resources;                            // collected resources\n        uint256[] referrersByLevel;                     // referrers user ids\n        mapping (uint8 => uint256[]) referralsByLevel;  // all referrals user ids\n    }\n\n    User[] public users;\n    mapping (address => uint256) public addressToUser;\n\n    struct Factory {\n        FactoryType ftype;      // factory type\n        uint8 level;            // factory level\n        uint256 collected_at;   // timestamp updated\n    }\n\n    Factory[] public factories;\n    mapping (uint256 => uint256) public factoryToUser;\n    mapping (uint256 => uint256[]) public userToFactories;\n\n    modifier onlyExistingUser() {\n        require(addressToUser[msg.sender] != 0);\n        _;\n    }\n\n    constructor() public payable {\n        users.push(User(0x0, 0, 0, 0, new uint256[](4), new uint256[](referralLevelsCount)));  // for find by addressToUser map\n    }\n\n    function setup() public onlyOwner {\n        require(isSetted == false);\n        isSetted = true;\n\n        setupFactoringModule();\n        setupImprovementsModule();\n        setupReferralsSystemModule();\n        setupLeaderSystemModule();\n    }\n\n    // @dev register for only new users with min pay\n    /// @return id of new user\n    function register() public payable returns(uint256) {\n        require(addressToUser[msg.sender] == 0);\n\n        uint256 index = users.push(User(msg.sender, msg.value, 0, 0, new uint256[](4), new uint256[](referralLevelsCount))) - 1;\n        addressToUser[msg.sender] = index;\n\n        emit CreateUser(index, msg.sender, msg.value);\n        return index;\n    }\n\n\n    /// @notice just registry by referral link\n    /// @param _refId the ID of the user who gets the affiliate fee\n    /// @return id of new user\n    function registerWithRefID(uint256 _refId) public payable returns(uint256) {\n        require(_refId < users.length);\n\n        uint256 index = register();\n        _updateReferrals(index, _refId);\n\n        emit ReferralRegister(_refId, index);\n        return index;\n    }\n\n    /// @notice update referrersByLevel and referralsByLevel of new user\n    /// @param _newUserId the ID of the new user\n    /// @param _refUserId the ID of the user who gets the affiliate fee\n    function _updateReferrals(uint256 _newUserId, uint256 _refUserId) private {\n        if (_newUserId == _refUserId) return;\n        users[_newUserId].referrersByLevel[0] = _refUserId;\n\n        for (uint i = 1; i < referralLevelsCount; i++) {\n            uint256 _refId = users[_refUserId].referrersByLevel[i - 1];\n            users[_newUserId].referrersByLevel[i] = _refId;\n            users[_refId].referralsByLevel[uint8(i)].push(_newUserId);\n        }\n\n        users[_refUserId].referralsByLevel[0].push(_newUserId);\n    }\n\n    /// @notice distribute value of tx to referrers of user\n    /// @param _userId the ID of the user who gets the affiliate fee\n    /// @param _sum value of ethereum for distribute to referrers of user\n    function _distributeReferrers(uint256 _userId, uint256 _sum) private {\n        if (users[_userId].totalPay < minSumReferral) return;\n\n        uint256[] memory referrers = users[_userId].referrersByLevel;\n        uint16[] memory percents = getReferralPercents(users[_userId].totalPay);\n\n        for (uint i = 0; i < referralLevelsCount; i++) {\n            if (referrers[i] == 0) break;\n\n            uint256 value = _sum * percents[i] / 10000;\n            users[referrers[i]].balance = users[referrers[i]].balance.add(value);\n            users[referrers[i]].referrersReceived = users[referrers[i]].referrersReceived.add(value);\n\n            emit ReferrerDistribute(_userId, referrers[i], value);\n        }\n    }\n\n    /// @notice deposit ethereum for user\n    /// @return balance value of user\n    function deposit() public payable returns(uint256) {\n        require(msg.value > minSumDeposit, \"Deposit does not enough\");\n        uint256 userId = addressToUser[msg.sender];\n        users[userId].balance = users[userId].balance.add(msg.value);\n\n        // distribute\n        _distributeInvestment(msg.value);\n        _updateLeaders(msg.sender, msg.value);\n\n        emit Deposit(userId, msg.value);\n        return users[userId].balance;\n    }\n\n    /// @notice getter for balance of user\n    /// @return balance value of user\n    function balanceOf() public view returns (uint256) {\n        return users[addressToUser[msg.sender]].balance;\n    }\n\n    /// @notice getter for resources of user\n    /// @return resources value of user\n    function resoucesOf() public view returns (uint256[]) {\n        return users[addressToUser[msg.sender]].resources;\n    }\n\n    /// @notice getter for referrers of user\n    /// @return array of referrers id\n    function referrersOf() public view returns (uint256[]) {\n        return users[addressToUser[msg.sender]].referrersByLevel;\n    }\n\n    /// @notice getter for referrals of user by level\n    /// @param _level level of referrals user needed\n    /// @return array of referrals id\n    function referralsOf(uint8 _level) public view returns (uint256[]) {\n        return users[addressToUser[msg.sender]].referralsByLevel[uint8(_level)];\n    }\n\n    /// @notice getter for extended information of user\n    /// @param _userId id of user needed\n    /// @return address of user\n    /// @return balance of user\n    /// @return totalPay of user\n    /// @return array of resources user\n    /// @return array of referrers id user\n    function userInfo(uint256 _userId) public view returns(address, uint256, uint256, uint256, uint256[], uint256[]) {\n        User memory user = users[_userId];\n        return (user.addr, user.balance, user.totalPay, user.referrersReceived, user.resources, user.referrersByLevel);\n    }\n\n    /// @notice mechanics of buying any factory\n    /// @param _type type of factory needed\n    /// @return id of new factory\n    function buyFactory(FactoryType _type) public payable returns (uint256) {\n        uint256 userId = addressToUser[msg.sender];\n\n        // if user not registered\n        if (addressToUser[msg.sender] == 0)\n            userId = register();\n\n        return _paymentProceed(userId, Factory(_type, 0, now));\n    }\n\n    /// @notice get factories of user\n    /// @param _user_id id of user\n    /// @return array of id factory\n    function getFactories(uint256 _user_id) public view returns (uint256[]) {\n        return userToFactories[_user_id];\n    }\n\n    /// @notice buy wood factory\n    /// @dev wrapper over buyFactory for FactoryType.Wood\n    /// @return id of new factory\n    function buyWoodFactory() public payable returns (uint256) {\n        return buyFactory(FactoryType.Wood);\n    }\n\n    /// @notice buy wood factory\n    /// @dev wrapper over buyFactory for FactoryType.Metal\n    /// @return id of new factory\n    function buyMetalFactory() public payable returns (uint256) {\n        return buyFactory(FactoryType.Metal);\n    }\n\n    /// @notice buy wood factory\n    /// @dev wrapper over buyFactory for FactoryType.Oil\n    /// @return id of new factory\n    function buyOilFactory() public payable returns (uint256) {\n        return buyFactory(FactoryType.Oil);\n    }\n\n    /// @notice buy wood factory\n    /// @dev wrapper over buyFactory for FactoryType.PreciousMetal\n    /// @return id of new factory\n    function buyPreciousMetal() public payable returns (uint256) {\n        return buyFactory(FactoryType.PreciousMetal);\n    }\n\n    /// @notice distribute investment when user buy anything\n    /// @param _value value of investment\n    function _distributeInvestment(uint256 _value) private {\n        developers.transfer(msg.value * developersPercent / 100);\n    }\n\n    /// @notice function of proceed payment\n    /// @dev for only buy new factory\n    /// @return id of new factory\n    function _paymentProceed(uint256 _userId, Factory _factory) private returns(uint256) {\n        User storage user = users[_userId];\n\n        require(_checkPayment(user, _factory.ftype, _factory.level));\n\n        uint256 price = getPrice(FactoryType.Wood, 0);\n        user.balance = user.balance.add(msg.value);\n        user.balance = user.balance.sub(price);\n        user.totalPay = user.totalPay.add(price);\n\n        uint256 index = factories.push(_factory) - 1;\n        factoryToUser[index] = _userId;\n        userToFactories[_userId].push(index);\n\n        // distribute\n        _distributeInvestment(msg.value);\n        _distributeReferrers(_userId, price);\n        _updateLeaders(msg.sender, msg.value);\n\n        emit PaymentProceed(_userId, index, _factory.ftype, price);\n        return index;\n    }\n\n    /// @notice check available investment\n    /// @return true if user does enough balance for investment\n    function _checkPayment(User _user, FactoryType _type, uint8 _level) private view returns(bool) {\n        uint256 totalBalance = _user.balance.add(msg.value);\n\n        if (totalBalance < getPrice(_type, _level)) return false;\n\n        return true;\n    }\n\n    /// @notice level up for factory\n    /// @param _factoryId id of factory\n    function levelUp(uint256 _factoryId) public payable {\n        Factory storage factory = factories[_factoryId];\n        uint256 price = getPrice(factory.ftype, factory.level + 1);\n\n        uint256 userId = addressToUser[msg.sender];\n        User storage user = users[userId];\n\n        require(_checkPayment(user, factory.ftype, factory.level + 1));\n\n        // payment\n        user.balance = user.balance.add(msg.value);\n        user.balance = user.balance.sub(price);\n        user.totalPay = user.totalPay.add(price);\n\n        // collect\n        _collectResource(factory, user);\n        factory.level++;\n\n        _updateLeaders(msg.sender, msg.value);\n\n        emit LevelUp(_factoryId, factory.level, userId);\n    }\n\n    /// @notice sell resources of user with type\n    /// @param _type type of resources\n    /// @return sum of sell\n    function sellResources(uint8 _type) public returns (uint256) {\n        uint256 userId = addressToUser[msg.sender];\n        uint256 sum = Math.min(users[userId].resources[_type] * getResourcePrice(_type), address(this).balance);\n        users[userId].resources[_type] = 0;\n\n        msg.sender.transfer(sum);\n\n        emit Sell(userId, _type, sum);\n        return sum;\n    }\n\n    /// @notice function for compute worktime factory\n    /// @param _collected_at timestamp of start\n    /// @return duration minutes\n    function worktimeAtDate(uint256 _collected_at) public view returns(uint256) {\n        return (now - _collected_at) / 60;\n    }\n\n    /// @notice function for compute duration work factory\n    /// @param _factoryId id of factory\n    /// @return timestamp of duration\n    function worktime(uint256 _factoryId) public view returns(uint256) {\n        return worktimeAtDate(factories[_factoryId].collected_at);\n    }\n\n    /// @notice function for compute resource factory at time\n    /// @param _type type of factory\n    /// @param _level level of factory\n    /// @param _collected_at timestamp for collect\n    /// @return count of resources\n    function _resourcesAtTime(FactoryType _type, uint8 _level, uint256 _collected_at) public view returns(uint256) {\n        return worktimeAtDate(_collected_at) * (getProductsPerMinute(_type, _level) + getBonusPerMinute(_type, _level)) / 100;\n    }\n\n    /// @notice function for compute resource factory at time\n    /// @dev wrapper over _resourcesAtTime\n    /// @param _factoryId id of factory\n    /// @return count of resources\n    function resourcesAtTime(uint256 _factoryId) public view returns(uint256) {\n        Factory storage factory = factories[_factoryId];\n        return _resourcesAtTime(factory.ftype, factory.level, factory.collected_at);\n    }\n\n    /// @notice function for collect resource\n    /// @param _factory factory object\n    /// @param _user user object\n    /// @return count of resources\n    function _collectResource(Factory storage _factory, User storage _user) internal returns(uint256) {\n        uint256 resources = _resourcesAtTime(_factory.ftype, _factory.level, _factory.collected_at);\n        _user.resources[uint8(_factory.ftype)] = _user.resources[uint8(_factory.ftype)].add(resources);\n        _factory.collected_at = now;\n\n        emit CollectResources(_factory.ftype, resources);\n        return resources;\n    }\n\n    /// @notice function for collect all resources from all factories\n    /// @dev wrapper over _collectResource\n    function collectResources() public onlyExistingUser {\n        uint256 index = addressToUser[msg.sender];\n        User storage user = users[index];\n        uint256[] storage factoriesIds = userToFactories[addressToUser[msg.sender]];\n\n        for (uint256 i = 0; i < factoriesIds.length; i++) {\n            _collectResource(factories[factoriesIds[i]], user);\n        }\n    }\n\n}",
  "sourcePath": "/Users/alexey/Projects/DApps/MyMillions/contracts/MyMillions.sol",
  "compiler": {
    "name": "solc",
    "version": "0.4.24+commit.e67f0147.Emscripten.clang"
  },
  "schemaVersion": "2.0.1",
  "updatedAt": "2018-12-03T14:13:16.257Z"
}