{
  "contractName": "MyMillions",
  "abi": [
    {
      "constant": true,
      "inputs": [
        {
          "name": "",
          "type": "uint256"
        }
      ],
      "name": "users",
      "outputs": [
        {
          "name": "addr",
          "type": "address"
        },
        {
          "name": "balance",
          "type": "uint256"
        },
        {
          "name": "totalPay",
          "type": "uint256"
        }
      ],
      "payable": false,
      "stateMutability": "view",
      "type": "function"
    },
    {
      "constant": true,
      "inputs": [],
      "name": "owner",
      "outputs": [
        {
          "name": "",
          "type": "address"
        }
      ],
      "payable": false,
      "stateMutability": "view",
      "type": "function"
    },
    {
      "constant": true,
      "inputs": [
        {
          "name": "",
          "type": "address"
        }
      ],
      "name": "addressToUser",
      "outputs": [
        {
          "name": "",
          "type": "uint256"
        }
      ],
      "payable": false,
      "stateMutability": "view",
      "type": "function"
    },
    {
      "constant": false,
      "inputs": [
        {
          "name": "newOwner",
          "type": "address"
        }
      ],
      "name": "transferOwnership",
      "outputs": [],
      "payable": false,
      "stateMutability": "nonpayable",
      "type": "function"
    },
    {
      "inputs": [],
      "payable": false,
      "stateMutability": "nonpayable",
      "type": "constructor"
    },
    {
      "anonymous": false,
      "inputs": [
        {
          "indexed": true,
          "name": "previousOwner",
          "type": "address"
        },
        {
          "indexed": true,
          "name": "newOwner",
          "type": "address"
        }
      ],
      "name": "OwnershipTransferred",
      "type": "event"
    },
    {
      "constant": false,
      "inputs": [],
      "name": "register",
      "outputs": [
        {
          "name": "",
          "type": "uint256"
        }
      ],
      "payable": true,
      "stateMutability": "payable",
      "type": "function"
    },
    {
      "constant": false,
      "inputs": [
        {
          "name": "_refId",
          "type": "uint256"
        }
      ],
      "name": "register",
      "outputs": [
        {
          "name": "",
          "type": "uint256"
        }
      ],
      "payable": true,
      "stateMutability": "payable",
      "type": "function"
    },
    {
      "constant": false,
      "inputs": [],
      "name": "buyWoodFactory",
      "outputs": [],
      "payable": true,
      "stateMutability": "payable",
      "type": "function"
    }
  ],
  "bytecode": "0x608060405234801561001057600080fd5b50336000806101000a81548173ffffffffffffffffffffffffffffffffffffffff021916908373ffffffffffffffffffffffffffffffffffffffff1602179055506001608060405190810160405280600073ffffffffffffffffffffffffffffffffffffffff168152602001600081526020016000815260200160006040519080825280602002602001820160405280156100ba5781602001602082028038833980820191505090505b508152509080600181540180825580915050906001820390600052602060002090600402016000909192909190915060008201518160000160006101000a81548173ffffffffffffffffffffffffffffffffffffffff021916908373ffffffffffffffffffffffffffffffffffffffff16021790555060208201518160010155604082015181600201556060820151816003019080519060200190610160929190610169565b505050506101db565b8280548282559060005260206000209081019282156101a5579160200282015b828111156101a4578251825591602001919060010190610189565b5b5090506101b291906101b6565b5090565b6101d891905b808211156101d45760008160009055506001016101bc565b5090565b90565b61074a806101ea6000396000f300608060405260043610610083576000357c0100000000000000000000000000000000000000000000000000000000900463ffffffff1680631aa3a00814610088578063365b98b2146100a65780635ee6e3a2146101215780638da5cb5b1461012b578063edf5388614610182578063f207564e146101d9578063f2fde38b1461020d575b600080fd5b610090610250565b6040518082815260200191505060405180910390f35b3480156100b257600080fd5b506100d16004803603810190808035906020019092919050505061040d565b604051808473ffffffffffffffffffffffffffffffffffffffff1673ffffffffffffffffffffffffffffffffffffffff168152602001838152602001828152602001935050505060405180910390f35b610129610466565b005b34801561013757600080fd5b50610140610468565b604051808273ffffffffffffffffffffffffffffffffffffffff1673ffffffffffffffffffffffffffffffffffffffff16815260200191505060405180910390f35b34801561018e57600080fd5b506101c3600480360381019080803573ffffffffffffffffffffffffffffffffffffffff16906020019092919050505061048d565b6040518082815260200191505060405180910390f35b6101f7600480360381019080803590602001909291905050506104a5565b6040518082815260200191505060405180910390f35b34801561021957600080fd5b5061024e600480360381019080803573ffffffffffffffffffffffffffffffffffffffff169060200190929190505050610518565b005b600061025a61066d565b600080600260003373ffffffffffffffffffffffffffffffffffffffff1673ffffffffffffffffffffffffffffffffffffffff168152602001908152602001600020541415156102a957600080fd5b6080604051908101604052803373ffffffffffffffffffffffffffffffffffffffff1681526020016000815260200160008152602001600060405190808252806020026020018201604052801561030f5781602001602082028038833980820191505090505b508152509150600180839080600181540180825580915050906001820390600052602060002090600402016000909192909190915060008201518160000160006101000a81548173ffffffffffffffffffffffffffffffffffffffff021916908373ffffffffffffffffffffffffffffffffffffffff160217905550602082015181600101556040820151816002015560608201518160030190805190602001906103bb9291906106ac565b50505003905080600260003373ffffffffffffffffffffffffffffffffffffffff1673ffffffffffffffffffffffffffffffffffffffff16815260200190815260200160002081905550809250505090565b60018181548110151561041c57fe5b90600052602060002090600402016000915090508060000160009054906101000a900473ffffffffffffffffffffffffffffffffffffffff16908060010154908060020154905083565b565b6000809054906101000a900473ffffffffffffffffffffffffffffffffffffffff1681565b60026020528060005260406000206000915090505481565b600080600180549050831015156104bb57600080fd5b6104c3610250565b90506001838154811015156104d457fe5b906000526020600020906004020160030181908060018154018082558091505090600182039060005260206000200160009091929091909150555080915050919050565b6000809054906101000a900473ffffffffffffffffffffffffffffffffffffffff1673ffffffffffffffffffffffffffffffffffffffff163373ffffffffffffffffffffffffffffffffffffffff1614151561057357600080fd5b600073ffffffffffffffffffffffffffffffffffffffff168173ffffffffffffffffffffffffffffffffffffffff16141515156105af57600080fd5b8073ffffffffffffffffffffffffffffffffffffffff166000809054906101000a900473ffffffffffffffffffffffffffffffffffffffff1673ffffffffffffffffffffffffffffffffffffffff167f8be0079c531659141344cd1fd0a4f28419497f9722a3daafe3b4186f6b6457e060405160405180910390a3806000806101000a81548173ffffffffffffffffffffffffffffffffffffffff021916908373ffffffffffffffffffffffffffffffffffffffff16021790555050565b608060405190810160405280600073ffffffffffffffffffffffffffffffffffffffff1681526020016000815260200160008152602001606081525090565b8280548282559060005260206000209081019282156106e8579160200282015b828111156106e75782518255916020019190600101906106cc565b5b5090506106f591906106f9565b5090565b61071b91905b808211156107175760008160009055506001016106ff565b5090565b905600a165627a7a723058209d8f6ed9e2ce496f374b441a21ca2083922152f51409191385bad0431dcd73770029",
  "source": "pragma solidity ^0.4.24;\n\nimport \"./Ownable.sol\";\nimport \"./SafeMath.sol\";\n\ncontract MyMillions is Ownable {\n    using SafeMath for uint256;\n    \n    struct User {\n        address addr;           // user address\n        uint256 balance;        // balance of account\n        uint256 totalPay;       // sum of all input pay\n        uint256[] referrals;    // first layer referrals\n    }\n    \n    User[] public users;\n    mapping (address => uint256) public addressToUser;\n    \n    struct Factory {\n        \n    }\n    \n    Factory[] woodFactories;\n    Factory[] metallFactories;\n    Factory[] oilFactories;\n    Factory[] preciousMetallFactories;\n    \n    constructor() public {\n        users.push(User(0x0, 0, 0, new uint256[](0)));  // for find by addressToUser map\n    }\n    \n    function register() public payable returns(uint256) {\n        require(addressToUser[msg.sender] == 0);\n        \n        User memory user = User(msg.sender, 0, 0, new uint256[](0));\n        uint256 index = users.push(user) - 1;\n        addressToUser[msg.sender] = index;\n        \n        return index;\n    }\n    /**\n     * @dev essentially the same as buy, but instead of you sending ether \n     * from your wallet, it uses your unwithdrawn earnings.\n     * -functionhash- 0x349cdcac (using ID for affiliate)\n     * -functionhash- 0x82bfc739 (using address for affiliate)\n     * -functionhash- 0x079ce327 (using name for affiliate)\n     * @param _refId the ID of the user who gets the affiliate fee\n     */\n    function register(uint256 _refId) public payable returns(uint256) {\n        require(_refId < users.length);\n        \n        uint256 index = register();\n        users[_refId].referrals.push(index);\n        \n        return index;\n    }\n    \n    function buyWoodFactory() public payable {\n        \n    }\n    \n}\n",
  "sourcePath": "/Users/alexey/Projects/DApps/MyMillions/contracts/MyMillions.sol",
  "compiler": {
    "name": "solc",
    "version": "0.4.24+commit.e67f0147.Emscripten.clang"
  },
  "schemaVersion": "2.0.1",
  "updatedAt": "2018-09-30T09:37:47.660Z"
}