{
  "contractName": "MyMillions",
  "abi": [
    {
      "constant": true,
      "inputs": [
        {
          "name": "",
          "type": "uint8"
        }
      ],
      "name": "leaderBonuses",
      "outputs": [
        {
          "name": "",
          "type": "uint256"
        }
      ],
      "payable": false,
      "stateMutability": "view",
      "type": "function"
    },
    {
      "constant": true,
      "inputs": [],
      "name": "developers",
      "outputs": [
        {
          "name": "",
          "type": "address"
        }
      ],
      "payable": false,
      "stateMutability": "view",
      "type": "function"
    },
    {
      "constant": true,
      "inputs": [
        {
          "name": "",
          "type": "uint256"
        }
      ],
      "name": "users",
      "outputs": [
        {
          "name": "addr",
          "type": "address"
        },
        {
          "name": "balance",
          "type": "uint256"
        },
        {
          "name": "totalPay",
          "type": "uint256"
        }
      ],
      "payable": false,
      "stateMutability": "view",
      "type": "function"
    },
    {
      "constant": true,
      "inputs": [],
      "name": "developersPercent",
      "outputs": [
        {
          "name": "",
          "type": "uint256"
        }
      ],
      "payable": false,
      "stateMutability": "view",
      "type": "function"
    },
    {
      "constant": true,
      "inputs": [
        {
          "name": "_indexTable",
          "type": "uint256"
        }
      ],
      "name": "getLeadersTableInfo",
      "outputs": [
        {
          "name": "",
          "type": "uint256"
        },
        {
          "name": "",
          "type": "uint256"
        },
        {
          "name": "",
          "type": "uint256"
        }
      ],
      "payable": false,
      "stateMutability": "view",
      "type": "function"
    },
    {
      "constant": true,
      "inputs": [
        {
          "name": "",
          "type": "uint256"
        }
      ],
      "name": "factoryToUser",
      "outputs": [
        {
          "name": "",
          "type": "uint256"
        }
      ],
      "payable": false,
      "stateMutability": "view",
      "type": "function"
    },
    {
      "constant": true,
      "inputs": [
        {
          "name": "_type",
          "type": "uint8"
        }
      ],
      "name": "getResourcePrice",
      "outputs": [
        {
          "name": "",
          "type": "uint256"
        }
      ],
      "payable": false,
      "stateMutability": "view",
      "type": "function"
    },
    {
      "constant": true,
      "inputs": [
        {
          "name": "_indexTable",
          "type": "uint256"
        }
      ],
      "name": "getLeaders",
      "outputs": [
        {
          "name": "",
          "type": "address[]"
        },
        {
          "name": "",
          "type": "uint256[]"
        }
      ],
      "payable": false,
      "stateMutability": "view",
      "type": "function"
    },
    {
      "constant": true,
      "inputs": [
        {
          "name": "_index",
          "type": "uint256"
        }
      ],
      "name": "getReferralPercentsByIndex",
      "outputs": [
        {
          "name": "",
          "type": "uint16[]"
        }
      ],
      "payable": false,
      "stateMutability": "view",
      "type": "function"
    },
    {
      "constant": true,
      "inputs": [],
      "name": "minSumReferral",
      "outputs": [
        {
          "name": "",
          "type": "uint256"
        }
      ],
      "payable": false,
      "stateMutability": "view",
      "type": "function"
    },
    {
      "constant": true,
      "inputs": [
        {
          "name": "_type",
          "type": "uint8"
        },
        {
          "name": "_level",
          "type": "uint8"
        }
      ],
      "name": "getPrice",
      "outputs": [
        {
          "name": "",
          "type": "uint256"
        }
      ],
      "payable": false,
      "stateMutability": "view",
      "type": "function"
    },
    {
      "constant": true,
      "inputs": [
        {
          "name": "",
          "type": "uint256"
        }
      ],
      "name": "factories",
      "outputs": [
        {
          "name": "ftype",
          "type": "uint8"
        },
        {
          "name": "level",
          "type": "uint8"
        },
        {
          "name": "collected_at",
          "type": "uint256"
        }
      ],
      "payable": false,
      "stateMutability": "view",
      "type": "function"
    },
    {
      "constant": true,
      "inputs": [
        {
          "name": "_type",
          "type": "uint8"
        },
        {
          "name": "_level",
          "type": "uint8"
        }
      ],
      "name": "getBonusPerMinute",
      "outputs": [
        {
          "name": "",
          "type": "uint256"
        }
      ],
      "payable": false,
      "stateMutability": "view",
      "type": "function"
    },
    {
      "constant": true,
      "inputs": [],
      "name": "levelsCount",
      "outputs": [
        {
          "name": "",
          "type": "uint8"
        }
      ],
      "payable": false,
      "stateMutability": "view",
      "type": "function"
    },
    {
      "constant": false,
      "inputs": [
        {
          "name": "newDevelopers",
          "type": "address"
        }
      ],
      "name": "setDevelopers",
      "outputs": [],
      "payable": false,
      "stateMutability": "nonpayable",
      "type": "function"
    },
    {
      "constant": true,
      "inputs": [],
      "name": "owner",
      "outputs": [
        {
          "name": "",
          "type": "address"
        }
      ],
      "payable": false,
      "stateMutability": "view",
      "type": "function"
    },
    {
      "constant": true,
      "inputs": [
        {
          "name": "_sum",
          "type": "uint256"
        }
      ],
      "name": "getReferralPercents",
      "outputs": [
        {
          "name": "",
          "type": "uint16[]"
        }
      ],
      "payable": false,
      "stateMutability": "view",
      "type": "function"
    },
    {
      "constant": true,
      "inputs": [],
      "name": "leadersCount",
      "outputs": [
        {
          "name": "",
          "type": "uint8"
        }
      ],
      "payable": false,
      "stateMutability": "view",
      "type": "function"
    },
    {
      "constant": true,
      "inputs": [
        {
          "name": "",
          "type": "uint256"
        }
      ],
      "name": "referralGroups",
      "outputs": [
        {
          "name": "minSum",
          "type": "uint256"
        },
        {
          "name": "maxSum",
          "type": "uint256"
        }
      ],
      "payable": false,
      "stateMutability": "view",
      "type": "function"
    },
    {
      "constant": true,
      "inputs": [
        {
          "name": "_type",
          "type": "uint8"
        },
        {
          "name": "_level",
          "type": "uint8"
        }
      ],
      "name": "getProductsPerMinute",
      "outputs": [
        {
          "name": "",
          "type": "uint256"
        }
      ],
      "payable": false,
      "stateMutability": "view",
      "type": "function"
    },
    {
      "constant": true,
      "inputs": [
        {
          "name": "",
          "type": "uint256"
        }
      ],
      "name": "leaders",
      "outputs": [
        {
          "name": "timestampEnd",
          "type": "uint256"
        },
        {
          "name": "duration",
          "type": "uint256"
        },
        {
          "name": "minSum",
          "type": "uint256"
        }
      ],
      "payable": false,
      "stateMutability": "view",
      "type": "function"
    },
    {
      "constant": true,
      "inputs": [
        {
          "name": "",
          "type": "uint8"
        }
      ],
      "name": "resourcePrices",
      "outputs": [
        {
          "name": "",
          "type": "uint256"
        }
      ],
      "payable": false,
      "stateMutability": "view",
      "type": "function"
    },
    {
      "constant": true,
      "inputs": [],
      "name": "referralLevelsGroups",
      "outputs": [
        {
          "name": "",
          "type": "uint256"
        }
      ],
      "payable": false,
      "stateMutability": "view",
      "type": "function"
    },
    {
      "constant": true,
      "inputs": [
        {
          "name": "",
          "type": "uint8"
        },
        {
          "name": "",
          "type": "uint8"
        }
      ],
      "name": "levelStack",
      "outputs": [
        {
          "name": "price",
          "type": "uint256"
        },
        {
          "name": "ppm",
          "type": "uint256"
        },
        {
          "name": "ppmBonus",
          "type": "uint256"
        }
      ],
      "payable": false,
      "stateMutability": "view",
      "type": "function"
    },
    {
      "constant": true,
      "inputs": [
        {
          "name": "",
          "type": "address"
        }
      ],
      "name": "addressToUser",
      "outputs": [
        {
          "name": "",
          "type": "uint256"
        }
      ],
      "payable": false,
      "stateMutability": "view",
      "type": "function"
    },
    {
      "constant": false,
      "inputs": [
        {
          "name": "newOwner",
          "type": "address"
        }
      ],
      "name": "transferOwnership",
      "outputs": [],
      "payable": false,
      "stateMutability": "nonpayable",
      "type": "function"
    },
    {
      "constant": true,
      "inputs": [],
      "name": "referralLevelsCount",
      "outputs": [
        {
          "name": "",
          "type": "uint256"
        }
      ],
      "payable": false,
      "stateMutability": "view",
      "type": "function"
    },
    {
      "constant": true,
      "inputs": [
        {
          "name": "",
          "type": "uint256"
        },
        {
          "name": "",
          "type": "uint256"
        }
      ],
      "name": "userToFactories",
      "outputs": [
        {
          "name": "",
          "type": "uint256"
        }
      ],
      "payable": false,
      "stateMutability": "view",
      "type": "function"
    },
    {
      "inputs": [],
      "payable": true,
      "stateMutability": "payable",
      "type": "constructor"
    },
    {
      "anonymous": false,
      "inputs": [
        {
          "indexed": false,
          "name": "_index",
          "type": "uint256"
        },
        {
          "indexed": false,
          "name": "_address",
          "type": "address"
        },
        {
          "indexed": false,
          "name": "_balance",
          "type": "uint256"
        }
      ],
      "name": "CreateUser",
      "type": "event"
    },
    {
      "anonymous": false,
      "inputs": [
        {
          "indexed": false,
          "name": "_refferalId",
          "type": "uint256"
        },
        {
          "indexed": false,
          "name": "_userId",
          "type": "uint256"
        }
      ],
      "name": "ReferralRegister",
      "type": "event"
    },
    {
      "anonymous": false,
      "inputs": [
        {
          "indexed": false,
          "name": "_userId",
          "type": "uint256"
        },
        {
          "indexed": false,
          "name": "_referrerId",
          "type": "uint256"
        },
        {
          "indexed": false,
          "name": "_sum",
          "type": "uint256"
        }
      ],
      "name": "ReferrerDistribute",
      "type": "event"
    },
    {
      "anonymous": false,
      "inputs": [
        {
          "indexed": false,
          "name": "_userId",
          "type": "uint256"
        },
        {
          "indexed": false,
          "name": "_value",
          "type": "uint256"
        }
      ],
      "name": "Deposit",
      "type": "event"
    },
    {
      "anonymous": false,
      "inputs": [
        {
          "indexed": false,
          "name": "_userId",
          "type": "uint256"
        },
        {
          "indexed": false,
          "name": "_factoryId",
          "type": "uint256"
        },
        {
          "indexed": false,
          "name": "_factoryType",
          "type": "uint8"
        },
        {
          "indexed": false,
          "name": "_price",
          "type": "uint256"
        }
      ],
      "name": "PaymentProceed",
      "type": "event"
    },
    {
      "anonymous": false,
      "inputs": [
        {
          "indexed": false,
          "name": "_type",
          "type": "uint8"
        },
        {
          "indexed": false,
          "name": "_resources",
          "type": "uint256"
        }
      ],
      "name": "CollectResources",
      "type": "event"
    },
    {
      "anonymous": false,
      "inputs": [
        {
          "indexed": false,
          "name": "_factoryId",
          "type": "uint256"
        },
        {
          "indexed": false,
          "name": "_newLevel",
          "type": "uint8"
        },
        {
          "indexed": false,
          "name": "_userId",
          "type": "uint256"
        }
      ],
      "name": "LevelUp",
      "type": "event"
    },
    {
      "anonymous": false,
      "inputs": [
        {
          "indexed": false,
          "name": "_userId",
          "type": "uint256"
        },
        {
          "indexed": false,
          "name": "_type",
          "type": "uint8"
        },
        {
          "indexed": false,
          "name": "_sum",
          "type": "uint256"
        }
      ],
      "name": "Sell",
      "type": "event"
    },
    {
      "anonymous": false,
      "inputs": [
        {
          "indexed": false,
          "name": "_indexTable",
          "type": "uint256"
        },
        {
          "indexed": false,
          "name": "_addr",
          "type": "address"
        },
        {
          "indexed": false,
          "name": "_index",
          "type": "uint256"
        },
        {
          "indexed": false,
          "name": "_sum",
          "type": "uint256"
        }
      ],
      "name": "NewLeader",
      "type": "event"
    },
    {
      "anonymous": false,
      "inputs": [
        {
          "indexed": false,
          "name": "_indexTable",
          "type": "uint256"
        }
      ],
      "name": "LeadersClear",
      "type": "event"
    },
    {
      "anonymous": false,
      "inputs": [
        {
          "indexed": true,
          "name": "previousOwner",
          "type": "address"
        },
        {
          "indexed": true,
          "name": "newOwner",
          "type": "address"
        }
      ],
      "name": "OwnershipTransferred",
      "type": "event"
    },
    {
      "anonymous": false,
      "inputs": [
        {
          "indexed": true,
          "name": "previousDevelopers",
          "type": "address"
        },
        {
          "indexed": true,
          "name": "newDevelopers",
          "type": "address"
        }
      ],
      "name": "DevelopersChanged",
      "type": "event"
    },
    {
      "constant": false,
      "inputs": [],
      "name": "register",
      "outputs": [
        {
          "name": "",
          "type": "uint256"
        }
      ],
      "payable": true,
      "stateMutability": "payable",
      "type": "function"
    },
    {
      "constant": false,
      "inputs": [
        {
          "name": "_refId",
          "type": "uint256"
        }
      ],
      "name": "registerWithRefID",
      "outputs": [
        {
          "name": "",
          "type": "uint256"
        }
      ],
      "payable": true,
      "stateMutability": "payable",
      "type": "function"
    },
    {
      "constant": false,
      "inputs": [],
      "name": "deposit",
      "outputs": [
        {
          "name": "",
          "type": "uint256"
        }
      ],
      "payable": true,
      "stateMutability": "payable",
      "type": "function"
    },
    {
      "constant": true,
      "inputs": [],
      "name": "resoucesOf",
      "outputs": [
        {
          "name": "",
          "type": "uint256[]"
        }
      ],
      "payable": false,
      "stateMutability": "view",
      "type": "function"
    },
    {
      "constant": true,
      "inputs": [],
      "name": "referrersOf",
      "outputs": [
        {
          "name": "",
          "type": "uint256[]"
        }
      ],
      "payable": false,
      "stateMutability": "view",
      "type": "function"
    },
    {
      "constant": true,
      "inputs": [
        {
          "name": "_level",
          "type": "uint8"
        }
      ],
      "name": "referralsOf",
      "outputs": [
        {
          "name": "",
          "type": "uint256[]"
        }
      ],
      "payable": false,
      "stateMutability": "view",
      "type": "function"
    },
    {
      "constant": true,
      "inputs": [
        {
          "name": "_userId",
          "type": "uint256"
        }
      ],
      "name": "userInfo",
      "outputs": [
        {
          "name": "",
          "type": "address"
        },
        {
          "name": "",
          "type": "uint256"
        },
        {
          "name": "",
          "type": "uint256"
        },
        {
          "name": "",
          "type": "uint256[]"
        },
        {
          "name": "",
          "type": "uint256[]"
        }
      ],
      "payable": false,
      "stateMutability": "view",
      "type": "function"
    },
    {
      "constant": false,
      "inputs": [
        {
          "name": "_factoryId",
          "type": "uint256"
        }
      ],
      "name": "levelUp",
      "outputs": [],
      "payable": true,
      "stateMutability": "payable",
      "type": "function"
    },
    {
      "constant": false,
      "inputs": [
        {
          "name": "_type",
          "type": "uint8"
        }
      ],
      "name": "sellResources",
      "outputs": [
        {
          "name": "",
          "type": "uint256"
        }
      ],
      "payable": false,
      "stateMutability": "nonpayable",
      "type": "function"
    },
    {
      "constant": false,
      "inputs": [
        {
          "name": "_type",
          "type": "uint8"
        }
      ],
      "name": "sellAllResources",
      "outputs": [],
      "payable": false,
      "stateMutability": "nonpayable",
      "type": "function"
    },
    {
      "constant": true,
      "inputs": [
        {
          "name": "_collected_at",
          "type": "uint256"
        }
      ],
      "name": "worktimeAtDate",
      "outputs": [
        {
          "name": "",
          "type": "uint256"
        }
      ],
      "payable": false,
      "stateMutability": "view",
      "type": "function"
    },
    {
      "constant": true,
      "inputs": [
        {
          "name": "_factoryId",
          "type": "uint256"
        }
      ],
      "name": "worktime",
      "outputs": [
        {
          "name": "",
          "type": "uint256"
        }
      ],
      "payable": false,
      "stateMutability": "view",
      "type": "function"
    },
    {
      "constant": true,
      "inputs": [
        {
          "name": "_type",
          "type": "uint8"
        },
        {
          "name": "_level",
          "type": "uint8"
        },
        {
          "name": "_collected_at",
          "type": "uint256"
        }
      ],
      "name": "_resourcesAtTime",
      "outputs": [
        {
          "name": "",
          "type": "uint256"
        }
      ],
      "payable": false,
      "stateMutability": "view",
      "type": "function"
    },
    {
      "constant": true,
      "inputs": [
        {
          "name": "_factoryId",
          "type": "uint256"
        }
      ],
      "name": "resourcesAtTime",
      "outputs": [
        {
          "name": "",
          "type": "uint256"
        }
      ],
      "payable": false,
      "stateMutability": "view",
      "type": "function"
    },
    {
      "constant": false,
      "inputs": [],
      "name": "collectResources",
      "outputs": [],
      "payable": false,
      "stateMutability": "nonpayable",
      "type": "function"
    }
  ],
  "bytecode": "0x608060405273b68e8c1eac20e6b3c92fbb9a601f9fa1e0475d59600160006101000a81548173ffffffffffffffffffffffffffffffffffffffff021916908373ffffffffffffffffffffffffffffffffffffffff1602179055506200006362001a2c565b6200006d62001a2c565b6200007762001a2c565b336000806101000a81548173ffffffffffffffffffffffffffffffffffffffff021916908373ffffffffffffffffffffffffffffffffffffffff16021790555067016345785d8a000060026000806003811115620000d157fe5b60ff1660ff168152602001908152602001600020819055506702c68af0bb14000060026000600160038111156200010457fe5b60ff1660ff16815260200190815260200160002081905550670429d069189e000060026000600260038111156200013757fe5b60ff1660ff1681526020019081526020016000208190555067058d15e176280000600260006003808111156200016957fe5b60ff1660ff16815260200190815260200160002081905550606060405190810160405280662386f26fc100008152602001600a8152602001600081525060036000806003811115620001b757fe5b60ff1660ff16815260200190815260200160002060008060ff16815260200190815260200160002060008201518160000155602082015181600101556040820151816002015590505060606040519081016040528066470de4df8200008152602001600c8152602001600081525060036000600160038111156200023757fe5b60ff1660ff16815260200190815260200160002060008060ff168152602001908152602001600020600082015181600001556020820151816001015560408201518160020155905050606060405190810160405280666a94d74f4300008152602001600e815260200160008152506003600060026003811115620002b757fe5b60ff1660ff16815260200190815260200160002060008060ff168152602001908152602001600020600082015181600001556020820151816001015560408201518160020155905050606060405190810160405280668e1bc9bf0400008152602001601081526020016000815250600360006003808111156200033657fe5b60ff1660ff16815260200190815260200160002060008060ff16815260200190815260200160002060008201518160000155602082015181600101556040820151816002015590505060606040519081016040528066b1a2bc2ec50000815260200160148152602001600181525060036000806003811115620003b557fe5b60ff1660ff1681526020019081526020016000206000600160ff16815260200190815260200160002060008201518160000155602082015181600101556040820151816002015590505060606040519081016040528067016345785d8a0000815260200160168152602001600281525060036000600160038111156200043757fe5b60ff1660ff1681526020019081526020016000206000600160ff168152602001908152602001600020600082015181600001556020820151816001015560408201518160020155905050606060405190810160405280670214e8348c4f000081526020016018815260200160038152506003600060026003811115620004b957fe5b60ff1660ff1681526020019081526020016000206000600160ff1681526020019081526020016000206000820151816000015560208201518160010155604082015181600201559050506060604051908101604052806702c68af0bb1400008152602001601a81526020016004815250600360006003808111156200053a57fe5b60ff1660ff1681526020019081526020016000206000600160ff16815260200190815260200160002060008201518160000155602082015181600101556040820151816002015590505060606040519081016040528067016345785d8a00008152602001601e8152602001600281525060036000806003811115620005bb57fe5b60ff1660ff1681526020019081526020016000206000600260ff1681526020019081526020016000206000820151816000015560208201518160010155604082015181600201559050506060604051908101604052806702c68af0bb140000815260200160208152602001600381525060036000600160038111156200063d57fe5b60ff1660ff1681526020019081526020016000206000600260ff168152602001908152602001600020600082015181600001556020820151816001015560408201518160020155905050606060405190810160405280670429d069189e000081526020016022815260200160048152506003600060026003811115620006bf57fe5b60ff1660ff1681526020019081526020016000206000600260ff16815260200190815260200160002060008201518160000155602082015181600101556040820151816002015590505060606040519081016040528067058d15e1762800008152602001602481526020016005815250600360006003808111156200074057fe5b60ff1660ff1681526020019081526020016000206000600260ff1681526020019081526020016000206000820151816000015560208201518160010155604082015181600201559050506060604051908101604052806702c68af0bb140000815260200160288152602001600381525060036000806003811115620007c157fe5b60ff1660ff1681526020019081526020016000206000600360ff16815260200190815260200160002060008201518160000155602082015181600101556040820151816002015590505060606040519081016040528067058d15e1762800008152602001602a8152602001600481525060036000600160038111156200084357fe5b60ff1660ff1681526020019081526020016000206000600360ff168152602001908152602001600020600082015181600001556020820151816001015560408201518160020155905050606060405190810160405280670853a0d2313c00008152602001602c815260200160058152506003600060026003811115620008c557fe5b60ff1660ff1681526020019081526020016000206000600360ff168152602001908152602001600020600082015181600001556020820151816001015560408201518160020155905050606060405190810160405280670b1a2bc2ec5000008152602001602e81526020016006815250600360006003808111156200094657fe5b60ff1660ff1681526020019081526020016000206000600360ff16815260200190815260200160002060008201518160000155602082015181600101556040820151816002015590505060606040519081016040528067058d15e176280000815260200160328152602001600481525060036000806003811115620009c757fe5b60ff1660ff1681526020019081526020016000206000600460ff168152602001908152602001600020600082015181600001556020820151816001015560408201518160020155905050606060405190810160405280670b1a2bc2ec5000008152602001603481526020016005815250600360006001600381111562000a4957fe5b60ff1660ff1681526020019081526020016000206000600460ff1681526020019081526020016000206000820151816000015560208201518160010155604082015181600201559050506060604051908101604052806710a741a4627800008152602001603681526020016006815250600360006002600381111562000acb57fe5b60ff1660ff1681526020019081526020016000206000600460ff1681526020019081526020016000206000820151816000015560208201518160010155604082015181600201559050506060604051908101604052806716345785d8a0000081526020016038815260200160078152506003600060038081111562000b4c57fe5b60ff1660ff1681526020019081526020016000206000600460ff168152602001908152602001600020600082015181600001556020820151816001015560408201518160020155905050606060405190810160405280670b1a2bc2ec5000008152602001603c815260200160058152506003600080600381111562000bcd57fe5b60ff1660ff1681526020019081526020016000206000600560ff1681526020019081526020016000206000820151816000015560208201518160010155604082015181600201559050506060604051908101604052806716345785d8a000008152602001603e81526020016006815250600360006001600381111562000c4f57fe5b60ff1660ff1681526020019081526020016000206000600560ff16815260200190815260200160002060008201518160000155602082015181600101556040820151816002015590505060606040519081016040528067214e8348c4f000008152602001604081526020016007815250600360006002600381111562000cd157fe5b60ff1660ff1681526020019081526020016000206000600560ff168152602001908152602001600020600082015181600001556020820151816001015560408201518160020155905050606060405190810160405280672c68af0bb140000081526020016042815260200160088152506003600060038081111562000d5257fe5b60ff1660ff1681526020019081526020016000206000600560ff1681526020019081526020016000206000820151816000015560208201518160010155604082015181600201559050506060604051908101604052806716345785d8a0000081526020016046815260200160068152506003600080600381111562000dd357fe5b60ff1660ff1681526020019081526020016000206000600660ff168152602001908152602001600020600082015181600001556020820151816001015560408201518160020155905050606060405190810160405280672c68af0bb14000008152602001604881526020016007815250600360006001600381111562000e5557fe5b60ff1660ff1681526020019081526020016000206000600660ff16815260200190815260200160002060008201518160000155602082015181600101556040820151816002015590505060606040519081016040528067429d069189e000008152602001604a81526020016008815250600360006002600381111562000ed757fe5b60ff1660ff1681526020019081526020016000206000600660ff1681526020019081526020016000206000820151816000015560208201518160010155604082015181600201559050506060604051908101604052806758d15e17628000008152602001604c815260200160098152506003600060038081111562000f5857fe5b60ff1660ff1681526020019081526020016000206000600660ff168152602001908152602001600020600082015181600001556020820151816001015560408201518160020155905050606060405190810160405280662386f26fc100008152602001678ac7230489e7ffff8152602001600560405190808252806020026020018201604052801562000ffa5781602001602082028038833980820191505090505b50815250925061012c836040015160008151811015156200101757fe5b9060200190602002019061ffff16908161ffff1681525050604b836040015160018151811015156200104557fe5b9060200190602002019061ffff16908161ffff1681525050603c836040015160028151811015156200107357fe5b9060200190602002019061ffff16908161ffff1681525050602883604001516003815181101515620010a157fe5b9060200190602002019061ffff16908161ffff1681525050601983604001516004815181101515620010cf57fe5b9060200190602002019061ffff16908161ffff168152505060048390806001815401808255809150509060018203906000526020600020906003020160009091929091909150600082015181600001556020820151816001015560408201518160020190805190602001906200114792919062001a4e565b50505050606060405190810160405280678ac7230489e8000081526020016802b5e3af16b187ffff81526020016005604051908082528060200260200182016040528015620011a55781602001602082028038833980820191505090505b5081525091506101f482604001516000815181101515620011c257fe5b9060200190602002019061ffff16908161ffff168152505060c882604001516001815181101515620011f057fe5b9060200190602002019061ffff16908161ffff16815250506096826040015160028151811015156200121e57fe5b9060200190602002019061ffff16908161ffff16815250506064826040015160038151811015156200124c57fe5b9060200190602002019061ffff16908161ffff16815250506032826040015160048151811015156200127a57fe5b9060200190602002019061ffff16908161ffff16815250506004829080600181540180825580915050906001820390600052602060002090600302016000909192909190915060008201518160000155602082015181600101556040820151816002019080519060200190620012f292919062001a4e565b505050506060604051908101604052806802b5e3af16b188000081526020017fffffffffffffffffffffffffffffffffffffffffffffffffffffffffffffffff81526020016005604051908082528060200260200182016040528015620013685781602001602082028038833980820191505090505b5081525090506102bc816040015160008151811015156200138557fe5b9060200190602002019061ffff16908161ffff168152505061012c81604001516001815181101515620013b457fe5b9060200190602002019061ffff16908161ffff168152505060fa81604001516002815181101515620013e257fe5b9060200190602002019061ffff16908161ffff16815250506096816040015160038151811015156200141057fe5b9060200190602002019061ffff16908161ffff16815250506064816040015160048151811015156200143e57fe5b9060200190602002019061ffff16908161ffff16815250506004819080600181540180825580915050906001820390600052602060002090600302016000909192909190915060008201518160000155602082015181600101556040820151816002019080519060200190620014b692919062001a4e565b50505050505050600a600560008060ff16815260200190815260200160002081905550600760056000600160ff168152602001908152602001600020819055506005806000600260ff16815260200190815260200160002081905550600360056000600360ff16815260200190815260200160002081905550600160056000600460ff16815260200190815260200160002081905550600060056000600560ff16815260200190815260200160002081905550600060056000600660ff168152602001908152602001600020819055506006608060405190810160405280620151804201815260200162015180815260200160008152602001600760ff16604051908082528060200260200182016040528015620015e35781602001602082028038833980820191505090505b508152509080600181540180825580915050906001820390600052602060002090600502016000909192909190915060008201518160000155602082015181600101556040820151816002015560608201518160030190805190602001906200164e92919062001aff565b50505050600660806040519081016040528062093a804201815260200162093a80815260200160008152602001600760ff16604051908082528060200260200182016040528015620016af5781602001602082028038833980820191505090505b508152509080600181540180825580915050906001820390600052602060002090600502016000909192909190915060008201518160000155602082015181600101556040820151816002015560608201518160030190805190602001906200171a92919062001aff565b5050505060066080604051908101604052806304a28600420181526020016304a28600815260200160008152602001600760ff166040519080825280602002602001820160405280156200177d5781602001602082028038833980820191505090505b50815250908060018154018082558091505090600182039060005260206000209060050201600090919290919091506000820151816000015560208201518160010155604082015181600201556060820151816003019080519060200190620017e892919062001aff565b5050505060066080604051908101604052806301e13380420181526020016301e13380815260200160008152602001600760ff166040519080825280602002602001820160405280156200184b5781602001602082028038833980820191505090505b50815250908060018154018082558091505090600182039060005260206000209060050201600090919290919091506000820151816000015560208201518160010155604082015181600201556060820151816003019080519060200190620018b692919062001aff565b50505050600760a060405190810160405280600073ffffffffffffffffffffffffffffffffffffffff16815260200160008152602001600081526020016004604051908082528060200260200182016040528015620019245781602001602082028038833980820191505090505b50815260200160056040519080825280602002602001820160405280156200195b5781602001602082028038833980820191505090505b508152509080600181540180825580915050906001820390600052602060002090600602016000909192909190915060008201518160000160006101000a81548173ffffffffffffffffffffffffffffffffffffffff021916908373ffffffffffffffffffffffffffffffffffffffff1602179055506020820151816001015560408201518160020155606082015181600301908051906020019062001a0392919062001b8e565b50608082015181600401908051906020019062001a2292919062001b8e565b5050505062001c82565b6060604051908101604052806000815260200160008152602001606081525090565b82805482825590600052602060002090600f0160109004810192821562001aec5791602002820160005b8382111562001aba57835183826101000a81548161ffff021916908361ffff160217905550926020019260020160208160010104928301926001030262001a78565b801562001aea5782816101000a81549061ffff021916905560020160208160010104928301926001030262001aba565b505b50905062001afb919062001be0565b5090565b82805482825590600052602060002090810192821562001b7b579160200282015b8281111562001b7a5782518260006101000a81548173ffffffffffffffffffffffffffffffffffffffff021916908373ffffffffffffffffffffffffffffffffffffffff1602179055509160200191906001019062001b20565b5b50905062001b8a919062001c14565b5090565b82805482825590600052602060002090810192821562001bcd579160200282015b8281111562001bcc57825182559160200191906001019062001baf565b5b50905062001bdc919062001c5a565b5090565b62001c1191905b8082111562001c0d57600081816101000a81549061ffff02191690555060010162001be7565b5090565b90565b62001c5791905b8082111562001c5357600081816101000a81549073ffffffffffffffffffffffffffffffffffffffff02191690555060010162001c1b565b5090565b90565b62001c7f91905b8082111562001c7b57600081600090555060010162001c61565b5090565b90565b6138728062001c926000396000f30060806040526004361061020f576000357c0100000000000000000000000000000000000000000000000000000000900463ffffffff16806302ceb8b3146102145780630ce90ec2146102585780631aa3a008146102785780631cdb86a3146102965780632bc31ca4146102d7578063365b98b21461032e5780633887dae9146103a95780633a033915146104155780633bbfe141146104405780633eb1137e146104575780633fc282ef146104a65780634bd51822146104e75780634db2a7111461052b57806351d70bc4146105f55780635875455e146107005780635b267d24146107825780635b9280f6146107b257806360e5ef3a146107dd578063672383c41461082e57806368ec451214610891578063715b3ec9146108e257806383c6a62b1461093d5780638ab476bf1461096e5780638da5cb5b146109b157806391ddb16d14610a08578063930efb7114610a8a57806393d1c8ad14610abb57806397ff49e714610aef578063994678ea14610b375780639a08b33814610ba3578063a36e657714610bf4578063af6a1a9a14610c43578063c4e2665614610c87578063d0e30db014610cc8578063d9fe828614610ce6578063da0aedb114610d2a578063e1fc887e14610d55578063e5d7bd4f14610db4578063edf5388614610e39578063f2fde38b14610e90578063f7ad68ed14610ed3578063f93745f014610f14578063fc41298714610f3f575b600080fd5b34801561022057600080fd5b50610242600480360381019080803560ff169060200190929190505050610f8a565b6040518082815260200191505060405180910390f35b61027660048036038101908080359060200190929190505050610fa2565b005b6102806112bb565b6040518082815260200191505060405180910390f35b3480156102a257600080fd5b506102c160048036038101908080359060200190929190505050611532565b6040518082815260200191505060405180910390f35b3480156102e357600080fd5b506102ec61154a565b604051808273ffffffffffffffffffffffffffffffffffffffff1673ffffffffffffffffffffffffffffffffffffffff16815260200191505060405180910390f35b34801561033a57600080fd5b5061035960048036038101908080359060200190929190505050611570565b604051808473ffffffffffffffffffffffffffffffffffffffff1673ffffffffffffffffffffffffffffffffffffffff168152602001838152602001828152602001935050505060405180910390f35b3480156103b557600080fd5b506103be6115c9565b6040518080602001828103825283818151815260200191508051906020019060200280838360005b838110156104015780820151818401526020810190506103e6565b505050509050019250505060405180910390f35b34801561042157600080fd5b5061042a61167e565b6040518082815260200191505060405180910390f35b34801561044c57600080fd5b50610455611683565b005b34801561046357600080fd5b50610482600480360381019080803590602001909291905050506117f0565b60405180848152602001838152602001828152602001935050505060405180910390f35b3480156104b257600080fd5b506104d160048036038101908080359060200190929190505050611865565b6040518082815260200191505060405180910390f35b3480156104f357600080fd5b50610515600480360381019080803560ff16906020019092919050505061187d565b6040518082815260200191505060405180910390f35b34801561053757600080fd5b50610556600480360381019080803590602001909291905050506118a0565b604051808060200180602001838103835285818151815260200191508051906020019060200280838360005b8381101561059d578082015181840152602081019050610582565b50505050905001838103825284818151815260200191508051906020019060200280838360005b838110156105df5780820151818401526020810190506105c4565b5050505090500194505050505060405180910390f35b34801561060157600080fd5b5061062060048036038101908080359060200190929190505050611a54565b604051808673ffffffffffffffffffffffffffffffffffffffff1673ffffffffffffffffffffffffffffffffffffffff1681526020018581526020018481526020018060200180602001838103835285818151815260200191508051906020019060200280838360005b838110156106a557808201518184015260208101905061068a565b50505050905001838103825284818151815260200191508051906020019060200280838360005b838110156106e75780820151818401526020810190506106cc565b5050505090500197505050505050505060405180910390f35b34801561070c57600080fd5b5061072b60048036038101908080359060200190929190505050611bdc565b6040518080602001828103825283818151815260200191508051906020019060200280838360005b8381101561076e578082015181840152602081019050610753565b505050509050019250505060405180910390f35b34801561078e57600080fd5b506107b0600480360381019080803560ff169060200190929190505050611c7c565b005b3480156107be57600080fd5b506107c7611cb7565b6040518082815260200191505060405180910390f35b3480156107e957600080fd5b50610818600480360381019080803560ff169060200190929190803560ff169060200190929190505050611cc2565b6040518082815260200191505060405180910390f35b34801561083a57600080fd5b5061085960048036038101908080359060200190929190505050611d0b565b6040518084600381111561086957fe5b60ff1681526020018360ff1660ff168152602001828152602001935050505060405180910390f35b34801561089d57600080fd5b506108cc600480360381019080803560ff169060200190929190803560ff169060200190929190505050611d5e565b6040518082815260200191505060405180910390f35b3480156108ee57600080fd5b50610927600480360381019080803560ff169060200190929190803560ff16906020019092919080359060200190929190505050611da7565b6040518082815260200191505060405180910390f35b34801561094957600080fd5b50610952611dd1565b604051808260ff1660ff16815260200191505060405180910390f35b34801561097a57600080fd5b506109af600480360381019080803573ffffffffffffffffffffffffffffffffffffffff169060200190929190505050611dd6565b005b3480156109bd57600080fd5b506109c6611f2d565b604051808273ffffffffffffffffffffffffffffffffffffffff1673ffffffffffffffffffffffffffffffffffffffff16815260200191505060405180910390f35b348015610a1457600080fd5b50610a3360048036038101908080359060200190929190505050611f52565b6040518080602001828103825283818151815260200191508051906020019060200280838360005b83811015610a76578082015181840152602081019050610a5b565b505050509050019250505060405180910390f35b348015610a9657600080fd5b50610a9f612069565b604051808260ff1660ff16815260200191505060405180910390f35b610ad96004803603810190808035906020019092919050505061206e565b6040518082815260200191505060405180910390f35b348015610afb57600080fd5b50610b1a600480360381019080803590602001909291905050506120e0565b604051808381526020018281526020019250505060405180910390f35b348015610b4357600080fd5b50610b4c612113565b6040518080602001828103825283818151815260200191508051906020019060200280838360005b83811015610b8f578082015181840152602081019050610b74565b505050509050019250505060405180910390f35b348015610baf57600080fd5b50610bde600480360381019080803560ff169060200190929190803560ff1690602001909291905050506121c8565b6040518082815260200191505060405180910390f35b348015610c0057600080fd5b50610c1f60048036038101908080359060200190929190505050612211565b60405180848152602001838152602001828152602001935050505060405180910390f35b348015610c4f57600080fd5b50610c71600480360381019080803560ff16906020019092919050505061224a565b6040518082815260200191505060405180910390f35b348015610c9357600080fd5b50610cb26004803603810190808035906020019092919050505061247a565b6040518082815260200191505060405180910390f35b610cd06124ac565b6040518082815260200191505060405180910390f35b348015610cf257600080fd5b50610d14600480360381019080803560ff1690602001909291905050506125c1565b6040518082815260200191505060405180910390f35b348015610d3657600080fd5b50610d3f6125d9565b6040518082815260200191505060405180910390f35b348015610d6157600080fd5b50610d90600480360381019080803560ff169060200190929190803560ff1690602001909291905050506125de565b60405180848152602001838152602001828152602001935050505060405180910390f35b348015610dc057600080fd5b50610de2600480360381019080803560ff169060200190929190505050612615565b6040518080602001828103825283818151815260200191508051906020019060200280838360005b83811015610e25578082015181840152602081019050610e0a565b505050509050019250505060405180910390f35b348015610e4557600080fd5b50610e7a600480360381019080803573ffffffffffffffffffffffffffffffffffffffff1690602001909291905050506126e3565b6040518082815260200191505060405180910390f35b348015610e9c57600080fd5b50610ed1600480360381019080803573ffffffffffffffffffffffffffffffffffffffff1690602001909291905050506126fb565b005b348015610edf57600080fd5b50610efe60048036038101908080359060200190929190505050612850565b6040518082815260200191505060405180910390f35b348015610f2057600080fd5b50610f296128ab565b6040518082815260200191505060405180910390f35b348015610f4b57600080fd5b50610f7460048036038101908080359060200190929190803590602001909291905050506128b0565b6040518082815260200191505060405180910390f35b60056020528060005260406000206000915090505481565b600080600080600985815481101515610fb757fe5b90600052602060002090600202019350610ff68460000160009054906101000a900460ff1660018660000160019054906101000a900460ff1601611cc2565b9250600860003373ffffffffffffffffffffffffffffffffffffffff1673ffffffffffffffffffffffffffffffffffffffff16815260200190815260200160002054915060078281548110151561104957fe5b906000526020600020906006020190506111af8160a060405190810160405290816000820160009054906101000a900473ffffffffffffffffffffffffffffffffffffffff1673ffffffffffffffffffffffffffffffffffffffff1673ffffffffffffffffffffffffffffffffffffffff16815260200160018201548152602001600282015481526020016003820180548060200260200160405190810160405280929190818152602001828054801561112257602002820191906000526020600020905b81548152602001906001019080831161110e575b505050505081526020016004820180548060200260200160405190810160405280929190818152602001828054801561117a57602002820191906000526020600020905b815481526020019060010190808311611166575b5050505050815250508560000160009054906101000a900460ff1660018760000160019054906101000a900460ff16016128e0565b15156111ba57600080fd5b6111d134826001015461292390919063ffffffff16565b81600101819055506111f083826001015461294490919063ffffffff16565b816001018190555061120f83826002015461292390919063ffffffff16565b81600201819055506112218482612965565b5083600001600181819054906101000a900460ff168092919060010191906101000a81548160ff021916908360ff160217905550507f0a184989a362d23d7f52ce403c138273381c6bd74bb6b10dcce9fa70fd47e722858560000160019054906101000a900460ff1684604051808481526020018360ff1660ff168152602001828152602001935050505060405180910390a15050505050565b6000806000600860003373ffffffffffffffffffffffffffffffffffffffff1673ffffffffffffffffffffffffffffffffffffffff1681526020019081526020016000205414151561130c57600080fd5b6001600760a0604051908101604052803373ffffffffffffffffffffffffffffffffffffffff1681526020013481526020016000815260200160046040519080825280602002602001820160405280156113755781602001602082028038833980820191505090505b50815260200160056040519080825280602002602001820160405280156113ab5781602001602082028038833980820191505090505b508152509080600181540180825580915050906001820390600052602060002090600602016000909192909190915060008201518160000160006101000a81548173ffffffffffffffffffffffffffffffffffffffff021916908373ffffffffffffffffffffffffffffffffffffffff16021790555060208201518160010155604082015181600201556060820151816003019080519060200190611451929190613615565b50608082015181600401908051906020019061146e929190613615565b50505003905080600860003373ffffffffffffffffffffffffffffffffffffffff1673ffffffffffffffffffffffffffffffffffffffff168152602001908152602001600020819055507f4f936a96f51e2c2ffe18b6b6f1e4387c6bf1cddeb935d58cab653eb22ead430a813334604051808481526020018373ffffffffffffffffffffffffffffffffffffffff1673ffffffffffffffffffffffffffffffffffffffff168152602001828152602001935050505060405180910390a18091505090565b6000603c82420381151561154257fe5b049050919050565b600160009054906101000a900473ffffffffffffffffffffffffffffffffffffffff1681565b60078181548110151561157f57fe5b90600052602060002090600602016000915090508060000160009054906101000a900473ffffffffffffffffffffffffffffffffffffffff16908060010154908060020154905083565b60606007600860003373ffffffffffffffffffffffffffffffffffffffff1673ffffffffffffffffffffffffffffffffffffffff1681526020019081526020016000205481548110151561161957fe5b906000526020600020906006020160030180548060200260200160405190810160405280929190818152602001828054801561167457602002820191906000526020600020905b815481526020019060010190808311611660575b5050505050905090565b600f81565b6000806000806000600860003373ffffffffffffffffffffffffffffffffffffffff1673ffffffffffffffffffffffffffffffffffffffff16815260200190815260200160002054141515156116d857600080fd5b600860003373ffffffffffffffffffffffffffffffffffffffff1673ffffffffffffffffffffffffffffffffffffffff16815260200190815260200160002054935060078481548110151561172957fe5b90600052602060002090600602019250600b6000600860003373ffffffffffffffffffffffffffffffffffffffff1673ffffffffffffffffffffffffffffffffffffffff1681526020019081526020016000205481526020019081526020016000209150600090505b81805490508110156117ea576117dc600983838154811015156117b157fe5b90600052602060002001548154811015156117c857fe5b906000526020600020906002020184612965565b508080600101915050611792565b50505050565b600080600060068481548110151561180457fe5b90600052602060002090600502016000015460068581548110151561182557fe5b90600052602060002090600502016001015460068681548110151561184657fe5b9060005260206000209060050201600201549250925092509193909250565b600a6020528060005260406000206000915090505481565b6000600260008360ff1660ff168152602001908152602001600020549050919050565b6060806000606060006006868154811015156118b857fe5b9060005260206000209060050201925082600301805490506040519080825280602002602001820160405280156118fe5781602001602082028038833980820191505090505b509150600090505b82600301805490508110156119bb57826004016000846003018381548110151561192c57fe5b9060005260206000200160009054906101000a900473ffffffffffffffffffffffffffffffffffffffff1673ffffffffffffffffffffffffffffffffffffffff1673ffffffffffffffffffffffffffffffffffffffff1681526020019081526020016000205482828151811015156119a057fe5b90602001906020020181815250508080600101915050611906565b826003018281805480602002602001604051908101604052809291908181526020018280548015611a4157602002820191906000526020600020905b8160009054906101000a900473ffffffffffffffffffffffffffffffffffffffff1673ffffffffffffffffffffffffffffffffffffffff16815260200190600101908083116119f7575b5050505050915094509450505050915091565b6000806000606080611a64613662565b600787815481101515611a7357fe5b906000526020600020906006020160a060405190810160405290816000820160009054906101000a900473ffffffffffffffffffffffffffffffffffffffff1673ffffffffffffffffffffffffffffffffffffffff1673ffffffffffffffffffffffffffffffffffffffff168152602001600182015481526020016002820154815260200160038201805480602002602001604051908101604052809291908181526020018280548015611b4657602002820191906000526020600020905b815481526020019060010190808311611b32575b5050505050815260200160048201805480602002602001604051908101604052809291908181526020018280548015611b9e57602002820191906000526020600020905b815481526020019060010190808311611b8a575b505050505081525050905080600001518160200151826040015183606001518460800151819150809050955095509550955095505091939590929450565b6060600482815481101515611bed57fe5b9060005260206000209060030201600201805480602002602001604051908101604052809291908181526020018280548015611c7057602002820191906000526020600020906000905b82829054906101000a900461ffff1661ffff1681526020019060020190602082600101049283019260010382029150808411611c375790505b50505050509050919050565b60008090505b600380811115611c8e57fe5b60ff168160ff16111515611cb357611ca58161224a565b508080600101915050611c82565b5050565b662386f26fc1000081565b600060036000846003811115611cd457fe5b60ff1660ff16815260200190815260200160002060008360ff1660ff16815260200190815260200160002060000154905092915050565b600981815481101515611d1a57fe5b90600052602060002090600202016000915090508060000160009054906101000a900460ff16908060000160019054906101000a900460ff16908060010154905083565b600060036000846003811115611d7057fe5b60ff1660ff16815260200190815260200160002060008360ff1660ff16815260200190815260200160002060020154905092915050565b6000611db38484611d5e565b611dbd85856121c8565b01611dc783611532565b0290509392505050565b600781565b6000809054906101000a900473ffffffffffffffffffffffffffffffffffffffff1673ffffffffffffffffffffffffffffffffffffffff163373ffffffffffffffffffffffffffffffffffffffff16141515611e3157600080fd5b600073ffffffffffffffffffffffffffffffffffffffff168173ffffffffffffffffffffffffffffffffffffffff1614151515611e6d57600080fd5b8073ffffffffffffffffffffffffffffffffffffffff16600160009054906101000a900473ffffffffffffffffffffffffffffffffffffffff1673ffffffffffffffffffffffffffffffffffffffff167f7d28dbfe9b3b0a2416f60ca7bc6f6cd19d476b00cec731d9c37ac02a09613d7360405160405180910390a380600160006101000a81548173ffffffffffffffffffffffffffffffffffffffff021916908373ffffffffffffffffffffffffffffffffffffffff16021790555050565b6000809054906101000a900473ffffffffffffffffffffffffffffffffffffffff1681565b60606000611f5e6136a8565b600091505b600382101561206157600482815481101515611f7b57fe5b90600052602060002090600302016060604051908101604052908160008201548152602001600182015481526020016002820180548060200260200160405190810160405280929190818152602001828054801561202057602002820191906000526020600020906000905b82829054906101000a900461ffff1661ffff1681526020019060020190602082600101049283019260010382029150808411611fe75790505b505050505081525050905080600001518410158015612043575080602001518411155b156120545780604001519250612062565b8180600101925050611f63565b5b5050919050565b600781565b6000806007805490508310151561208457600080fd5b61208c6112bb565b90506120988184612a97565b7fb900dc1fba63117f0809180dec6da68c5bc269d0d8338586b2d57235a0671c138382604051808381526020018281526020019250505060405180910390a180915050919050565b6004818154811015156120ef57fe5b90600052602060002090600302016000915090508060000154908060010154905082565b60606007600860003373ffffffffffffffffffffffffffffffffffffffff1673ffffffffffffffffffffffffffffffffffffffff1681526020019081526020016000205481548110151561216357fe5b90600052602060002090600602016004018054806020026020016040519081016040528092919081815260200182805480156121be57602002820191906000526020600020905b8154815260200190600101908083116121aa575b5050505050905090565b6000600360008460038111156121da57fe5b60ff1660ff16815260200190815260200160002060008360ff1660ff16815260200190815260200160002060010154905092915050565b60068181548110151561222057fe5b90600052602060002090600502016000915090508060000154908060010154908060020154905083565b6000806000600860003373ffffffffffffffffffffffffffffffffffffffff1673ffffffffffffffffffffffffffffffffffffffff16815260200190815260200160002054915073__Math__________________________________637ae2b5c76122b48661187d565b6007858154811015156122c357fe5b90600052602060002090600602016003018760ff168154811015156122e457fe5b9060005260206000200154023073ffffffffffffffffffffffffffffffffffffffff16316040518363ffffffff167c0100000000000000000000000000000000000000000000000000000000028152600401808381526020018281526020019250505060206040518083038186803b15801561235f57600080fd5b505af4158015612373573d6000803e3d6000fd5b505050506040513d602081101561238957600080fd5b8101908080519060200190929190505050905060006007838154811015156123ad57fe5b90600052602060002090600602016003018560ff168154811015156123ce57fe5b90600052602060002001819055503373ffffffffffffffffffffffffffffffffffffffff166108fc829081150290604051600060405180830381858888f19350505050158015612422573d6000803e3d6000fd5b507fdef385fd9bc4ede5eab81b236ae5ae807f524e23733877f374ab4c709179a2d9828583604051808481526020018360ff1660ff168152602001828152602001935050505060405180910390a18092505050919050565b60006124a560098381548110151561248e57fe5b906000526020600020906002020160010154611532565b9050919050565b600080600860003373ffffffffffffffffffffffffffffffffffffffff1673ffffffffffffffffffffffffffffffffffffffff1681526020019081526020016000205490506125243460078381548110151561250457fe5b90600052602060002090600602016001015461292390919063ffffffff16565b60078281548110151561253357fe5b90600052602060002090600602016001018190555061255134612c3e565b61255b3334612cb9565b7fa3af609bf46297028ce551832669030f9effef2b02606d02cbbcc40fe6b47c558134604051808381526020018281526020019250505060405180910390a16007818154811015156125a957fe5b90600052602060002090600602016001015491505090565b60026020528060005260406000206000915090505481565b600381565b6003602052816000526040600020602052806000526040600020600091509150508060000154908060010154908060020154905083565b60606007600860003373ffffffffffffffffffffffffffffffffffffffff1673ffffffffffffffffffffffffffffffffffffffff1681526020019081526020016000205481548110151561266557fe5b906000526020600020906006020160050160008360ff1660ff1681526020019081526020016000208054806020026020016040519081016040528092919081815260200182805480156126d757602002820191906000526020600020905b8154815260200190600101908083116126c3575b50505050509050919050565b60086020528060005260406000206000915090505481565b6000809054906101000a900473ffffffffffffffffffffffffffffffffffffffff1673ffffffffffffffffffffffffffffffffffffffff163373ffffffffffffffffffffffffffffffffffffffff1614151561275657600080fd5b600073ffffffffffffffffffffffffffffffffffffffff168173ffffffffffffffffffffffffffffffffffffffff161415151561279257600080fd5b8073ffffffffffffffffffffffffffffffffffffffff166000809054906101000a900473ffffffffffffffffffffffffffffffffffffffff1673ffffffffffffffffffffffffffffffffffffffff167f8be0079c531659141344cd1fd0a4f28419497f9722a3daafe3b4186f6b6457e060405160405180910390a3806000806101000a81548173ffffffffffffffffffffffffffffffffffffffff021916908373ffffffffffffffffffffffffffffffffffffffff16021790555050565b60008060098381548110151561286257fe5b906000526020600020906002020190506128a38160000160009054906101000a900460ff168260000160019054906101000a900460ff168360010154611da7565b915050919050565b600581565b600b602052816000526040600020818154811015156128cb57fe5b90600052602060002001600091509150505481565b6000806128fa34866020015161292390919063ffffffff16565b90506129068484611cc2565b811015612916576000915061291b565b600191505b509392505050565b600080828401905083811015151561293a57600080fd5b8091505092915050565b60008083831115151561295657600080fd5b82840390508091505092915050565b6000806129998460000160009054906101000a900460ff168560000160019054906101000a900460ff168660010154611da7565b90506129e881846003018660000160009054906101000a900460ff1660038111156129c057fe5b60ff168154811015156129cf57fe5b906000526020600020015461292390919063ffffffff16565b836003018560000160009054906101000a900460ff166003811115612a0957fe5b60ff16815481101515612a1857fe5b90600052602060002001819055504284600101819055507f5dc5b82e66c5dcc43c01835de9ee74f6380209b673fbdd18668826fc898c66b18460000160009054906101000a900460ff168260405180836003811115612a7357fe5b60ff1681526020018281526020019250505060405180910390a18091505092915050565b60008082841415612aa757612c38565b82600785815481101515612ab757fe5b90600052602060002090600602016004016000815481101515612ad657fe5b9060005260206000200181905550600191505b6005821015612bd957600783815481101515612b0157fe5b906000526020600020906006020160040160018303815481101515612b2257fe5b9060005260206000200154905080600785815481101515612b3f57fe5b906000526020600020906006020160040183815481101515612b5d57fe5b9060005260206000200181905550600781815481101515612b7a57fe5b906000526020600020906006020160050160008360ff1660ff1681526020019081526020016000208490806001815401808255809150509060018203906000526020600020016000909192909190915055508180600101925050612ae9565b600783815481101515612be857fe5b906000526020600020906006020160050160008060ff1681526020019081526020016000208490806001815401808255809150509060018203906000526020600020016000909192909190915055505b50505050565b600160009054906101000a900473ffffffffffffffffffffffffffffffffffffffff1673ffffffffffffffffffffffffffffffffffffffff166108fc6064600f3402811515612c8957fe5b049081150290604051600060405180830381858888f19350505050158015612cb5573d6000803e3d6000fd5b5050565b60008090505b600680549050811015612ce457612cd7818484612ce9565b8080600101915050612cbf565b505050565b6000806000806000606060008060008060068d815481101515612d0857fe5b906000526020600020906005020160000154421115612d2b57612d2a8d6134fa565b5b60068d815481101515612d3a57fe5b90600052602060002090600502019950896003019850612da48b8b60040160008f73ffffffffffffffffffffffffffffffffffffffff1673ffffffffffffffffffffffffffffffffffffffff1681526020019081526020016000205461292390919063ffffffff16565b9750878a60040160008e73ffffffffffffffffffffffffffffffffffffffff1673ffffffffffffffffffffffffffffffffffffffff168152602001908152602001600020819055508960020154881015612dfd576134eb565b73__Math__________________________________637ae2b5c760018b805490500160076040518363ffffffff167c0100000000000000000000000000000000000000000000000000000000028152600401808381526020018260ff1681526020019250505060206040518083038186803b158015612e7b57600080fd5b505af4158015612e8f573d6000803e3d6000fd5b505050506040513d6020811015612ea557600080fd5b810190808051906020019092919050505096506000955086604051908082528060200260200182016040528015612eeb5781602001602082028038833980820191505090505b5094506000935060009250600091505b86821015613435578190508315612f25578080600190039150508215612f245780806001019150505b5b60008983815481101515612f3557fe5b9060005260206000200160009054906101000a900473ffffffffffffffffffffffffffffffffffffffff1673ffffffffffffffffffffffffffffffffffffffff1614156130e35783151561305257600193508b8587815181101515612f9657fe5b9060200190602002019073ffffffffffffffffffffffffffffffffffffffff16908173ffffffffffffffffffffffffffffffffffffffff16815250507fbd3bef4119f7e7b91bc2fa8eed6d40200c45e56c56baf269caf281361e7c47608d8d888b604051808581526020018473ffffffffffffffffffffffffffffffffffffffff1673ffffffffffffffffffffffffffffffffffffffff16815260200183815260200182815260200194505050505060405180910390a16130d6565b888181548110151561306057fe5b9060005260206000200160009054906101000a900473ffffffffffffffffffffffffffffffffffffffff16858781518110151561309957fe5b9060200190602002019073ffffffffffffffffffffffffffffffffffffffff16908173ffffffffffffffffffffffffffffffffffffffff16815250505b8580600101965050613435565b88828154811015156130f157fe5b9060005260206000200160009054906101000a900473ffffffffffffffffffffffffffffffffffffffff1673ffffffffffffffffffffffffffffffffffffffff168c73ffffffffffffffffffffffffffffffffffffffff1614156132415783156131ec5760019250886001830381548110151561316a57fe5b9060005260206000200160009054906101000a900473ffffffffffffffffffffffffffffffffffffffff1685878151811015156131a357fe5b9060200190602002019073ffffffffffffffffffffffffffffffffffffffff16908173ffffffffffffffffffffffffffffffffffffffff1681525050858060010196505061323c565b600193508b85878151811015156131ff57fe5b9060200190602002019073ffffffffffffffffffffffffffffffffffffffff16908173ffffffffffffffffffffffffffffffffffffffff16815250505b613428565b8960040160008a8481548110151561325557fe5b9060005260206000200160009054906101000a900473ffffffffffffffffffffffffffffffffffffffff1673ffffffffffffffffffffffffffffffffffffffff1673ffffffffffffffffffffffffffffffffffffffff16815260200190815260200160002054881180156132c7575083155b1561339b57600193508b85878151811015156132df57fe5b9060200190602002019073ffffffffffffffffffffffffffffffffffffffff16908173ffffffffffffffffffffffffffffffffffffffff16815250507fbd3bef4119f7e7b91bc2fa8eed6d40200c45e56c56baf269caf281361e7c47608d8d888b604051808581526020018473ffffffffffffffffffffffffffffffffffffffff1673ffffffffffffffffffffffffffffffffffffffff16815260200183815260200182815260200194505050505060405180910390a161341f565b88818154811015156133a957fe5b9060005260206000200160009054906101000a900473ffffffffffffffffffffffffffffffffffffffff1685878151811015156133e257fe5b9060200190602002019073ffffffffffffffffffffffffffffffffffffffff16908173ffffffffffffffffffffffffffffffffffffffff16815250505b85806001019650505b8180600101925050612efb565b8682101580156134425750835b156134d157886001880381548110151561345857fe5b9060005260206000200160009054906101000a900473ffffffffffffffffffffffffffffffffffffffff16856001890381518110151561349457fe5b9060200190602002019073ffffffffffffffffffffffffffffffffffffffff16908173ffffffffffffffffffffffffffffffffffffffff16815250505b848a60030190805190602001906134e99291906136ca565b505b50505050505050505050505050565b600060068281548110151561350b57fe5b90600052602060002090600502019050608060405190810160405280826001015483600001540181526020018260010154815260200160008152602001600760ff1660405190808252806020026020018201604052801561357b5781602001602082028038833980820191505090505b5081525060068381548110151561358e57fe5b906000526020600020906005020160008201518160000155602082015181600101556040820151816002015560608201518160030190805190602001906135d6929190613754565b509050507f7cce3b409f5d6aca017a29bcb7332d4626c08cc76a25438953274f45723716c6826040518082815260200191505060405180910390a15050565b828054828255906000526020600020908101928215613651579160200282015b82811115613650578251825591602001919060010190613635565b5b50905061365e91906137de565b5090565b60a060405190810160405280600073ffffffffffffffffffffffffffffffffffffffff168152602001600081526020016000815260200160608152602001606081525090565b6060604051908101604052806000815260200160008152602001606081525090565b828054828255906000526020600020908101928215613743579160200282015b828111156137425782518260006101000a81548173ffffffffffffffffffffffffffffffffffffffff021916908373ffffffffffffffffffffffffffffffffffffffff160217905550916020019190600101906136ea565b5b5090506137509190613803565b5090565b8280548282559060005260206000209081019282156137cd579160200282015b828111156137cc5782518260006101000a81548173ffffffffffffffffffffffffffffffffffffffff021916908373ffffffffffffffffffffffffffffffffffffffff16021790555091602001919060010190613774565b5b5090506137da9190613803565b5090565b61380091905b808211156137fc5760008160009055506001016137e4565b5090565b90565b61384391905b8082111561383f57600081816101000a81549073ffffffffffffffffffffffffffffffffffffffff021916905550600101613809565b5090565b905600a165627a7a72305820ac5414ec986b22c946a19570ce1c9de3755f31110dcd7639f821d2bbd7e4ccbf0029",
  "source": "pragma solidity ^0.4.24;\n\n/*\n*__/\\\\\\\\____________/\\\\\\\\________________/\\\\\\\\____________/\\\\\\\\________/\\\\\\\\\\\\_____/\\\\\\\\\\\\___________________________________________________\n* _\\/\\\\\\\\\\\\________/\\\\\\\\\\\\_______________\\/\\\\\\\\\\\\________/\\\\\\\\\\\\_______\\////\\\\\\____\\////\\\\\\___________________________________________________\n*  _\\/\\\\\\//\\\\\\____/\\\\\\//\\\\\\____/\\\\\\__/\\\\\\_\\/\\\\\\//\\\\\\____/\\\\\\//\\\\\\__/\\\\\\____\\/\\\\\\_______\\/\\\\\\_____/\\\\\\__________________________________________\n*   _\\/\\\\\\\\///\\\\\\/\\\\\\/_\\/\\\\\\___\\//\\\\\\/\\\\\\__\\/\\\\\\\\///\\\\\\/\\\\\\/_\\/\\\\\\_\\///_____\\/\\\\\\_______\\/\\\\\\____\\///______/\\\\\\\\\\_____/\\\\/\\\\\\\\\\\\____/\\\\\\\\\\\\\\\\\\\\_\n*    _\\/\\\\\\__\\///\\\\\\/___\\/\\\\\\____\\//\\\\\\\\\\___\\/\\\\\\__\\///\\\\\\/___\\/\\\\\\__/\\\\\\____\\/\\\\\\_______\\/\\\\\\_____/\\\\\\___/\\\\\\///\\\\\\__\\/\\\\\\////\\\\\\__\\/\\\\\\//////__\n*     _\\/\\\\\\____\\///_____\\/\\\\\\_____\\//\\\\\\____\\/\\\\\\____\\///_____\\/\\\\\\_\\/\\\\\\____\\/\\\\\\_______\\/\\\\\\____\\/\\\\\\__/\\\\\\__\\//\\\\\\_\\/\\\\\\__\\//\\\\\\_\\/\\\\\\\\\\\\\\\\\\\\_\n*      _\\/\\\\\\_____________\\/\\\\\\__/\\\\_/\\\\\\_____\\/\\\\\\_____________\\/\\\\\\_\\/\\\\\\____\\/\\\\\\_______\\/\\\\\\____\\/\\\\\\_\\//\\\\\\__/\\\\\\__\\/\\\\\\___\\/\\\\\\_\\////////\\\\\\_\n*       _\\/\\\\\\_____________\\/\\\\\\_\\//\\\\\\\\/______\\/\\\\\\_____________\\/\\\\\\_\\/\\\\\\__/\\\\\\\\\\\\\\\\\\__/\\\\\\\\\\\\\\\\\\_\\/\\\\\\__\\///\\\\\\\\\\/___\\/\\\\\\___\\/\\\\\\__/\\\\\\\\\\\\\\\\\\\\_\n*        _\\///______________\\///___\\////________\\///______________\\///__\\///__\\/////////__\\/////////__\\///_____\\/////_____\\///____\\///__\\//////////__\n*/\n\nimport \"./Math.sol\";\nimport \"./Ownable.sol\";\nimport \"./LeaderSystem.sol\";\nimport \"./SafeMath.sol\";\n\ncontract Factoring {\n\n    enum FactoryType { Wood, Metal, Oil, PreciousMetal }\n\n    mapping (uint8 => uint256) public resourcePrices;\n\n    constructor() public {\n        resourcePrices[uint8(FactoryType.Wood)]         = 0.1 ether;\n        resourcePrices[uint8(FactoryType.Metal)]        = 0.2 ether;\n        resourcePrices[uint8(FactoryType.Oil)]          = 0.3 ether;\n        resourcePrices[uint8(FactoryType.PreciousMetal)]= 0.4 ether;\n    }\n\n    function getResourcePrice(uint8 _type) public view returns(uint256) {\n        return resourcePrices[_type];\n    }\n\n}\n\ncontract Improvements is Factoring {\n\n    mapping (uint8 => mapping (uint8 => Params)) public levelStack;\n    uint8 public constant levelsCount = 7;\n\n    struct Params {\n        uint256 price;      // improvements cost\n        uint256 ppm;        // products per minute\n        uint256 ppmBonus;   // bonus per minute\n    }\n\n    constructor() public {\n        // initial pricess\n        levelStack[uint8(FactoryType.Wood)][0]          = Params(0.01 ether, 10, 0);\n        levelStack[uint8(FactoryType.Metal)][0]         = Params(0.02 ether, 12, 0);\n        levelStack[uint8(FactoryType.Oil)][0]           = Params(0.03 ether, 14, 0);\n        levelStack[uint8(FactoryType.PreciousMetal)][0] = Params(0.04 ether, 16, 0);\n\n        // level 1\n        levelStack[uint8(FactoryType.Wood)][1]          = Params(0.05 ether, 20, 1);\n        levelStack[uint8(FactoryType.Metal)][1]         = Params(0.10 ether, 22, 2);\n        levelStack[uint8(FactoryType.Oil)][1]           = Params(0.15 ether, 24, 3);\n        levelStack[uint8(FactoryType.PreciousMetal)][1] = Params(0.20 ether, 26, 4);\n\n        // level 2\n        levelStack[uint8(FactoryType.Wood)][2]          = Params(0.10 ether, 30, 2);\n        levelStack[uint8(FactoryType.Metal)][2]         = Params(0.20 ether, 32, 3);\n        levelStack[uint8(FactoryType.Oil)][2]           = Params(0.30 ether, 34, 4);\n        levelStack[uint8(FactoryType.PreciousMetal)][2] = Params(0.40 ether, 36, 5);\n\n        // level 3\n        levelStack[uint8(FactoryType.Wood)][3]          = Params(0.2 ether, 40, 3);\n        levelStack[uint8(FactoryType.Metal)][3]         = Params(0.4 ether, 42, 4);\n        levelStack[uint8(FactoryType.Oil)][3]           = Params(0.6 ether, 44, 5);\n        levelStack[uint8(FactoryType.PreciousMetal)][3] = Params(0.8 ether, 46, 6);\n\n        // level 4\n        levelStack[uint8(FactoryType.Wood)][4]          = Params(0.4 ether, 50, 4);\n        levelStack[uint8(FactoryType.Metal)][4]         = Params(0.8 ether, 52, 5);\n        levelStack[uint8(FactoryType.Oil)][4]           = Params(1.2 ether, 54, 6);\n        levelStack[uint8(FactoryType.PreciousMetal)][4] = Params(1.6 ether, 56, 7);\n\n        // level 5\n        levelStack[uint8(FactoryType.Wood)][5]          = Params(0.8 ether, 60, 5);\n        levelStack[uint8(FactoryType.Metal)][5]         = Params(1.6 ether, 62, 6);\n        levelStack[uint8(FactoryType.Oil)][5]           = Params(2.4 ether, 64, 7);\n        levelStack[uint8(FactoryType.PreciousMetal)][5] = Params(3.2 ether, 66, 8);\n\n        // level 6\n        levelStack[uint8(FactoryType.Wood)][6]          = Params(1.6 ether, 70, 6);\n        levelStack[uint8(FactoryType.Metal)][6]         = Params(3.2 ether, 72, 7);\n        levelStack[uint8(FactoryType.Oil)][6]           = Params(4.8 ether, 74, 8);\n        levelStack[uint8(FactoryType.PreciousMetal)][6] = Params(6.4 ether, 76, 9);\n    }\n\n    function getPrice(FactoryType _type, uint8 _level) public view returns(uint256) {\n        return levelStack[uint8(_type)][_level].price;\n    }\n\n    function getProductsPerMinute(FactoryType _type, uint8 _level) public view returns(uint256) {\n        return levelStack[uint8(_type)][_level].ppm;\n    }\n\n    function getBonusPerMinute(FactoryType _type, uint8 _level) public view returns(uint256) {\n        return levelStack[uint8(_type)][_level].ppmBonus;\n    }\n}\n\ncontract ReferralsSystem {\n\n    struct ReferralGroup {\n        uint256 minSum;\n        uint256 maxSum;\n        uint16[] percents;\n    }\n\n    uint256 public constant minSumReferral = 0.01 ether;\n    uint256 public constant referralLevelsGroups = 3;\n    uint256 public constant referralLevelsCount = 5;\n    ReferralGroup[] public referralGroups;\n\n    constructor() public {\n        ReferralGroup memory refGroupFirsty = ReferralGroup(minSumReferral, 10 ether - 1 wei, new uint16[](referralLevelsCount));\n        refGroupFirsty.percents[0] = 300;   // 3%\n        refGroupFirsty.percents[1] = 75;    // 0.75%\n        refGroupFirsty.percents[2] = 60;    // 0.6%\n        refGroupFirsty.percents[3] = 40;    // 0.4%\n        refGroupFirsty.percents[4] = 25;    // 0.25%\n        referralGroups.push(refGroupFirsty);\n\n        ReferralGroup memory refGroupLoyalty = ReferralGroup(10 ether, 50 ether - 1 wei, new uint16[](referralLevelsCount));\n        refGroupLoyalty.percents[0] = 500;  // 5%\n        refGroupLoyalty.percents[1] = 200;  // 2%\n        refGroupLoyalty.percents[2] = 150;  // 1.5%\n        refGroupLoyalty.percents[3] = 100;  // 1%\n        refGroupLoyalty.percents[4] = 50;   // 0.5%\n        referralGroups.push(refGroupLoyalty);\n\n        ReferralGroup memory refGroupUltraPremium = ReferralGroup(50 ether, 2**256 - 1, new uint16[](referralLevelsCount));\n        refGroupUltraPremium.percents[0] = 700; // 7%\n        refGroupUltraPremium.percents[1] = 300; // 3%\n        refGroupUltraPremium.percents[2] = 250; // 2.5%\n        refGroupUltraPremium.percents[3] = 150; // 1.5%\n        refGroupUltraPremium.percents[4] = 100; // 1%\n        referralGroups.push(refGroupUltraPremium);\n    }\n\n    function getReferralPercents(uint256 _sum) public view returns(uint16[]) {\n        for (uint i = 0; i < referralLevelsGroups; i++) {\n            ReferralGroup memory group = referralGroups[i];\n            if (_sum >= group.minSum && _sum <= group.maxSum) return group.percents;\n        }\n    }\n\n    function getReferralPercentsByIndex(uint256 _index) public view returns(uint16[]) {\n        return referralGroups[_index].percents;\n    }\n\n}\n\n/// @title Smart-contract of MyMillions ecosystem\n/// @author Shagaleev Alexey\ncontract MyMillions is Ownable, Improvements, ReferralsSystem, LeaderSystem {\n    using SafeMath for uint256;\n\n    event CreateUser(uint256 _index, address _address, uint256 _balance);\n    event ReferralRegister(uint256 _refferalId, uint256 _userId);\n    event ReferrerDistribute(uint256 _userId, uint256 _referrerId, uint256 _sum);\n    event Deposit(uint256 _userId, uint256 _value);\n    event PaymentProceed(uint256 _userId, uint256 _factoryId, FactoryType _factoryType, uint256 _price);\n    event CollectResources(FactoryType _type, uint256 _resources);\n    event LevelUp(uint256 _factoryId, uint8 _newLevel, uint256 _userId);\n    event Sell(uint256 _userId, uint8 _type, uint256 _sum);\n\n    struct User {\n        address addr;                                   // user address\n        uint256 balance;                                // balance of account\n        uint256 totalPay;                               // sum of all input pay\n        uint256[] resources;                            // collected resources\n        uint256[] referrersByLevel;                     // referrers user ids\n        mapping (uint8 => uint256[]) referralsByLevel;  // all referrals user ids\n    }\n\n    User[] public users;\n    mapping (address => uint256) public addressToUser;\n\n    struct Factory {\n        FactoryType ftype;  // factory type\n        uint8 level;        // factory level\n        uint256 collected_at; // timestamp updated\n    }\n\n    Factory[] public factories;\n    mapping (uint256 => uint256) public factoryToUser;\n    mapping (uint256 => uint256[]) public userToFactories;\n\n    modifier onlyExistingUser() {\n        require(addressToUser[msg.sender] != 0);\n        _;\n    }\n\n    constructor() public payable {\n        users.push(User(0x0, 0, 0, new uint256[](4), new uint256[](referralLevelsCount)));  // for find by addressToUser map\n    }\n\n    // @dev register for only new users with min pay\n    /// @return id of new user\n    function register() public payable returns(uint256) {\n        require(addressToUser[msg.sender] == 0);\n\n        uint256 index = users.push(User(msg.sender, msg.value, 0, new uint256[](4), new uint256[](referralLevelsCount))) - 1;\n        addressToUser[msg.sender] = index;\n\n        emit CreateUser(index, msg.sender, msg.value);\n        return index;\n    }\n\n\n    /// @notice just registry by referral link\n    /// @param _refId the ID of the user who gets the affiliate fee\n    /// @return id of new user\n    function registerWithRefID(uint256 _refId) public payable returns(uint256) {\n        require(_refId < users.length);\n\n        uint256 index = register();\n        _updateReferrals(index, _refId);\n\n        emit ReferralRegister(_refId, index);\n        return index;\n    }\n\n    /// @notice update referrersByLevel and referralsByLevel of new user\n    /// @param _newUserId the ID of the new user\n    /// @param _refUserId the ID of the user who gets the affiliate fee\n    function _updateReferrals(uint256 _newUserId, uint256 _refUserId) private {\n        if (_newUserId == _refUserId) return;\n        users[_newUserId].referrersByLevel[0] = _refUserId;\n\n        for (uint i = 1; i < referralLevelsCount; i++) {\n            uint256 _refId = users[_refUserId].referrersByLevel[i - 1];\n            users[_newUserId].referrersByLevel[i] = _refId;\n            users[_refId].referralsByLevel[uint8(i)].push(_newUserId);\n        }\n\n        users[_refUserId].referralsByLevel[0].push(_newUserId);\n    }\n\n    /// @notice distribute value of tx to referrers of user\n    /// @param _userId the ID of the user who gets the affiliate fee\n    /// @param _sum value of ethereum for distribute to referrers of user\n    function _distributeReferrers(uint256 _userId, uint256 _sum) private {\n        if (users[_userId].totalPay < minSumReferral) return;\n\n        uint256[] memory referrers = users[_userId].referrersByLevel;\n        uint16[] memory percents = getReferralPercents(users[_userId].totalPay);\n\n        for (uint i = 0; i < referralLevelsCount; i++) {\n            if (referrers[i] == 0) break;\n\n            uint256 value = _sum * percents[i] / 10000;\n            users[referrers[i]].balance = users[referrers[i]].balance.add(value);\n\n            emit ReferrerDistribute(_userId, referrers[i], value);\n        }\n    }\n\n    /// @notice deposit ethereum for user\n    /// @return balance value of user\n    function deposit() public payable returns(uint256) {\n        uint256 userId = addressToUser[msg.sender];\n        users[userId].balance = users[userId].balance.add(msg.value);\n\n        // distribute\n        _distributeInvestment(msg.value);\n        _updateLeaders(msg.sender, msg.value);\n\n        emit Deposit(userId, msg.value);\n        return users[userId].balance;\n    }\n\n    /// @notice getter for resources of user\n    /// @return resources value of user\n    function resoucesOf() public view returns (uint256[]) {\n        return users[addressToUser[msg.sender]].resources;\n    }\n\n    /// @notice getter for referrers of user\n    /// @return array of referrers id\n    function referrersOf() public view returns (uint256[]) {\n        return users[addressToUser[msg.sender]].referrersByLevel;\n    }\n\n    /// @notice getter for referrals of user by level\n    /// @param _level level of referrals user needed\n    /// @return array of referrals id\n    function referralsOf(uint8 _level) public view returns (uint256[]) {\n        return users[addressToUser[msg.sender]].referralsByLevel[uint8(_level)];\n    }\n\n    /// @notice getter for extended information of user\n    /// @param _userId id of user needed\n    /// @return address of user\n    /// @return balance of user\n    /// @return totalPay of user\n    /// @return array of resources user\n    /// @return array of referrers id user\n    function userInfo(uint256 _userId) public view returns(address, uint256, uint256, uint256[], uint256[]) {\n        User memory user = users[_userId];\n        return (user.addr, user.balance, user.totalPay, user.resources, user.referrersByLevel);\n    }\n\n    /// @notice distribute investment when user buy anything\n    /// @param _value value of investment\n    function _distributeInvestment(uint256 _value) private {\n        developers.transfer(msg.value * developersPercent / 100);\n    }\n\n    /// @notice function of proceed payment\n    /// @dev for only buy new factory\n    /// @return id of new factory\n    function _paymentProceed(uint256 _userId, Factory _factory) private returns(uint256) {\n        User storage user = users[_userId];\n\n        require(_checkPayment(user, _factory.ftype, _factory.level));\n\n        uint256 price = getPrice(FactoryType.Wood, 0);\n        user.balance = user.balance.add(msg.value);\n        user.balance = user.balance.sub(price);\n        user.totalPay = user.totalPay.add(price);\n\n        uint256 index = factories.push(_factory) - 1;\n        factoryToUser[index] = _userId;\n        userToFactories[_userId].push(index);\n\n        // distribute\n        _distributeInvestment(msg.value);\n        _distributeReferrers(_userId, price);\n        _updateLeaders(msg.sender, msg.value);\n\n        emit PaymentProceed(_userId, index, _factory.ftype, price);\n        return index;\n    }\n\n    /// @notice check available investment\n    /// @return true if user does enough balance for investment\n    function _checkPayment(User _user, FactoryType _type, uint8 _level) private view returns(bool) {\n        uint256 totalBalance = _user.balance.add(msg.value);\n\n        if (totalBalance < getPrice(_type, _level)) return false;\n\n        return true;\n    }\n\n    /// @notice level up for factory\n    /// @param _factoryId id of factory\n    function levelUp(uint256 _factoryId) public payable {\n        Factory storage factory = factories[_factoryId];\n        uint256 price = getPrice(factory.ftype, factory.level + 1);\n\n        uint256 userId = addressToUser[msg.sender];\n        User storage user = users[userId];\n\n        require(_checkPayment(user, factory.ftype, factory.level + 1));\n\n        // payment\n        user.balance = user.balance.add(msg.value);\n        user.balance = user.balance.sub(price);\n        user.totalPay = user.totalPay.add(price);\n\n        // collect\n        _collectResource(factory, user);\n        factory.level++;\n\n        emit LevelUp(_factoryId, factory.level, userId);\n    }\n\n    /// @notice sell resources of user with type\n    /// @param _type type of resources\n    /// @return sum of sell\n    function sellResources(uint8 _type) public returns (uint256) {\n        uint256 userId = addressToUser[msg.sender];\n        uint256 sum = Math.min(users[userId].resources[_type] * getResourcePrice(_type), address(this).balance);\n        users[userId].resources[_type] = 0;\n\n        msg.sender.transfer(sum);\n\n        emit Sell(userId, _type, sum);\n        return sum;\n    }\n\n    /// @notice sell all resources of user\n    /// @dev this is wrapper by sellResources for sell all types\n    function sellAllResources(uint8 _type) public {\n        for (uint8 i = 0; i <= uint8(FactoryType.PreciousMetal); i++) {\n            sellResources(i);\n        }\n    }\n\n\n    /// @notice function for compute worktime factory\n    /// @param _collected_at timestamp of start\n    /// @return duration minutes\n    function worktimeAtDate(uint256 _collected_at) public view returns(uint256) {\n        return (now - _collected_at) / 60;\n    }\n\n    /// @notice function for compute duration work factory\n    /// @param _factoryId id of factory\n    /// @return timestamp of duration\n    function worktime(uint256 _factoryId) public view returns(uint256) {\n        return worktimeAtDate(factories[_factoryId].collected_at);\n    }\n\n    /// @notice function for compute resource factory at time\n    /// @param _type type of factory\n    /// @param _level level of factory\n    /// @param _collected_at timestamp for collect\n    /// @return count of resources\n    function _resourcesAtTime(FactoryType _type, uint8 _level, uint256 _collected_at) public view returns(uint256) {\n        return worktimeAtDate(_collected_at) * (getProductsPerMinute(_type, _level) + getBonusPerMinute(_type, _level));\n    }\n\n    /// @notice function for compute resource factory at time\n    /// @dev wrapper over _resourcesAtTime\n    /// @param _factoryId id of factory\n    /// @return count of resources\n    function resourcesAtTime(uint256 _factoryId) public view returns(uint256) {\n        Factory storage factory = factories[_factoryId];\n        return _resourcesAtTime(factory.ftype, factory.level, factory.collected_at);\n    }\n\n    /// @notice function for collect resource\n    /// @param _factory factory object\n    /// @param _user user object\n    /// @return count of resources\n    function _collectResource(Factory storage _factory, User storage _user) internal returns(uint256) {\n        uint256 resources = _resourcesAtTime(_factory.ftype, _factory.level, _factory.collected_at);\n        _user.resources[uint8(_factory.ftype)] = _user.resources[uint8(_factory.ftype)].add(resources);\n        _factory.collected_at = now;\n\n        emit CollectResources(_factory.ftype, resources);\n        return resources;\n    }\n\n    /// @notice function for collect all resources from all factories\n    /// @dev wrapper over _collectResource\n    function collectResources() public onlyExistingUser {\n        uint256 index = addressToUser[msg.sender];\n        User storage user = users[index];\n        uint256[] storage factoriesIds = userToFactories[addressToUser[msg.sender]];\n\n        for (uint256 i = 0; i < factoriesIds.length; i++) {\n            _collectResource(factories[factoriesIds[i]], user);\n        }\n    }\n\n}",
  "sourcePath": "/Users/alexey/Projects/DApps/MyMillions/contracts/MyMillions.sol",
  "compiler": {
    "name": "solc",
    "version": "0.4.24+commit.e67f0147.Emscripten.clang"
  },
  "schemaVersion": "2.0.1",
  "updatedAt": "2018-11-26T15:21:34.131Z"
}