{
  "contractName": "MyMillions",
  "abi": [
    {
      "constant": true,
      "inputs": [
        {
          "name": "",
          "type": "uint256"
        }
      ],
      "name": "users",
      "outputs": [
        {
          "name": "addr",
          "type": "address"
        },
        {
          "name": "balance",
          "type": "uint256"
        },
        {
          "name": "totalPay",
          "type": "uint256"
        }
      ],
      "payable": false,
      "stateMutability": "view",
      "type": "function"
    },
    {
      "constant": true,
      "inputs": [
        {
          "name": "",
          "type": "uint256"
        }
      ],
      "name": "factoryToUser",
      "outputs": [
        {
          "name": "",
          "type": "uint256"
        }
      ],
      "payable": false,
      "stateMutability": "view",
      "type": "function"
    },
    {
      "constant": true,
      "inputs": [
        {
          "name": "_type",
          "type": "uint8"
        },
        {
          "name": "_level",
          "type": "uint8"
        }
      ],
      "name": "getPrice",
      "outputs": [
        {
          "name": "",
          "type": "uint256"
        }
      ],
      "payable": false,
      "stateMutability": "view",
      "type": "function"
    },
    {
      "constant": true,
      "inputs": [
        {
          "name": "",
          "type": "uint256"
        }
      ],
      "name": "factories",
      "outputs": [
        {
          "name": "ftype",
          "type": "uint8"
        },
        {
          "name": "level",
          "type": "uint8"
        },
        {
          "name": "resources",
          "type": "uint8"
        }
      ],
      "payable": false,
      "stateMutability": "view",
      "type": "function"
    },
    {
      "constant": true,
      "inputs": [],
      "name": "owner",
      "outputs": [
        {
          "name": "",
          "type": "address"
        }
      ],
      "payable": false,
      "stateMutability": "view",
      "type": "function"
    },
    {
      "constant": true,
      "inputs": [
        {
          "name": "",
          "type": "uint8"
        },
        {
          "name": "",
          "type": "uint8"
        }
      ],
      "name": "levelStack",
      "outputs": [
        {
          "name": "price",
          "type": "uint256"
        },
        {
          "name": "ppm",
          "type": "uint256"
        },
        {
          "name": "ppmBonus",
          "type": "uint256"
        }
      ],
      "payable": false,
      "stateMutability": "view",
      "type": "function"
    },
    {
      "constant": true,
      "inputs": [
        {
          "name": "",
          "type": "address"
        }
      ],
      "name": "addressToUser",
      "outputs": [
        {
          "name": "",
          "type": "uint256"
        }
      ],
      "payable": false,
      "stateMutability": "view",
      "type": "function"
    },
    {
      "constant": false,
      "inputs": [
        {
          "name": "newOwner",
          "type": "address"
        }
      ],
      "name": "transferOwnership",
      "outputs": [],
      "payable": false,
      "stateMutability": "nonpayable",
      "type": "function"
    },
    {
      "constant": true,
      "inputs": [
        {
          "name": "",
          "type": "uint256"
        },
        {
          "name": "",
          "type": "uint256"
        }
      ],
      "name": "userToFactories",
      "outputs": [
        {
          "name": "",
          "type": "uint256"
        }
      ],
      "payable": false,
      "stateMutability": "view",
      "type": "function"
    },
    {
      "inputs": [],
      "payable": false,
      "stateMutability": "nonpayable",
      "type": "constructor"
    },
    {
      "anonymous": false,
      "inputs": [
        {
          "indexed": false,
          "name": "_index",
          "type": "uint256"
        },
        {
          "indexed": false,
          "name": "_address",
          "type": "address"
        },
        {
          "indexed": false,
          "name": "_balance",
          "type": "uint256"
        }
      ],
      "name": "CreateUser",
      "type": "event"
    },
    {
      "anonymous": false,
      "inputs": [
        {
          "indexed": false,
          "name": "_refferalId",
          "type": "uint256"
        },
        {
          "indexed": false,
          "name": "_userId",
          "type": "uint256"
        }
      ],
      "name": "ReferralRegister",
      "type": "event"
    },
    {
      "anonymous": false,
      "inputs": [
        {
          "indexed": false,
          "name": "_userId",
          "type": "uint256"
        },
        {
          "indexed": false,
          "name": "_factoryId",
          "type": "uint256"
        },
        {
          "indexed": false,
          "name": "_price",
          "type": "uint256"
        }
      ],
      "name": "PaymentProceed",
      "type": "event"
    },
    {
      "anonymous": false,
      "inputs": [
        {
          "indexed": true,
          "name": "previousOwner",
          "type": "address"
        },
        {
          "indexed": true,
          "name": "newOwner",
          "type": "address"
        }
      ],
      "name": "OwnershipTransferred",
      "type": "event"
    },
    {
      "constant": false,
      "inputs": [],
      "name": "register",
      "outputs": [
        {
          "name": "",
          "type": "uint256"
        }
      ],
      "payable": true,
      "stateMutability": "payable",
      "type": "function"
    },
    {
      "constant": false,
      "inputs": [
        {
          "name": "_refId",
          "type": "uint256"
        }
      ],
      "name": "registerWithRefID",
      "outputs": [
        {
          "name": "",
          "type": "uint256"
        }
      ],
      "payable": true,
      "stateMutability": "payable",
      "type": "function"
    },
    {
      "constant": true,
      "inputs": [],
      "name": "referralsOf",
      "outputs": [
        {
          "name": "",
          "type": "uint256[]"
        }
      ],
      "payable": false,
      "stateMutability": "view",
      "type": "function"
    },
    {
      "constant": true,
      "inputs": [],
      "name": "balanceOf",
      "outputs": [
        {
          "name": "",
          "type": "uint256"
        }
      ],
      "payable": false,
      "stateMutability": "view",
      "type": "function"
    },
    {
      "constant": false,
      "inputs": [],
      "name": "buyWoodFactory",
      "outputs": [
        {
          "name": "",
          "type": "uint256"
        }
      ],
      "payable": true,
      "stateMutability": "payable",
      "type": "function"
    },
    {
      "constant": false,
      "inputs": [
        {
          "name": "_type",
          "type": "uint8"
        }
      ],
      "name": "collectResources",
      "outputs": [
        {
          "name": "",
          "type": "uint256"
        }
      ],
      "payable": false,
      "stateMutability": "nonpayable",
      "type": "function"
    }
  ],
  "bytecode": "0x60806040523480156200001157600080fd5b50336000806101000a81548173ffffffffffffffffffffffffffffffffffffffff021916908373ffffffffffffffffffffffffffffffffffffffff160217905550606060405190810160405280662386f26fc100008152602001600a81526020016000815250600160008060038111156200008857fe5b60ff1660ff16815260200190815260200160002060008060ff16815260200190815260200160002060008201518160000155602082015181600101556040820151816002015590505060606040519081016040528066470de4df8200008152602001600c8152602001600081525060016000600160038111156200010857fe5b60ff1660ff16815260200190815260200160002060008060ff168152602001908152602001600020600082015181600001556020820151816001015560408201518160020155905050606060405190810160405280666a94d74f4300008152602001600e8152602001600081525060016000600260038111156200018857fe5b60ff1660ff16815260200190815260200160002060008060ff168152602001908152602001600020600082015181600001556020820151816001015560408201518160020155905050606060405190810160405280668e1bc9bf0400008152602001601081526020016000815250600160006003808111156200020757fe5b60ff1660ff16815260200190815260200160002060008060ff16815260200190815260200160002060008201518160000155602082015181600101556040820151816002015590505060606040519081016040528066b1a2bc2ec500008152602001601481526020016001815250600160008060038111156200028657fe5b60ff1660ff1681526020019081526020016000206000600160ff16815260200190815260200160002060008201518160000155602082015181600101556040820151816002015590505060606040519081016040528067016345785d8a0000815260200160168152602001600281525060016000600160038111156200030857fe5b60ff1660ff1681526020019081526020016000206000600160ff168152602001908152602001600020600082015181600001556020820151816001015560408201518160020155905050606060405190810160405280670214e8348c4f0000815260200160188152602001600381525060016000600260038111156200038a57fe5b60ff1660ff1681526020019081526020016000206000600160ff1681526020019081526020016000206000820151816000015560208201518160010155604082015181600201559050506060604051908101604052806702c68af0bb1400008152602001601a81526020016004815250600160006003808111156200040b57fe5b60ff1660ff1681526020019081526020016000206000600160ff16815260200190815260200160002060008201518160000155602082015181600101556040820151816002015590505060606040519081016040528067016345785d8a00008152602001601e81526020016002815250600160008060038111156200048c57fe5b60ff1660ff1681526020019081526020016000206000600260ff1681526020019081526020016000206000820151816000015560208201518160010155604082015181600201559050506060604051908101604052806702c68af0bb140000815260200160208152602001600381525060016000600160038111156200050e57fe5b60ff1660ff1681526020019081526020016000206000600260ff168152602001908152602001600020600082015181600001556020820151816001015560408201518160020155905050606060405190810160405280670429d069189e0000815260200160228152602001600481525060016000600260038111156200059057fe5b60ff1660ff1681526020019081526020016000206000600260ff16815260200190815260200160002060008201518160000155602082015181600101556040820151816002015590505060606040519081016040528067058d15e1762800008152602001602481526020016005815250600160006003808111156200061157fe5b60ff1660ff1681526020019081526020016000206000600260ff1681526020019081526020016000206000820151816000015560208201518160010155604082015181600201559050506060604051908101604052806702c68af0bb1400008152602001602881526020016003815250600160008060038111156200069257fe5b60ff1660ff1681526020019081526020016000206000600360ff16815260200190815260200160002060008201518160000155602082015181600101556040820151816002015590505060606040519081016040528067058d15e1762800008152602001602a8152602001600481525060016000600160038111156200071457fe5b60ff1660ff1681526020019081526020016000206000600360ff168152602001908152602001600020600082015181600001556020820151816001015560408201518160020155905050606060405190810160405280670853a0d2313c00008152602001602c8152602001600581525060016000600260038111156200079657fe5b60ff1660ff1681526020019081526020016000206000600360ff168152602001908152602001600020600082015181600001556020820151816001015560408201518160020155905050606060405190810160405280670b1a2bc2ec5000008152602001602e81526020016006815250600160006003808111156200081757fe5b60ff1660ff1681526020019081526020016000206000600360ff16815260200190815260200160002060008201518160000155602082015181600101556040820151816002015590505060606040519081016040528067058d15e1762800008152602001603281526020016004815250600160008060038111156200089857fe5b60ff1660ff1681526020019081526020016000206000600460ff168152602001908152602001600020600082015181600001556020820151816001015560408201518160020155905050606060405190810160405280670b1a2bc2ec500000815260200160348152602001600581525060016000600160038111156200091a57fe5b60ff1660ff1681526020019081526020016000206000600460ff1681526020019081526020016000206000820151816000015560208201518160010155604082015181600201559050506060604051908101604052806710a741a462780000815260200160368152602001600681525060016000600260038111156200099c57fe5b60ff1660ff1681526020019081526020016000206000600460ff1681526020019081526020016000206000820151816000015560208201518160010155604082015181600201559050506060604051908101604052806716345785d8a0000081526020016038815260200160078152506001600060038081111562000a1d57fe5b60ff1660ff1681526020019081526020016000206000600460ff168152602001908152602001600020600082015181600001556020820151816001015560408201518160020155905050606060405190810160405280670b1a2bc2ec5000008152602001603c815260200160058152506001600080600381111562000a9e57fe5b60ff1660ff1681526020019081526020016000206000600560ff1681526020019081526020016000206000820151816000015560208201518160010155604082015181600201559050506060604051908101604052806716345785d8a000008152602001603e81526020016006815250600160006001600381111562000b2057fe5b60ff1660ff1681526020019081526020016000206000600560ff16815260200190815260200160002060008201518160000155602082015181600101556040820151816002015590505060606040519081016040528067214e8348c4f000008152602001604081526020016007815250600160006002600381111562000ba257fe5b60ff1660ff1681526020019081526020016000206000600560ff168152602001908152602001600020600082015181600001556020820151816001015560408201518160020155905050606060405190810160405280672c68af0bb140000081526020016042815260200160088152506001600060038081111562000c2357fe5b60ff1660ff1681526020019081526020016000206000600560ff1681526020019081526020016000206000820151816000015560208201518160010155604082015181600201559050506060604051908101604052806716345785d8a0000081526020016046815260200160068152506001600080600381111562000ca457fe5b60ff1660ff1681526020019081526020016000206000600660ff168152602001908152602001600020600082015181600001556020820151816001015560408201518160020155905050606060405190810160405280672c68af0bb14000008152602001604881526020016007815250600160006001600381111562000d2657fe5b60ff1660ff1681526020019081526020016000206000600660ff16815260200190815260200160002060008201518160000155602082015181600101556040820151816002015590505060606040519081016040528067429d069189e000008152602001604a81526020016008815250600160006002600381111562000da857fe5b60ff1660ff1681526020019081526020016000206000600660ff1681526020019081526020016000206000820151816000015560208201518160010155604082015181600201559050506060604051908101604052806758d15e17628000008152602001604c815260200160098152506001600060038081111562000e2957fe5b60ff1660ff1681526020019081526020016000206000600660ff1681526020019081526020016000206000820151816000015560208201518160010155604082015181600201559050506002608060405190810160405280600073ffffffffffffffffffffffffffffffffffffffff1681526020016000815260200160008152602001600060405190808252806020026020018201604052801562000edd5781602001602082028038833980820191505090505b508152509080600181540180825580915050906001820390600052602060002090600402016000909192909190915060008201518160000160006101000a81548173ffffffffffffffffffffffffffffffffffffffff021916908373ffffffffffffffffffffffffffffffffffffffff1602179055506020820151816001015560408201518160020155606082015181600301908051906020019062000f8592919062000f8f565b5050505062001009565b82805482825590600052602060002090810192821562000fce579160200282015b8281111562000fcd57825182559160200191906001019062000fb0565b5b50905062000fdd919062000fe1565b5090565b6200100691905b808211156200100257600081600090555060010162000fe8565b5090565b90565b6111b980620010196000396000f3006080604052600436106100db576000357c0100000000000000000000000000000000000000000000000000000000900463ffffffff1680631aa3a008146100e0578063365b98b2146100fe5780633fc282ef146101795780635ee6e3a2146101ba57806360e5ef3a146101d8578063672383c414610229578063722713f7146102925780637905e4c5146102bd5780638da5cb5b1461032957806393d1c8ad14610380578063c6ee762e146103b4578063e1fc887e146103f8578063edf5388614610457578063f2fde38b146104ae578063fc412987146104f1575b600080fd5b6100e861053c565b6040518082815260200191505060405180910390f35b34801561010a57600080fd5b506101296004803603810190808035906020019092919050505061076b565b604051808473ffffffffffffffffffffffffffffffffffffffff1673ffffffffffffffffffffffffffffffffffffffff168152602001838152602001828152602001935050505060405180910390f35b34801561018557600080fd5b506101a4600480360381019080803590602001909291905050506107c4565b6040518082815260200191505060405180910390f35b6101c26107dc565b6040518082815260200191505060405180910390f35b3480156101e457600080fd5b50610213600480360381019080803560ff169060200190929190803560ff1690602001909291905050506108b1565b6040518082815260200191505060405180910390f35b34801561023557600080fd5b50610254600480360381019080803590602001909291905050506108fa565b6040518084600381111561026457fe5b60ff1681526020018360ff1660ff1681526020018260ff1660ff168152602001935050505060405180910390f35b34801561029e57600080fd5b506102a7610956565b6040518082815260200191505060405180910390f35b3480156102c957600080fd5b506102d26109bd565b6040518080602001828103825283818151815260200191508051906020019060200280838360005b838110156103155780820151818401526020810190506102fa565b505050509050019250505060405180910390f35b34801561033557600080fd5b5061033e610a72565b604051808273ffffffffffffffffffffffffffffffffffffffff1673ffffffffffffffffffffffffffffffffffffffff16815260200191505060405180910390f35b61039e60048036038101908080359060200190929190505050610a97565b6040518082815260200191505060405180910390f35b3480156103c057600080fd5b506103e2600480360381019080803560ff169060200190929190505050610b49565b6040518082815260200191505060405180910390f35b34801561040457600080fd5b50610433600480360381019080803560ff169060200190929190803560ff169060200190929190505050610b9e565b60405180848152602001838152602001828152602001935050505060405180910390f35b34801561046357600080fd5b50610498600480360381019080803573ffffffffffffffffffffffffffffffffffffffff169060200190929190505050610bd5565b6040518082815260200191505060405180910390f35b3480156104ba57600080fd5b506104ef600480360381019080803573ffffffffffffffffffffffffffffffffffffffff169060200190929190505050610bed565b005b3480156104fd57600080fd5b506105266004803603810190808035906020019092919080359060200190929190505050610d42565b6040518082815260200191505060405180910390f35b60006105466110dc565b600080600360003373ffffffffffffffffffffffffffffffffffffffff1673ffffffffffffffffffffffffffffffffffffffff1681526020019081526020016000205414151561059557600080fd5b6080604051908101604052803373ffffffffffffffffffffffffffffffffffffffff16815260200134815260200134815260200160006040519080825280602002602001820160405280156105f95781602001602082028038833980820191505090505b50815250915060016002839080600181540180825580915050906001820390600052602060002090600402016000909192909190915060008201518160000160006101000a81548173ffffffffffffffffffffffffffffffffffffffff021916908373ffffffffffffffffffffffffffffffffffffffff160217905550602082015181600101556040820151816002015560608201518160030190805190602001906106a692919061111b565b50505003905080600360003373ffffffffffffffffffffffffffffffffffffffff1673ffffffffffffffffffffffffffffffffffffffff168152602001908152602001600020819055507f4f936a96f51e2c2ffe18b6b6f1e4387c6bf1cddeb935d58cab653eb22ead430a813334604051808481526020018373ffffffffffffffffffffffffffffffffffffffff1673ffffffffffffffffffffffffffffffffffffffff168152602001828152602001935050505060405180910390a1809250505090565b60028181548110151561077a57fe5b90600052602060002090600402016000915090508060000160009054906101000a900473ffffffffffffffffffffffffffffffffffffffff16908060010154908060020154905083565b60056020528060005260406000206000915090505481565b600080600360003373ffffffffffffffffffffffffffffffffffffffff1673ffffffffffffffffffffffffffffffffffffffff1681526020019081526020016000205490506000600360003373ffffffffffffffffffffffffffffffffffffffff1673ffffffffffffffffffffffffffffffffffffffff1681526020019081526020016000205414156108745761087161053c565b90505b6108ad816060604051908101604052806000600381111561089157fe5b8152602001600060ff168152602001600060ff16815250610d72565b5090565b6000600160008460038111156108c357fe5b60ff1660ff16815260200190815260200160002060008360ff1660ff16815260200190815260200160002060000154905092915050565b60048181548110151561090957fe5b906000526020600020016000915090508060000160009054906101000a900460ff16908060000160019054906101000a900460ff16908060000160029054906101000a900460ff16905083565b60006002600360003373ffffffffffffffffffffffffffffffffffffffff1673ffffffffffffffffffffffffffffffffffffffff168152602001908152602001600020548154811015156109a657fe5b906000526020600020906004020160010154905090565b60606002600360003373ffffffffffffffffffffffffffffffffffffffff1673ffffffffffffffffffffffffffffffffffffffff16815260200190815260200160002054815481101515610a0d57fe5b9060005260206000209060040201600301805480602002602001604051908101604052809291908181526020018280548015610a6857602002820191906000526020600020905b815481526020019060010190808311610a54575b5050505050905090565b6000809054906101000a900473ffffffffffffffffffffffffffffffffffffffff1681565b60008060028054905083101515610aad57600080fd5b610ab561053c565b9050600283815481101515610ac657fe5b90600052602060002090600402016003018190806001815401808255809150509060018203906000526020600020016000909192909190915055507fb900dc1fba63117f0809180dec6da68c5bc269d0d8338586b2d57235a0671c138382604051808381526020018281526020019250505060405180910390a180915050919050565b600080600360003373ffffffffffffffffffffffffffffffffffffffff1673ffffffffffffffffffffffffffffffffffffffff1681526020019081526020016000205414151515610b9957600080fd5b919050565b6001602052816000526040600020602052806000526040600020600091509150508060000154908060010154908060020154905083565b60036020528060005260406000206000915090505481565b6000809054906101000a900473ffffffffffffffffffffffffffffffffffffffff1673ffffffffffffffffffffffffffffffffffffffff163373ffffffffffffffffffffffffffffffffffffffff16141515610c4857600080fd5b600073ffffffffffffffffffffffffffffffffffffffff168173ffffffffffffffffffffffffffffffffffffffff1614151515610c8457600080fd5b8073ffffffffffffffffffffffffffffffffffffffff166000809054906101000a900473ffffffffffffffffffffffffffffffffffffffff1673ffffffffffffffffffffffffffffffffffffffff167f8be0079c531659141344cd1fd0a4f28419497f9722a3daafe3b4186f6b6457e060405160405180910390a3806000806101000a81548173ffffffffffffffffffffffffffffffffffffffff021916908373ffffffffffffffffffffffffffffffffffffffff16021790555050565b600660205281600052604060002081815481101515610d5d57fe5b90600052602060002001600091509150505481565b6000806000600285815481101515610d8657fe5b90600052602060002090600402019250610e7483608060405190810160405290816000820160009054906101000a900473ffffffffffffffffffffffffffffffffffffffff1673ffffffffffffffffffffffffffffffffffffffff1673ffffffffffffffffffffffffffffffffffffffff168152602001600182015481526020016002820154815260200160038201805480602002602001604051908101604052809291908181526020018280548015610e5f57602002820191906000526020600020905b815481526020019060010190808311610e4b575b50505050508152505085600001516000611057565b1515610e7f57600080fd5b610e8a6000806108b1565b9150610ea334846001015461109a90919063ffffffff16565b8360010181905550610ec28284600101546110bb90919063ffffffff16565b8360010181905550610ee182846002015461109a90919063ffffffff16565b83600201819055506001600460606040519081016040528060006003811115610f0657fe5b8152602001600060ff168152602001600060ff1681525090806001815401808255809150509060018203906000526020600020016000909192909190915060008201518160000160006101000a81548160ff02191690836003811115610f6857fe5b021790555060208201518160000160016101000a81548160ff021916908360ff16021790555060408201518160000160026101000a81548160ff021916908360ff1602179055505050039050846005600083815260200190815260200160002081905550600660008681526020019081526020016000208190806001815401808255809150509060018203906000526020600020016000909192909190915055507f5d4f43a8fd1f92739a481efe24735d360f7c034e6a3c98c4db8ab4fcfa0695a385828460405180848152602001838152602001828152602001935050505060405180910390a15050505050565b60008061107134866020015161109a90919063ffffffff16565b905061107d84846108b1565b81101561108d5760009150611092565b600191505b509392505050565b60008082840190508381101515156110b157600080fd5b8091505092915050565b6000808383111515156110cd57600080fd5b82840390508091505092915050565b608060405190810160405280600073ffffffffffffffffffffffffffffffffffffffff1681526020016000815260200160008152602001606081525090565b828054828255906000526020600020908101928215611157579160200282015b8281111561115657825182559160200191906001019061113b565b5b5090506111649190611168565b5090565b61118a91905b8082111561118657600081600090555060010161116e565b5090565b905600a165627a7a72305820297e0743a31bd91b9dc2f411cd46942c2283973b8c1b1c7c90dde2054bedb9bb0029",
  "source": "pragma solidity ^0.4.24;\n\n/*\n*__/\\\\\\\\____________/\\\\\\\\________________/\\\\\\\\____________/\\\\\\\\________/\\\\\\\\\\\\_____/\\\\\\\\\\\\___________________________________________________        \n* _\\/\\\\\\\\\\\\________/\\\\\\\\\\\\_______________\\/\\\\\\\\\\\\________/\\\\\\\\\\\\_______\\////\\\\\\____\\////\\\\\\___________________________________________________       \n*  _\\/\\\\\\//\\\\\\____/\\\\\\//\\\\\\____/\\\\\\__/\\\\\\_\\/\\\\\\//\\\\\\____/\\\\\\//\\\\\\__/\\\\\\____\\/\\\\\\_______\\/\\\\\\_____/\\\\\\__________________________________________      \n*   _\\/\\\\\\\\///\\\\\\/\\\\\\/_\\/\\\\\\___\\//\\\\\\/\\\\\\__\\/\\\\\\\\///\\\\\\/\\\\\\/_\\/\\\\\\_\\///_____\\/\\\\\\_______\\/\\\\\\____\\///______/\\\\\\\\\\_____/\\\\/\\\\\\\\\\\\____/\\\\\\\\\\\\\\\\\\\\_     \n*    _\\/\\\\\\__\\///\\\\\\/___\\/\\\\\\____\\//\\\\\\\\\\___\\/\\\\\\__\\///\\\\\\/___\\/\\\\\\__/\\\\\\____\\/\\\\\\_______\\/\\\\\\_____/\\\\\\___/\\\\\\///\\\\\\__\\/\\\\\\////\\\\\\__\\/\\\\\\//////__    \n*     _\\/\\\\\\____\\///_____\\/\\\\\\_____\\//\\\\\\____\\/\\\\\\____\\///_____\\/\\\\\\_\\/\\\\\\____\\/\\\\\\_______\\/\\\\\\____\\/\\\\\\__/\\\\\\__\\//\\\\\\_\\/\\\\\\__\\//\\\\\\_\\/\\\\\\\\\\\\\\\\\\\\_   \n*      _\\/\\\\\\_____________\\/\\\\\\__/\\\\_/\\\\\\_____\\/\\\\\\_____________\\/\\\\\\_\\/\\\\\\____\\/\\\\\\_______\\/\\\\\\____\\/\\\\\\_\\//\\\\\\__/\\\\\\__\\/\\\\\\___\\/\\\\\\_\\////////\\\\\\_  \n*       _\\/\\\\\\_____________\\/\\\\\\_\\//\\\\\\\\/______\\/\\\\\\_____________\\/\\\\\\_\\/\\\\\\__/\\\\\\\\\\\\\\\\\\__/\\\\\\\\\\\\\\\\\\_\\/\\\\\\__\\///\\\\\\\\\\/___\\/\\\\\\___\\/\\\\\\__/\\\\\\\\\\\\\\\\\\\\_ \n*        _\\///______________\\///___\\////________\\///______________\\///__\\///__\\/////////__\\/////////__\\///_____\\/////_____\\///____\\///__\\//////////__\n*/\n\nimport \"./Ownable.sol\";\nimport \"./SafeMath.sol\";\n\ncontract FactoryTyping {\n    enum FactoryType { Wood, Metal, Oil, PreciousMetal }\n}\n\ncontract Improvements is FactoryTyping {\n    mapping (uint8 => mapping (uint8 => Params)) public levelStack;\n    \n    struct Params {\n        uint256 price;      // improvements cost\n        uint256 ppm;        // products per minute\n        uint256 ppmBonus;   // bonus per minute\n    }\n    \n    constructor() public {\n        // initial pricess\n        levelStack[uint8(FactoryType.Wood)][0]          = Params(0.01 ether, 10, 0);\n        levelStack[uint8(FactoryType.Metal)][0]         = Params(0.02 ether, 12, 0);\n        levelStack[uint8(FactoryType.Oil)][0]           = Params(0.03 ether, 14, 0);\n        levelStack[uint8(FactoryType.PreciousMetal)][0] = Params(0.04 ether, 16, 0);\n        \n        // level 1\n        levelStack[uint8(FactoryType.Wood)][1]          = Params(0.05 ether, 20, 1);\n        levelStack[uint8(FactoryType.Metal)][1]         = Params(0.10 ether, 22, 2);\n        levelStack[uint8(FactoryType.Oil)][1]           = Params(0.15 ether, 24, 3);\n        levelStack[uint8(FactoryType.PreciousMetal)][1] = Params(0.20 ether, 26, 4);\n        \n        // level 2\n        levelStack[uint8(FactoryType.Wood)][2]          = Params(0.10 ether, 30, 2);\n        levelStack[uint8(FactoryType.Metal)][2]         = Params(0.20 ether, 32, 3);\n        levelStack[uint8(FactoryType.Oil)][2]           = Params(0.30 ether, 34, 4);\n        levelStack[uint8(FactoryType.PreciousMetal)][2] = Params(0.40 ether, 36, 5);\n        \n        // level 3\n        levelStack[uint8(FactoryType.Wood)][3]          = Params(0.2 ether, 40, 3);\n        levelStack[uint8(FactoryType.Metal)][3]         = Params(0.4 ether, 42, 4);\n        levelStack[uint8(FactoryType.Oil)][3]           = Params(0.6 ether, 44, 5);\n        levelStack[uint8(FactoryType.PreciousMetal)][3] = Params(0.8 ether, 46, 6);\n        \n        // level 4\n        levelStack[uint8(FactoryType.Wood)][4]          = Params(0.4 ether, 50, 4);\n        levelStack[uint8(FactoryType.Metal)][4]         = Params(0.8 ether, 52, 5);\n        levelStack[uint8(FactoryType.Oil)][4]           = Params(1.2 ether, 54, 6);\n        levelStack[uint8(FactoryType.PreciousMetal)][4] = Params(1.6 ether, 56, 7);\n        \n        // level 5\n        levelStack[uint8(FactoryType.Wood)][5]          = Params(0.8 ether, 60, 5);\n        levelStack[uint8(FactoryType.Metal)][5]         = Params(1.6 ether, 62, 6);\n        levelStack[uint8(FactoryType.Oil)][5]           = Params(2.4 ether, 64, 7);\n        levelStack[uint8(FactoryType.PreciousMetal)][5] = Params(3.2 ether, 66, 8);\n        \n        // level 6\n        levelStack[uint8(FactoryType.Wood)][6]          = Params(1.6 ether, 70, 6);\n        levelStack[uint8(FactoryType.Metal)][6]         = Params(3.2 ether, 72, 7);\n        levelStack[uint8(FactoryType.Oil)][6]           = Params(4.8 ether, 74, 8);\n        levelStack[uint8(FactoryType.PreciousMetal)][6] = Params(6.4 ether, 76, 9);\n    }\n    \n    function getPrice(FactoryType _type, uint8 _level) public view returns(uint256) {\n        return levelStack[uint8(_type)][_level].price;\n    }\n}\n\ncontract MyMillions is Ownable, Improvements {\n    using SafeMath for uint256;\n\n    event CreateUser(uint256 _index, address _address, uint256 _balance);\n    event ReferralRegister(uint256 _refferalId, uint256 _userId);\n    event PaymentProceed(uint256 _userId, uint256 _factoryId, uint256 _price);\n    \n    struct User {\n        address addr;           // user address\n        uint256 balance;        // balance of account\n        uint256 totalPay;       // sum of all input pay\n        uint256[] referrals;    // first layer referrals ids\n    }\n    \n    User[] public users;\n    mapping (address => uint256) public addressToUser;\n    \n    struct Factory {\n        FactoryType ftype;  // factory type\n        uint8 level;        // factory level\n        uint8 resources;    // collected resources\n    }\n    \n    Factory[] public factories;\n    mapping (uint256 => uint256) public factoryToUser;\n    mapping (uint256 => uint256[]) public userToFactories;\n\n    modifier onlyExistingUser() {\n        require(addressToUser[msg.sender] != 0);\n        _;\n    }\n    \n    constructor() public {\n        users.push(User(0x0, 0, 0, new uint256[](0)));  // for find by addressToUser map\n    }\n    \n    /**\n     * @dev register for only new users with min pay\n     */\n    function register() public payable returns(uint256) {\n        require(addressToUser[msg.sender] == 0);\n        \n        User memory user = User(msg.sender, msg.value, msg.value, new uint256[](0));\n        uint256 index = users.push(user) - 1;\n        addressToUser[msg.sender] = index;\n\n        emit CreateUser(index, msg.sender, msg.value);\n        return index;\n    }\n\n    /**\n     * @dev just registry by referral link\n     * @param _refId the ID of the user who gets the affiliate fee\n     */\n    function registerWithRefID(uint256 _refId) public payable returns(uint256) {\n        require(_refId < users.length);\n        \n        uint256 index = register();\n        users[_refId].referrals.push(index);\n\n        emit ReferralRegister(_refId, index);\n        return index;\n    }\n\n    function referralsOf() public view returns (uint256[]) {\n        return users[addressToUser[msg.sender]].referrals;\n    }\n\n    function balanceOf() public view returns (uint256) {\n        return users[addressToUser[msg.sender]].balance;\n    }\n    \n    function buyWoodFactory() public payable returns (uint256) {\n        uint256 userId = addressToUser[msg.sender];\n\n        // if user not registered\n        if (addressToUser[msg.sender] == 0)\n            userId = register();\n        \n        _paymentProceed(userId, Factory(FactoryType.Wood, 0, 0));\n    }\n    \n    function _paymentProceed(uint256 _userId, Factory _factory) private {\n        User storage user = users[_userId];\n        \n        require(_checkPayment(user, _factory.ftype, 0));\n        \n        uint256 price = getPrice(FactoryType.Wood, 0);\n        user.balance = user.balance.add(msg.value);\n        user.balance = user.balance.sub(price);\n        user.totalPay = user.totalPay.add(price);\n            \n        uint256 index = factories.push(Factory(FactoryType.Wood, 0, 0)) - 1;\n        factoryToUser[index] = _userId;\n        userToFactories[_userId].push(index);\n        \n        emit PaymentProceed(_userId, index, price);\n    }\n    \n    function _checkPayment(User _user, FactoryType _type, uint8 _level) view private returns(bool) {\n        uint256 totalBalance = _user.balance.add(msg.value);\n        \n        if (totalBalance < getPrice(_type, _level)) return false;\n        \n        return true;\n    }\n\n    function collectResources(FactoryType _type) public onlyExistingUser() returns(uint256) {\n        \n    }\n\n}\n",
  "sourcePath": "/Users/alexey/Projects/DApps/MyMillions/contracts/MyMillions.sol",
  "compiler": {
    "name": "solc",
    "version": "0.4.24+commit.e67f0147.Emscripten.clang"
  },
  "schemaVersion": "2.0.1",
  "updatedAt": "2018-10-07T13:49:59.514Z"
}