{
  "contractName": "MyMillions",
  "abi": [
    {
      "constant": true,
      "inputs": [
        {
          "name": "",
          "type": "uint8"
        }
      ],
      "name": "leaderBonuses",
      "outputs": [
        {
          "name": "",
          "type": "uint256"
        }
      ],
      "payable": false,
      "stateMutability": "view",
      "type": "function"
    },
    {
      "constant": true,
      "inputs": [],
      "name": "developers",
      "outputs": [
        {
          "name": "",
          "type": "address"
        }
      ],
      "payable": false,
      "stateMutability": "view",
      "type": "function"
    },
    {
      "constant": true,
      "inputs": [
        {
          "name": "",
          "type": "uint256"
        }
      ],
      "name": "users",
      "outputs": [
        {
          "name": "addr",
          "type": "address"
        },
        {
          "name": "balance",
          "type": "uint256"
        },
        {
          "name": "totalPay",
          "type": "uint256"
        }
      ],
      "payable": false,
      "stateMutability": "view",
      "type": "function"
    },
    {
      "constant": true,
      "inputs": [],
      "name": "developersPercent",
      "outputs": [
        {
          "name": "",
          "type": "uint256"
        }
      ],
      "payable": false,
      "stateMutability": "view",
      "type": "function"
    },
    {
      "constant": true,
      "inputs": [
        {
          "name": "_indexTable",
          "type": "uint256"
        }
      ],
      "name": "getLeadersTableInfo",
      "outputs": [
        {
          "name": "",
          "type": "uint256"
        },
        {
          "name": "",
          "type": "uint256"
        },
        {
          "name": "",
          "type": "uint256"
        }
      ],
      "payable": false,
      "stateMutability": "view",
      "type": "function"
    },
    {
      "constant": true,
      "inputs": [
        {
          "name": "",
          "type": "uint256"
        }
      ],
      "name": "factoryToUser",
      "outputs": [
        {
          "name": "",
          "type": "uint256"
        }
      ],
      "payable": false,
      "stateMutability": "view",
      "type": "function"
    },
    {
      "constant": true,
      "inputs": [
        {
          "name": "_type",
          "type": "uint8"
        }
      ],
      "name": "getResourcePrice",
      "outputs": [
        {
          "name": "",
          "type": "uint256"
        }
      ],
      "payable": false,
      "stateMutability": "view",
      "type": "function"
    },
    {
      "constant": true,
      "inputs": [
        {
          "name": "_indexTable",
          "type": "uint256"
        }
      ],
      "name": "getLeaders",
      "outputs": [
        {
          "name": "",
          "type": "address[]"
        },
        {
          "name": "",
          "type": "uint256[]"
        }
      ],
      "payable": false,
      "stateMutability": "view",
      "type": "function"
    },
    {
      "constant": true,
      "inputs": [
        {
          "name": "_index",
          "type": "uint256"
        }
      ],
      "name": "getReferralPercentsByIndex",
      "outputs": [
        {
          "name": "",
          "type": "uint16[]"
        }
      ],
      "payable": false,
      "stateMutability": "view",
      "type": "function"
    },
    {
      "constant": true,
      "inputs": [],
      "name": "minSumReferral",
      "outputs": [
        {
          "name": "",
          "type": "uint256"
        }
      ],
      "payable": false,
      "stateMutability": "view",
      "type": "function"
    },
    {
      "constant": true,
      "inputs": [
        {
          "name": "_type",
          "type": "uint8"
        },
        {
          "name": "_level",
          "type": "uint8"
        }
      ],
      "name": "getPrice",
      "outputs": [
        {
          "name": "",
          "type": "uint256"
        }
      ],
      "payable": false,
      "stateMutability": "view",
      "type": "function"
    },
    {
      "constant": true,
      "inputs": [
        {
          "name": "",
          "type": "uint256"
        }
      ],
      "name": "factories",
      "outputs": [
        {
          "name": "ftype",
          "type": "uint8"
        },
        {
          "name": "level",
          "type": "uint8"
        },
        {
          "name": "collected_at",
          "type": "uint256"
        }
      ],
      "payable": false,
      "stateMutability": "view",
      "type": "function"
    },
    {
      "constant": true,
      "inputs": [
        {
          "name": "_type",
          "type": "uint8"
        },
        {
          "name": "_level",
          "type": "uint8"
        }
      ],
      "name": "getBonusPerMinute",
      "outputs": [
        {
          "name": "",
          "type": "uint256"
        }
      ],
      "payable": false,
      "stateMutability": "view",
      "type": "function"
    },
    {
      "constant": true,
      "inputs": [],
      "name": "levelsCount",
      "outputs": [
        {
          "name": "",
          "type": "uint8"
        }
      ],
      "payable": false,
      "stateMutability": "view",
      "type": "function"
    },
    {
      "constant": false,
      "inputs": [
        {
          "name": "newDevelopers",
          "type": "address"
        }
      ],
      "name": "setDevelopers",
      "outputs": [],
      "payable": false,
      "stateMutability": "nonpayable",
      "type": "function"
    },
    {
      "constant": true,
      "inputs": [],
      "name": "owner",
      "outputs": [
        {
          "name": "",
          "type": "address"
        }
      ],
      "payable": false,
      "stateMutability": "view",
      "type": "function"
    },
    {
      "constant": true,
      "inputs": [
        {
          "name": "_sum",
          "type": "uint256"
        }
      ],
      "name": "getReferralPercents",
      "outputs": [
        {
          "name": "",
          "type": "uint16[]"
        }
      ],
      "payable": false,
      "stateMutability": "view",
      "type": "function"
    },
    {
      "constant": true,
      "inputs": [],
      "name": "leadersCount",
      "outputs": [
        {
          "name": "",
          "type": "uint8"
        }
      ],
      "payable": false,
      "stateMutability": "view",
      "type": "function"
    },
    {
      "constant": true,
      "inputs": [
        {
          "name": "",
          "type": "uint256"
        }
      ],
      "name": "referralGroups",
      "outputs": [
        {
          "name": "minSum",
          "type": "uint256"
        },
        {
          "name": "maxSum",
          "type": "uint256"
        }
      ],
      "payable": false,
      "stateMutability": "view",
      "type": "function"
    },
    {
      "constant": true,
      "inputs": [
        {
          "name": "_type",
          "type": "uint8"
        },
        {
          "name": "_level",
          "type": "uint8"
        }
      ],
      "name": "getProductsPerMinute",
      "outputs": [
        {
          "name": "",
          "type": "uint256"
        }
      ],
      "payable": false,
      "stateMutability": "view",
      "type": "function"
    },
    {
      "constant": true,
      "inputs": [
        {
          "name": "",
          "type": "uint256"
        }
      ],
      "name": "leaders",
      "outputs": [
        {
          "name": "timestampEnd",
          "type": "uint256"
        },
        {
          "name": "duration",
          "type": "uint256"
        },
        {
          "name": "minSum",
          "type": "uint256"
        }
      ],
      "payable": false,
      "stateMutability": "view",
      "type": "function"
    },
    {
      "constant": true,
      "inputs": [
        {
          "name": "",
          "type": "uint8"
        }
      ],
      "name": "resourcePrices",
      "outputs": [
        {
          "name": "",
          "type": "uint256"
        }
      ],
      "payable": false,
      "stateMutability": "view",
      "type": "function"
    },
    {
      "constant": true,
      "inputs": [],
      "name": "referralLevelsGroups",
      "outputs": [
        {
          "name": "",
          "type": "uint256"
        }
      ],
      "payable": false,
      "stateMutability": "view",
      "type": "function"
    },
    {
      "constant": true,
      "inputs": [
        {
          "name": "",
          "type": "uint8"
        },
        {
          "name": "",
          "type": "uint8"
        }
      ],
      "name": "levelStack",
      "outputs": [
        {
          "name": "price",
          "type": "uint256"
        },
        {
          "name": "ppm",
          "type": "uint256"
        },
        {
          "name": "ppmBonus",
          "type": "uint256"
        }
      ],
      "payable": false,
      "stateMutability": "view",
      "type": "function"
    },
    {
      "constant": true,
      "inputs": [
        {
          "name": "",
          "type": "address"
        }
      ],
      "name": "addressToUser",
      "outputs": [
        {
          "name": "",
          "type": "uint256"
        }
      ],
      "payable": false,
      "stateMutability": "view",
      "type": "function"
    },
    {
      "constant": false,
      "inputs": [
        {
          "name": "newOwner",
          "type": "address"
        }
      ],
      "name": "transferOwnership",
      "outputs": [],
      "payable": false,
      "stateMutability": "nonpayable",
      "type": "function"
    },
    {
      "constant": true,
      "inputs": [],
      "name": "referralLevelsCount",
      "outputs": [
        {
          "name": "",
          "type": "uint256"
        }
      ],
      "payable": false,
      "stateMutability": "view",
      "type": "function"
    },
    {
      "constant": true,
      "inputs": [
        {
          "name": "",
          "type": "uint256"
        },
        {
          "name": "",
          "type": "uint256"
        }
      ],
      "name": "userToFactories",
      "outputs": [
        {
          "name": "",
          "type": "uint256"
        }
      ],
      "payable": false,
      "stateMutability": "view",
      "type": "function"
    },
    {
      "inputs": [],
      "payable": true,
      "stateMutability": "payable",
      "type": "constructor"
    },
    {
      "anonymous": false,
      "inputs": [
        {
          "indexed": false,
          "name": "_index",
          "type": "uint256"
        },
        {
          "indexed": false,
          "name": "_address",
          "type": "address"
        },
        {
          "indexed": false,
          "name": "_balance",
          "type": "uint256"
        }
      ],
      "name": "CreateUser",
      "type": "event"
    },
    {
      "anonymous": false,
      "inputs": [
        {
          "indexed": false,
          "name": "_refferalId",
          "type": "uint256"
        },
        {
          "indexed": false,
          "name": "_userId",
          "type": "uint256"
        }
      ],
      "name": "ReferralRegister",
      "type": "event"
    },
    {
      "anonymous": false,
      "inputs": [
        {
          "indexed": false,
          "name": "_userId",
          "type": "uint256"
        },
        {
          "indexed": false,
          "name": "_referrerId",
          "type": "uint256"
        },
        {
          "indexed": false,
          "name": "_sum",
          "type": "uint256"
        }
      ],
      "name": "ReferrerDistribute",
      "type": "event"
    },
    {
      "anonymous": false,
      "inputs": [
        {
          "indexed": false,
          "name": "_userId",
          "type": "uint256"
        },
        {
          "indexed": false,
          "name": "_value",
          "type": "uint256"
        }
      ],
      "name": "Deposit",
      "type": "event"
    },
    {
      "anonymous": false,
      "inputs": [
        {
          "indexed": false,
          "name": "_userId",
          "type": "uint256"
        },
        {
          "indexed": false,
          "name": "_factoryId",
          "type": "uint256"
        },
        {
          "indexed": false,
          "name": "_factoryType",
          "type": "uint8"
        },
        {
          "indexed": false,
          "name": "_price",
          "type": "uint256"
        }
      ],
      "name": "PaymentProceed",
      "type": "event"
    },
    {
      "anonymous": false,
      "inputs": [
        {
          "indexed": false,
          "name": "_type",
          "type": "uint8"
        },
        {
          "indexed": false,
          "name": "_resources",
          "type": "uint256"
        }
      ],
      "name": "CollectResources",
      "type": "event"
    },
    {
      "anonymous": false,
      "inputs": [
        {
          "indexed": false,
          "name": "_factoryId",
          "type": "uint256"
        },
        {
          "indexed": false,
          "name": "_newLevel",
          "type": "uint8"
        },
        {
          "indexed": false,
          "name": "_userId",
          "type": "uint256"
        }
      ],
      "name": "LevelUp",
      "type": "event"
    },
    {
      "anonymous": false,
      "inputs": [
        {
          "indexed": false,
          "name": "_userId",
          "type": "uint256"
        },
        {
          "indexed": false,
          "name": "_type",
          "type": "uint8"
        },
        {
          "indexed": false,
          "name": "_sum",
          "type": "uint256"
        }
      ],
      "name": "Sell",
      "type": "event"
    },
    {
      "anonymous": false,
      "inputs": [
        {
          "indexed": false,
          "name": "_indexTable",
          "type": "uint256"
        },
        {
          "indexed": false,
          "name": "_addr",
          "type": "address"
        },
        {
          "indexed": false,
          "name": "_index",
          "type": "uint256"
        },
        {
          "indexed": false,
          "name": "_sum",
          "type": "uint256"
        }
      ],
      "name": "NewLeader",
      "type": "event"
    },
    {
      "anonymous": false,
      "inputs": [
        {
          "indexed": false,
          "name": "_indexTable",
          "type": "uint256"
        }
      ],
      "name": "LeadersClear",
      "type": "event"
    },
    {
      "anonymous": false,
      "inputs": [
        {
          "indexed": true,
          "name": "previousOwner",
          "type": "address"
        },
        {
          "indexed": true,
          "name": "newOwner",
          "type": "address"
        }
      ],
      "name": "OwnershipTransferred",
      "type": "event"
    },
    {
      "anonymous": false,
      "inputs": [
        {
          "indexed": true,
          "name": "previousDevelopers",
          "type": "address"
        },
        {
          "indexed": true,
          "name": "newDevelopers",
          "type": "address"
        }
      ],
      "name": "DevelopersChanged",
      "type": "event"
    },
    {
      "constant": false,
      "inputs": [],
      "name": "setup",
      "outputs": [],
      "payable": false,
      "stateMutability": "nonpayable",
      "type": "function"
    },
    {
      "constant": false,
      "inputs": [],
      "name": "register",
      "outputs": [
        {
          "name": "",
          "type": "uint256"
        }
      ],
      "payable": true,
      "stateMutability": "payable",
      "type": "function"
    },
    {
      "constant": false,
      "inputs": [
        {
          "name": "_refId",
          "type": "uint256"
        }
      ],
      "name": "registerWithRefID",
      "outputs": [
        {
          "name": "",
          "type": "uint256"
        }
      ],
      "payable": true,
      "stateMutability": "payable",
      "type": "function"
    },
    {
      "constant": false,
      "inputs": [],
      "name": "deposit",
      "outputs": [
        {
          "name": "",
          "type": "uint256"
        }
      ],
      "payable": true,
      "stateMutability": "payable",
      "type": "function"
    },
    {
      "constant": true,
      "inputs": [],
      "name": "balanceOf",
      "outputs": [
        {
          "name": "",
          "type": "uint256"
        }
      ],
      "payable": false,
      "stateMutability": "view",
      "type": "function"
    },
    {
      "constant": true,
      "inputs": [],
      "name": "resoucesOf",
      "outputs": [
        {
          "name": "",
          "type": "uint256[]"
        }
      ],
      "payable": false,
      "stateMutability": "view",
      "type": "function"
    },
    {
      "constant": true,
      "inputs": [],
      "name": "referrersOf",
      "outputs": [
        {
          "name": "",
          "type": "uint256[]"
        }
      ],
      "payable": false,
      "stateMutability": "view",
      "type": "function"
    },
    {
      "constant": true,
      "inputs": [
        {
          "name": "_level",
          "type": "uint8"
        }
      ],
      "name": "referralsOf",
      "outputs": [
        {
          "name": "",
          "type": "uint256[]"
        }
      ],
      "payable": false,
      "stateMutability": "view",
      "type": "function"
    },
    {
      "constant": true,
      "inputs": [
        {
          "name": "_userId",
          "type": "uint256"
        }
      ],
      "name": "userInfo",
      "outputs": [
        {
          "name": "",
          "type": "address"
        },
        {
          "name": "",
          "type": "uint256"
        },
        {
          "name": "",
          "type": "uint256"
        },
        {
          "name": "",
          "type": "uint256[]"
        },
        {
          "name": "",
          "type": "uint256[]"
        }
      ],
      "payable": false,
      "stateMutability": "view",
      "type": "function"
    },
    {
      "constant": false,
      "inputs": [
        {
          "name": "_type",
          "type": "uint8"
        }
      ],
      "name": "buyFactory",
      "outputs": [
        {
          "name": "",
          "type": "uint256"
        }
      ],
      "payable": true,
      "stateMutability": "payable",
      "type": "function"
    },
    {
      "constant": true,
      "inputs": [
        {
          "name": "_user_id",
          "type": "uint256"
        }
      ],
      "name": "getFactories",
      "outputs": [
        {
          "name": "",
          "type": "uint256[]"
        }
      ],
      "payable": false,
      "stateMutability": "view",
      "type": "function"
    },
    {
      "constant": false,
      "inputs": [],
      "name": "buyWoodFactory",
      "outputs": [
        {
          "name": "",
          "type": "uint256"
        }
      ],
      "payable": true,
      "stateMutability": "payable",
      "type": "function"
    },
    {
      "constant": false,
      "inputs": [],
      "name": "buyMetalFactory",
      "outputs": [
        {
          "name": "",
          "type": "uint256"
        }
      ],
      "payable": true,
      "stateMutability": "payable",
      "type": "function"
    },
    {
      "constant": false,
      "inputs": [],
      "name": "buyOilFactory",
      "outputs": [
        {
          "name": "",
          "type": "uint256"
        }
      ],
      "payable": true,
      "stateMutability": "payable",
      "type": "function"
    },
    {
      "constant": false,
      "inputs": [],
      "name": "buyPreciousMetal",
      "outputs": [
        {
          "name": "",
          "type": "uint256"
        }
      ],
      "payable": true,
      "stateMutability": "payable",
      "type": "function"
    },
    {
      "constant": false,
      "inputs": [
        {
          "name": "_factoryId",
          "type": "uint256"
        }
      ],
      "name": "levelUp",
      "outputs": [],
      "payable": true,
      "stateMutability": "payable",
      "type": "function"
    },
    {
      "constant": false,
      "inputs": [
        {
          "name": "_type",
          "type": "uint8"
        }
      ],
      "name": "sellResources",
      "outputs": [
        {
          "name": "",
          "type": "uint256"
        }
      ],
      "payable": false,
      "stateMutability": "nonpayable",
      "type": "function"
    },
    {
      "constant": true,
      "inputs": [
        {
          "name": "_collected_at",
          "type": "uint256"
        }
      ],
      "name": "worktimeAtDate",
      "outputs": [
        {
          "name": "",
          "type": "uint256"
        }
      ],
      "payable": false,
      "stateMutability": "view",
      "type": "function"
    },
    {
      "constant": true,
      "inputs": [
        {
          "name": "_factoryId",
          "type": "uint256"
        }
      ],
      "name": "worktime",
      "outputs": [
        {
          "name": "",
          "type": "uint256"
        }
      ],
      "payable": false,
      "stateMutability": "view",
      "type": "function"
    },
    {
      "constant": true,
      "inputs": [
        {
          "name": "_type",
          "type": "uint8"
        },
        {
          "name": "_level",
          "type": "uint8"
        },
        {
          "name": "_collected_at",
          "type": "uint256"
        }
      ],
      "name": "_resourcesAtTime",
      "outputs": [
        {
          "name": "",
          "type": "uint256"
        }
      ],
      "payable": false,
      "stateMutability": "view",
      "type": "function"
    },
    {
      "constant": true,
      "inputs": [
        {
          "name": "_factoryId",
          "type": "uint256"
        }
      ],
      "name": "resourcesAtTime",
      "outputs": [
        {
          "name": "",
          "type": "uint256"
        }
      ],
      "payable": false,
      "stateMutability": "view",
      "type": "function"
    },
    {
      "constant": false,
      "inputs": [],
      "name": "collectResources",
      "outputs": [],
      "payable": false,
      "stateMutability": "nonpayable",
      "type": "function"
    }
  ],
  "bytecode": "0x608060405273b68e8c1eac20e6b3c92fbb9a601f9fa1e0475d59600160006101000a81548173ffffffffffffffffffffffffffffffffffffffff021916908373ffffffffffffffffffffffffffffffffffffffff1602179055506000600760006101000a81548160ff021916908315150217905550336000806101000a81548173ffffffffffffffffffffffffffffffffffffffff021916908373ffffffffffffffffffffffffffffffffffffffff160217905550600a600560008060ff16815260200190815260200160002081905550600760056000600160ff168152602001908152602001600020819055506005806000600260ff16815260200190815260200160002081905550600360056000600360ff16815260200190815260200160002081905550600160056000600460ff16815260200190815260200160002081905550600060056000600560ff16815260200190815260200160002081905550600060056000600660ff168152602001908152602001600020819055506006608060405190810160405280620151804201815260200162015180815260200160008152602001600760ff16604051908082528060200260200182016040528015620001da5781602001602082028038833980820191505090505b508152509080600181540180825580915050906001820390600052602060002090600502016000909192909190915060008201518160000155602082015181600101556040820151816002015560608201518160030190805190602001906200024592919062000623565b50505050600660806040519081016040528062093a804201815260200162093a80815260200160008152602001600760ff16604051908082528060200260200182016040528015620002a65781602001602082028038833980820191505090505b508152509080600181540180825580915050906001820390600052602060002090600502016000909192909190915060008201518160000155602082015181600101556040820151816002015560608201518160030190805190602001906200031192919062000623565b5050505060066080604051908101604052806304a28600420181526020016304a28600815260200160008152602001600760ff16604051908082528060200260200182016040528015620003745781602001602082028038833980820191505090505b50815250908060018154018082558091505090600182039060005260206000209060050201600090919290919091506000820151816000015560208201518160010155604082015181600201556060820151816003019080519060200190620003df92919062000623565b5050505060066080604051908101604052806301e13380420181526020016301e13380815260200160008152602001600760ff16604051908082528060200260200182016040528015620004425781602001602082028038833980820191505090505b50815250908060018154018082558091505090600182039060005260206000209060050201600090919290919091506000820151816000015560208201518160010155604082015181600201556060820151816003019080519060200190620004ad92919062000623565b50505050600860a060405190810160405280600073ffffffffffffffffffffffffffffffffffffffff168152602001600081526020016000815260200160046040519080825280602002602001820160405280156200051b5781602001602082028038833980820191505090505b5081526020016005604051908082528060200260200182016040528015620005525781602001602082028038833980820191505090505b508152509080600181540180825580915050906001820390600052602060002090600602016000909192909190915060008201518160000160006101000a81548173ffffffffffffffffffffffffffffffffffffffff021916908373ffffffffffffffffffffffffffffffffffffffff16021790555060208201518160010155604082015181600201556060820151816003019080519060200190620005fa929190620006b2565b50608082015181600401908051906020019062000619929190620006b2565b5050505062000772565b8280548282559060005260206000209081019282156200069f579160200282015b828111156200069e5782518260006101000a81548173ffffffffffffffffffffffffffffffffffffffff021916908373ffffffffffffffffffffffffffffffffffffffff1602179055509160200191906001019062000644565b5b509050620006ae919062000704565b5090565b828054828255906000526020600020908101928215620006f1579160200282015b82811115620006f0578251825591602001919060010190620006d3565b5b5090506200070091906200074a565b5090565b6200074791905b808211156200074357600081816101000a81549073ffffffffffffffffffffffffffffffffffffffff0219169055506001016200070b565b5090565b90565b6200076f91905b808211156200076b57600081600090555060010162000751565b5090565b90565b6155c480620007826000396000f30060806040526004361061025c576000357c0100000000000000000000000000000000000000000000000000000000900463ffffffff16806302ceb8b3146102615780630ce90ec2146102a55780631aa3a008146102c55780631cdb86a3146102e3578063208d5e9f146103245780632bc31ca414610342578063365b98b2146103995780633887dae9146104145780633a033915146104805780633bbfe141146104ab5780633eb1137e146104c25780633fc282ef146105115780634bd51822146105525780634db2a7111461059657806351d70bc4146106605780635875455e1461076b5780635a2587f4146107ed5780635b9280f61461086f5780635ee6e3a21461089a57806360e5ef3a146108b8578063672383c41461090957806368ec45121461096c578063715b3ec9146109bd578063722713f714610a1857806383c6a62b14610a435780638ab476bf14610a745780638da5cb5b14610ab757806391ddb16d14610b0e578063930efb7114610b9057806393d1c8ad14610bc157806397ff49e714610bf5578063994678ea14610c3d5780639a08b33814610ca9578063a16e8b2014610cfa578063a36e657714610d18578063af6a1a9a14610d67578063ba0bba4014610dab578063c4e2665614610dc2578063d0e30db014610e03578063d9fe828614610e21578063da0aedb114610e65578063e1fc887e14610e90578063e5d7bd4f14610eef578063e8364cde14610f74578063eae84a3014610fab578063edf5388614610fc9578063f2fde38b14611020578063f7ad68ed14611063578063f93745f0146110a4578063fc412987146110cf575b600080fd5b34801561026d57600080fd5b5061028f600480360381019080803560ff16906020019092919050505061111a565b6040518082815260200191505060405180910390f35b6102c360048036038101908080359060200190929190505050611132565b005b6102cd61144b565b6040518082815260200191505060405180910390f35b3480156102ef57600080fd5b5061030e600480360381019080803590602001909291905050506116c2565b6040518082815260200191505060405180910390f35b61032c6116da565b6040518082815260200191505060405180910390f35b34801561034e57600080fd5b506103576116eb565b604051808273ffffffffffffffffffffffffffffffffffffffff1673ffffffffffffffffffffffffffffffffffffffff16815260200191505060405180910390f35b3480156103a557600080fd5b506103c460048036038101908080359060200190929190505050611711565b604051808473ffffffffffffffffffffffffffffffffffffffff1673ffffffffffffffffffffffffffffffffffffffff168152602001838152602001828152602001935050505060405180910390f35b34801561042057600080fd5b5061042961176a565b6040518080602001828103825283818151815260200191508051906020019060200280838360005b8381101561046c578082015181840152602081019050610451565b505050509050019250505060405180910390f35b34801561048c57600080fd5b5061049561181f565b6040518082815260200191505060405180910390f35b3480156104b757600080fd5b506104c0611824565b005b3480156104ce57600080fd5b506104ed60048036038101908080359060200190929190505050611991565b60405180848152602001838152602001828152602001935050505060405180910390f35b34801561051d57600080fd5b5061053c60048036038101908080359060200190929190505050611a06565b6040518082815260200191505060405180910390f35b34801561055e57600080fd5b50610580600480360381019080803560ff169060200190929190505050611a1e565b6040518082815260200191505060405180910390f35b3480156105a257600080fd5b506105c160048036038101908080359060200190929190505050611a41565b604051808060200180602001838103835285818151815260200191508051906020019060200280838360005b838110156106085780820151818401526020810190506105ed565b50505050905001838103825284818151815260200191508051906020019060200280838360005b8381101561064a57808201518184015260208101905061062f565b5050505090500194505050505060405180910390f35b34801561066c57600080fd5b5061068b60048036038101908080359060200190929190505050611bf5565b604051808673ffffffffffffffffffffffffffffffffffffffff1673ffffffffffffffffffffffffffffffffffffffff1681526020018581526020018481526020018060200180602001838103835285818151815260200191508051906020019060200280838360005b838110156107105780820151818401526020810190506106f5565b50505050905001838103825284818151815260200191508051906020019060200280838360005b83811015610752578082015181840152602081019050610737565b5050505090500197505050505050505060405180910390f35b34801561077757600080fd5b5061079660048036038101908080359060200190929190505050611d7d565b6040518080602001828103825283818151815260200191508051906020019060200280838360005b838110156107d95780820151818401526020810190506107be565b505050509050019250505060405180910390f35b3480156107f957600080fd5b5061081860048036038101908080359060200190929190505050611e1d565b6040518080602001828103825283818151815260200191508051906020019060200280838360005b8381101561085b578082015181840152602081019050610840565b505050509050019250505060405180910390f35b34801561087b57600080fd5b50610884611e88565b6040518082815260200191505060405180910390f35b6108a2611e93565b6040518082815260200191505060405180910390f35b3480156108c457600080fd5b506108f3600480360381019080803560ff169060200190929190803560ff169060200190929190505050611ea4565b6040518082815260200191505060405180910390f35b34801561091557600080fd5b5061093460048036038101908080359060200190929190505050611eed565b6040518084600381111561094457fe5b60ff1681526020018360ff1660ff168152602001828152602001935050505060405180910390f35b34801561097857600080fd5b506109a7600480360381019080803560ff169060200190929190803560ff169060200190929190505050611f40565b6040518082815260200191505060405180910390f35b3480156109c957600080fd5b50610a02600480360381019080803560ff169060200190929190803560ff16906020019092919080359060200190929190505050611f89565b6040518082815260200191505060405180910390f35b348015610a2457600080fd5b50610a2d611fb3565b6040518082815260200191505060405180910390f35b348015610a4f57600080fd5b50610a5861201a565b604051808260ff1660ff16815260200191505060405180910390f35b348015610a8057600080fd5b50610ab5600480360381019080803573ffffffffffffffffffffffffffffffffffffffff16906020019092919050505061201f565b005b348015610ac357600080fd5b50610acc612176565b604051808273ffffffffffffffffffffffffffffffffffffffff1673ffffffffffffffffffffffffffffffffffffffff16815260200191505060405180910390f35b348015610b1a57600080fd5b50610b396004803603810190808035906020019092919050505061219b565b6040518080602001828103825283818151815260200191508051906020019060200280838360005b83811015610b7c578082015181840152602081019050610b61565b505050509050019250505060405180910390f35b348015610b9c57600080fd5b50610ba56122b2565b604051808260ff1660ff16815260200191505060405180910390f35b610bdf600480360381019080803590602001909291905050506122b7565b6040518082815260200191505060405180910390f35b348015610c0157600080fd5b50610c2060048036038101908080359060200190929190505050612329565b604051808381526020018281526020019250505060405180910390f35b348015610c4957600080fd5b50610c5261235c565b6040518080602001828103825283818151815260200191508051906020019060200280838360005b83811015610c95578082015181840152602081019050610c7a565b505050509050019250505060405180910390f35b348015610cb557600080fd5b50610ce4600480360381019080803560ff169060200190929190803560ff169060200190929190505050612411565b6040518082815260200191505060405180910390f35b610d0261245a565b6040518082815260200191505060405180910390f35b348015610d2457600080fd5b50610d436004803603810190808035906020019092919050505061246b565b60405180848152602001838152602001828152602001935050505060405180910390f35b348015610d7357600080fd5b50610d95600480360381019080803560ff1690602001909291905050506124a4565b6040518082815260200191505060405180910390f35b348015610db757600080fd5b50610dc06126d4565b005b348015610dce57600080fd5b50610ded6004803603810190808035906020019092919050505061277e565b6040518082815260200191505060405180910390f35b610e0b6127b0565b6040518082815260200191505060405180910390f35b348015610e2d57600080fd5b50610e4f600480360381019080803560ff1690602001909291905050506128c5565b6040518082815260200191505060405180910390f35b348015610e7157600080fd5b50610e7a6128dd565b6040518082815260200191505060405180910390f35b348015610e9c57600080fd5b50610ecb600480360381019080803560ff169060200190929190803560ff1690602001909291905050506128e2565b60405180848152602001838152602001828152602001935050505060405180910390f35b348015610efb57600080fd5b50610f1d600480360381019080803560ff169060200190929190505050612919565b6040518080602001828103825283818151815260200191508051906020019060200280838360005b83811015610f60578082015181840152602081019050610f45565b505050509050019250505060405180910390f35b610f95600480360381019080803560ff1690602001909291905050506129e7565b6040518082815260200191505060405180910390f35b610fb3612abb565b6040518082815260200191505060405180910390f35b348015610fd557600080fd5b5061100a600480360381019080803573ffffffffffffffffffffffffffffffffffffffff169060200190929190505050612acc565b6040518082815260200191505060405180910390f35b34801561102c57600080fd5b50611061600480360381019080803573ffffffffffffffffffffffffffffffffffffffff169060200190929190505050612ae4565b005b34801561106f57600080fd5b5061108e60048036038101908080359060200190929190505050612c39565b6040518082815260200191505060405180910390f35b3480156110b057600080fd5b506110b9612c94565b6040518082815260200191505060405180910390f35b3480156110db57600080fd5b506111046004803603810190808035906020019092919080359060200190929190505050612c99565b6040518082815260200191505060405180910390f35b60056020528060005260406000206000915090505481565b600080600080600a8581548110151561114757fe5b906000526020600020906002020193506111868460000160009054906101000a900460ff1660018660000160019054906101000a900460ff1601611ea4565b9250600960003373ffffffffffffffffffffffffffffffffffffffff1673ffffffffffffffffffffffffffffffffffffffff1681526020019081526020016000205491506008828154811015156111d957fe5b9060005260206000209060060201905061133f8160a060405190810160405290816000820160009054906101000a900473ffffffffffffffffffffffffffffffffffffffff1673ffffffffffffffffffffffffffffffffffffffff1673ffffffffffffffffffffffffffffffffffffffff1681526020016001820154815260200160028201548152602001600382018054806020026020016040519081016040528092919081815260200182805480156112b257602002820191906000526020600020905b81548152602001906001019080831161129e575b505050505081526020016004820180548060200260200160405190810160405280929190818152602001828054801561130a57602002820191906000526020600020905b8154815260200190600101908083116112f6575b5050505050815250508560000160009054906101000a900460ff1660018760000160019054906101000a900460ff1601612cc9565b151561134a57600080fd5b611361348260010154612d0c90919063ffffffff16565b8160010181905550611380838260010154612d2d90919063ffffffff16565b816001018190555061139f838260020154612d0c90919063ffffffff16565b81600201819055506113b18482612d4e565b5083600001600181819054906101000a900460ff168092919060010191906101000a81548160ff021916908360ff160217905550507f0a184989a362d23d7f52ce403c138273381c6bd74bb6b10dcce9fa70fd47e722858560000160019054906101000a900460ff1684604051808481526020018360ff1660ff168152602001828152602001935050505060405180910390a15050505050565b6000806000600960003373ffffffffffffffffffffffffffffffffffffffff1673ffffffffffffffffffffffffffffffffffffffff1681526020019081526020016000205414151561149c57600080fd5b6001600860a0604051908101604052803373ffffffffffffffffffffffffffffffffffffffff1681526020013481526020016000815260200160046040519080825280602002602001820160405280156115055781602001602082028038833980820191505090505b508152602001600560405190808252806020026020018201604052801561153b5781602001602082028038833980820191505090505b508152509080600181540180825580915050906001820390600052602060002090600602016000909192909190915060008201518160000160006101000a81548173ffffffffffffffffffffffffffffffffffffffff021916908373ffffffffffffffffffffffffffffffffffffffff160217905550602082015181600101556040820151816002015560608201518160030190805190602001906115e192919061528c565b5060808201518160040190805190602001906115fe92919061528c565b50505003905080600960003373ffffffffffffffffffffffffffffffffffffffff1673ffffffffffffffffffffffffffffffffffffffff168152602001908152602001600020819055507f4f936a96f51e2c2ffe18b6b6f1e4387c6bf1cddeb935d58cab653eb22ead430a813334604051808481526020018373ffffffffffffffffffffffffffffffffffffffff1673ffffffffffffffffffffffffffffffffffffffff168152602001828152602001935050505060405180910390a18091505090565b6000603c8242038115156116d257fe5b049050919050565b60006116e660026129e7565b905090565b600160009054906101000a900473ffffffffffffffffffffffffffffffffffffffff1681565b60088181548110151561172057fe5b90600052602060002090600602016000915090508060000160009054906101000a900473ffffffffffffffffffffffffffffffffffffffff16908060010154908060020154905083565b60606008600960003373ffffffffffffffffffffffffffffffffffffffff1673ffffffffffffffffffffffffffffffffffffffff168152602001908152602001600020548154811015156117ba57fe5b906000526020600020906006020160030180548060200260200160405190810160405280929190818152602001828054801561181557602002820191906000526020600020905b815481526020019060010190808311611801575b5050505050905090565b600f81565b6000806000806000600960003373ffffffffffffffffffffffffffffffffffffffff1673ffffffffffffffffffffffffffffffffffffffff168152602001908152602001600020541415151561187957600080fd5b600960003373ffffffffffffffffffffffffffffffffffffffff1673ffffffffffffffffffffffffffffffffffffffff1681526020019081526020016000205493506008848154811015156118ca57fe5b90600052602060002090600602019250600c6000600960003373ffffffffffffffffffffffffffffffffffffffff1673ffffffffffffffffffffffffffffffffffffffff1681526020019081526020016000205481526020019081526020016000209150600090505b818054905081101561198b5761197d600a838381548110151561195257fe5b906000526020600020015481548110151561196957fe5b906000526020600020906002020184612d4e565b508080600101915050611933565b50505050565b60008060006006848154811015156119a557fe5b9060005260206000209060050201600001546006858154811015156119c657fe5b9060005260206000209060050201600101546006868154811015156119e757fe5b9060005260206000209060050201600201549250925092509193909250565b600b6020528060005260406000206000915090505481565b6000600260008360ff1660ff168152602001908152602001600020549050919050565b606080600060606000600686815481101515611a5957fe5b906000526020600020906005020192508260030180549050604051908082528060200260200182016040528015611a9f5781602001602082028038833980820191505090505b509150600090505b8260030180549050811015611b5c578260040160008460030183815481101515611acd57fe5b9060005260206000200160009054906101000a900473ffffffffffffffffffffffffffffffffffffffff1673ffffffffffffffffffffffffffffffffffffffff1673ffffffffffffffffffffffffffffffffffffffff168152602001908152602001600020548282815181101515611b4157fe5b90602001906020020181815250508080600101915050611aa7565b826003018281805480602002602001604051908101604052809291908181526020018280548015611be257602002820191906000526020600020905b8160009054906101000a900473ffffffffffffffffffffffffffffffffffffffff1673ffffffffffffffffffffffffffffffffffffffff1681526020019060010190808311611b98575b5050505050915094509450505050915091565b6000806000606080611c056152d9565b600887815481101515611c1457fe5b906000526020600020906006020160a060405190810160405290816000820160009054906101000a900473ffffffffffffffffffffffffffffffffffffffff1673ffffffffffffffffffffffffffffffffffffffff1673ffffffffffffffffffffffffffffffffffffffff168152602001600182015481526020016002820154815260200160038201805480602002602001604051908101604052809291908181526020018280548015611ce757602002820191906000526020600020905b815481526020019060010190808311611cd3575b5050505050815260200160048201805480602002602001604051908101604052809291908181526020018280548015611d3f57602002820191906000526020600020905b815481526020019060010190808311611d2b575b505050505081525050905080600001518160200151826040015183606001518460800151819150809050955095509550955095505091939590929450565b6060600482815481101515611d8e57fe5b9060005260206000209060030201600201805480602002602001604051908101604052809291908181526020018280548015611e1157602002820191906000526020600020906000905b82829054906101000a900461ffff1661ffff1681526020019060020190602082600101049283019260010382029150808411611dd85790505b50505050509050919050565b6060600c6000838152602001908152602001600020805480602002602001604051908101604052809291908181526020018280548015611e7c57602002820191906000526020600020905b815481526020019060010190808311611e68575b50505050509050919050565b662386f26fc1000081565b6000611e9f60006129e7565b905090565b600060036000846003811115611eb657fe5b60ff1660ff16815260200190815260200160002060008360ff1660ff16815260200190815260200160002060000154905092915050565b600a81815481101515611efc57fe5b90600052602060002090600202016000915090508060000160009054906101000a900460ff16908060000160019054906101000a900460ff16908060010154905083565b600060036000846003811115611f5257fe5b60ff1660ff16815260200190815260200160002060008360ff1660ff16815260200190815260200160002060020154905092915050565b6000611f958484611f40565b611f9f8585612411565b01611fa9836116c2565b0290509392505050565b60006008600960003373ffffffffffffffffffffffffffffffffffffffff1673ffffffffffffffffffffffffffffffffffffffff1681526020019081526020016000205481548110151561200357fe5b906000526020600020906006020160010154905090565b600781565b6000809054906101000a900473ffffffffffffffffffffffffffffffffffffffff1673ffffffffffffffffffffffffffffffffffffffff163373ffffffffffffffffffffffffffffffffffffffff1614151561207a57600080fd5b600073ffffffffffffffffffffffffffffffffffffffff168173ffffffffffffffffffffffffffffffffffffffff16141515156120b657600080fd5b8073ffffffffffffffffffffffffffffffffffffffff16600160009054906101000a900473ffffffffffffffffffffffffffffffffffffffff1673ffffffffffffffffffffffffffffffffffffffff167f7d28dbfe9b3b0a2416f60ca7bc6f6cd19d476b00cec731d9c37ac02a09613d7360405160405180910390a380600160006101000a81548173ffffffffffffffffffffffffffffffffffffffff021916908373ffffffffffffffffffffffffffffffffffffffff16021790555050565b6000809054906101000a900473ffffffffffffffffffffffffffffffffffffffff1681565b606060006121a761531f565b600091505b60038210156122aa576004828154811015156121c457fe5b90600052602060002090600302016060604051908101604052908160008201548152602001600182015481526020016002820180548060200260200160405190810160405280929190818152602001828054801561226957602002820191906000526020600020906000905b82829054906101000a900461ffff1661ffff16815260200190600201906020826001010492830192600103820291508084116122305790505b50505050508152505090508060000151841015801561228c575080602001518411155b1561229d57806040015192506122ab565b81806001019250506121ac565b5b5050919050565b600781565b600080600880549050831015156122cd57600080fd5b6122d561144b565b90506122e18184612e80565b7fb900dc1fba63117f0809180dec6da68c5bc269d0d8338586b2d57235a0671c138382604051808381526020018281526020019250505060405180910390a180915050919050565b60048181548110151561233857fe5b90600052602060002090600302016000915090508060000154908060010154905082565b60606008600960003373ffffffffffffffffffffffffffffffffffffffff1673ffffffffffffffffffffffffffffffffffffffff168152602001908152602001600020548154811015156123ac57fe5b906000526020600020906006020160040180548060200260200160405190810160405280929190818152602001828054801561240757602002820191906000526020600020905b8154815260200190600101908083116123f3575b5050505050905090565b60006003600084600381111561242357fe5b60ff1660ff16815260200190815260200160002060008360ff1660ff16815260200190815260200160002060010154905092915050565b600061246660016129e7565b905090565b60068181548110151561247a57fe5b90600052602060002090600502016000915090508060000154908060010154908060020154905083565b6000806000600960003373ffffffffffffffffffffffffffffffffffffffff1673ffffffffffffffffffffffffffffffffffffffff16815260200190815260200160002054915073__Math__________________________________637ae2b5c761250e86611a1e565b60088581548110151561251d57fe5b90600052602060002090600602016003018760ff1681548110151561253e57fe5b9060005260206000200154023073ffffffffffffffffffffffffffffffffffffffff16316040518363ffffffff167c0100000000000000000000000000000000000000000000000000000000028152600401808381526020018281526020019250505060206040518083038186803b1580156125b957600080fd5b505af41580156125cd573d6000803e3d6000fd5b505050506040513d60208110156125e357600080fd5b81019080805190602001909291905050509050600060088381548110151561260757fe5b90600052602060002090600602016003018560ff1681548110151561262857fe5b90600052602060002001819055503373ffffffffffffffffffffffffffffffffffffffff166108fc829081150290604051600060405180830381858888f1935050505015801561267c573d6000803e3d6000fd5b507fdef385fd9bc4ede5eab81b236ae5ae807f524e23733877f374ab4c709179a2d9828583604051808481526020018360ff1660ff168152602001828152602001935050505060405180910390a18092505050919050565b6000809054906101000a900473ffffffffffffffffffffffffffffffffffffffff1673ffffffffffffffffffffffffffffffffffffffff163373ffffffffffffffffffffffffffffffffffffffff1614151561272f57600080fd5b60001515600760009054906101000a900460ff16151514151561275157600080fd5b6001600760006101000a81548160ff021916908315150217905550612774613027565b61277c613e2e565b565b60006127a9600a8381548110151561279257fe5b9060005260206000209060020201600101546116c2565b9050919050565b600080600960003373ffffffffffffffffffffffffffffffffffffffff1673ffffffffffffffffffffffffffffffffffffffff1681526020019081526020016000205490506128283460088381548110151561280857fe5b906000526020600020906006020160010154612d0c90919063ffffffff16565b60088281548110151561283757fe5b9060005260206000209060060201600101819055506128553461434b565b61285f33346143c6565b7fa3af609bf46297028ce551832669030f9effef2b02606d02cbbcc40fe6b47c558134604051808381526020018281526020019250505060405180910390a16008818154811015156128ad57fe5b90600052602060002090600602016001015491505090565b60026020528060005260406000206000915090505481565b600381565b6003602052816000526040600020602052806000526040600020600091509150508060000154908060010154908060020154905083565b60606008600960003373ffffffffffffffffffffffffffffffffffffffff1673ffffffffffffffffffffffffffffffffffffffff1681526020019081526020016000205481548110151561296957fe5b906000526020600020906006020160050160008360ff1660ff1681526020019081526020016000208054806020026020016040519081016040528092919081815260200182805480156129db57602002820191906000526020600020905b8154815260200190600101908083116129c7575b50505050509050919050565b600080600960003373ffffffffffffffffffffffffffffffffffffffff1673ffffffffffffffffffffffffffffffffffffffff1681526020019081526020016000205490506000600960003373ffffffffffffffffffffffffffffffffffffffff1673ffffffffffffffffffffffffffffffffffffffff168152602001908152602001600020541415612a7f57612a7c61144b565b90505b612ab381606060405190810160405280866003811115612a9b57fe5b8152602001600060ff168152602001428152506143f6565b915050919050565b6000612ac760036129e7565b905090565b60096020528060005260406000206000915090505481565b6000809054906101000a900473ffffffffffffffffffffffffffffffffffffffff1673ffffffffffffffffffffffffffffffffffffffff163373ffffffffffffffffffffffffffffffffffffffff16141515612b3f57600080fd5b600073ffffffffffffffffffffffffffffffffffffffff168173ffffffffffffffffffffffffffffffffffffffff1614151515612b7b57600080fd5b8073ffffffffffffffffffffffffffffffffffffffff166000809054906101000a900473ffffffffffffffffffffffffffffffffffffffff1673ffffffffffffffffffffffffffffffffffffffff167f8be0079c531659141344cd1fd0a4f28419497f9722a3daafe3b4186f6b6457e060405160405180910390a3806000806101000a81548173ffffffffffffffffffffffffffffffffffffffff021916908373ffffffffffffffffffffffffffffffffffffffff16021790555050565b600080600a83815481101515612c4b57fe5b90600052602060002090600202019050612c8c8160000160009054906101000a900460ff168260000160019054906101000a900460ff168360010154611f89565b915050919050565b600581565b600c60205281600052604060002081815481101515612cb457fe5b90600052602060002001600091509150505481565b600080612ce3348660200151612d0c90919063ffffffff16565b9050612cef8484611ea4565b811015612cff5760009150612d04565b600191505b509392505050565b6000808284019050838110151515612d2357600080fd5b8091505092915050565b600080838311151515612d3f57600080fd5b82840390508091505092915050565b600080612d828460000160009054906101000a900460ff168560000160019054906101000a900460ff168660010154611f89565b9050612dd181846003018660000160009054906101000a900460ff166003811115612da957fe5b60ff16815481101515612db857fe5b9060005260206000200154612d0c90919063ffffffff16565b836003018560000160009054906101000a900460ff166003811115612df257fe5b60ff16815481101515612e0157fe5b90600052602060002001819055504284600101819055507f5dc5b82e66c5dcc43c01835de9ee74f6380209b673fbdd18668826fc898c66b18460000160009054906101000a900460ff168260405180836003811115612e5c57fe5b60ff1681526020018281526020019250505060405180910390a18091505092915050565b60008082841415612e9057613021565b82600885815481101515612ea057fe5b90600052602060002090600602016004016000815481101515612ebf57fe5b9060005260206000200181905550600191505b6005821015612fc257600883815481101515612eea57fe5b906000526020600020906006020160040160018303815481101515612f0b57fe5b9060005260206000200154905080600885815481101515612f2857fe5b906000526020600020906006020160040183815481101515612f4657fe5b9060005260206000200181905550600881815481101515612f6357fe5b906000526020600020906006020160050160008360ff1660ff1681526020019081526020016000208490806001815401808255809150509060018203906000526020600020016000909192909190915055508180600101925050612ed2565b600883815481101515612fd157fe5b906000526020600020906006020160050160008060ff1681526020019081526020016000208490806001815401808255809150509060018203906000526020600020016000909192909190915055505b50505050565b606060405190810160405280662386f26fc100008152602001600a815260200160008152506003600080600381111561305c57fe5b60ff1660ff16815260200190815260200160002060008060ff16815260200190815260200160002060008201518160000155602082015181600101556040820151816002015590505060606040519081016040528066470de4df8200008152602001600c8152602001600081525060036000600160038111156130db57fe5b60ff1660ff16815260200190815260200160002060008060ff168152602001908152602001600020600082015181600001556020820151816001015560408201518160020155905050606060405190810160405280666a94d74f4300008152602001600e81526020016000815250600360006002600381111561315a57fe5b60ff1660ff16815260200190815260200160002060008060ff168152602001908152602001600020600082015181600001556020820151816001015560408201518160020155905050606060405190810160405280668e1bc9bf0400008152602001601081526020016000815250600360006003808111156131d857fe5b60ff1660ff16815260200190815260200160002060008060ff16815260200190815260200160002060008201518160000155602082015181600101556040820151816002015590505060606040519081016040528066b1a2bc2ec5000081526020016014815260200160018152506003600080600381111561325657fe5b60ff1660ff1681526020019081526020016000206000600160ff16815260200190815260200160002060008201518160000155602082015181600101556040820151816002015590505060606040519081016040528067016345785d8a0000815260200160168152602001600281525060036000600160038111156132d757fe5b60ff1660ff1681526020019081526020016000206000600160ff168152602001908152602001600020600082015181600001556020820151816001015560408201518160020155905050606060405190810160405280670214e8348c4f00008152602001601881526020016003815250600360006002600381111561335857fe5b60ff1660ff1681526020019081526020016000206000600160ff1681526020019081526020016000206000820151816000015560208201518160010155604082015181600201559050506060604051908101604052806702c68af0bb1400008152602001601a81526020016004815250600360006003808111156133d857fe5b60ff1660ff1681526020019081526020016000206000600160ff16815260200190815260200160002060008201518160000155602082015181600101556040820151816002015590505060606040519081016040528067016345785d8a00008152602001601e815260200160028152506003600080600381111561345857fe5b60ff1660ff1681526020019081526020016000206000600260ff1681526020019081526020016000206000820151816000015560208201518160010155604082015181600201559050506060604051908101604052806702c68af0bb140000815260200160208152602001600381525060036000600160038111156134d957fe5b60ff1660ff1681526020019081526020016000206000600260ff168152602001908152602001600020600082015181600001556020820151816001015560408201518160020155905050606060405190810160405280670429d069189e00008152602001602281526020016004815250600360006002600381111561355a57fe5b60ff1660ff1681526020019081526020016000206000600260ff16815260200190815260200160002060008201518160000155602082015181600101556040820151816002015590505060606040519081016040528067058d15e1762800008152602001602481526020016005815250600360006003808111156135da57fe5b60ff1660ff1681526020019081526020016000206000600260ff1681526020019081526020016000206000820151816000015560208201518160010155604082015181600201559050506060604051908101604052806702c68af0bb14000081526020016028815260200160038152506003600080600381111561365a57fe5b60ff1660ff1681526020019081526020016000206000600360ff16815260200190815260200160002060008201518160000155602082015181600101556040820151816002015590505060606040519081016040528067058d15e1762800008152602001602a8152602001600481525060036000600160038111156136db57fe5b60ff1660ff1681526020019081526020016000206000600360ff168152602001908152602001600020600082015181600001556020820151816001015560408201518160020155905050606060405190810160405280670853a0d2313c00008152602001602c81526020016005815250600360006002600381111561375c57fe5b60ff1660ff1681526020019081526020016000206000600360ff168152602001908152602001600020600082015181600001556020820151816001015560408201518160020155905050606060405190810160405280670b1a2bc2ec5000008152602001602e81526020016006815250600360006003808111156137dc57fe5b60ff1660ff1681526020019081526020016000206000600360ff16815260200190815260200160002060008201518160000155602082015181600101556040820151816002015590505060606040519081016040528067058d15e17628000081526020016032815260200160048152506003600080600381111561385c57fe5b60ff1660ff1681526020019081526020016000206000600460ff168152602001908152602001600020600082015181600001556020820151816001015560408201518160020155905050606060405190810160405280670b1a2bc2ec500000815260200160348152602001600581525060036000600160038111156138dd57fe5b60ff1660ff1681526020019081526020016000206000600460ff1681526020019081526020016000206000820151816000015560208201518160010155604082015181600201559050506060604051908101604052806710a741a4627800008152602001603681526020016006815250600360006002600381111561395e57fe5b60ff1660ff1681526020019081526020016000206000600460ff1681526020019081526020016000206000820151816000015560208201518160010155604082015181600201559050506060604051908101604052806716345785d8a000008152602001603881526020016007815250600360006003808111156139de57fe5b60ff1660ff1681526020019081526020016000206000600460ff168152602001908152602001600020600082015181600001556020820151816001015560408201518160020155905050606060405190810160405280670b1a2bc2ec5000008152602001603c8152602001600581525060036000806003811115613a5e57fe5b60ff1660ff1681526020019081526020016000206000600560ff1681526020019081526020016000206000820151816000015560208201518160010155604082015181600201559050506060604051908101604052806716345785d8a000008152602001603e815260200160068152506003600060016003811115613adf57fe5b60ff1660ff1681526020019081526020016000206000600560ff16815260200190815260200160002060008201518160000155602082015181600101556040820151816002015590505060606040519081016040528067214e8348c4f0000081526020016040815260200160078152506003600060026003811115613b6057fe5b60ff1660ff1681526020019081526020016000206000600560ff168152602001908152602001600020600082015181600001556020820151816001015560408201518160020155905050606060405190810160405280672c68af0bb1400000815260200160428152602001600881525060036000600380811115613be057fe5b60ff1660ff1681526020019081526020016000206000600560ff1681526020019081526020016000206000820151816000015560208201518160010155604082015181600201559050506060604051908101604052806716345785d8a00000815260200160468152602001600681525060036000806003811115613c6057fe5b60ff1660ff1681526020019081526020016000206000600660ff168152602001908152602001600020600082015181600001556020820151816001015560408201518160020155905050606060405190810160405280672c68af0bb140000081526020016048815260200160078152506003600060016003811115613ce157fe5b60ff1660ff1681526020019081526020016000206000600660ff16815260200190815260200160002060008201518160000155602082015181600101556040820151816002015590505060606040519081016040528067429d069189e000008152602001604a815260200160088152506003600060026003811115613d6257fe5b60ff1660ff1681526020019081526020016000206000600660ff1681526020019081526020016000206000820151816000015560208201518160010155604082015181600201559050506060604051908101604052806758d15e17628000008152602001604c8152602001600981525060036000600380811115613de257fe5b60ff1660ff1681526020019081526020016000206000600660ff168152602001908152602001600020600082015181600001556020820151816001015560408201518160020155905050565b613e3661531f565b613e3e61531f565b613e4661531f565b606060405190810160405280662386f26fc100008152602001678ac7230489e7ffff81526020016005604051908082528060200260200182016040528015613e9d5781602001602082028038833980820191505090505b50815250925061012c83604001516000815181101515613eb957fe5b9060200190602002019061ffff16908161ffff1681525050604b83604001516001815181101515613ee657fe5b9060200190602002019061ffff16908161ffff1681525050603c83604001516002815181101515613f1357fe5b9060200190602002019061ffff16908161ffff1681525050602883604001516003815181101515613f4057fe5b9060200190602002019061ffff16908161ffff1681525050601983604001516004815181101515613f6d57fe5b9060200190602002019061ffff16908161ffff16815250506004839080600181540180825580915050906001820390600052602060002090600302016000909192909190915060008201518160000155602082015181600101556040820151816002019080519060200190613fe3929190615341565b50505050606060405190810160405280678ac7230489e8000081526020016802b5e3af16b187ffff815260200160056040519080825280602002602001820160405280156140405781602001602082028038833980820191505090505b5081525091506101f48260400151600081518110151561405c57fe5b9060200190602002019061ffff16908161ffff168152505060c88260400151600181518110151561408957fe5b9060200190602002019061ffff16908161ffff16815250506096826040015160028151811015156140b657fe5b9060200190602002019061ffff16908161ffff16815250506064826040015160038151811015156140e357fe5b9060200190602002019061ffff16908161ffff168152505060328260400151600481518110151561411057fe5b9060200190602002019061ffff16908161ffff16815250506004829080600181540180825580915050906001820390600052602060002090600302016000909192909190915060008201518160000155602082015181600101556040820151816002019080519060200190614186929190615341565b505050506060604051908101604052806802b5e3af16b188000081526020017fffffffffffffffffffffffffffffffffffffffffffffffffffffffffffffffff815260200160056040519080825280602002602001820160405280156141fb5781602001602082028038833980820191505090505b5081525090506102bc8160400151600081518110151561421757fe5b9060200190602002019061ffff16908161ffff168152505061012c8160400151600181518110151561424557fe5b9060200190602002019061ffff16908161ffff168152505060fa8160400151600281518110151561427257fe5b9060200190602002019061ffff16908161ffff168152505060968160400151600381518110151561429f57fe5b9060200190602002019061ffff16908161ffff16815250506064816040015160048151811015156142cc57fe5b9060200190602002019061ffff16908161ffff16815250506004819080600181540180825580915050906001820390600052602060002090600302016000909192909190915060008201518160000155602082015181600101556040820151816002019080519060200190614342929190615341565b50505050505050565b600160009054906101000a900473ffffffffffffffffffffffffffffffffffffffff1673ffffffffffffffffffffffffffffffffffffffff166108fc6064600f340281151561439657fe5b049081150290604051600060405180830381858888f193505050501580156143c2573d6000803e3d6000fd5b5050565b60008090505b6006805490508110156143f1576143e4818484614731565b80806001019150506143cc565b505050565b60008060008060088681548110151561440b57fe5b906000526020600020906006020192506145548360a060405190810160405290816000820160009054906101000a900473ffffffffffffffffffffffffffffffffffffffff1673ffffffffffffffffffffffffffffffffffffffff1673ffffffffffffffffffffffffffffffffffffffff1681526020016001820154815260200160028201548152602001600382018054806020026020016040519081016040528092919081815260200182805480156144e457602002820191906000526020600020905b8154815260200190600101908083116144d0575b505050505081526020016004820180548060200260200160405190810160405280929190818152602001828054801561453c57602002820191906000526020600020905b815481526020019060010190808311614528575b50505050508152505086600001518760200151612cc9565b151561455f57600080fd5b61456a600080611ea4565b9150614583348460010154612d0c90919063ffffffff16565b83600101819055506145a2828460010154612d2d90919063ffffffff16565b83600101819055506145c1828460020154612d0c90919063ffffffff16565b83600201819055506001600a869080600181540180825580915050906001820390600052602060002090600202016000909192909190915060008201518160000160006101000a81548160ff0219169083600381111561461d57fe5b021790555060208201518160000160016101000a81548160ff021916908360ff16021790555060408201518160010155505003905085600b600083815260200190815260200160002081905550600c60008781526020019081526020016000208190806001815401808255809150509060018203906000526020600020016000909192909190915055506146b03461434b565b6146ba8683614f42565b6146c433346143c6565b7f8f59dce00c1ab7202394532f1ca472fd1968974b94e346f4bb01270676cbe89686828760000151856040518085815260200184815260200183600381111561470957fe5b60ff16815260200182815260200194505050505060405180910390a180935050505092915050565b6000806000806000606060008060008060068d81548110151561475057fe5b906000526020600020906005020160000154421115614773576147728d615171565b5b60068d81548110151561478257fe5b906000526020600020906005020199508960030198506147ec8b8b60040160008f73ffffffffffffffffffffffffffffffffffffffff1673ffffffffffffffffffffffffffffffffffffffff16815260200190815260200160002054612d0c90919063ffffffff16565b9750878a60040160008e73ffffffffffffffffffffffffffffffffffffffff1673ffffffffffffffffffffffffffffffffffffffff16815260200190815260200160002081905550896002015488101561484557614f33565b73__Math__________________________________637ae2b5c760018b805490500160076040518363ffffffff167c0100000000000000000000000000000000000000000000000000000000028152600401808381526020018260ff1681526020019250505060206040518083038186803b1580156148c357600080fd5b505af41580156148d7573d6000803e3d6000fd5b505050506040513d60208110156148ed57600080fd5b8101908080519060200190929190505050965060009550866040519080825280602002602001820160405280156149335781602001602082028038833980820191505090505b5094506000935060009250600091505b86821015614e7d57819050831561496d57808060019003915050821561496c5780806001019150505b5b6000898381548110151561497d57fe5b9060005260206000200160009054906101000a900473ffffffffffffffffffffffffffffffffffffffff1673ffffffffffffffffffffffffffffffffffffffff161415614b2b57831515614a9a57600193508b85878151811015156149de57fe5b9060200190602002019073ffffffffffffffffffffffffffffffffffffffff16908173ffffffffffffffffffffffffffffffffffffffff16815250507fbd3bef4119f7e7b91bc2fa8eed6d40200c45e56c56baf269caf281361e7c47608d8d888b604051808581526020018473ffffffffffffffffffffffffffffffffffffffff1673ffffffffffffffffffffffffffffffffffffffff16815260200183815260200182815260200194505050505060405180910390a1614b1e565b8881815481101515614aa857fe5b9060005260206000200160009054906101000a900473ffffffffffffffffffffffffffffffffffffffff168587815181101515614ae157fe5b9060200190602002019073ffffffffffffffffffffffffffffffffffffffff16908173ffffffffffffffffffffffffffffffffffffffff16815250505b8580600101965050614e7d565b8882815481101515614b3957fe5b9060005260206000200160009054906101000a900473ffffffffffffffffffffffffffffffffffffffff1673ffffffffffffffffffffffffffffffffffffffff168c73ffffffffffffffffffffffffffffffffffffffff161415614c89578315614c3457600192508860018303815481101515614bb257fe5b9060005260206000200160009054906101000a900473ffffffffffffffffffffffffffffffffffffffff168587815181101515614beb57fe5b9060200190602002019073ffffffffffffffffffffffffffffffffffffffff16908173ffffffffffffffffffffffffffffffffffffffff16815250508580600101965050614c84565b600193508b8587815181101515614c4757fe5b9060200190602002019073ffffffffffffffffffffffffffffffffffffffff16908173ffffffffffffffffffffffffffffffffffffffff16815250505b614e70565b8960040160008a84815481101515614c9d57fe5b9060005260206000200160009054906101000a900473ffffffffffffffffffffffffffffffffffffffff1673ffffffffffffffffffffffffffffffffffffffff1673ffffffffffffffffffffffffffffffffffffffff1681526020019081526020016000205488118015614d0f575083155b15614de357600193508b8587815181101515614d2757fe5b9060200190602002019073ffffffffffffffffffffffffffffffffffffffff16908173ffffffffffffffffffffffffffffffffffffffff16815250507fbd3bef4119f7e7b91bc2fa8eed6d40200c45e56c56baf269caf281361e7c47608d8d888b604051808581526020018473ffffffffffffffffffffffffffffffffffffffff1673ffffffffffffffffffffffffffffffffffffffff16815260200183815260200182815260200194505050505060405180910390a1614e67565b8881815481101515614df157fe5b9060005260206000200160009054906101000a900473ffffffffffffffffffffffffffffffffffffffff168587815181101515614e2a57fe5b9060200190602002019073ffffffffffffffffffffffffffffffffffffffff16908173ffffffffffffffffffffffffffffffffffffffff16815250505b85806001019650505b8180600101925050614943565b868210158015614e8a5750835b15614f19578860018803815481101515614ea057fe5b9060005260206000200160009054906101000a900473ffffffffffffffffffffffffffffffffffffffff168560018903815181101515614edc57fe5b9060200190602002019073ffffffffffffffffffffffffffffffffffffffff16908173ffffffffffffffffffffffffffffffffffffffff16815250505b848a6003019080519060200190614f319291906153eb565b505b50505050505050505050505050565b606080600080662386f26fc10000600887815481101515614f5f57fe5b9060005260206000209060060201600201541015614f7c57615169565b600886815481101515614f8b57fe5b9060005260206000209060060201600401805480602002602001604051908101604052809291908181526020018280548015614fe657602002820191906000526020600020905b815481526020019060010190808311614fd2575b50505050509350615016600887815481101515614fff57fe5b90600052602060002090600602016002015461219b565b9250600091505b6005821015615168576000848381518110151561503657fe5b90602001906020020151141561504b57615168565b612710838381518110151561505c57fe5b9060200190602002015161ffff16860281151561507557fe5b0490506150c2816008868581518110151561508c57fe5b906020019060200201518154811015156150a257fe5b906000526020600020906006020160010154612d0c90919063ffffffff16565b600885848151811015156150d257fe5b906020019060200201518154811015156150e857fe5b9060005260206000209060060201600101819055507f211f658fbe3faa22f0ca8b56ad45888186f5bd0737b447cea43e6a0894b3301086858481518110151561512d57fe5b906020019060200201518360405180848152602001838152602001828152602001935050505060405180910390a1818060010192505061501d565b5b505050505050565b600060068281548110151561518257fe5b90600052602060002090600502019050608060405190810160405280826001015483600001540181526020018260010154815260200160008152602001600760ff166040519080825280602002602001820160405280156151f25781602001602082028038833980820191505090505b5081525060068381548110151561520557fe5b9060005260206000209060050201600082015181600001556020820151816001015560408201518160020155606082015181600301908051906020019061524d929190615475565b509050507f7cce3b409f5d6aca017a29bcb7332d4626c08cc76a25438953274f45723716c6826040518082815260200191505060405180910390a15050565b8280548282559060005260206000209081019282156152c8579160200282015b828111156152c75782518255916020019190600101906152ac565b5b5090506152d591906154ff565b5090565b60a060405190810160405280600073ffffffffffffffffffffffffffffffffffffffff168152602001600081526020016000815260200160608152602001606081525090565b6060604051908101604052806000815260200160008152602001606081525090565b82805482825590600052602060002090600f016010900481019282156153da5791602002820160005b838211156153aa57835183826101000a81548161ffff021916908361ffff160217905550926020019260020160208160010104928301926001030261536a565b80156153d85782816101000a81549061ffff02191690556002016020816001010492830192600103026153aa565b505b5090506153e79190615524565b5090565b828054828255906000526020600020908101928215615464579160200282015b828111156154635782518260006101000a81548173ffffffffffffffffffffffffffffffffffffffff021916908373ffffffffffffffffffffffffffffffffffffffff1602179055509160200191906001019061540b565b5b5090506154719190615555565b5090565b8280548282559060005260206000209081019282156154ee579160200282015b828111156154ed5782518260006101000a81548173ffffffffffffffffffffffffffffffffffffffff021916908373ffffffffffffffffffffffffffffffffffffffff16021790555091602001919060010190615495565b5b5090506154fb9190615555565b5090565b61552191905b8082111561551d576000816000905550600101615505565b5090565b90565b61555291905b8082111561554e57600081816101000a81549061ffff02191690555060010161552a565b5090565b90565b61559591905b8082111561559157600081816101000a81549073ffffffffffffffffffffffffffffffffffffffff02191690555060010161555b565b5090565b905600a165627a7a72305820decf990f30a9724018d682a760b0bef99e772d163442b8c39319658371afb5c60029",
  "source": "pragma solidity ^0.4.24;\n\n/*\n*__/\\\\\\\\____________/\\\\\\\\________________/\\\\\\\\____________/\\\\\\\\________/\\\\\\\\\\\\_____/\\\\\\\\\\\\___________________________________________________\n* _\\/\\\\\\\\\\\\________/\\\\\\\\\\\\_______________\\/\\\\\\\\\\\\________/\\\\\\\\\\\\_______\\////\\\\\\____\\////\\\\\\___________________________________________________\n*  _\\/\\\\\\//\\\\\\____/\\\\\\//\\\\\\____/\\\\\\__/\\\\\\_\\/\\\\\\//\\\\\\____/\\\\\\//\\\\\\__/\\\\\\____\\/\\\\\\_______\\/\\\\\\_____/\\\\\\__________________________________________\n*   _\\/\\\\\\\\///\\\\\\/\\\\\\/_\\/\\\\\\___\\//\\\\\\/\\\\\\__\\/\\\\\\\\///\\\\\\/\\\\\\/_\\/\\\\\\_\\///_____\\/\\\\\\_______\\/\\\\\\____\\///______/\\\\\\\\\\_____/\\\\/\\\\\\\\\\\\____/\\\\\\\\\\\\\\\\\\\\_\n*    _\\/\\\\\\__\\///\\\\\\/___\\/\\\\\\____\\//\\\\\\\\\\___\\/\\\\\\__\\///\\\\\\/___\\/\\\\\\__/\\\\\\____\\/\\\\\\_______\\/\\\\\\_____/\\\\\\___/\\\\\\///\\\\\\__\\/\\\\\\////\\\\\\__\\/\\\\\\//////__\n*     _\\/\\\\\\____\\///_____\\/\\\\\\_____\\//\\\\\\____\\/\\\\\\____\\///_____\\/\\\\\\_\\/\\\\\\____\\/\\\\\\_______\\/\\\\\\____\\/\\\\\\__/\\\\\\__\\//\\\\\\_\\/\\\\\\__\\//\\\\\\_\\/\\\\\\\\\\\\\\\\\\\\_\n*      _\\/\\\\\\_____________\\/\\\\\\__/\\\\_/\\\\\\_____\\/\\\\\\_____________\\/\\\\\\_\\/\\\\\\____\\/\\\\\\_______\\/\\\\\\____\\/\\\\\\_\\//\\\\\\__/\\\\\\__\\/\\\\\\___\\/\\\\\\_\\////////\\\\\\_\n*       _\\/\\\\\\_____________\\/\\\\\\_\\//\\\\\\\\/______\\/\\\\\\_____________\\/\\\\\\_\\/\\\\\\__/\\\\\\\\\\\\\\\\\\__/\\\\\\\\\\\\\\\\\\_\\/\\\\\\__\\///\\\\\\\\\\/___\\/\\\\\\___\\/\\\\\\__/\\\\\\\\\\\\\\\\\\\\_\n*        _\\///______________\\///___\\////________\\///______________\\///__\\///__\\/////////__\\/////////__\\///_____\\/////_____\\///____\\///__\\//////////__\n*/\n\nimport \"./Math.sol\";\nimport \"./Ownable.sol\";\nimport \"./LeaderSystem.sol\";\nimport \"./SafeMath.sol\";\n\ncontract Factoring {\n\n    enum FactoryType { Wood, Metal, Oil, PreciousMetal }\n\n    mapping (uint8 => uint256) public resourcePrices;\n\n    function setupFactoringModule() internal {\n        resourcePrices[uint8(FactoryType.Wood)]         = 0.1 ether;\n        resourcePrices[uint8(FactoryType.Metal)]        = 0.2 ether;\n        resourcePrices[uint8(FactoryType.Oil)]          = 0.3 ether;\n        resourcePrices[uint8(FactoryType.PreciousMetal)]= 0.4 ether;\n    }\n\n    function getResourcePrice(uint8 _type) public view returns(uint256) {\n        return resourcePrices[_type];\n    }\n\n}\n\ncontract Improvements is Factoring {\n\n    mapping (uint8 => mapping (uint8 => Params)) public levelStack;\n    uint8 public constant levelsCount = 7;\n\n    struct Params {\n        uint256 price;      // improvements cost\n        uint256 ppm;        // products per minute\n        uint256 ppmBonus;   // bonus per minute\n    }\n\n    function setupFactoringModule() internal {\n        // initial pricess\n        levelStack[uint8(FactoryType.Wood)][0]          = Params(0.01 ether, 10, 0);\n        levelStack[uint8(FactoryType.Metal)][0]         = Params(0.02 ether, 12, 0);\n        levelStack[uint8(FactoryType.Oil)][0]           = Params(0.03 ether, 14, 0);\n        levelStack[uint8(FactoryType.PreciousMetal)][0] = Params(0.04 ether, 16, 0);\n\n        // level 1\n        levelStack[uint8(FactoryType.Wood)][1]          = Params(0.05 ether, 20, 1);\n        levelStack[uint8(FactoryType.Metal)][1]         = Params(0.10 ether, 22, 2);\n        levelStack[uint8(FactoryType.Oil)][1]           = Params(0.15 ether, 24, 3);\n        levelStack[uint8(FactoryType.PreciousMetal)][1] = Params(0.20 ether, 26, 4);\n\n        // level 2\n        levelStack[uint8(FactoryType.Wood)][2]          = Params(0.10 ether, 30, 2);\n        levelStack[uint8(FactoryType.Metal)][2]         = Params(0.20 ether, 32, 3);\n        levelStack[uint8(FactoryType.Oil)][2]           = Params(0.30 ether, 34, 4);\n        levelStack[uint8(FactoryType.PreciousMetal)][2] = Params(0.40 ether, 36, 5);\n\n        // level 3\n        levelStack[uint8(FactoryType.Wood)][3]          = Params(0.2 ether, 40, 3);\n        levelStack[uint8(FactoryType.Metal)][3]         = Params(0.4 ether, 42, 4);\n        levelStack[uint8(FactoryType.Oil)][3]           = Params(0.6 ether, 44, 5);\n        levelStack[uint8(FactoryType.PreciousMetal)][3] = Params(0.8 ether, 46, 6);\n\n        // level 4\n        levelStack[uint8(FactoryType.Wood)][4]          = Params(0.4 ether, 50, 4);\n        levelStack[uint8(FactoryType.Metal)][4]         = Params(0.8 ether, 52, 5);\n        levelStack[uint8(FactoryType.Oil)][4]           = Params(1.2 ether, 54, 6);\n        levelStack[uint8(FactoryType.PreciousMetal)][4] = Params(1.6 ether, 56, 7);\n\n        // level 5\n        levelStack[uint8(FactoryType.Wood)][5]          = Params(0.8 ether, 60, 5);\n        levelStack[uint8(FactoryType.Metal)][5]         = Params(1.6 ether, 62, 6);\n        levelStack[uint8(FactoryType.Oil)][5]           = Params(2.4 ether, 64, 7);\n        levelStack[uint8(FactoryType.PreciousMetal)][5] = Params(3.2 ether, 66, 8);\n\n        // level 6\n        levelStack[uint8(FactoryType.Wood)][6]          = Params(1.6 ether, 70, 6);\n        levelStack[uint8(FactoryType.Metal)][6]         = Params(3.2 ether, 72, 7);\n        levelStack[uint8(FactoryType.Oil)][6]           = Params(4.8 ether, 74, 8);\n        levelStack[uint8(FactoryType.PreciousMetal)][6] = Params(6.4 ether, 76, 9);\n    }\n\n    function getPrice(FactoryType _type, uint8 _level) public view returns(uint256) {\n        return levelStack[uint8(_type)][_level].price;\n    }\n\n    function getProductsPerMinute(FactoryType _type, uint8 _level) public view returns(uint256) {\n        return levelStack[uint8(_type)][_level].ppm;\n    }\n\n    function getBonusPerMinute(FactoryType _type, uint8 _level) public view returns(uint256) {\n        return levelStack[uint8(_type)][_level].ppmBonus;\n    }\n}\n\ncontract ReferralsSystem {\n\n    struct ReferralGroup {\n        uint256 minSum;\n        uint256 maxSum;\n        uint16[] percents;\n    }\n\n    uint256 public constant minSumReferral = 0.01 ether;\n    uint256 public constant referralLevelsGroups = 3;\n    uint256 public constant referralLevelsCount = 5;\n    ReferralGroup[] public referralGroups;\n\n    function setupReferralsSystemModule() internal {\n        ReferralGroup memory refGroupFirsty = ReferralGroup(minSumReferral, 10 ether - 1 wei, new uint16[](referralLevelsCount));\n        refGroupFirsty.percents[0] = 300;   // 3%\n        refGroupFirsty.percents[1] = 75;    // 0.75%\n        refGroupFirsty.percents[2] = 60;    // 0.6%\n        refGroupFirsty.percents[3] = 40;    // 0.4%\n        refGroupFirsty.percents[4] = 25;    // 0.25%\n        referralGroups.push(refGroupFirsty);\n\n        ReferralGroup memory refGroupLoyalty = ReferralGroup(10 ether, 50 ether - 1 wei, new uint16[](referralLevelsCount));\n        refGroupLoyalty.percents[0] = 500;  // 5%\n        refGroupLoyalty.percents[1] = 200;  // 2%\n        refGroupLoyalty.percents[2] = 150;  // 1.5%\n        refGroupLoyalty.percents[3] = 100;  // 1%\n        refGroupLoyalty.percents[4] = 50;   // 0.5%\n        referralGroups.push(refGroupLoyalty);\n\n        ReferralGroup memory refGroupUltraPremium = ReferralGroup(50 ether, 2**256 - 1, new uint16[](referralLevelsCount));\n        refGroupUltraPremium.percents[0] = 700; // 7%\n        refGroupUltraPremium.percents[1] = 300; // 3%\n        refGroupUltraPremium.percents[2] = 250; // 2.5%\n        refGroupUltraPremium.percents[3] = 150; // 1.5%\n        refGroupUltraPremium.percents[4] = 100; // 1%\n        referralGroups.push(refGroupUltraPremium);\n    }\n\n    function getReferralPercents(uint256 _sum) public view returns(uint16[]) {\n        for (uint i = 0; i < referralLevelsGroups; i++) {\n            ReferralGroup memory group = referralGroups[i];\n            if (_sum >= group.minSum && _sum <= group.maxSum) return group.percents;\n        }\n    }\n\n    function getReferralPercentsByIndex(uint256 _index) public view returns(uint16[]) {\n        return referralGroups[_index].percents;\n    }\n\n}\n\n/// @title Smart-contract of MyMillions ecosystem\n/// @author Shagaleev Alexey\ncontract MyMillions is Ownable, Improvements, ReferralsSystem, LeaderSystem {\n    using SafeMath for uint256;\n\n    event CreateUser(uint256 _index, address _address, uint256 _balance);\n    event ReferralRegister(uint256 _refferalId, uint256 _userId);\n    event ReferrerDistribute(uint256 _userId, uint256 _referrerId, uint256 _sum);\n    event Deposit(uint256 _userId, uint256 _value);\n    event PaymentProceed(uint256 _userId, uint256 _factoryId, FactoryType _factoryType, uint256 _price);\n    event CollectResources(FactoryType _type, uint256 _resources);\n    event LevelUp(uint256 _factoryId, uint8 _newLevel, uint256 _userId);\n    event Sell(uint256 _userId, uint8 _type, uint256 _sum);\n\n    bool isSetted = false;\n\n    struct User {\n        address addr;                                   // user address\n        uint256 balance;                                // balance of account\n        uint256 totalPay;                               // sum of all input pay\n        uint256[] resources;                            // collected resources\n        uint256[] referrersByLevel;                     // referrers user ids\n        mapping (uint8 => uint256[]) referralsByLevel;  // all referrals user ids\n    }\n\n    User[] public users;\n    mapping (address => uint256) public addressToUser;\n\n    struct Factory {\n        FactoryType ftype;  // factory type\n        uint8 level;        // factory level\n        uint256 collected_at; // timestamp updated\n    }\n\n    Factory[] public factories;\n    mapping (uint256 => uint256) public factoryToUser;\n    mapping (uint256 => uint256[]) public userToFactories;\n\n    modifier onlyExistingUser() {\n        require(addressToUser[msg.sender] != 0);\n        _;\n    }\n\n    constructor() public payable {\n        users.push(User(0x0, 0, 0, new uint256[](4), new uint256[](referralLevelsCount)));  // for find by addressToUser map\n    }\n\n    function setup() public onlyOwner {\n        require(isSetted == false);\n        isSetted = true;\n\n        setupFactoringModule();\n        setupReferralsSystemModule();\n    }\n\n    // @dev register for only new users with min pay\n    /// @return id of new user\n    function register() public payable returns(uint256) {\n        require(addressToUser[msg.sender] == 0);\n\n        uint256 index = users.push(User(msg.sender, msg.value, 0, new uint256[](4), new uint256[](referralLevelsCount))) - 1;\n        addressToUser[msg.sender] = index;\n\n        emit CreateUser(index, msg.sender, msg.value);\n        return index;\n    }\n\n\n    /// @notice just registry by referral link\n    /// @param _refId the ID of the user who gets the affiliate fee\n    /// @return id of new user\n    function registerWithRefID(uint256 _refId) public payable returns(uint256) {\n        require(_refId < users.length);\n\n        uint256 index = register();\n        _updateReferrals(index, _refId);\n\n        emit ReferralRegister(_refId, index);\n        return index;\n    }\n\n    /// @notice update referrersByLevel and referralsByLevel of new user\n    /// @param _newUserId the ID of the new user\n    /// @param _refUserId the ID of the user who gets the affiliate fee\n    function _updateReferrals(uint256 _newUserId, uint256 _refUserId) private {\n        if (_newUserId == _refUserId) return;\n        users[_newUserId].referrersByLevel[0] = _refUserId;\n\n        for (uint i = 1; i < referralLevelsCount; i++) {\n            uint256 _refId = users[_refUserId].referrersByLevel[i - 1];\n            users[_newUserId].referrersByLevel[i] = _refId;\n            users[_refId].referralsByLevel[uint8(i)].push(_newUserId);\n        }\n\n        users[_refUserId].referralsByLevel[0].push(_newUserId);\n    }\n\n    /// @notice distribute value of tx to referrers of user\n    /// @param _userId the ID of the user who gets the affiliate fee\n    /// @param _sum value of ethereum for distribute to referrers of user\n    function _distributeReferrers(uint256 _userId, uint256 _sum) private {\n        if (users[_userId].totalPay < minSumReferral) return;\n\n        uint256[] memory referrers = users[_userId].referrersByLevel;\n        uint16[] memory percents = getReferralPercents(users[_userId].totalPay);\n\n        for (uint i = 0; i < referralLevelsCount; i++) {\n            if (referrers[i] == 0) break;\n\n            uint256 value = _sum * percents[i] / 10000;\n            users[referrers[i]].balance = users[referrers[i]].balance.add(value);\n\n            emit ReferrerDistribute(_userId, referrers[i], value);\n        }\n    }\n\n    /// @notice deposit ethereum for user\n    /// @return balance value of user\n    function deposit() public payable returns(uint256) {\n        uint256 userId = addressToUser[msg.sender];\n        users[userId].balance = users[userId].balance.add(msg.value);\n\n        // distribute\n        _distributeInvestment(msg.value);\n        _updateLeaders(msg.sender, msg.value);\n\n        emit Deposit(userId, msg.value);\n        return users[userId].balance;\n    }\n\n    /// @notice getter for balance of user\n    /// @return balance value of user\n    function balanceOf() public view returns (uint256) {\n        return users[addressToUser[msg.sender]].balance;\n    }\n\n    /// @notice getter for resources of user\n    /// @return resources value of user\n    function resoucesOf() public view returns (uint256[]) {\n        return users[addressToUser[msg.sender]].resources;\n    }\n\n    /// @notice getter for referrers of user\n    /// @return array of referrers id\n    function referrersOf() public view returns (uint256[]) {\n        return users[addressToUser[msg.sender]].referrersByLevel;\n    }\n\n    /// @notice getter for referrals of user by level\n    /// @param _level level of referrals user needed\n    /// @return array of referrals id\n    function referralsOf(uint8 _level) public view returns (uint256[]) {\n        return users[addressToUser[msg.sender]].referralsByLevel[uint8(_level)];\n    }\n\n    /// @notice getter for extended information of user\n    /// @param _userId id of user needed\n    /// @return address of user\n    /// @return balance of user\n    /// @return totalPay of user\n    /// @return array of resources user\n    /// @return array of referrers id user\n    function userInfo(uint256 _userId) public view returns(address, uint256, uint256, uint256[], uint256[]) {\n        User memory user = users[_userId];\n        return (user.addr, user.balance, user.totalPay, user.resources, user.referrersByLevel);\n    }\n\n    /// @notice mechanics of buying any factory\n    /// @param _type type of factory needed\n    /// @return id of new factory\n    function buyFactory(FactoryType _type) public payable returns (uint256) {\n        uint256 userId = addressToUser[msg.sender];\n\n        // if user not registered\n        if (addressToUser[msg.sender] == 0)\n            userId = register();\n\n        return _paymentProceed(userId, Factory(_type, 0, now));\n    }\n\n    /// @notice get factories of user\n    /// @param _user_id id of user\n    /// @return array of id factory\n    function getFactories(uint256 _user_id) public view returns (uint256[]) {\n        return userToFactories[_user_id];\n    }\n\n    /// @notice buy wood factory\n    /// @dev wrapper over buyFactory for FactoryType.Wood\n    /// @return id of new factory\n    function buyWoodFactory() public payable returns (uint256) {\n        return buyFactory(FactoryType.Wood);\n    }\n\n    /// @notice buy wood factory\n    /// @dev wrapper over buyFactory for FactoryType.Metal\n    /// @return id of new factory\n    function buyMetalFactory() public payable returns (uint256) {\n        return buyFactory(FactoryType.Metal);\n    }\n\n    /// @notice buy wood factory\n    /// @dev wrapper over buyFactory for FactoryType.Oil\n    /// @return id of new factory\n    function buyOilFactory() public payable returns (uint256) {\n        return buyFactory(FactoryType.Oil);\n    }\n\n    /// @notice buy wood factory\n    /// @dev wrapper over buyFactory for FactoryType.PreciousMetal\n    /// @return id of new factory\n    function buyPreciousMetal() public payable returns (uint256) {\n        return buyFactory(FactoryType.PreciousMetal);\n    }\n\n    /// @notice distribute investment when user buy anything\n    /// @param _value value of investment\n    function _distributeInvestment(uint256 _value) private {\n        developers.transfer(msg.value * developersPercent / 100);\n    }\n\n    /// @notice function of proceed payment\n    /// @dev for only buy new factory\n    /// @return id of new factory\n    function _paymentProceed(uint256 _userId, Factory _factory) private returns(uint256) {\n        User storage user = users[_userId];\n\n        require(_checkPayment(user, _factory.ftype, _factory.level));\n\n        uint256 price = getPrice(FactoryType.Wood, 0);\n        user.balance = user.balance.add(msg.value);\n        user.balance = user.balance.sub(price);\n        user.totalPay = user.totalPay.add(price);\n\n        uint256 index = factories.push(_factory) - 1;\n        factoryToUser[index] = _userId;\n        userToFactories[_userId].push(index);\n\n        // distribute\n        _distributeInvestment(msg.value);\n        _distributeReferrers(_userId, price);\n        _updateLeaders(msg.sender, msg.value);\n\n        emit PaymentProceed(_userId, index, _factory.ftype, price);\n        return index;\n    }\n\n    /// @notice check available investment\n    /// @return true if user does enough balance for investment\n    function _checkPayment(User _user, FactoryType _type, uint8 _level) private view returns(bool) {\n        uint256 totalBalance = _user.balance.add(msg.value);\n\n        if (totalBalance < getPrice(_type, _level)) return false;\n\n        return true;\n    }\n\n    /// @notice level up for factory\n    /// @param _factoryId id of factory\n    function levelUp(uint256 _factoryId) public payable {\n        Factory storage factory = factories[_factoryId];\n        uint256 price = getPrice(factory.ftype, factory.level + 1);\n\n        uint256 userId = addressToUser[msg.sender];\n        User storage user = users[userId];\n\n        require(_checkPayment(user, factory.ftype, factory.level + 1));\n\n        // payment\n        user.balance = user.balance.add(msg.value);\n        user.balance = user.balance.sub(price);\n        user.totalPay = user.totalPay.add(price);\n\n        // collect\n        _collectResource(factory, user);\n        factory.level++;\n\n        emit LevelUp(_factoryId, factory.level, userId);\n    }\n\n    /// @notice sell resources of user with type\n    /// @param _type type of resources\n    /// @return sum of sell\n    function sellResources(uint8 _type) public returns (uint256) {\n        uint256 userId = addressToUser[msg.sender];\n        uint256 sum = Math.min(users[userId].resources[_type] * getResourcePrice(_type), address(this).balance);\n        users[userId].resources[_type] = 0;\n\n        msg.sender.transfer(sum);\n\n        emit Sell(userId, _type, sum);\n        return sum;\n    }\n\n    /// @notice function for compute worktime factory\n    /// @param _collected_at timestamp of start\n    /// @return duration minutes\n    function worktimeAtDate(uint256 _collected_at) public view returns(uint256) {\n        return (now - _collected_at) / 60;\n    }\n\n    /// @notice function for compute duration work factory\n    /// @param _factoryId id of factory\n    /// @return timestamp of duration\n    function worktime(uint256 _factoryId) public view returns(uint256) {\n        return worktimeAtDate(factories[_factoryId].collected_at);\n    }\n\n    /// @notice function for compute resource factory at time\n    /// @param _type type of factory\n    /// @param _level level of factory\n    /// @param _collected_at timestamp for collect\n    /// @return count of resources\n    function _resourcesAtTime(FactoryType _type, uint8 _level, uint256 _collected_at) public view returns(uint256) {\n        return worktimeAtDate(_collected_at) * (getProductsPerMinute(_type, _level) + getBonusPerMinute(_type, _level));\n    }\n\n    /// @notice function for compute resource factory at time\n    /// @dev wrapper over _resourcesAtTime\n    /// @param _factoryId id of factory\n    /// @return count of resources\n    function resourcesAtTime(uint256 _factoryId) public view returns(uint256) {\n        Factory storage factory = factories[_factoryId];\n        return _resourcesAtTime(factory.ftype, factory.level, factory.collected_at);\n    }\n\n    /// @notice function for collect resource\n    /// @param _factory factory object\n    /// @param _user user object\n    /// @return count of resources\n    function _collectResource(Factory storage _factory, User storage _user) internal returns(uint256) {\n        uint256 resources = _resourcesAtTime(_factory.ftype, _factory.level, _factory.collected_at);\n        _user.resources[uint8(_factory.ftype)] = _user.resources[uint8(_factory.ftype)].add(resources);\n        _factory.collected_at = now;\n\n        emit CollectResources(_factory.ftype, resources);\n        return resources;\n    }\n\n    /// @notice function for collect all resources from all factories\n    /// @dev wrapper over _collectResource\n    function collectResources() public onlyExistingUser {\n        uint256 index = addressToUser[msg.sender];\n        User storage user = users[index];\n        uint256[] storage factoriesIds = userToFactories[addressToUser[msg.sender]];\n\n        for (uint256 i = 0; i < factoriesIds.length; i++) {\n            _collectResource(factories[factoriesIds[i]], user);\n        }\n    }\n\n}",
  "sourcePath": "/Users/alexey/Projects/DApps/MyMillions/contracts/MyMillions.sol",
  "compiler": {
    "name": "solc",
    "version": "0.4.24+commit.e67f0147.Emscripten.clang"
  },
  "schemaVersion": "2.0.1",
  "updatedAt": "2018-11-26T15:55:34.088Z"
}