{
  "contractName": "MyMillions",
  "abi": [
    {
      "constant": true,
      "inputs": [
        {
          "name": "",
          "type": "uint8"
        }
      ],
      "name": "leaderBonuses",
      "outputs": [
        {
          "name": "",
          "type": "uint256"
        }
      ],
      "payable": false,
      "stateMutability": "view",
      "type": "function"
    },
    {
      "constant": true,
      "inputs": [],
      "name": "marketersPercent",
      "outputs": [
        {
          "name": "",
          "type": "uint256"
        }
      ],
      "payable": false,
      "stateMutability": "view",
      "type": "function"
    },
    {
      "constant": true,
      "inputs": [],
      "name": "developers",
      "outputs": [
        {
          "name": "",
          "type": "address"
        }
      ],
      "payable": false,
      "stateMutability": "view",
      "type": "function"
    },
    {
      "constant": true,
      "inputs": [
        {
          "name": "",
          "type": "uint256"
        }
      ],
      "name": "users",
      "outputs": [
        {
          "name": "addr",
          "type": "address"
        },
        {
          "name": "balance",
          "type": "uint256"
        },
        {
          "name": "totalPay",
          "type": "uint256"
        },
        {
          "name": "referrersReceived",
          "type": "uint256"
        }
      ],
      "payable": false,
      "stateMutability": "view",
      "type": "function"
    },
    {
      "constant": false,
      "inputs": [
        {
          "name": "newMarketers",
          "type": "address"
        }
      ],
      "name": "setMarketers",
      "outputs": [],
      "payable": false,
      "stateMutability": "nonpayable",
      "type": "function"
    },
    {
      "constant": true,
      "inputs": [],
      "name": "developersPercent",
      "outputs": [
        {
          "name": "",
          "type": "uint256"
        }
      ],
      "payable": false,
      "stateMutability": "view",
      "type": "function"
    },
    {
      "constant": true,
      "inputs": [
        {
          "name": "_indexTable",
          "type": "uint256"
        }
      ],
      "name": "getLeadersTableInfo",
      "outputs": [
        {
          "name": "",
          "type": "uint256"
        },
        {
          "name": "",
          "type": "uint256"
        },
        {
          "name": "",
          "type": "uint256"
        }
      ],
      "payable": false,
      "stateMutability": "view",
      "type": "function"
    },
    {
      "constant": true,
      "inputs": [
        {
          "name": "",
          "type": "uint256"
        }
      ],
      "name": "factoryToUser",
      "outputs": [
        {
          "name": "",
          "type": "uint256"
        }
      ],
      "payable": false,
      "stateMutability": "view",
      "type": "function"
    },
    {
      "constant": true,
      "inputs": [],
      "name": "marketers",
      "outputs": [
        {
          "name": "",
          "type": "address"
        }
      ],
      "payable": false,
      "stateMutability": "view",
      "type": "function"
    },
    {
      "constant": true,
      "inputs": [
        {
          "name": "_type",
          "type": "uint8"
        }
      ],
      "name": "getResourcePrice",
      "outputs": [
        {
          "name": "",
          "type": "uint256"
        }
      ],
      "payable": false,
      "stateMutability": "view",
      "type": "function"
    },
    {
      "constant": true,
      "inputs": [
        {
          "name": "_indexTable",
          "type": "uint256"
        }
      ],
      "name": "getLeaders",
      "outputs": [
        {
          "name": "",
          "type": "address[]"
        },
        {
          "name": "",
          "type": "uint256[]"
        }
      ],
      "payable": false,
      "stateMutability": "view",
      "type": "function"
    },
    {
      "constant": true,
      "inputs": [
        {
          "name": "_index",
          "type": "uint256"
        }
      ],
      "name": "getReferralPercentsByIndex",
      "outputs": [
        {
          "name": "",
          "type": "uint16[]"
        }
      ],
      "payable": false,
      "stateMutability": "view",
      "type": "function"
    },
    {
      "constant": true,
      "inputs": [],
      "name": "minSumReferral",
      "outputs": [
        {
          "name": "",
          "type": "uint256"
        }
      ],
      "payable": false,
      "stateMutability": "view",
      "type": "function"
    },
    {
      "constant": true,
      "inputs": [
        {
          "name": "_type",
          "type": "uint8"
        },
        {
          "name": "_level",
          "type": "uint8"
        }
      ],
      "name": "getPrice",
      "outputs": [
        {
          "name": "",
          "type": "uint256"
        }
      ],
      "payable": false,
      "stateMutability": "view",
      "type": "function"
    },
    {
      "constant": true,
      "inputs": [
        {
          "name": "",
          "type": "uint256"
        }
      ],
      "name": "factories",
      "outputs": [
        {
          "name": "ftype",
          "type": "uint8"
        },
        {
          "name": "level",
          "type": "uint8"
        },
        {
          "name": "collected_at",
          "type": "uint256"
        }
      ],
      "payable": false,
      "stateMutability": "view",
      "type": "function"
    },
    {
      "constant": true,
      "inputs": [
        {
          "name": "_type",
          "type": "uint8"
        },
        {
          "name": "_level",
          "type": "uint8"
        }
      ],
      "name": "getBonusPerMinute",
      "outputs": [
        {
          "name": "",
          "type": "uint256"
        }
      ],
      "payable": false,
      "stateMutability": "view",
      "type": "function"
    },
    {
      "constant": true,
      "inputs": [],
      "name": "levelsCount",
      "outputs": [
        {
          "name": "",
          "type": "uint8"
        }
      ],
      "payable": false,
      "stateMutability": "view",
      "type": "function"
    },
    {
      "constant": false,
      "inputs": [
        {
          "name": "newDevelopers",
          "type": "address"
        }
      ],
      "name": "setDevelopers",
      "outputs": [],
      "payable": false,
      "stateMutability": "nonpayable",
      "type": "function"
    },
    {
      "constant": true,
      "inputs": [],
      "name": "owner",
      "outputs": [
        {
          "name": "",
          "type": "address"
        }
      ],
      "payable": false,
      "stateMutability": "view",
      "type": "function"
    },
    {
      "constant": true,
      "inputs": [
        {
          "name": "_sum",
          "type": "uint256"
        }
      ],
      "name": "getReferralPercents",
      "outputs": [
        {
          "name": "",
          "type": "uint16[]"
        }
      ],
      "payable": false,
      "stateMutability": "view",
      "type": "function"
    },
    {
      "constant": true,
      "inputs": [],
      "name": "leadersCount",
      "outputs": [
        {
          "name": "",
          "type": "uint8"
        }
      ],
      "payable": false,
      "stateMutability": "view",
      "type": "function"
    },
    {
      "constant": true,
      "inputs": [
        {
          "name": "",
          "type": "uint256"
        }
      ],
      "name": "referralGroups",
      "outputs": [
        {
          "name": "minSum",
          "type": "uint256"
        },
        {
          "name": "maxSum",
          "type": "uint256"
        }
      ],
      "payable": false,
      "stateMutability": "view",
      "type": "function"
    },
    {
      "constant": true,
      "inputs": [
        {
          "name": "_type",
          "type": "uint8"
        },
        {
          "name": "_level",
          "type": "uint8"
        }
      ],
      "name": "getProductsPerMinute",
      "outputs": [
        {
          "name": "",
          "type": "uint256"
        }
      ],
      "payable": false,
      "stateMutability": "view",
      "type": "function"
    },
    {
      "constant": true,
      "inputs": [
        {
          "name": "",
          "type": "uint256"
        }
      ],
      "name": "leaders",
      "outputs": [
        {
          "name": "timestampEnd",
          "type": "uint256"
        },
        {
          "name": "duration",
          "type": "uint256"
        },
        {
          "name": "minSum",
          "type": "uint256"
        }
      ],
      "payable": false,
      "stateMutability": "view",
      "type": "function"
    },
    {
      "constant": true,
      "inputs": [
        {
          "name": "",
          "type": "uint8"
        }
      ],
      "name": "resourcePrices",
      "outputs": [
        {
          "name": "",
          "type": "uint256"
        }
      ],
      "payable": false,
      "stateMutability": "view",
      "type": "function"
    },
    {
      "constant": true,
      "inputs": [],
      "name": "referralLevelsGroups",
      "outputs": [
        {
          "name": "",
          "type": "uint256"
        }
      ],
      "payable": false,
      "stateMutability": "view",
      "type": "function"
    },
    {
      "constant": true,
      "inputs": [
        {
          "name": "",
          "type": "uint8"
        },
        {
          "name": "",
          "type": "uint8"
        }
      ],
      "name": "levelStack",
      "outputs": [
        {
          "name": "price",
          "type": "uint256"
        },
        {
          "name": "ppm",
          "type": "uint256"
        },
        {
          "name": "ppmBonus",
          "type": "uint256"
        }
      ],
      "payable": false,
      "stateMutability": "view",
      "type": "function"
    },
    {
      "constant": true,
      "inputs": [
        {
          "name": "",
          "type": "address"
        }
      ],
      "name": "addressToUser",
      "outputs": [
        {
          "name": "",
          "type": "uint256"
        }
      ],
      "payable": false,
      "stateMutability": "view",
      "type": "function"
    },
    {
      "constant": false,
      "inputs": [
        {
          "name": "newOwner",
          "type": "address"
        }
      ],
      "name": "transferOwnership",
      "outputs": [],
      "payable": false,
      "stateMutability": "nonpayable",
      "type": "function"
    },
    {
      "constant": true,
      "inputs": [],
      "name": "minSumDeposit",
      "outputs": [
        {
          "name": "",
          "type": "uint256"
        }
      ],
      "payable": false,
      "stateMutability": "view",
      "type": "function"
    },
    {
      "constant": true,
      "inputs": [],
      "name": "referralLevelsCount",
      "outputs": [
        {
          "name": "",
          "type": "uint256"
        }
      ],
      "payable": false,
      "stateMutability": "view",
      "type": "function"
    },
    {
      "constant": true,
      "inputs": [
        {
          "name": "",
          "type": "uint256"
        },
        {
          "name": "",
          "type": "uint256"
        }
      ],
      "name": "userToFactories",
      "outputs": [
        {
          "name": "",
          "type": "uint256"
        }
      ],
      "payable": false,
      "stateMutability": "view",
      "type": "function"
    },
    {
      "inputs": [],
      "payable": true,
      "stateMutability": "payable",
      "type": "constructor"
    },
    {
      "anonymous": false,
      "inputs": [
        {
          "indexed": false,
          "name": "_index",
          "type": "uint256"
        },
        {
          "indexed": false,
          "name": "_address",
          "type": "address"
        },
        {
          "indexed": false,
          "name": "_balance",
          "type": "uint256"
        }
      ],
      "name": "CreateUser",
      "type": "event"
    },
    {
      "anonymous": false,
      "inputs": [
        {
          "indexed": false,
          "name": "_refferalId",
          "type": "uint256"
        },
        {
          "indexed": false,
          "name": "_userId",
          "type": "uint256"
        }
      ],
      "name": "ReferralRegister",
      "type": "event"
    },
    {
      "anonymous": false,
      "inputs": [
        {
          "indexed": false,
          "name": "_userId",
          "type": "uint256"
        },
        {
          "indexed": false,
          "name": "_referrerId",
          "type": "uint256"
        },
        {
          "indexed": false,
          "name": "_sum",
          "type": "uint256"
        }
      ],
      "name": "ReferrerDistribute",
      "type": "event"
    },
    {
      "anonymous": false,
      "inputs": [
        {
          "indexed": false,
          "name": "_userId",
          "type": "uint256"
        },
        {
          "indexed": false,
          "name": "_value",
          "type": "uint256"
        }
      ],
      "name": "Deposit",
      "type": "event"
    },
    {
      "anonymous": false,
      "inputs": [
        {
          "indexed": false,
          "name": "_userId",
          "type": "uint256"
        },
        {
          "indexed": false,
          "name": "_factoryId",
          "type": "uint256"
        },
        {
          "indexed": false,
          "name": "_factoryType",
          "type": "uint8"
        },
        {
          "indexed": false,
          "name": "_price",
          "type": "uint256"
        }
      ],
      "name": "PaymentProceed",
      "type": "event"
    },
    {
      "anonymous": false,
      "inputs": [
        {
          "indexed": false,
          "name": "_type",
          "type": "uint8"
        },
        {
          "indexed": false,
          "name": "_resources",
          "type": "uint256"
        }
      ],
      "name": "CollectResources",
      "type": "event"
    },
    {
      "anonymous": false,
      "inputs": [
        {
          "indexed": false,
          "name": "_factoryId",
          "type": "uint256"
        },
        {
          "indexed": false,
          "name": "_newLevel",
          "type": "uint8"
        },
        {
          "indexed": false,
          "name": "_userId",
          "type": "uint256"
        }
      ],
      "name": "LevelUp",
      "type": "event"
    },
    {
      "anonymous": false,
      "inputs": [
        {
          "indexed": false,
          "name": "_userId",
          "type": "uint256"
        },
        {
          "indexed": false,
          "name": "_type",
          "type": "uint8"
        },
        {
          "indexed": false,
          "name": "_sum",
          "type": "uint256"
        }
      ],
      "name": "Sell",
      "type": "event"
    },
    {
      "anonymous": false,
      "inputs": [
        {
          "indexed": false,
          "name": "_indexTable",
          "type": "uint256"
        },
        {
          "indexed": false,
          "name": "_addr",
          "type": "address"
        },
        {
          "indexed": false,
          "name": "_index",
          "type": "uint256"
        },
        {
          "indexed": false,
          "name": "_sum",
          "type": "uint256"
        }
      ],
      "name": "NewLeader",
      "type": "event"
    },
    {
      "anonymous": false,
      "inputs": [
        {
          "indexed": false,
          "name": "_indexTable",
          "type": "uint256"
        }
      ],
      "name": "LeadersClear",
      "type": "event"
    },
    {
      "anonymous": false,
      "inputs": [
        {
          "indexed": true,
          "name": "previousOwner",
          "type": "address"
        },
        {
          "indexed": true,
          "name": "newOwner",
          "type": "address"
        }
      ],
      "name": "OwnershipTransferred",
      "type": "event"
    },
    {
      "anonymous": false,
      "inputs": [
        {
          "indexed": true,
          "name": "previousDevelopers",
          "type": "address"
        },
        {
          "indexed": true,
          "name": "newDevelopers",
          "type": "address"
        }
      ],
      "name": "DevelopersChanged",
      "type": "event"
    },
    {
      "anonymous": false,
      "inputs": [
        {
          "indexed": true,
          "name": "previousMarketers",
          "type": "address"
        },
        {
          "indexed": true,
          "name": "newMarketers",
          "type": "address"
        }
      ],
      "name": "MarketersChanged",
      "type": "event"
    },
    {
      "constant": false,
      "inputs": [],
      "name": "setup",
      "outputs": [],
      "payable": false,
      "stateMutability": "nonpayable",
      "type": "function"
    },
    {
      "constant": false,
      "inputs": [],
      "name": "register",
      "outputs": [
        {
          "name": "",
          "type": "uint256"
        }
      ],
      "payable": true,
      "stateMutability": "payable",
      "type": "function"
    },
    {
      "constant": false,
      "inputs": [
        {
          "name": "_refId",
          "type": "uint256"
        }
      ],
      "name": "registerWithRefID",
      "outputs": [
        {
          "name": "",
          "type": "uint256"
        }
      ],
      "payable": true,
      "stateMutability": "payable",
      "type": "function"
    },
    {
      "constant": false,
      "inputs": [],
      "name": "deposit",
      "outputs": [
        {
          "name": "",
          "type": "uint256"
        }
      ],
      "payable": true,
      "stateMutability": "payable",
      "type": "function"
    },
    {
      "constant": true,
      "inputs": [],
      "name": "balanceOf",
      "outputs": [
        {
          "name": "",
          "type": "uint256"
        }
      ],
      "payable": false,
      "stateMutability": "view",
      "type": "function"
    },
    {
      "constant": true,
      "inputs": [],
      "name": "resoucesOf",
      "outputs": [
        {
          "name": "",
          "type": "uint256[]"
        }
      ],
      "payable": false,
      "stateMutability": "view",
      "type": "function"
    },
    {
      "constant": true,
      "inputs": [],
      "name": "referrersOf",
      "outputs": [
        {
          "name": "",
          "type": "uint256[]"
        }
      ],
      "payable": false,
      "stateMutability": "view",
      "type": "function"
    },
    {
      "constant": true,
      "inputs": [
        {
          "name": "_level",
          "type": "uint8"
        }
      ],
      "name": "referralsOf",
      "outputs": [
        {
          "name": "",
          "type": "uint256[]"
        }
      ],
      "payable": false,
      "stateMutability": "view",
      "type": "function"
    },
    {
      "constant": true,
      "inputs": [
        {
          "name": "_userId",
          "type": "uint256"
        }
      ],
      "name": "userInfo",
      "outputs": [
        {
          "name": "",
          "type": "address"
        },
        {
          "name": "",
          "type": "uint256"
        },
        {
          "name": "",
          "type": "uint256"
        },
        {
          "name": "",
          "type": "uint256"
        },
        {
          "name": "",
          "type": "uint256[]"
        },
        {
          "name": "",
          "type": "uint256[]"
        }
      ],
      "payable": false,
      "stateMutability": "view",
      "type": "function"
    },
    {
      "constant": false,
      "inputs": [
        {
          "name": "_type",
          "type": "uint8"
        }
      ],
      "name": "buyFactory",
      "outputs": [
        {
          "name": "",
          "type": "uint256"
        }
      ],
      "payable": true,
      "stateMutability": "payable",
      "type": "function"
    },
    {
      "constant": true,
      "inputs": [
        {
          "name": "_user_id",
          "type": "uint256"
        }
      ],
      "name": "getFactories",
      "outputs": [
        {
          "name": "",
          "type": "uint256[]"
        }
      ],
      "payable": false,
      "stateMutability": "view",
      "type": "function"
    },
    {
      "constant": false,
      "inputs": [],
      "name": "buyWoodFactory",
      "outputs": [
        {
          "name": "",
          "type": "uint256"
        }
      ],
      "payable": true,
      "stateMutability": "payable",
      "type": "function"
    },
    {
      "constant": false,
      "inputs": [],
      "name": "buyMetalFactory",
      "outputs": [
        {
          "name": "",
          "type": "uint256"
        }
      ],
      "payable": true,
      "stateMutability": "payable",
      "type": "function"
    },
    {
      "constant": false,
      "inputs": [],
      "name": "buyOilFactory",
      "outputs": [
        {
          "name": "",
          "type": "uint256"
        }
      ],
      "payable": true,
      "stateMutability": "payable",
      "type": "function"
    },
    {
      "constant": false,
      "inputs": [],
      "name": "buyPreciousMetal",
      "outputs": [
        {
          "name": "",
          "type": "uint256"
        }
      ],
      "payable": true,
      "stateMutability": "payable",
      "type": "function"
    },
    {
      "constant": false,
      "inputs": [
        {
          "name": "_factoryId",
          "type": "uint256"
        }
      ],
      "name": "levelUp",
      "outputs": [],
      "payable": true,
      "stateMutability": "payable",
      "type": "function"
    },
    {
      "constant": false,
      "inputs": [
        {
          "name": "_type",
          "type": "uint8"
        }
      ],
      "name": "sellResources",
      "outputs": [
        {
          "name": "",
          "type": "uint256"
        }
      ],
      "payable": false,
      "stateMutability": "nonpayable",
      "type": "function"
    },
    {
      "constant": true,
      "inputs": [
        {
          "name": "_collected_at",
          "type": "uint256"
        }
      ],
      "name": "worktimeAtDate",
      "outputs": [
        {
          "name": "",
          "type": "uint256"
        }
      ],
      "payable": false,
      "stateMutability": "view",
      "type": "function"
    },
    {
      "constant": true,
      "inputs": [
        {
          "name": "_factoryId",
          "type": "uint256"
        }
      ],
      "name": "worktime",
      "outputs": [
        {
          "name": "",
          "type": "uint256"
        }
      ],
      "payable": false,
      "stateMutability": "view",
      "type": "function"
    },
    {
      "constant": true,
      "inputs": [
        {
          "name": "_type",
          "type": "uint8"
        },
        {
          "name": "_level",
          "type": "uint8"
        },
        {
          "name": "_collected_at",
          "type": "uint256"
        }
      ],
      "name": "_resourcesAtTime",
      "outputs": [
        {
          "name": "",
          "type": "uint256"
        }
      ],
      "payable": false,
      "stateMutability": "view",
      "type": "function"
    },
    {
      "constant": true,
      "inputs": [
        {
          "name": "_factoryId",
          "type": "uint256"
        }
      ],
      "name": "resourcesAtTime",
      "outputs": [
        {
          "name": "",
          "type": "uint256"
        }
      ],
      "payable": false,
      "stateMutability": "view",
      "type": "function"
    },
    {
      "constant": false,
      "inputs": [],
      "name": "collectResources",
      "outputs": [],
      "payable": false,
      "stateMutability": "nonpayable",
      "type": "function"
    }
  ],
  "bytecode": "0x6080604052730c05ae835f26a8d4a89ae80c7a0e5495e5361ca1600160006101000a81548173ffffffffffffffffffffffffffffffffffffffff021916908373ffffffffffffffffffffffffffffffffffffffff16021790555073e222dd2dd012fcac0256b1f3830cc033418b6889600260006101000a81548173ffffffffffffffffffffffffffffffffffffffff021916908373ffffffffffffffffffffffffffffffffffffffff1602179055506000600860006101000a81548160ff021916908315150217905550662386f26fc10000600955336000806101000a81548173ffffffffffffffffffffffffffffffffffffffff021916908373ffffffffffffffffffffffffffffffffffffffff160217905550600a60c060405190810160405280600073ffffffffffffffffffffffffffffffffffffffff1681526020016000815260200160008152602001600081526020016004604051908082528060200260200182016040528015620001855781602001602082028038833980820191505090505b5081526020016005604051908082528060200260200182016040528015620001bc5781602001602082028038833980820191505090505b508152509080600181540180825580915050906001820390600052602060002090600702016000909192909190915060008201518160000160006101000a81548173ffffffffffffffffffffffffffffffffffffffff021916908373ffffffffffffffffffffffffffffffffffffffff16021790555060208201518160010155604082015181600201556060820151816003015560808201518160040190805190602001906200026e92919062000297565b5060a08201518160050190805190602001906200028d92919062000297565b5050505062000311565b828054828255906000526020600020908101928215620002d6579160200282015b82811115620002d5578251825591602001919060010190620002b8565b5b509050620002e59190620002e9565b5090565b6200030e91905b808211156200030a576000816000905550600101620002f0565b5090565b90565b6160db80620003216000396000f300608060405260043610610288576000357c0100000000000000000000000000000000000000000000000000000000900463ffffffff16806302ceb8b31461028d5780630ce90ec2146102d15780630f3fc087146102f15780631aa3a0081461031c5780631cdb86a31461033a578063208d5e9f1461037b5780632bc31ca414610399578063365b98b2146103f05780633887dae91461047257806339347d52146104de5780633a033915146105215780633bbfe1411461054c5780633eb1137e146105635780633fc282ef146105b257806342583c02146105f35780634bd518221461064a5780634db2a7111461068e57806351d70bc4146107585780635875455e1461086a5780635a2587f4146108ec5780635b9280f61461096e5780635ee6e3a21461099957806360e5ef3a146109b7578063672383c414610a0857806368ec451214610a6b578063715b3ec914610abc578063722713f714610b1757806383c6a62b14610b425780638ab476bf14610b735780638da5cb5b14610bb657806391ddb16d14610c0d578063930efb7114610c8f57806393d1c8ad14610cc057806397ff49e714610cf4578063994678ea14610d3c5780639a08b33814610da8578063a16e8b2014610df9578063a36e657714610e17578063af6a1a9a14610e66578063ba0bba4014610eaa578063c4e2665614610ec1578063d0e30db014610f02578063d9fe828614610f20578063da0aedb114610f64578063e1fc887e14610f8f578063e5d7bd4f14610fee578063e8364cde14611073578063eae84a30146110aa578063edf53886146110c8578063f2fde38b1461111f578063f6d9097414611162578063f7ad68ed1461118d578063f93745f0146111ce578063fc412987146111f9575b600080fd5b34801561029957600080fd5b506102bb600480360381019080803560ff169060200190929190505050611244565b6040518082815260200191505060405180910390f35b6102ef6004803603810190808035906020019092919050505061125c565b005b3480156102fd57600080fd5b506103066115eb565b6040518082815260200191505060405180910390f35b6103246115f0565b6040518082815260200191505060405180910390f35b34801561034657600080fd5b50610365600480360381019080803590602001909291905050506118c6565b6040518082815260200191505060405180910390f35b6103836118de565b6040518082815260200191505060405180910390f35b3480156103a557600080fd5b506103ae6118ef565b604051808273ffffffffffffffffffffffffffffffffffffffff1673ffffffffffffffffffffffffffffffffffffffff16815260200191505060405180910390f35b3480156103fc57600080fd5b5061041b60048036038101908080359060200190929190505050611915565b604051808573ffffffffffffffffffffffffffffffffffffffff1673ffffffffffffffffffffffffffffffffffffffff16815260200184815260200183815260200182815260200194505050505060405180910390f35b34801561047e57600080fd5b50610487611974565b6040518080602001828103825283818151815260200191508051906020019060200280838360005b838110156104ca5780820151818401526020810190506104af565b505050509050019250505060405180910390f35b3480156104ea57600080fd5b5061051f600480360381019080803573ffffffffffffffffffffffffffffffffffffffff169060200190929190505050611a29565b005b34801561052d57600080fd5b50610536611b80565b6040518082815260200191505060405180910390f35b34801561055857600080fd5b50610561611b85565b005b34801561056f57600080fd5b5061058e60048036038101908080359060200190929190505050611cf2565b60405180848152602001838152602001828152602001935050505060405180910390f35b3480156105be57600080fd5b506105dd60048036038101908080359060200190929190505050611d67565b6040518082815260200191505060405180910390f35b3480156105ff57600080fd5b50610608611d7f565b604051808273ffffffffffffffffffffffffffffffffffffffff1673ffffffffffffffffffffffffffffffffffffffff16815260200191505060405180910390f35b34801561065657600080fd5b50610678600480360381019080803560ff169060200190929190505050611da5565b6040518082815260200191505060405180910390f35b34801561069a57600080fd5b506106b960048036038101908080359060200190929190505050611dc8565b604051808060200180602001838103835285818151815260200191508051906020019060200280838360005b838110156107005780820151818401526020810190506106e5565b50505050905001838103825284818151815260200191508051906020019060200280838360005b83811015610742578082015181840152602081019050610727565b5050505090500194505050505060405180910390f35b34801561076457600080fd5b5061078360048036038101908080359060200190929190505050611f7c565b604051808773ffffffffffffffffffffffffffffffffffffffff1673ffffffffffffffffffffffffffffffffffffffff1681526020018681526020018581526020018481526020018060200180602001838103835285818151815260200191508051906020019060200280838360005b8381101561080e5780820151818401526020810190506107f3565b50505050905001838103825284818151815260200191508051906020019060200280838360005b83811015610850578082015181840152602081019050610835565b505050509050019850505050505050505060405180910390f35b34801561087657600080fd5b5061089560048036038101908080359060200190929190505050612116565b6040518080602001828103825283818151815260200191508051906020019060200280838360005b838110156108d85780820151818401526020810190506108bd565b505050509050019250505060405180910390f35b3480156108f857600080fd5b50610917600480360381019080803590602001909291905050506121b6565b6040518080602001828103825283818151815260200191508051906020019060200280838360005b8381101561095a57808201518184015260208101905061093f565b505050509050019250505060405180910390f35b34801561097a57600080fd5b50610983612221565b6040518082815260200191505060405180910390f35b6109a161222c565b6040518082815260200191505060405180910390f35b3480156109c357600080fd5b506109f2600480360381019080803560ff169060200190929190803560ff16906020019092919050505061223d565b6040518082815260200191505060405180910390f35b348015610a1457600080fd5b50610a3360048036038101908080359060200190929190505050612286565b60405180846003811115610a4357fe5b60ff1681526020018360ff1660ff168152602001828152602001935050505060405180910390f35b348015610a7757600080fd5b50610aa6600480360381019080803560ff169060200190929190803560ff1690602001909291905050506122d9565b6040518082815260200191505060405180910390f35b348015610ac857600080fd5b50610b01600480360381019080803560ff169060200190929190803560ff16906020019092919080359060200190929190505050612322565b6040518082815260200191505060405180910390f35b348015610b2357600080fd5b50610b2c612358565b6040518082815260200191505060405180910390f35b348015610b4e57600080fd5b50610b576123bf565b604051808260ff1660ff16815260200191505060405180910390f35b348015610b7f57600080fd5b50610bb4600480360381019080803573ffffffffffffffffffffffffffffffffffffffff1690602001909291905050506123c4565b005b348015610bc257600080fd5b50610bcb61251b565b604051808273ffffffffffffffffffffffffffffffffffffffff1673ffffffffffffffffffffffffffffffffffffffff16815260200191505060405180910390f35b348015610c1957600080fd5b50610c3860048036038101908080359060200190929190505050612540565b6040518080602001828103825283818151815260200191508051906020019060200280838360005b83811015610c7b578082015181840152602081019050610c60565b505050509050019250505060405180910390f35b348015610c9b57600080fd5b50610ca4612657565b604051808260ff1660ff16815260200191505060405180910390f35b610cde6004803603810190808035906020019092919050505061265c565b6040518082815260200191505060405180910390f35b348015610d0057600080fd5b50610d1f6004803603810190808035906020019092919050505061271c565b604051808381526020018281526020019250505060405180910390f35b348015610d4857600080fd5b50610d5161274f565b6040518080602001828103825283818151815260200191508051906020019060200280838360005b83811015610d94578082015181840152602081019050610d79565b505050509050019250505060405180910390f35b348015610db457600080fd5b50610de3600480360381019080803560ff169060200190929190803560ff169060200190929190505050612804565b6040518082815260200191505060405180910390f35b610e0161284d565b6040518082815260200191505060405180910390f35b348015610e2357600080fd5b50610e426004803603810190808035906020019092919050505061285e565b60405180848152602001838152602001828152602001935050505060405180910390f35b348015610e7257600080fd5b50610e94600480360381019080803560ff169060200190929190505050612897565b6040518082815260200191505060405180910390f35b348015610eb657600080fd5b50610ebf612b15565b005b348015610ecd57600080fd5b50610eec60048036038101908080359060200190929190505050612bcf565b6040518082815260200191505060405180910390f35b610f0a612c01565b6040518082815260200191505060405180910390f35b348015610f2c57600080fd5b50610f4e600480360381019080803560ff169060200190929190505050612dde565b6040518082815260200191505060405180910390f35b348015610f7057600080fd5b50610f79612df6565b6040518082815260200191505060405180910390f35b348015610f9b57600080fd5b50610fca600480360381019080803560ff169060200190929190803560ff169060200190929190505050612dfb565b60405180848152602001838152602001828152602001935050505060405180910390f35b348015610ffa57600080fd5b5061101c600480360381019080803560ff169060200190929190505050612e32565b6040518080602001828103825283818151815260200191508051906020019060200280838360005b8381101561105f578082015181840152602081019050611044565b505050509050019250505060405180910390f35b611094600480360381019080803560ff169060200190929190505050612f00565b6040518082815260200191505060405180910390f35b6110b2613023565b6040518082815260200191505060405180910390f35b3480156110d457600080fd5b50611109600480360381019080803573ffffffffffffffffffffffffffffffffffffffff169060200190929190505050613034565b6040518082815260200191505060405180910390f35b34801561112b57600080fd5b50611160600480360381019080803573ffffffffffffffffffffffffffffffffffffffff16906020019092919050505061304c565b005b34801561116e57600080fd5b506111776131a1565b6040518082815260200191505060405180910390f35b34801561119957600080fd5b506111b8600480360381019080803590602001909291905050506131a7565b6040518082815260200191505060405180910390f35b3480156111da57600080fd5b506111e3613202565b6040518082815260200191505060405180910390f35b34801561120557600080fd5b5061122e6004803603810190808035906020019092919080359060200190929190505050613207565b6040518082815260200191505060405180910390f35b60066020528060005260406000206000915090505481565b6000806000806000600b60003373ffffffffffffffffffffffffffffffffffffffff1673ffffffffffffffffffffffffffffffffffffffff16815260200190815260200160002054141515156112b157600080fd5b600c858154811015156112c057fe5b906000526020600020906002020193506112ff8460000160009054906101000a900460ff1660018660000160019054906101000a900460ff160161223d565b9250600b60003373ffffffffffffffffffffffffffffffffffffffff1673ffffffffffffffffffffffffffffffffffffffff168152602001908152602001600020549150600a8281548110151561135257fe5b906000526020600020906007020190506114c28160c060405190810160405290816000820160009054906101000a900473ffffffffffffffffffffffffffffffffffffffff1673ffffffffffffffffffffffffffffffffffffffff1673ffffffffffffffffffffffffffffffffffffffff1681526020016001820154815260200160028201548152602001600382015481526020016004820180548060200260200160405190810160405280929190818152602001828054801561143557602002820191906000526020600020905b815481526020019060010190808311611421575b505050505081526020016005820180548060200260200160405190810160405280929190818152602001828054801561148d57602002820191906000526020600020905b815481526020019060010190808311611479575b5050505050815250508560000160009054906101000a900460ff1660018760000160019054906101000a900460ff1601613237565b15156114cd57600080fd5b6114e434826001015461327a90919063ffffffff16565b816001018190555061150383826001015461329b90919063ffffffff16565b816001018190555061152283826002015461327a90919063ffffffff16565b8160020181905550611533346132bc565b61153d82846133af565b611547848261360e565b5083600001600181819054906101000a900460ff168092919060010191906101000a81548160ff021916908360ff160217905550506115863334613740565b7f0a184989a362d23d7f52ce403c138273381c6bd74bb6b10dcce9fa70fd47e722858560000160019054906101000a900460ff1684604051808481526020018360ff1660ff168152602001828152602001935050505060405180910390a15050505050565b600e81565b6000806000600b60003373ffffffffffffffffffffffffffffffffffffffff1673ffffffffffffffffffffffffffffffffffffffff1681526020019081526020016000205414151561164157600080fd5b6000600b60003373ffffffffffffffffffffffffffffffffffffffff1673ffffffffffffffffffffffffffffffffffffffff1681526020019081526020016000205414151561168f57600080fd5b6001600a60c0604051908101604052803373ffffffffffffffffffffffffffffffffffffffff168152602001348152602001600081526020016000815260200160046040519080825280602002602001820160405280156116ff5781602001602082028038833980820191505090505b50815260200160056040519080825280602002602001820160405280156117355781602001602082028038833980820191505090505b508152509080600181540180825580915050906001820390600052602060002090600702016000909192909190915060008201518160000160006101000a81548173ffffffffffffffffffffffffffffffffffffffff021916908373ffffffffffffffffffffffffffffffffffffffff16021790555060208201518160010155604082015181600201556060820151816003015560808201518160040190805190602001906117e5929190615d9c565b5060a0820151816005019080519060200190611802929190615d9c565b50505003905080600b60003373ffffffffffffffffffffffffffffffffffffffff1673ffffffffffffffffffffffffffffffffffffffff168152602001908152602001600020819055507f4f936a96f51e2c2ffe18b6b6f1e4387c6bf1cddeb935d58cab653eb22ead430a813334604051808481526020018373ffffffffffffffffffffffffffffffffffffffff1673ffffffffffffffffffffffffffffffffffffffff168152602001828152602001935050505060405180910390a18091505090565b6000603c8242038115156118d657fe5b049050919050565b60006118ea6002612f00565b905090565b600160009054906101000a900473ffffffffffffffffffffffffffffffffffffffff1681565b600a8181548110151561192457fe5b90600052602060002090600702016000915090508060000160009054906101000a900473ffffffffffffffffffffffffffffffffffffffff16908060010154908060020154908060030154905084565b6060600a600b60003373ffffffffffffffffffffffffffffffffffffffff1673ffffffffffffffffffffffffffffffffffffffff168152602001908152602001600020548154811015156119c457fe5b9060005260206000209060070201600401805480602002602001604051908101604052809291908181526020018280548015611a1f57602002820191906000526020600020905b815481526020019060010190808311611a0b575b5050505050905090565b6000809054906101000a900473ffffffffffffffffffffffffffffffffffffffff1673ffffffffffffffffffffffffffffffffffffffff163373ffffffffffffffffffffffffffffffffffffffff16141515611a8457600080fd5b600073ffffffffffffffffffffffffffffffffffffffff168173ffffffffffffffffffffffffffffffffffffffff1614151515611ac057600080fd5b8073ffffffffffffffffffffffffffffffffffffffff16600260009054906101000a900473ffffffffffffffffffffffffffffffffffffffff1673ffffffffffffffffffffffffffffffffffffffff167f5650bc3484c51d95070941164495fa61356f571133f65393510e90fa461118fc60405160405180910390a380600260006101000a81548173ffffffffffffffffffffffffffffffffffffffff021916908373ffffffffffffffffffffffffffffffffffffffff16021790555050565b600181565b6000806000806000600b60003373ffffffffffffffffffffffffffffffffffffffff1673ffffffffffffffffffffffffffffffffffffffff1681526020019081526020016000205414151515611bda57600080fd5b600b60003373ffffffffffffffffffffffffffffffffffffffff1673ffffffffffffffffffffffffffffffffffffffff168152602001908152602001600020549350600a84815481101515611c2b57fe5b90600052602060002090600702019250600e6000600b60003373ffffffffffffffffffffffffffffffffffffffff1673ffffffffffffffffffffffffffffffffffffffff1681526020019081526020016000205481526020019081526020016000209150600090505b8180549050811015611cec57611cde600c8383815481101515611cb357fe5b9060005260206000200154815481101515611cca57fe5b90600052602060002090600202018461360e565b508080600101915050611c94565b50505050565b6000806000600784815481101515611d0657fe5b906000526020600020906005020160000154600785815481101515611d2757fe5b906000526020600020906005020160010154600786815481101515611d4857fe5b9060005260206000209060050201600201549250925092509193909250565b600d6020528060005260406000206000915090505481565b600260009054906101000a900473ffffffffffffffffffffffffffffffffffffffff1681565b6000600360008360ff1660ff168152602001908152602001600020549050919050565b606080600060606000600786815481101515611de057fe5b906000526020600020906005020192508260030180549050604051908082528060200260200182016040528015611e265781602001602082028038833980820191505090505b509150600090505b8260030180549050811015611ee3578260040160008460030183815481101515611e5457fe5b9060005260206000200160009054906101000a900473ffffffffffffffffffffffffffffffffffffffff1673ffffffffffffffffffffffffffffffffffffffff1673ffffffffffffffffffffffffffffffffffffffff168152602001908152602001600020548282815181101515611ec857fe5b90602001906020020181815250508080600101915050611e2e565b826003018281805480602002602001604051908101604052809291908181526020018280548015611f6957602002820191906000526020600020905b8160009054906101000a900473ffffffffffffffffffffffffffffffffffffffff1673ffffffffffffffffffffffffffffffffffffffff1681526020019060010190808311611f1f575b5050505050915094509450505050915091565b600080600080606080611f8d615de9565b600a88815481101515611f9c57fe5b906000526020600020906007020160c060405190810160405290816000820160009054906101000a900473ffffffffffffffffffffffffffffffffffffffff1673ffffffffffffffffffffffffffffffffffffffff1673ffffffffffffffffffffffffffffffffffffffff1681526020016001820154815260200160028201548152602001600382015481526020016004820180548060200260200160405190810160405280929190818152602001828054801561207957602002820191906000526020600020905b815481526020019060010190808311612065575b50505050508152602001600582018054806020026020016040519081016040528092919081815260200182805480156120d157602002820191906000526020600020905b8154815260200190600101908083116120bd575b5050505050815250509050806000015181602001518260400151836060015184608001518560a001518191508090509650965096509650965096505091939550919395565b606060058281548110151561212757fe5b90600052602060002090600302016002018054806020026020016040519081016040528092919081815260200182805480156121aa57602002820191906000526020600020906000905b82829054906101000a900461ffff1661ffff16815260200190600201906020826001010492830192600103820291508084116121715790505b50505050509050919050565b6060600e600083815260200190815260200160002080548060200260200160405190810160405280929190818152602001828054801561221557602002820191906000526020600020905b815481526020019060010190808311612201575b50505050509050919050565b662386f26fc1000081565b60006122386000612f00565b905090565b60006004600084600381111561224f57fe5b60ff1660ff16815260200190815260200160002060008360ff1660ff16815260200190815260200160002060000154905092915050565b600c8181548110151561229557fe5b90600052602060002090600202016000915090508060000160009054906101000a900460ff16908060000160019054906101000a900460ff16908060010154905083565b6000600460008460038111156122eb57fe5b60ff1660ff16815260200190815260200160002060008360ff1660ff16815260200190815260200160002060020154905092915050565b6000606461233085856122d9565b61233a8686612804565b01612344846118c6565b0281151561234e57fe5b0490509392505050565b6000600a600b60003373ffffffffffffffffffffffffffffffffffffffff1673ffffffffffffffffffffffffffffffffffffffff168152602001908152602001600020548154811015156123a857fe5b906000526020600020906007020160010154905090565b600781565b6000809054906101000a900473ffffffffffffffffffffffffffffffffffffffff1673ffffffffffffffffffffffffffffffffffffffff163373ffffffffffffffffffffffffffffffffffffffff1614151561241f57600080fd5b600073ffffffffffffffffffffffffffffffffffffffff168173ffffffffffffffffffffffffffffffffffffffff161415151561245b57600080fd5b8073ffffffffffffffffffffffffffffffffffffffff16600160009054906101000a900473ffffffffffffffffffffffffffffffffffffffff1673ffffffffffffffffffffffffffffffffffffffff167f7d28dbfe9b3b0a2416f60ca7bc6f6cd19d476b00cec731d9c37ac02a09613d7360405160405180910390a380600160006101000a81548173ffffffffffffffffffffffffffffffffffffffff021916908373ffffffffffffffffffffffffffffffffffffffff16021790555050565b6000809054906101000a900473ffffffffffffffffffffffffffffffffffffffff1681565b6060600061254c615e36565b600091505b600382101561264f5760058281548110151561256957fe5b90600052602060002090600302016060604051908101604052908160008201548152602001600182015481526020016002820180548060200260200160405190810160405280929190818152602001828054801561260e57602002820191906000526020600020906000905b82829054906101000a900461ffff1661ffff16815260200190600201906020826001010492830192600103820291508084116125d55790505b505050505081525050905080600001518410158015612631575080602001518411155b156126425780604001519250612650565b8180600101925050612551565b5b5050919050565b600781565b6000806000600b60003373ffffffffffffffffffffffffffffffffffffffff1673ffffffffffffffffffffffffffffffffffffffff168152602001908152602001600020541415156126ad57600080fd5b600a80549050831015156126c057600080fd5b6126c86115f0565b90506126d48184613770565b7fb900dc1fba63117f0809180dec6da68c5bc269d0d8338586b2d57235a0671c138382604051808381526020018281526020019250505060405180910390a180915050919050565b60058181548110151561272b57fe5b90600052602060002090600302016000915090508060000154908060010154905082565b6060600a600b60003373ffffffffffffffffffffffffffffffffffffffff1673ffffffffffffffffffffffffffffffffffffffff1681526020019081526020016000205481548110151561279f57fe5b90600052602060002090600702016005018054806020026020016040519081016040528092919081815260200182805480156127fa57602002820191906000526020600020905b8154815260200190600101908083116127e6575b5050505050905090565b60006004600084600381111561281657fe5b60ff1660ff16815260200190815260200160002060008360ff1660ff16815260200190815260200160002060010154905092915050565b60006128596001612f00565b905090565b60078181548110151561286d57fe5b90600052602060002090600502016000915090508060000154908060010154908060020154905083565b600080600080600b60003373ffffffffffffffffffffffffffffffffffffffff1673ffffffffffffffffffffffffffffffffffffffff16815260200190815260200160002054141515156128ea57600080fd5b600b60003373ffffffffffffffffffffffffffffffffffffffff1673ffffffffffffffffffffffffffffffffffffffff16815260200190815260200160002054915073__Math__________________________________637ae2b5c761294f86611da5565b600a8581548110151561295e57fe5b90600052602060002090600702016004018760ff1681548110151561297f57fe5b9060005260206000200154023073ffffffffffffffffffffffffffffffffffffffff16316040518363ffffffff167c0100000000000000000000000000000000000000000000000000000000028152600401808381526020018281526020019250505060206040518083038186803b1580156129fa57600080fd5b505af4158015612a0e573d6000803e3d6000fd5b505050506040513d6020811015612a2457600080fd5b810190808051906020019092919050505090506000600a83815481101515612a4857fe5b90600052602060002090600702016004018560ff16815481101515612a6957fe5b90600052602060002001819055503373ffffffffffffffffffffffffffffffffffffffff166108fc829081150290604051600060405180830381858888f19350505050158015612abd573d6000803e3d6000fd5b507fdef385fd9bc4ede5eab81b236ae5ae807f524e23733877f374ab4c709179a2d9828583604051808481526020018360ff1660ff168152602001828152602001935050505060405180910390a18092505050919050565b6000809054906101000a900473ffffffffffffffffffffffffffffffffffffffff1673ffffffffffffffffffffffffffffffffffffffff163373ffffffffffffffffffffffffffffffffffffffff16141515612b7057600080fd5b60001515600860009054906101000a900460ff161515141515612b9257600080fd5b6001600860006101000a81548160ff021916908315150217905550612bb5613917565b612bbd6139d3565b612bc561481a565b612bcd614d37565b565b6000612bfa600c83815481101515612be357fe5b9060005260206000209060020201600101546118c6565b9050919050565b6000806000600b60003373ffffffffffffffffffffffffffffffffffffffff1673ffffffffffffffffffffffffffffffffffffffff1681526020019081526020016000205414151515612c5357600080fd5b60095434111515612ccc576040517f08c379a00000000000000000000000000000000000000000000000000000000081526004018080602001828103825260178152602001807f4465706f73697420646f6573206e6f7420656e6f75676800000000000000000081525060200191505060405180910390fd5b600b60003373ffffffffffffffffffffffffffffffffffffffff1673ffffffffffffffffffffffffffffffffffffffff168152602001908152602001600020549050612d4134600a83815481101515612d2157fe5b90600052602060002090600702016001015461327a90919063ffffffff16565b600a82815481101515612d5057fe5b906000526020600020906007020160010181905550612d6e346132bc565b612d783334613740565b7fa3af609bf46297028ce551832669030f9effef2b02606d02cbbcc40fe6b47c558134604051808381526020018281526020019250505060405180910390a1600a81815481101515612dc657fe5b90600052602060002090600702016001015491505090565b60036020528060005260406000206000915090505481565b600381565b6004602052816000526040600020602052806000526040600020600091509150508060000154908060010154908060020154905083565b6060600a600b60003373ffffffffffffffffffffffffffffffffffffffff1673ffffffffffffffffffffffffffffffffffffffff16815260200190815260200160002054815481101515612e8257fe5b906000526020600020906007020160060160008360ff1660ff168152602001908152602001600020805480602002602001604051908101604052809291908181526020018280548015612ef457602002820191906000526020600020905b815481526020019060010190808311612ee0575b50505050509050919050565b6000806000600b60003373ffffffffffffffffffffffffffffffffffffffff1673ffffffffffffffffffffffffffffffffffffffff1681526020019081526020016000205414151515612f5257600080fd5b600b60003373ffffffffffffffffffffffffffffffffffffffff1673ffffffffffffffffffffffffffffffffffffffff1681526020019081526020016000205490506000600b60003373ffffffffffffffffffffffffffffffffffffffff1673ffffffffffffffffffffffffffffffffffffffff168152602001908152602001600020541415612fe757612fe46115f0565b90505b61301b8160606040519081016040528086600381111561300357fe5b8152602001600060ff1681526020014281525061512b565b915050919050565b600061302f6003612f00565b905090565b600b6020528060005260406000206000915090505481565b6000809054906101000a900473ffffffffffffffffffffffffffffffffffffffff1673ffffffffffffffffffffffffffffffffffffffff163373ffffffffffffffffffffffffffffffffffffffff161415156130a757600080fd5b600073ffffffffffffffffffffffffffffffffffffffff168173ffffffffffffffffffffffffffffffffffffffff16141515156130e357600080fd5b8073ffffffffffffffffffffffffffffffffffffffff166000809054906101000a900473ffffffffffffffffffffffffffffffffffffffff1673ffffffffffffffffffffffffffffffffffffffff167f8be0079c531659141344cd1fd0a4f28419497f9722a3daafe3b4186f6b6457e060405160405180910390a3806000806101000a81548173ffffffffffffffffffffffffffffffffffffffff021916908373ffffffffffffffffffffffffffffffffffffffff16021790555050565b60095481565b600080600c838154811015156131b957fe5b906000526020600020906002020190506131fa8160000160009054906101000a900460ff168260000160019054906101000a900460ff168360010154612322565b915050919050565b600581565b600e6020528160005260406000208181548110151561322257fe5b90600052602060002001600091509150505481565b60008061325134866020015161327a90919063ffffffff16565b905061325d848461223d565b81101561326d5760009150613272565b600191505b509392505050565b600080828401905083811015151561329157600080fd5b8091505092915050565b6000808383111515156132ad57600080fd5b82840390508091505092915050565b600160009054906101000a900473ffffffffffffffffffffffffffffffffffffffff1673ffffffffffffffffffffffffffffffffffffffff166108fc60646001340281151561330757fe5b049081150290604051600060405180830381858888f19350505050158015613333573d6000803e3d6000fd5b50600260009054906101000a900473ffffffffffffffffffffffffffffffffffffffff1673ffffffffffffffffffffffffffffffffffffffff166108fc6064600e340281151561337f57fe5b049081150290604051600060405180830381858888f193505050501580156133ab573d6000803e3d6000fd5b5050565b606060008060606000600a878154811015156133c757fe5b906000526020600020906007020160050180548060200260200160405190810160405280929190818152602001828054801561342257602002820191906000526020600020905b81548152602001906001019080831161340e575b50505050509450600093505b600584101561360557848481518110151561344557fe5b9060200190602002015192506000858581518110151561346157fe5b90602001906020020151141561347657613605565b662386f26fc10000600a8481548110151561348d57fe5b90600052602060002090600702016002015410156134aa576135f8565b6134d3600a848154811015156134bc57fe5b906000526020600020906007020160020154612540565b915061271082858151811015156134e657fe5b9060200190602002015161ffff1687028115156134ff57fe5b04905061353581600a8581548110151561351557fe5b90600052602060002090600702016001015461327a90919063ffffffff16565b600a8481548110151561354457fe5b90600052602060002090600702016001018190555061358c81600a8581548110151561356c57fe5b90600052602060002090600702016003015461327a90919063ffffffff16565b600a8481548110151561359b57fe5b9060005260206000209060070201600301819055507f211f658fbe3faa22f0ca8b56ad45888186f5bd0737b447cea43e6a0894b3301087848360405180848152602001838152602001828152602001935050505060405180910390a15b838060010194505061342e565b50505050505050565b6000806136428460000160009054906101000a900460ff168560000160019054906101000a900460ff168660010154612322565b905061369181846004018660000160009054906101000a900460ff16600381111561366957fe5b60ff1681548110151561367857fe5b906000526020600020015461327a90919063ffffffff16565b836004018560000160009054906101000a900460ff1660038111156136b257fe5b60ff168154811015156136c157fe5b90600052602060002001819055504284600101819055507f5dc5b82e66c5dcc43c01835de9ee74f6380209b673fbdd18668826fc898c66b18460000160009054906101000a900460ff16826040518083600381111561371c57fe5b60ff1681526020018281526020019250505060405180910390a18091505092915050565b60008090505b60078054905081101561376b5761375e818484615470565b8080600101915050613746565b505050565b6000808284141561378057613911565b82600a8581548110151561379057fe5b906000526020600020906007020160050160008154811015156137af57fe5b9060005260206000200181905550600191505b60058210156138b257600a838154811015156137da57fe5b9060005260206000209060070201600501600183038154811015156137fb57fe5b9060005260206000200154905080600a8581548110151561381857fe5b90600052602060002090600702016005018381548110151561383657fe5b9060005260206000200181905550600a8181548110151561385357fe5b906000526020600020906007020160060160008360ff1660ff16815260200190815260200160002084908060018154018082558091505090600182039060005260206000200160009091929091909150555081806001019250506137c2565b600a838154811015156138c157fe5b906000526020600020906007020160060160008060ff1681526020019081526020016000208490806001815401808255809150509060018203906000526020600020016000909192909190915055505b50505050565b640563d8f7806003600080600381111561392d57fe5b60ff1660ff1681526020019081526020016000208190555064087d2f7300600360006001600381111561395c57fe5b60ff1660ff168152602001908152602001600020819055506409e19f0200600360006002600381111561398b57fe5b60ff1660ff16815260200190815260200160002081905550640f7eb06980600360006003808111156139b957fe5b60ff1660ff16815260200190815260200160002081905550565b606060405190810160405280662386f26fc10000815260200160c88152602001600081525060046000806003811115613a0857fe5b60ff1660ff16815260200190815260200160002060008060ff168152602001908152602001600020600082015181600001556020820151816001015560408201518160020155905050606060405190810160405280666a94d74f4300008152602001610190815260200160008152506004600060016003811115613a8857fe5b60ff1660ff16815260200190815260200160002060008060ff16815260200190815260200160002060008201518160000155602082015181600101556040820151816002015590505060606040519081016040528066b1a2bc2ec500008152602001610258815260200160008152506004600060026003811115613b0857fe5b60ff1660ff16815260200190815260200160002060008060ff16815260200190815260200160002060008201518160000155602082015181600101556040820151816002015590505060606040519081016040528067016345785d8a000081526020016103208152602001600081525060046000600380811115613b8857fe5b60ff1660ff16815260200190815260200160002060008060ff16815260200190815260200160002060008201518160000155602082015181600101556040820151816002015590505060606040519081016040528066b1a2bc2ec5000081526020016104b08152602001607881525060046000806003811115613c0757fe5b60ff1660ff1681526020019081526020016000206000600160ff16815260200190815260200160002060008201518160000155602082015181600101556040820151816002015590505060606040519081016040528067013fbe85edc9000081526020016106408152602001608a8152506004600060016003811115613c8957fe5b60ff1660ff1681526020019081526020016000206000600160ff168152602001908152602001600020600082015181600001556020820151816001015560408201518160020155905050606060405190810160405280670214e8348c4f00008152602001610960815260200160a48152506004600060026003811115613d0b57fe5b60ff1660ff1681526020019081526020016000206000600160ff1681526020019081526020016000206000820151816000015560208201518160010155604082015181600201559050506060604051908101604052806706f05b59d3b2000081526020016112c081526020016101a281525060046000600380811115613d8d57fe5b60ff1660ff1681526020019081526020016000206000600160ff1681526020019081526020016000206000820151816000015560208201518160010155604082015181600201559050506060604051908101604052806701aa535d3d0c00008152602001610e10815260200161021c81525060046000806003811115613e0f57fe5b60ff1660ff1681526020019081526020016000206000600260ff1681526020019081526020016000206000820151816000015560208201518160010155604082015181600201559050506060604051908101604052806703bf3b91c95b0000815260200161145081526020016103628152506004600060016003811115613e9257fe5b60ff1660ff1681526020019081526020016000206000600260ff1681526020019081526020016000206000820151816000015560208201518160010155604082015181600201559050506060604051908101604052806704db73254763000081526020016119c8815260200161041a8152506004600060026003811115613f1557fe5b60ff1660ff1681526020019081526020016000206000600260ff168152602001908152602001600020600082015181600001556020820151816001015560408201518160020155905050606060405190810160405280670de0b6b3a76400008152602001613200815260200161068681525060046000600380811115613f9757fe5b60ff1660ff1681526020019081526020016000206000600260ff168152602001908152602001600020600082015181600001556020820151816001015560408201518160020155905050606060405190810160405280670429d069189e0000815260200161258081526020016109608152506004600080600381111561401957fe5b60ff1660ff1681526020019081526020016000206000600360ff168152602001908152602001600020600082015181600001556020820151816001015560408201518160020155905050606060405190810160405280670a688906bd8b00008152602001613b608152602001610f8c815250600460006001600381111561409c57fe5b60ff1660ff1681526020019081526020016000206000600360ff168152602001908152602001600020600082015181600001556020820151816001015560408201518160020155905050606060405190810160405280670ff59ee833b300008152602001614fb081526020016113eb815250600460006002600381111561411f57fe5b60ff1660ff1681526020019081526020016000206000600360ff1681526020019081526020016000206000820151816000015560208201518160010155604082015181600201559050506060604051908101604052806730927f74c9de00008152602001619f608152602001612d0b815250600460006003808111156141a157fe5b60ff1660ff1681526020019081526020016000206000600360ff168152602001908152602001600020600082015181600001556020820151816001015560408201518160020155905050606060405190810160405280670c7d713b49da00008152602001616bd081526020016125bc8152506004600080600381111561422357fe5b60ff1660ff1681526020019081526020016000206000600460ff168152602001908152602001600020600082015181600001556020820151816001015560408201518160020155905050606060405190810160405280671d8f47b6fb950000815260200161aa508152602001613cd081525060046000600160038111156142a657fe5b60ff1660ff1681526020019081526020016000206000600460ff1681526020019081526020016000206000820151816000015560208201518160010155604082015181600201559050506060604051908101604052806729a2241af62c0000815260200161dc508152602001614617815250600460006002600381111561432957fe5b60ff1660ff1681526020019081526020016000206000600460ff168152602001908152602001600020600082015181600001556020820151816001015560408201518160020155905050606060405190810160405280676124fee993bc0000815260200162017a208152602001617b4f815250600460006003808111156143ac57fe5b60ff1660ff1681526020019081526020016000206000600460ff1681526020019081526020016000206000820151816000015560208201518160010155604082015181600201559050506060604051908101604052806718fae27693b40000815260200161f87081526020016163608152506004600080600381111561442e57fe5b60ff1660ff1681526020019081526020016000206000600560ff1681526020019081526020016000206000820151816000015560208201518160010155604082015181600201559050506060604051908101604052806749b0e8ddcd53000081526020016201bee0815260200161bf7e81525060046000600160038111156144b257fe5b60ff1660ff1681526020019081526020016000206000600560ff16815260200190815260200160002060008201518160000155602082015181600101556040820151816002015590505060606040519081016040528067654ecf52ac5a0000815260200162023280815260200161d94d815250600460006002600381111561453657fe5b60ff1660ff1681526020019081526020016000206000600560ff16815260200190815260200160002060008201518160000155602082015181600101556040820151816002015590505060606040519081016040528067ed4f67667b2e00008152602001620390808152602001620178ec815250600460006003808111156145ba57fe5b60ff1660ff1681526020019081526020016000206000600560ff168152602001908152602001600020600082015181600001556020820151816001015560408201518160020155905050606060405190810160405280674af0a763bb1c0000815260200162029e50815260200162014f288152506004600080600381111561463e57fe5b60ff1660ff1681526020019081526020016000206000600660ff16815260200190815260200160002060008201518160000155602082015181600101556040820151816002015590505060606040519081016040528067c0c331685a2d0000815260200162048da08152602001620269a881525060046000600160038111156146c357fe5b60ff1660ff1681526020019081526020016000206000600660ff1681526020019081526020016000206000820151816000015560208201518160010155604082015181600201559050506060604051908101604052806801534fd975564d000081526020016206ac98815260200162035632815250600460006002600381111561474957fe5b60ff1660ff1681526020019081526020016000206000600660ff168152602001908152602001600020600082015181600001556020820151816001015560408201518160020155905050606060405190810160405280680302379bf2ca2e00008152602001620a56e0815260200162056509815250600460006003808111156147ce57fe5b60ff1660ff1681526020019081526020016000206000600660ff168152602001908152602001600020600082015181600001556020820151816001015560408201518160020155905050565b614822615e36565b61482a615e36565b614832615e36565b606060405190810160405280662386f26fc100008152602001678ac7230489e7ffff815260200160056040519080825280602002602001820160405280156148895781602001602082028038833980820191505090505b50815250925061012c836040015160008151811015156148a557fe5b9060200190602002019061ffff16908161ffff1681525050604b836040015160018151811015156148d257fe5b9060200190602002019061ffff16908161ffff1681525050603c836040015160028151811015156148ff57fe5b9060200190602002019061ffff16908161ffff168152505060288360400151600381518110151561492c57fe5b9060200190602002019061ffff16908161ffff168152505060198360400151600481518110151561495957fe5b9060200190602002019061ffff16908161ffff168152505060058390806001815401808255809150509060018203906000526020600020906003020160009091929091909150600082015181600001556020820151816001015560408201518160020190805190602001906149cf929190615e58565b50505050606060405190810160405280678ac7230489e8000081526020016802b5e3af16b187ffff81526020016005604051908082528060200260200182016040528015614a2c5781602001602082028038833980820191505090505b5081525091506101f482604001516000815181101515614a4857fe5b9060200190602002019061ffff16908161ffff168152505060c882604001516001815181101515614a7557fe5b9060200190602002019061ffff16908161ffff1681525050609682604001516002815181101515614aa257fe5b9060200190602002019061ffff16908161ffff1681525050606482604001516003815181101515614acf57fe5b9060200190602002019061ffff16908161ffff1681525050603282604001516004815181101515614afc57fe5b9060200190602002019061ffff16908161ffff16815250506005829080600181540180825580915050906001820390600052602060002090600302016000909192909190915060008201518160000155602082015181600101556040820151816002019080519060200190614b72929190615e58565b505050506060604051908101604052806802b5e3af16b188000081526020017fffffffffffffffffffffffffffffffffffffffffffffffffffffffffffffffff81526020016005604051908082528060200260200182016040528015614be75781602001602082028038833980820191505090505b5081525090506102bc81604001516000815181101515614c0357fe5b9060200190602002019061ffff16908161ffff168152505061012c81604001516001815181101515614c3157fe5b9060200190602002019061ffff16908161ffff168152505060fa81604001516002815181101515614c5e57fe5b9060200190602002019061ffff16908161ffff1681525050609681604001516003815181101515614c8b57fe5b9060200190602002019061ffff16908161ffff1681525050606481604001516004815181101515614cb857fe5b9060200190602002019061ffff16908161ffff16815250506005819080600181540180825580915050906001820390600052602060002090600302016000909192909190915060008201518160000155602082015181600101556040820151816002019080519060200190614d2e929190615e58565b50505050505050565b600a600660008060ff16815260200190815260200160002081905550600760066000600160ff16815260200190815260200160002081905550600560066000600260ff16815260200190815260200160002081905550600360066000600360ff16815260200190815260200160002081905550600160066000600460ff16815260200190815260200160002081905550600060066000600560ff16815260200190815260200160002081905550600060066000600660ff168152602001908152602001600020819055506007608060405190810160405280620151804201815260200162015180815260200160008152602001600760ff16604051908082528060200260200182016040528015614e5d5781602001602082028038833980820191505090505b50815250908060018154018082558091505090600182039060005260206000209060050201600090919290919091506000820151816000015560208201518160010155604082015181600201556060820151816003019080519060200190614ec6929190615f02565b50505050600760806040519081016040528062093a804201815260200162093a80815260200160008152602001600760ff16604051908082528060200260200182016040528015614f265781602001602082028038833980820191505090505b50815250908060018154018082558091505090600182039060005260206000209060050201600090919290919091506000820151816000015560208201518160010155604082015181600201556060820151816003019080519060200190614f8f929190615f02565b5050505060076080604051908101604052806304a28600420181526020016304a28600815260200160008152602001600760ff16604051908082528060200260200182016040528015614ff15781602001602082028038833980820191505090505b5081525090806001815401808255809150509060018203906000526020600020906005020160009091929091909150600082015181600001556020820151816001015560408201518160020155606082015181600301908051906020019061505a929190615f02565b5050505060076080604051908101604052806301e13380420181526020016301e13380815260200160008152602001600760ff166040519080825280602002602001820160405280156150bc5781602001602082028038833980820191505090505b50815250908060018154018082558091505090600182039060005260206000209060050201600090919290919091506000820151816000015560208201518160010155604082015181600201556060820151816003019080519060200190615125929190615f02565b50505050565b600080600080600a8681548110151561514057fe5b906000526020600020906007020192506152938360c060405190810160405290816000820160009054906101000a900473ffffffffffffffffffffffffffffffffffffffff1673ffffffffffffffffffffffffffffffffffffffff1673ffffffffffffffffffffffffffffffffffffffff1681526020016001820154815260200160028201548152602001600382015481526020016004820180548060200260200160405190810160405280929190818152602001828054801561522357602002820191906000526020600020905b81548152602001906001019080831161520f575b505050505081526020016005820180548060200260200160405190810160405280929190818152602001828054801561527b57602002820191906000526020600020905b815481526020019060010190808311615267575b50505050508152505086600001518760200151613237565b151561529e57600080fd5b6152a960008061223d565b91506152c234846001015461327a90919063ffffffff16565b83600101819055506152e182846001015461329b90919063ffffffff16565b836001018190555061530082846002015461327a90919063ffffffff16565b83600201819055506001600c869080600181540180825580915050906001820390600052602060002090600202016000909192909190915060008201518160000160006101000a81548160ff0219169083600381111561535c57fe5b021790555060208201518160000160016101000a81548160ff021916908360ff16021790555060408201518160010155505003905085600d600083815260200190815260200160002081905550600e60008781526020019081526020016000208190806001815401808255809150509060018203906000526020600020016000909192909190915055506153ef346132bc565b6153f986836133af565b6154033334613740565b7f8f59dce00c1ab7202394532f1ca472fd1968974b94e346f4bb01270676cbe89686828760000151856040518085815260200184815260200183600381111561544857fe5b60ff16815260200182815260200194505050505060405180910390a180935050505092915050565b6000806000806000606060008060008060078d81548110151561548f57fe5b9060005260206000209060050201600001544211156154b2576154b18d615c81565b5b60078d8154811015156154c157fe5b9060005260206000209060050201995089600301985061552b8b8b60040160008f73ffffffffffffffffffffffffffffffffffffffff1673ffffffffffffffffffffffffffffffffffffffff1681526020019081526020016000205461327a90919063ffffffff16565b9750878a60040160008e73ffffffffffffffffffffffffffffffffffffffff1673ffffffffffffffffffffffffffffffffffffffff16815260200190815260200160002081905550896002015488101561558457615c72565b73__Math__________________________________637ae2b5c760018b805490500160076040518363ffffffff167c0100000000000000000000000000000000000000000000000000000000028152600401808381526020018260ff1681526020019250505060206040518083038186803b15801561560257600080fd5b505af4158015615616573d6000803e3d6000fd5b505050506040513d602081101561562c57600080fd5b8101908080519060200190929190505050965060009550866040519080825280602002602001820160405280156156725781602001602082028038833980820191505090505b5094506000935060009250600091505b86821015615bbc5781905083156156ac5780806001900391505082156156ab5780806001019150505b5b600089838154811015156156bc57fe5b9060005260206000200160009054906101000a900473ffffffffffffffffffffffffffffffffffffffff1673ffffffffffffffffffffffffffffffffffffffff16141561586a578315156157d957600193508b858781518110151561571d57fe5b9060200190602002019073ffffffffffffffffffffffffffffffffffffffff16908173ffffffffffffffffffffffffffffffffffffffff16815250507fbd3bef4119f7e7b91bc2fa8eed6d40200c45e56c56baf269caf281361e7c47608d8d888b604051808581526020018473ffffffffffffffffffffffffffffffffffffffff1673ffffffffffffffffffffffffffffffffffffffff16815260200183815260200182815260200194505050505060405180910390a161585d565b88818154811015156157e757fe5b9060005260206000200160009054906101000a900473ffffffffffffffffffffffffffffffffffffffff16858781518110151561582057fe5b9060200190602002019073ffffffffffffffffffffffffffffffffffffffff16908173ffffffffffffffffffffffffffffffffffffffff16815250505b8580600101965050615bbc565b888281548110151561587857fe5b9060005260206000200160009054906101000a900473ffffffffffffffffffffffffffffffffffffffff1673ffffffffffffffffffffffffffffffffffffffff168c73ffffffffffffffffffffffffffffffffffffffff1614156159c8578315615973576001925088600183038154811015156158f157fe5b9060005260206000200160009054906101000a900473ffffffffffffffffffffffffffffffffffffffff16858781518110151561592a57fe5b9060200190602002019073ffffffffffffffffffffffffffffffffffffffff16908173ffffffffffffffffffffffffffffffffffffffff168152505085806001019650506159c3565b600193508b858781518110151561598657fe5b9060200190602002019073ffffffffffffffffffffffffffffffffffffffff16908173ffffffffffffffffffffffffffffffffffffffff16815250505b615baf565b8960040160008a848154811015156159dc57fe5b9060005260206000200160009054906101000a900473ffffffffffffffffffffffffffffffffffffffff1673ffffffffffffffffffffffffffffffffffffffff1673ffffffffffffffffffffffffffffffffffffffff1681526020019081526020016000205488118015615a4e575083155b15615b2257600193508b8587815181101515615a6657fe5b9060200190602002019073ffffffffffffffffffffffffffffffffffffffff16908173ffffffffffffffffffffffffffffffffffffffff16815250507fbd3bef4119f7e7b91bc2fa8eed6d40200c45e56c56baf269caf281361e7c47608d8d888b604051808581526020018473ffffffffffffffffffffffffffffffffffffffff1673ffffffffffffffffffffffffffffffffffffffff16815260200183815260200182815260200194505050505060405180910390a1615ba6565b8881815481101515615b3057fe5b9060005260206000200160009054906101000a900473ffffffffffffffffffffffffffffffffffffffff168587815181101515615b6957fe5b9060200190602002019073ffffffffffffffffffffffffffffffffffffffff16908173ffffffffffffffffffffffffffffffffffffffff16815250505b85806001019650505b8180600101925050615682565b868210158015615bc95750835b15615c58578860018803815481101515615bdf57fe5b9060005260206000200160009054906101000a900473ffffffffffffffffffffffffffffffffffffffff168560018903815181101515615c1b57fe5b9060200190602002019073ffffffffffffffffffffffffffffffffffffffff16908173ffffffffffffffffffffffffffffffffffffffff16815250505b848a6003019080519060200190615c70929190615f8c565b505b50505050505050505050505050565b6000600782815481101515615c9257fe5b90600052602060002090600502019050608060405190810160405280826001015483600001540181526020018260010154815260200160008152602001600760ff16604051908082528060200260200182016040528015615d025781602001602082028038833980820191505090505b50815250600783815481101515615d1557fe5b90600052602060002090600502016000820151816000015560208201518160010155604082015181600201556060820151816003019080519060200190615d5d929190615f02565b509050507f7cce3b409f5d6aca017a29bcb7332d4626c08cc76a25438953274f45723716c6826040518082815260200191505060405180910390a15050565b828054828255906000526020600020908101928215615dd8579160200282015b82811115615dd7578251825591602001919060010190615dbc565b5b509050615de59190616016565b5090565b60c060405190810160405280600073ffffffffffffffffffffffffffffffffffffffff16815260200160008152602001600081526020016000815260200160608152602001606081525090565b6060604051908101604052806000815260200160008152602001606081525090565b82805482825590600052602060002090600f01601090048101928215615ef15791602002820160005b83821115615ec157835183826101000a81548161ffff021916908361ffff1602179055509260200192600201602081600101049283019260010302615e81565b8015615eef5782816101000a81549061ffff0219169055600201602081600101049283019260010302615ec1565b505b509050615efe919061603b565b5090565b828054828255906000526020600020908101928215615f7b579160200282015b82811115615f7a5782518260006101000a81548173ffffffffffffffffffffffffffffffffffffffff021916908373ffffffffffffffffffffffffffffffffffffffff16021790555091602001919060010190615f22565b5b509050615f88919061606c565b5090565b828054828255906000526020600020908101928215616005579160200282015b828111156160045782518260006101000a81548173ffffffffffffffffffffffffffffffffffffffff021916908373ffffffffffffffffffffffffffffffffffffffff16021790555091602001919060010190615fac565b5b509050616012919061606c565b5090565b61603891905b8082111561603457600081600090555060010161601c565b5090565b90565b61606991905b8082111561606557600081816101000a81549061ffff021916905550600101616041565b5090565b90565b6160ac91905b808211156160a857600081816101000a81549073ffffffffffffffffffffffffffffffffffffffff021916905550600101616072565b5090565b905600a165627a7a72305820cdc3b6118bb43bca935e2947160b0e8bbb945868f861b300df75f0bc9d9d05de0029",
  "source": "pragma solidity ^0.4.24;\n\n/*\n*__/\\\\\\\\____________/\\\\\\\\________________/\\\\\\\\____________/\\\\\\\\________/\\\\\\\\\\\\_____/\\\\\\\\\\\\___________________________________________________\n* _\\/\\\\\\\\\\\\________/\\\\\\\\\\\\_______________\\/\\\\\\\\\\\\________/\\\\\\\\\\\\_______\\////\\\\\\____\\////\\\\\\___________________________________________________\n*  _\\/\\\\\\//\\\\\\____/\\\\\\//\\\\\\____/\\\\\\__/\\\\\\_\\/\\\\\\//\\\\\\____/\\\\\\//\\\\\\__/\\\\\\____\\/\\\\\\_______\\/\\\\\\_____/\\\\\\__________________________________________\n*   _\\/\\\\\\\\///\\\\\\/\\\\\\/_\\/\\\\\\___\\//\\\\\\/\\\\\\__\\/\\\\\\\\///\\\\\\/\\\\\\/_\\/\\\\\\_\\///_____\\/\\\\\\_______\\/\\\\\\____\\///______/\\\\\\\\\\_____/\\\\/\\\\\\\\\\\\____/\\\\\\\\\\\\\\\\\\\\_\n*    _\\/\\\\\\__\\///\\\\\\/___\\/\\\\\\____\\//\\\\\\\\\\___\\/\\\\\\__\\///\\\\\\/___\\/\\\\\\__/\\\\\\____\\/\\\\\\_______\\/\\\\\\_____/\\\\\\___/\\\\\\///\\\\\\__\\/\\\\\\////\\\\\\__\\/\\\\\\//////__\n*     _\\/\\\\\\____\\///_____\\/\\\\\\_____\\//\\\\\\____\\/\\\\\\____\\///_____\\/\\\\\\_\\/\\\\\\____\\/\\\\\\_______\\/\\\\\\____\\/\\\\\\__/\\\\\\__\\//\\\\\\_\\/\\\\\\__\\//\\\\\\_\\/\\\\\\\\\\\\\\\\\\\\_\n*      _\\/\\\\\\_____________\\/\\\\\\__/\\\\_/\\\\\\_____\\/\\\\\\_____________\\/\\\\\\_\\/\\\\\\____\\/\\\\\\_______\\/\\\\\\____\\/\\\\\\_\\//\\\\\\__/\\\\\\__\\/\\\\\\___\\/\\\\\\_\\////////\\\\\\_\n*       _\\/\\\\\\_____________\\/\\\\\\_\\//\\\\\\\\/______\\/\\\\\\_____________\\/\\\\\\_\\/\\\\\\__/\\\\\\\\\\\\\\\\\\__/\\\\\\\\\\\\\\\\\\_\\/\\\\\\__\\///\\\\\\\\\\/___\\/\\\\\\___\\/\\\\\\__/\\\\\\\\\\\\\\\\\\\\_\n*        _\\///______________\\///___\\////________\\///______________\\///__\\///__\\/////////__\\/////////__\\///_____\\/////_____\\///____\\///__\\//////////__\n*/\n\nimport \"./Math.sol\";\nimport \"./Ownable.sol\";\nimport \"./LeaderSystem.sol\";\nimport \"./SafeMath.sol\";\n\ncontract Factoring {\n\n    enum FactoryType { Wood, Metal, Oil, PreciousMetal }\n\n    mapping (uint8 => uint256) public resourcePrices;\n\n    function setupFactoringModule() internal {\n        resourcePrices[uint8(FactoryType.Wood)]         = 0.02315 szabo;\n        resourcePrices[uint8(FactoryType.Metal)]        = 0.03646 szabo;\n        resourcePrices[uint8(FactoryType.Oil)]          = 0.04244 szabo;\n        resourcePrices[uint8(FactoryType.PreciousMetal)]= 0.06655 szabo;\n    }\n\n    function getResourcePrice(uint8 _type) public view returns(uint256) {\n        return resourcePrices[_type];\n    }\n\n}\n\ncontract Improvements is Factoring {\n\n    mapping (uint8 => mapping (uint8 => Params)) public levelStack;\n    uint8 public constant levelsCount = 7;\n\n    struct Params {\n        uint256 price;      // improvements cost\n        uint256 ppm;        // products per minute\n        uint256 ppmBonus;   // bonus per minute\n    }\n\n    function setupImprovementsModule() internal {\n        // initial pricess\n        levelStack[uint8(FactoryType.Wood)][0]          = Params(0.01 ether, 200, 0);\n        levelStack[uint8(FactoryType.Metal)][0]         = Params(0.03 ether, 400, 0);\n        levelStack[uint8(FactoryType.Oil)][0]           = Params(0.05 ether, 600, 0);\n        levelStack[uint8(FactoryType.PreciousMetal)][0] = Params(0.10 ether, 800, 0);\n\n        // level 1\n        levelStack[uint8(FactoryType.Wood)][1]          = Params(0.05 ether, 1200, 120);\n        levelStack[uint8(FactoryType.Metal)][1]         = Params(0.09 ether, 1600, 138);\n        levelStack[uint8(FactoryType.Oil)][1]           = Params(0.15 ether, 2400, 164);\n        levelStack[uint8(FactoryType.PreciousMetal)][1] = Params(0.50 ether, 4800, 418);\n\n        // level 2\n        levelStack[uint8(FactoryType.Wood)][2]          = Params(0.12 ether, 3600, 540);\n        levelStack[uint8(FactoryType.Metal)][2]         = Params(0.27 ether, 5200, 866);\n        levelStack[uint8(FactoryType.Oil)][2]           = Params(0.35 ether, 6600, 1050);\n        levelStack[uint8(FactoryType.PreciousMetal)][2] = Params(1.00 ether, 12800, 1670);\n\n        // level 3\n        levelStack[uint8(FactoryType.Wood)][3]          = Params(0.30 ether, 9600, 2400);\n        levelStack[uint8(FactoryType.Metal)][3]         = Params(0.75 ether, 15200, 3980);\n        levelStack[uint8(FactoryType.Oil)][3]           = Params(1.15 ether, 20400, 5099);\n        levelStack[uint8(FactoryType.PreciousMetal)][3] = Params(3.50 ether, 40800, 11531);\n\n        // level 4\n        levelStack[uint8(FactoryType.Wood)][4]          = Params(0.90 ether, 27600, 9660);\n        levelStack[uint8(FactoryType.Metal)][4]         = Params(2.13 ether, 43600, 15568);\n        levelStack[uint8(FactoryType.Oil)][4]           = Params(3.00 ether, 56400, 17943);\n        levelStack[uint8(FactoryType.PreciousMetal)][4] = Params(7.00 ether, 96800, 31567);\n\n        // level 5\n        levelStack[uint8(FactoryType.Wood)][5]          = Params(1.80 ether, 63600, 25440);\n        levelStack[uint8(FactoryType.Metal)][5]         = Params(5.31 ether, 114400, 49022);\n        levelStack[uint8(FactoryType.Oil)][5]           = Params(7.30 ether, 144000, 55629);\n        levelStack[uint8(FactoryType.PreciousMetal)][5] = Params(17.10 ether, 233600, 96492);\n\n        // level 6\n        levelStack[uint8(FactoryType.Wood)][6]          = Params(5.40 ether, 171600, 85800);\n        levelStack[uint8(FactoryType.Metal)][6]         = Params(13.89 ether, 298400, 158120);\n        levelStack[uint8(FactoryType.Oil)][6]           = Params(24.45 ether, 437400, 218674);\n        levelStack[uint8(FactoryType.PreciousMetal)][6] = Params(55.50 ether, 677600, 353545);\n    }\n\n    function getPrice(FactoryType _type, uint8 _level) public view returns(uint256) {\n        return levelStack[uint8(_type)][_level].price;\n    }\n\n    function getProductsPerMinute(FactoryType _type, uint8 _level) public view returns(uint256) {\n        return levelStack[uint8(_type)][_level].ppm;\n    }\n\n    function getBonusPerMinute(FactoryType _type, uint8 _level) public view returns(uint256) {\n        return levelStack[uint8(_type)][_level].ppmBonus;\n    }\n}\n\ncontract ReferralsSystem {\n\n    struct ReferralGroup {\n        uint256 minSum;\n        uint256 maxSum;\n        uint16[] percents;\n    }\n\n    uint256 public constant minSumReferral = 0.01 ether;\n    uint256 public constant referralLevelsGroups = 3;\n    uint256 public constant referralLevelsCount = 5;\n    ReferralGroup[] public referralGroups;\n\n    function setupReferralsSystemModule() internal {\n        ReferralGroup memory refGroupFirsty = ReferralGroup(minSumReferral, 10 ether - 1 wei, new uint16[](referralLevelsCount));\n        refGroupFirsty.percents[0] = 300;   // 3%\n        refGroupFirsty.percents[1] = 75;    // 0.75%\n        refGroupFirsty.percents[2] = 60;    // 0.6%\n        refGroupFirsty.percents[3] = 40;    // 0.4%\n        refGroupFirsty.percents[4] = 25;    // 0.25%\n        referralGroups.push(refGroupFirsty);\n\n        ReferralGroup memory refGroupLoyalty = ReferralGroup(10 ether, 50 ether - 1 wei, new uint16[](referralLevelsCount));\n        refGroupLoyalty.percents[0] = 500;  // 5%\n        refGroupLoyalty.percents[1] = 200;  // 2%\n        refGroupLoyalty.percents[2] = 150;  // 1.5%\n        refGroupLoyalty.percents[3] = 100;  // 1%\n        refGroupLoyalty.percents[4] = 50;   // 0.5%\n        referralGroups.push(refGroupLoyalty);\n\n        ReferralGroup memory refGroupUltraPremium = ReferralGroup(50 ether, 2**256 - 1, new uint16[](referralLevelsCount));\n        refGroupUltraPremium.percents[0] = 700; // 7%\n        refGroupUltraPremium.percents[1] = 300; // 3%\n        refGroupUltraPremium.percents[2] = 250; // 2.5%\n        refGroupUltraPremium.percents[3] = 150; // 1.5%\n        refGroupUltraPremium.percents[4] = 100; // 1%\n        referralGroups.push(refGroupUltraPremium);\n    }\n\n    function getReferralPercents(uint256 _sum) public view returns(uint16[]) {\n        for (uint i = 0; i < referralLevelsGroups; i++) {\n            ReferralGroup memory group = referralGroups[i];\n            if (_sum >= group.minSum && _sum <= group.maxSum) return group.percents;\n        }\n    }\n\n    function getReferralPercentsByIndex(uint256 _index) public view returns(uint16[]) {\n        return referralGroups[_index].percents;\n    }\n\n}\n\n/// @title Smart-contract of MyMillions ecosystem\n/// @author Shagaleev Alexey\ncontract MyMillions is Ownable, Improvements, ReferralsSystem, LeaderSystem {\n    using SafeMath for uint256;\n\n    event CreateUser(uint256 _index, address _address, uint256 _balance);\n    event ReferralRegister(uint256 _refferalId, uint256 _userId);\n    event ReferrerDistribute(uint256 _userId, uint256 _referrerId, uint256 _sum);\n    event Deposit(uint256 _userId, uint256 _value);\n    event PaymentProceed(uint256 _userId, uint256 _factoryId, FactoryType _factoryType, uint256 _price);\n    event CollectResources(FactoryType _type, uint256 _resources);\n    event LevelUp(uint256 _factoryId, uint8 _newLevel, uint256 _userId);\n    event Sell(uint256 _userId, uint8 _type, uint256 _sum);\n\n    bool isSetted = false;\n    uint256 public minSumDeposit = 0.01 ether;\n\n    struct User {\n        address addr;                                   // user address\n        uint256 balance;                                // balance of account\n        uint256 totalPay;                               // sum of all input pay\n        uint256 referrersReceived;                      // total deposit from referrals\n        uint256[] resources;                            // collected resources\n        uint256[] referrersByLevel;                     // referrers user ids\n        mapping (uint8 => uint256[]) referralsByLevel;  // all referrals user ids\n    }\n\n    User[] public users;\n    mapping (address => uint256) public addressToUser;\n\n    struct Factory {\n        FactoryType ftype;      // factory type\n        uint8 level;            // factory level\n        uint256 collected_at;   // timestamp updated\n    }\n\n    Factory[] public factories;\n    mapping (uint256 => uint256) public factoryToUser;\n    mapping (uint256 => uint256[]) public userToFactories;\n\n    modifier onlyExistingUser() {\n        require(addressToUser[msg.sender] != 0);\n        _;\n    }\n    modifier onlyNotExistingUser() {\n        require(addressToUser[msg.sender] == 0);\n        _;\n    }\n\n    constructor() public payable {\n        users.push(User(0x0, 0, 0, 0, new uint256[](4), new uint256[](referralLevelsCount)));  // for find by addressToUser map\n    }\n\n    function setup() public onlyOwner {\n        require(isSetted == false);\n        isSetted = true;\n\n        setupFactoringModule();\n        setupImprovementsModule();\n        setupReferralsSystemModule();\n        setupLeaderSystemModule();\n    }\n\n    // @dev register for only new users with min pay\n    /// @return id of new user\n    function register() public payable onlyNotExistingUser returns(uint256) {\n        require(addressToUser[msg.sender] == 0);\n\n        uint256 index = users.push(User(msg.sender, msg.value, 0, 0, new uint256[](4), new uint256[](referralLevelsCount))) - 1;\n        addressToUser[msg.sender] = index;\n\n        emit CreateUser(index, msg.sender, msg.value);\n        return index;\n    }\n\n\n    /// @notice just registry by referral link\n    /// @param _refId the ID of the user who gets the affiliate fee\n    /// @return id of new user\n    function registerWithRefID(uint256 _refId) public payable onlyNotExistingUser returns(uint256) {\n        require(_refId < users.length);\n\n        uint256 index = register();\n        _updateReferrals(index, _refId);\n\n        emit ReferralRegister(_refId, index);\n        return index;\n    }\n\n    /// @notice update referrersByLevel and referralsByLevel of new user\n    /// @param _newUserId the ID of the new user\n    /// @param _refUserId the ID of the user who gets the affiliate fee\n    function _updateReferrals(uint256 _newUserId, uint256 _refUserId) private {\n        if (_newUserId == _refUserId) return;\n        users[_newUserId].referrersByLevel[0] = _refUserId;\n\n        for (uint i = 1; i < referralLevelsCount; i++) {\n            uint256 _refId = users[_refUserId].referrersByLevel[i - 1];\n            users[_newUserId].referrersByLevel[i] = _refId;\n            users[_refId].referralsByLevel[uint8(i)].push(_newUserId);\n        }\n\n        users[_refUserId].referralsByLevel[0].push(_newUserId);\n    }\n\n    /// @notice distribute value of tx to referrers of user\n    /// @param _userId the ID of the user who gets the affiliate fee\n    /// @param _sum value of ethereum for distribute to referrers of user\n    function _distributeReferrers(uint256 _userId, uint256 _sum) private {\n        uint256[] memory referrers = users[_userId].referrersByLevel;\n\n        for (uint i = 0; i < referralLevelsCount; i++) {\n            uint256 referrerId = referrers[i];\n\n            if (referrers[i] == 0) break;\n            if (users[referrerId].totalPay < minSumReferral) continue;\n\n            uint16[] memory percents = getReferralPercents(users[referrerId].totalPay);\n            uint256 value = _sum * percents[i] / 10000;\n            users[referrerId].balance = users[referrerId].balance.add(value);\n            users[referrerId].referrersReceived = users[referrerId].referrersReceived.add(value);\n\n            emit ReferrerDistribute(_userId, referrerId, value);\n        }\n    }\n\n    /// @notice deposit ethereum for user\n    /// @return balance value of user\n    function deposit() public payable onlyExistingUser returns(uint256) {\n        require(msg.value > minSumDeposit, \"Deposit does not enough\");\n        uint256 userId = addressToUser[msg.sender];\n        users[userId].balance = users[userId].balance.add(msg.value);\n\n        // distribute\n        _distributeInvestment(msg.value);\n        _updateLeaders(msg.sender, msg.value);\n\n        emit Deposit(userId, msg.value);\n        return users[userId].balance;\n    }\n\n    /// @notice getter for balance of user\n    /// @return balance value of user\n    function balanceOf() public view returns (uint256) {\n        return users[addressToUser[msg.sender]].balance;\n    }\n\n    /// @notice getter for resources of user\n    /// @return resources value of user\n    function resoucesOf() public view returns (uint256[]) {\n        return users[addressToUser[msg.sender]].resources;\n    }\n\n    /// @notice getter for referrers of user\n    /// @return array of referrers id\n    function referrersOf() public view returns (uint256[]) {\n        return users[addressToUser[msg.sender]].referrersByLevel;\n    }\n\n    /// @notice getter for referrals of user by level\n    /// @param _level level of referrals user needed\n    /// @return array of referrals id\n    function referralsOf(uint8 _level) public view returns (uint256[]) {\n        return users[addressToUser[msg.sender]].referralsByLevel[uint8(_level)];\n    }\n\n    /// @notice getter for extended information of user\n    /// @param _userId id of user needed\n    /// @return address of user\n    /// @return balance of user\n    /// @return totalPay of user\n    /// @return array of resources user\n    /// @return array of referrers id user\n    function userInfo(uint256 _userId) public view returns(address, uint256, uint256, uint256, uint256[], uint256[]) {\n        User memory user = users[_userId];\n        return (user.addr, user.balance, user.totalPay, user.referrersReceived, user.resources, user.referrersByLevel);\n    }\n\n    /// @notice mechanics of buying any factory\n    /// @param _type type of factory needed\n    /// @return id of new factory\n    function buyFactory(FactoryType _type) public payable onlyExistingUser returns (uint256) {\n        uint256 userId = addressToUser[msg.sender];\n\n        // if user not registered\n        if (addressToUser[msg.sender] == 0)\n            userId = register();\n\n        return _paymentProceed(userId, Factory(_type, 0, now));\n    }\n\n    /// @notice get factories of user\n    /// @param _user_id id of user\n    /// @return array of id factory\n    function getFactories(uint256 _user_id) public view returns (uint256[]) {\n        return userToFactories[_user_id];\n    }\n\n    /// @notice buy wood factory\n    /// @dev wrapper over buyFactory for FactoryType.Wood\n    /// @return id of new factory\n    function buyWoodFactory() public payable returns (uint256) {\n        return buyFactory(FactoryType.Wood);\n    }\n\n    /// @notice buy wood factory\n    /// @dev wrapper over buyFactory for FactoryType.Metal\n    /// @return id of new factory\n    function buyMetalFactory() public payable returns (uint256) {\n        return buyFactory(FactoryType.Metal);\n    }\n\n    /// @notice buy wood factory\n    /// @dev wrapper over buyFactory for FactoryType.Oil\n    /// @return id of new factory\n    function buyOilFactory() public payable returns (uint256) {\n        return buyFactory(FactoryType.Oil);\n    }\n\n    /// @notice buy wood factory\n    /// @dev wrapper over buyFactory for FactoryType.PreciousMetal\n    /// @return id of new factory\n    function buyPreciousMetal() public payable returns (uint256) {\n        return buyFactory(FactoryType.PreciousMetal);\n    }\n\n    /// @notice distribute investment when user buy anything\n    /// @param _value value of investment\n    function _distributeInvestment(uint256 _value) private {\n        developers.transfer(msg.value * developersPercent / 100);\n        marketers.transfer(msg.value * marketersPercent / 100);\n    }\n\n    /// @notice function of proceed payment\n    /// @dev for only buy new factory\n    /// @return id of new factory\n    function _paymentProceed(uint256 _userId, Factory _factory) private returns(uint256) {\n        User storage user = users[_userId];\n\n        require(_checkPayment(user, _factory.ftype, _factory.level));\n\n        uint256 price = getPrice(FactoryType.Wood, 0);\n        user.balance = user.balance.add(msg.value);\n        user.balance = user.balance.sub(price);\n        user.totalPay = user.totalPay.add(price);\n\n        uint256 index = factories.push(_factory) - 1;\n        factoryToUser[index] = _userId;\n        userToFactories[_userId].push(index);\n\n        // distribute\n        _distributeInvestment(msg.value);\n        _distributeReferrers(_userId, price);\n        _updateLeaders(msg.sender, msg.value);\n\n        emit PaymentProceed(_userId, index, _factory.ftype, price);\n        return index;\n    }\n\n    /// @notice check available investment\n    /// @return true if user does enough balance for investment\n    function _checkPayment(User _user, FactoryType _type, uint8 _level) private view returns(bool) {\n        uint256 totalBalance = _user.balance.add(msg.value);\n\n        if (totalBalance < getPrice(_type, _level)) return false;\n\n        return true;\n    }\n\n    /// @notice level up for factory\n    /// @param _factoryId id of factory\n    function levelUp(uint256 _factoryId) public payable onlyExistingUser {\n        Factory storage factory = factories[_factoryId];\n        uint256 price = getPrice(factory.ftype, factory.level + 1);\n\n        uint256 userId = addressToUser[msg.sender];\n        User storage user = users[userId];\n\n        require(_checkPayment(user, factory.ftype, factory.level + 1));\n\n        // payment\n        user.balance = user.balance.add(msg.value);\n        user.balance = user.balance.sub(price);\n        user.totalPay = user.totalPay.add(price);\n\n        _distributeInvestment(msg.value);\n        _distributeReferrers(userId, price);\n\n        // collect\n        _collectResource(factory, user);\n        factory.level++;\n\n        _updateLeaders(msg.sender, msg.value);\n\n        emit LevelUp(_factoryId, factory.level, userId);\n    }\n\n    /// @notice sell resources of user with type\n    /// @param _type type of resources\n    /// @return sum of sell\n    function sellResources(uint8 _type) public onlyExistingUser returns(uint256) {\n        uint256 userId = addressToUser[msg.sender];\n        uint256 sum = Math.min(users[userId].resources[_type] * getResourcePrice(_type), address(this).balance);\n        users[userId].resources[_type] = 0;\n\n        msg.sender.transfer(sum);\n\n        emit Sell(userId, _type, sum);\n        return sum;\n    }\n\n    /// @notice function for compute worktime factory\n    /// @param _collected_at timestamp of start\n    /// @return duration minutes\n    function worktimeAtDate(uint256 _collected_at) public view returns(uint256) {\n        return (now - _collected_at) / 60;\n    }\n\n    /// @notice function for compute duration work factory\n    /// @param _factoryId id of factory\n    /// @return timestamp of duration\n    function worktime(uint256 _factoryId) public view returns(uint256) {\n        return worktimeAtDate(factories[_factoryId].collected_at);\n    }\n\n    /// @notice function for compute resource factory at time\n    /// @param _type type of factory\n    /// @param _level level of factory\n    /// @param _collected_at timestamp for collect\n    /// @return count of resources\n    function _resourcesAtTime(FactoryType _type, uint8 _level, uint256 _collected_at) public view returns(uint256) {\n        return worktimeAtDate(_collected_at) * (getProductsPerMinute(_type, _level) + getBonusPerMinute(_type, _level)) / 100;\n    }\n\n    /// @notice function for compute resource factory at time\n    /// @dev wrapper over _resourcesAtTime\n    /// @param _factoryId id of factory\n    /// @return count of resources\n    function resourcesAtTime(uint256 _factoryId) public view returns(uint256) {\n        Factory storage factory = factories[_factoryId];\n        return _resourcesAtTime(factory.ftype, factory.level, factory.collected_at);\n    }\n\n    /// @notice function for collect resource\n    /// @param _factory factory object\n    /// @param _user user object\n    /// @return count of resources\n    function _collectResource(Factory storage _factory, User storage _user) internal returns(uint256) {\n        uint256 resources = _resourcesAtTime(_factory.ftype, _factory.level, _factory.collected_at);\n        _user.resources[uint8(_factory.ftype)] = _user.resources[uint8(_factory.ftype)].add(resources);\n        _factory.collected_at = now;\n\n        emit CollectResources(_factory.ftype, resources);\n        return resources;\n    }\n\n    /// @notice function for collect all resources from all factories\n    /// @dev wrapper over _collectResource\n    function collectResources() public onlyExistingUser {\n        uint256 index = addressToUser[msg.sender];\n        User storage user = users[index];\n        uint256[] storage factoriesIds = userToFactories[addressToUser[msg.sender]];\n\n        for (uint256 i = 0; i < factoriesIds.length; i++) {\n            _collectResource(factories[factoriesIds[i]], user);\n        }\n    }\n\n}",
  "sourcePath": "/Users/alexey/Projects/DApps/MyMillions/contracts/MyMillions.sol",
  "compiler": {
    "name": "solc",
    "version": "0.4.24+commit.e67f0147.Emscripten.clang"
  },
  "schemaVersion": "2.0.1",
  "updatedAt": "2018-12-06T17:44:19.356Z"
}